:020000040800F2
:10000000580D002051020008B15100083D3F000882
:10001000514B0008991E0008C5610008000000004F
:1000200000000000000000000000000089580008E7
:100030005D1F000800000000755600088B5800087E
:100040006B0200086B0200086B0200086B020008DC
:100050006B0200086B0200086B0200086B020008CC
:100060006B0200086B0200086B0200086B020008BC
:100070006B0200086B0200086B0200086B020008AC
:100080006B0200086B0200086B0200086B0200089C
:100090006B0200086B0200086B0200086B0200088C
:1000A0006B0200086B0200086B0200086B0200087C
:1000B0006B0200086B0200086B0200086B0200086C
:1000C0006B0200086B0200086B0200086B0200085C
:1000D0006B020008FD600008096100086B0200085F
:1000E0006B0200086B0200086B0200086B0200083C
:1000F0006B0200086B0200086B0200086B0200082C
:100100006B0200086B0200086B0200086B0200081B
:100110006B0200086B020008355900086B020008EA
:100120006B0200086B020008AD1E00086B0200089D
:100130006B0200086B0200086B0200086B020008EB
:100140006B0200086B0200086B0200086B020008DB
:100150006B0200086B0200086B0200086B020008CB
:100160006B0200086B0200086B0200086B020008BB
:100170006B0200086B0200086B0200080000000020
:100180006B0200086B02000800F002F800F051F862
:100190000AA090E8000C82448344AAF10107DA45E2
:1001A00001D100F046F8AFF2090EBAE80F0013F0E3
:1001B000010F18BFFB1A43F001031847FC7D000034
:1001C0001C7E0000103A24BF78C878C1FAD85207C4
:1001D00024BF30C830C144BF04680C6070470000C1
:1001E0000023002400250026103A28BF78C1FBD840
:1001F000520728BF30C148BF0B607047662907F01F
:10020000E685002070471FB507F0D7FD9DE8030085
:1002100001F050F800F012FC04000020002106F06C
:10022000FFFFE06000F00EFD1FBD10B500F073FD94
:1002300010BD00F0DBFD1146FFF7E5FF06F07EFF85
:1002400000F0CAFF03B4FFF7F0FF03BC01F0C4F9EC
:100250000948804709480047FEE7FEE7FEE7FEE75A
:10026000FEE7FEE7FEE7FEE7FEE7FEE70448054996
:10027000054A064B7047000025590008890100080F
:1002800058070020580D0020580900205809002068
:1002900053EA020C00F069802DE9F04B4FF00006A4
:1002A000002B1FBFB3FA83F503FA05F424FA05F611
:1002B0005E4012BF1643B2FA82F502FA05F4C5F1A8
:1002C00020051EBF22FA05FC44EA0C04203556EA3C
:1002D000044C4FEA144418BF641C4FF000084FF060
:1002E0000009904271EB030C39D3002919BFB1FA10
:1002F00081F701FA07F6B0FA80F700FA07F6C7F1BE
:1003000020071EBF20FA07FC46EA0C062037B6FB82
:10031000F4FCA7EB0507103F07F01F0BCBF12006FD
:100320000CFA0BFB2CFA06F644BFB3460026202F2E
:10033000A4BF5E464FF0000B5BEA060C08BF4FF00F
:10034000010B19EB0B09ABFB027C48EB0608C01B49
:1003500006FB02CC0BFB03CC71EB0C01C1E70B4697
:10036000024641464846BDE8F08B13B54FF0000009
:100370004FF00001AFF30080BDE81C407047000063
:100380000FB4044910B503AA029800F045FB10BC55
:100390005DF814FB4C0600200FB47CB50C0009AAD4
:1003A000009001D02044401E084B7B4469460190D8
:1003B000089800F010FB05461CB10020694600F0CB
:1003C0001DFB28467CBC5DF814FB000059060000AC
:1003D0002DE9F0474FF0000A89460446C0F820A0F6
:1003E0002046E1688847002876D0252806D0D4E941
:1003F00001219047206A401C2062F1E7E168204615
:1004000000258847C4F81CA006460027C4F818A099
:100410002A2E09D0304606F069FE38B304EB87086F
:10042000303EC8F8186019E059F8041B204604EB68
:1004300087029161E1688847012F064618D1E0697B
:10044000002820DA25F020051DE0D8F8180000EB80
:10045000800006EB40003038C8F818002046E168FC
:100460008847064606F042FE0028EED1012F0AD04A
:100470002E2E08D12046E16888477F1C0646022FB1
:1004800045F02005C4DBA069002803DA404245F0AE
:100490000105A061E80701D025F01005B6B1A6F16D
:1004A0004100192802D8203645F400654A463146F5
:1004B000204625604D46FFF7A1FE58B1012806D021
:1004C000ED1D25F0070000F1080989E704E005F1BA
:1004D000040985E730468AE7206ABDE8F08710B551
:1004E000203AC0F00B80B1E81850203AA0E818502C
:1004F000B1E81850A0E81850BFF4F5AF5FEA027CED
:1005000024BFB1E81850A0E8185044BF18C918C05B
:10051000BDE810405FEA827C24BF51F8043B40F8FC
:10052000043B08BF7047D20728BF31F8023B48BFE1
:1005300011F8012B28BF20F8023B48BF00F8012B1F
:1005400070474FF0000200B5134694469646203996
:1005500022BFA0E80C50A0E80C50B1F12001BFF47C
:10056000F7AF090728BFA0E80C5048BF0CC05DF8E2
:1005700004EB890028BF40F8042B08BF704748BF30
:1005800020F8022B11F0804F18BF00F8012B7047A4
:1005900070477047704710B500F054FA006810BDFE
:1005A00010B5044600F04EFA046010BD70472DE906
:1005B000FF4F0C461E464FF0FF378BB0D2E90001CB
:1005C000DDF860800A908A46C1F30A5505B93D46B8
:1005D000002108464FF00000BAF1000F00F440007F
:1005E00005DA00EB80004FF4400101EA50004FEAC9
:1005F0009059B9F1010F00DDB9460A9850EA4A0056
:100600000ED044F61050A5F2FF3545432F14B8F133
:10061000000F1ED07542291E1EDDC9F100021CE02C
:10062000B8F1010F4FF0000001D0302103E0F24398
:1006300005E02154401CB042FBDB30460022002183
:1006400021540B99C1F80880C1E900200FB0BDE822
:10065000F08FBD1B6D1CDEE74A4600DA694206A832
:1006600000F07AFA06AB93E8070003AB83E80700D3
:1006700050460A9901F048F88DE80700A0F50050AF
:100680001F3800900398002D0ADD42F21F014A46F0
:100690000844002303A90390684601F0B1FA09E079
:1006A000A0F500504A461F38002303A9039068466E
:1006B00001F0BBFA8DE807000004000C03D04FF0F6
:1006C000FF30410800E01046B8F1000F03D00022CF
:1006D000009215461EE0751E05D400F0B7F93032C1
:1006E00062556D1EF9D5B3460122084302D000229F
:1006F0007F1C04E02078302801D100227F1E002AD0
:10070000099784D01DE0112D07DA00F09FF93032EF
:1007100062556D1C50EA0102F5D1084302D00098E1
:10072000C8B10EE00021681E05E0235C625C6354E2
:100730002254401E491C8142F7DBAB46A81B401ED9
:100740000990002004F80B000B98099AC0F8088063
:10075000C0E9002B7AE711264FF0000857E72DE992
:10076000F04F88460446D21D22F0070191B0D1E92E
:100770000001CDE90A0105F026FD02460B98C00FE5
:1007800001D02D2007E02068810701D52B2002E051
:10079000202101EAC000032A099001D0072A05DBC5
:1007A00003464146204600F097F90BE12078800689
:1007B00001D5E06900E00620B8F1650F814606D05A
:1007C000B8F1660F18D0B8F1670F70D131E0002092
:1007D000B9F1110F009001DB112301E009F10103D0
:1007E0000AAA01A90CA8FFF7E2FEDDE90C700026B9
:1007F00009F10105834647E001204B4600904FF088
:1008000000470AAA01A90CA8FFF7D1FEDDE90DB047
:100810000C995D46002610B909F101000D18B9EBDD
:10082000050003D4C0F1FF3609F10105A5EB09006D
:100830002BE0B9F1010F01DA4FF001090020B9F105
:10084000110F0090484601DD112300E003460AAA7B
:1008500001A90CA8FFF7ABFEDDE90C704D460026A0
:100860008346207800070AD4AB4500DA5D4601A82C
:10087000012D04DD411911F8011C302907D04F4525
:1008800002DA17F1040F04DA012082460FE06D1E30
:10089000EEE7002F02DCED1B3E4403E0781CA8428B
:1008A00000DD7D1CB81B00F1010A4FF000472078E5
:1008B000000703D4AA4501DB4FF0FF3A0021B7F14E
:1008C000004F0DF143088DF8431024D002202B2354
:1008D000002F01DA7F422D230A21021EA0F1010020
:1008E00000DC5FB197FBF1FC97FBF1F201FB1C7C94
:1008F00017460CF1300C08F801CDEEE7A8F1010025
:1009000003702188090501D5452100E06521A0F18A
:10091000010800F8011C09980FA9A1EB0807FF1DA9
:1009200000B10120411901EBEA70A1693844081AAD
:10093000401EA0612078C00602D42046AFF300809C
:10094000099828B1D4E901219047206A401C20620F
:100950002078C00622D52046AFF300801EE0002E8E
:1009600004DBB34502DD01A8805D00E03020D4E95E
:1009700001219047206A401C2062761CAAF10100E8
:100980005FEA000A0AD100F059F8C0680168405CCB
:10099000D4E901219047206A401C2062281EA5F15D
:1009A0000105DCDC07E0D4E9012118F8010B9047D0
:1009B000206A401C2062381EA7F10107F3DC2046A4
:1009C000AFF30080032011B041E6000001694A1C2A
:1009D00002610878704700B58FB0CDE90131002180
:1009E000059105497944CDE9031011466846FFF7A2
:1009F000EFFC0FB000BD0000E5FFFFFF0A6802F842
:100A0000010B0A607047D1E900239A4202D2531CBD
:100A10000B60107070470000074B70B50D467B44AB
:100A2000FFF7D9FF0446284600F008F910B14FF04F
:100A3000FF3070BD204670BD016700000048704760
:100A40001407002000487047F406002030B5B0F1CC
:100A50000A024FEA900E71F100034EEA817EB0EB7C
:100A60000E0061EB91014FEA101E4EEA017E10EB81
:100A70000E0041EB11114FEA102E4EEA016E10EB01
:100A80000E0041EB11214FEA104E4EEA014E10EBE1
:100A90000E0041EB1141401841F100014FEAD00036
:100AA00040EA41704FEAD10110EB80054FEA810422
:100AB00044EA907444EB01046D1944EB0404521BA6
:100AC000A3414FF0000348BF0A3200D530BD401C9F
:100AD00041F1000130BD00002DE9F0411F46044600
:100AE00003260168072A01F4006004DB08B116A59B
:100AF00005E016A503E008B115A500E015A521F055
:100B000010002060A069C01EA0610FB1401EA0614E
:100B10002046AFF300804FB1D4E901213846904719
:100B2000206A401C2062C01C206206E0206AFAE7AE
:100B3000D4E9012115F8010B9047761EF8D2204622
:100B4000AFF30080BDE8F0814E414E006E616E0053
:100B5000494E4600696E66002DE9F047814616460B
:100B60008AB0354878440DC88DE80D003248784485
:100B7000801C03AC0DC884E80D0041F69B3008448E
:100B8000372190FBF1F290FBF1F5A5F1800501FB17
:100B900012041B3C02D56442012000E00020DFF873
:100BA00098A080460027FA44AAF1BE0A0EE0E007AA
:100BB0000AD03246684607EB470101230AEB810160
:100BC00001F033F88DE8070064107F1C002CEED193
:100BD000194F7F44AE3F19E0E80715D007EB04102A
:100BE0000DF1180A90E80E008AE80E00C068F04285
:100BF00001D1981908903246012306A903A801F0F3
:100C000014F803AB83E807006D10641C002DE3D1DA
:100C10004FF0010332466946B8F1000F03A802D035
:100C200000F0EEFF01E001F000F8C9E90001C9F8A9
:100C300008200AB0BDE8F0872C740000007B00F0AB
:100C40008000704710B542485421FFF77AFC4148B4
:100C50005421FFF776FC40485421FFF772FC3F49CE
:100C60003B483C4A3F4B08603D490A603A4919609D
:100C7000531C0365481C1065012008653B48344A35
:100C800039A1784400F00CFA20B9384878440A3881
:100C900000F0ABFA37482F4A35A1784400F000FA4B
:100CA00020B9344878440A3800F09FFA32482A4A7A
:100CB0002FA1784400F0F4F920B92F4878440A387D
:100CC00000F093FA40232248DC000021224600F085
:100CD000C4F920B125487844543800F086FA1D48FC
:100CE00022464023002100F0B8F920B12148784481
:100CF000543800F07AFA184822461023002100F0F8
:100D0000ACF9002806D01C487844BDE8104056389D
:100D100000F06BBA10BD104870B5006D20F00104F2
:100D20000B4800F033FA0B4800F030FA0A4800F0A4
:100D30002DFA09E0206D20F00105204600F026FA8A
:100D4000204600F078F82C46002CF3D170BD00004E
:100D5000F80500204C060020A00600206C000020B2
:100D60007000002074000020720000002673000054
:100D70007700000012730000FE7200000EB5CDE98E
:100D8000000100F009FC029069460120ABBE0EBDD7
:100D900008B5694600900220ABBE08BD1FB58DE8BE
:100DA000070069460520ABBE04B010BD1FB58DE835
:100DB0000F0069460620ABBEF6E708B5694600900D
:100DC0000920ABBE08BD1CB5CDE9000169460A206B
:100DD000ABBE1CBD704708B5694600900C20ABBE89
:100DE00008BD000000487047F40600207546FFF774
:100DF000F9FFAE4605006946534620F007008546D8
:100E000018B020B5FFF732FABDE820404FF00006D9
:100E10004FF000074FF000084FF0000B21F00701E2
:100E2000AC46ACE8C009ACE8C009ACE8C009ACE825
:100E3000C0098D46704770B50446051F00F01EFAC4
:100E40000068002C14BF446870BD002C18BFAC4271
:100E50003CBF20466468F8D301680A18AA4218BF4C
:100E6000456003D12A68054611440160286841198C
:100E7000A1421CBF6C6070BD616869602168084454
:100E8000286070BD2DE9F04705460C46C86820F47F
:100E9000201040F48000C860800602D5084600F0AB
:100EA0003AFBE06841F282014FF0FF39014002292C
:100EB00003D0204600F0D8FAB5E000F42041B1F5A7
:100EC000004F0FD1C00306D56168E06A884200D8A0
:100ED0000846606006E02069E06260606069FFF7D4
:100EE0007AFFA061A0680022EEB200280DDAE16866
:100EF0008B050AD4C043A06041F490302260E060CA
:100F00006068411C61600670A5E0E0689046226060
:100F100040F40050E060206968BB6069FFF74DFF56
:100F2000012704F12405A0B1A08910F4407F08D066
:100F3000E06900F0EEF9206118B1E06840F400606B
:100F400016E0E7612561E06820F4407040F48060BD
:100F50000EE0E06900F0DDF900282061F1D0E068E2
:100F600040F4006010F4407FE06002D140F48070F3
:100F7000E06020696060E06825696FF0010AC105E2
:100F80001FD56168E06A884200D80846411B04D03A
:100F90002246284600F072FAF0BBE068010203D551
:100FA000E562C4E9015854E0691CE1626160E169ED
:100FB00040F48030491EC4E9021030462E70BDE86E
:100FC000F087010202D500F480320AE06068411C1B
:100FD00061600670E0680A2E40F48030E06006D060
:100FE0000022E16A6068814203D90B4602E00122D7
:100FF000F7E70346A7895B1B7F0503D4E7699F4298
:1010000000DDE2B1814200D80146E5620F1AC4E971
:101010000158002B09DD00E005E02246194628466C
:1010200000F02CFA08B14846C9E747B1A069E5626B
:101030006560C01BA061E06840F01000E060E068FF
:10104000000208D56168A069E562491B0844656033
:10105000A0615046B3E73046B1E770B5C468A50754
:1010600013D0650211D4B2F5807F09D0B2F5007FAC
:1010700006D0B2F5806F08D1012300F1240106E00B
:101080005D1E6FF07F46B54201D3012070BD016146
:10109000C361416024F470611143C160002070BDE0
:1010A0002DE9F0410C4607461646104600F06EF852
:1010B0002078611C61280AD0722802D077283CD1A0
:1010C00002E00125002405E00225042402E00824B2
:1010D00048F2020511F8010B2B2806D0622809D02E
:1010E00011F8010C74280AD00BE045F0030544F018
:1010F0000204EFE745F0040544F00104EAE744F098
:10110000100438462146FFF739FE411C15D0002156
:10111000316171604FF40071F560F1617061200719
:1011200004D530460222002100F022F9306D40F053
:10113000010030653046BDE8F0810020FBE72DE975
:10114000F0410D460646104C206DC10704D0410801
:1011500004D020F00104F7E722460EE0542000F00E
:10116000D8F807000ED0206D47F001010843542144
:1011700020653846FFF7E5F93A4629463046BDE88E
:10118000F0418DE70020D6E7F80500202DE9F04773
:1011900004464FF000094FF0FF37C568D4E90486D4
:1011A000A80707D0204600F093F93046FFF7F0FD7E
:1011B000002802DA3846BDE8F087280502D5404607
:1011C000FFF739FE4C212046FFF7BBF9206D20F0D8
:1011D000010020654846EEE710B50446AFF30080F5
:1011E0002046BDE81040FFF72DB810B500F0BAF961
:1011F000BDE8104000F0B0B94FF0013C50F8042BAE
:1012000051F8043B9A4221D1A2EB0C03934313EA19
:10121000CC1317D150F8042B51F8043B9A4215D146
:10122000A2EB0C03934313EACC130BD150F8042B1D
:1012300051F8043B9A4209D1A2EB0C03934313EA01
:10124000CC13DBD04FF00000704700BFD01A01BABA
:10125000B1FA81F101F0180122FA01F0CB40C1F19D
:101260002001DBB2C0B2C01A2CFA01F3D11A9143AB
:1012700011EAC311E6D1704770470000004870477B
:10128000FC060020704770477047704738B5044629
:101290000A4600206946AFF30080002808BF38BD29
:1012A00002460099204600F0A4F9012038BD012033
:1012B00000F0F3B9F8B5AFF30080054600200C4606
:1012C000102000BF0646A819A0420DD93246694633
:1012D0000020AFF30080070008BF00F0DEF900989F
:1012E000A04218BF0546C419FFF7C8FF05600746AE
:1012F000F01D20F007004619284600F073F9B442AB
:1013000008BFF8BDA21B31463868BDE8F84000F0C0
:1013100070B970B50646FFF7B1FF056806F10B001E
:1013200020F00704B4429CBF002070BD2B466A68C1
:10133000BAB11068A04210D304F1080188423CBF42
:101340005068586007D35168101941601168091B33
:10135000016058601460101D70BD13465268002A69
:10136000E7D121462846FFF791FF0028DED170BD66
:101370002DE9F041044616460D464769007B80077B
:101380002ED03846FFF719FD50BB3EB3012E02D0D8
:10139000022E25D104E0204600F045F905441DE069
:1013A0003846FFF718FDE168002841F01001E160C0
:1013B00005DA204600F058F80120BDE8F081C903A5
:1013C0000BD56268E16A914200D81146A2691144C6
:1013D0002269891A814200DD08460544002D01DAA0
:1013E0000220EAE7E16A6068E268814206D291037E
:1013F000E06203D522F4003141F01002A669002713
:10140000AE4213DCE16A814201D90B4600E003469B
:1014100003EB060C2369ACEB030CAC4506DD814203
:1014200001D98C4600E084469C4505D1A760276021
:1014300042F02000A5620DE0AD1BE669AE1B8142C3
:10144000A66000D90846C01A281A206058196060A2
:1014500022F0200003490840E060002084F8487032
:10146000ABE70000BFCFD7FFC16821F4001141F006
:101470008001C16000218160016070472DE9F04763
:10148000814614460E464FF0FF383248D5685769FA
:10149000054209D03846A169FFF795FC002811DB09
:1014A0002C48C0430540E5602B4632464946384645
:1014B000FFF774FCA16920F00042B21A1144002821
:1014C000A16103D02046FFF7CFFF4046BDE8F0877B
:1014D00070B504460569C06A6168884200D808464C
:1014E000E16821F42011E160C90312D5A84208D0B7
:1014F0002246411B2846FFF7C1FF10B14FF0FF30D5
:1015000070BD0020E562C4E90150E06820F480303D
:10151000E060002070BD10B50446C06820F02000D7
:10152000E060A16AA06988420DD02046FFF7D0FF95
:10153000E06820F4405040F01000E060A06AA06134
:101540002069E062606044F24001E0688843E06046
:1015500010BD000010000200002801D000F03CB8CF
:101560007047000010B5014602A000F07DF8012090
:1015700010BD000053494752545245443A20526529
:101580006469726563743A2063616E2774206F70BA
:10159000656E3A200000000010B5431C02E010F810
:1015A000011B71B18107FAD14FF0013202C88C1AC8
:1015B0008C4314EAC211F9D0C01A0A0603D0C01E27
:1015C00010BDC01A10BD0A0401D0801E10BD090252
:1015D000FCD0401E10BD000001491820ABBEFEE744
:1015E0002600020000210160C0E9011070471020B0
:1015F0007047034640688C46002818BF88423CBFAD
:1016000003464068F8D318681844884207D00CF1A4
:10161000030020F00700001D411A521A0146081D60
:101620000A60FFF708BC10B50146C268900703D0F6
:10163000900607D5886A0AE0FFF704FA01210160E5
:10164000881E10BD8B69486818440B69C01A91F850
:1016500048301BB191F84910401A10BD1103FCD558
:101660000028FADD401E10BD70B505460C460A2064
:1016700000E06D1C00F018F835B128780028F8D18A
:1016800002E0641C00F010F814B120780028F8D1B2
:10169000BDE870400A2000F007B810B500F00CF863
:1016A000BDE81040FFF758BF08B569468DF8000047
:1016B0000320ABBE08BD000010B5012805D00021F5
:1016C00003A0FFF7D1FF012010BD09A1F8E700003A
:1016D00053494752544D454D3A204F7574206F661B
:1016E0002068656170206D656D6F72790000000083
:1016F0003A2048656170206D656D6F727920636F67
:1017000072727570746564005FEA400C08BF91F0F6
:10171000000F4FEA8C234FEAC12243EA51514FEAAE
:101720001C5018BF00F5F0404FEA300018BF41F0E0
:1017300000415FEA6C5C00F02980BCF1FF3F08BF0C
:1017400040F080407047130C06BF12044FF0100C9D
:101750004FF0000C130E04BF12020CF1080C130F13
:1017600004BF12010CF1040C930F04BF92000CF1A2
:10177000020CD30F04BF52000CF1010C11464FF0C4
:101780000002A0F11F00A0EB0C00704711F0004F09
:1017900008BF704731F000413FF4D5AF0B0C06BFD6
:1017A00009044FF0100C4FF0000C0B0E04BF09029F
:1017B0000CF1080C0B0F04BF09010CF1040C8B0F8A
:1017C00004BF89000CF1020CCB0F04BF49000CF1DF
:1017D000010CCCF12003A0EB0C0022FA03F302FA77
:1017E0000CF241EA030100F10100704720F07F4C48
:1017F00080EA030023F07F47ACEB070303F57C533B
:1018000000F0004003F1FF032DE980494FEA154B3A
:1018100009B44FEA144325EA0B4E24EA03480FF2B9
:10182000042606EB132749083E785FEA320203FBE1
:101830000667C7F5000707FB06F64FEA54374FEA7D
:10184000D64606F1020607FB066CCCF1005C4FEAB7
:101850001C472CEA074C07FB06F40CFB06F504EBCF
:1018600015464FEA961634BF00204FF000404FEA6D
:10187000D13706FB07FC4FEA1C4C0CFB0BF7D21BC5
:1018800003FB0CF761EB07010CFB0EF7B0EB074015
:1018900072EB17420CFB08F734BFA2EB0742B2EB26
:1018A000074261EB17414FEA0C444FEA910706FBF0
:1018B00007FC4FEA1C4C0CFB0BF7B0EBC74072EB7C
:1018C000573203FB0CF734BFA2EBC742B2EBC7425F
:1018D00061EB57310CFB0EF7B0EBC70072EB5772A0
:1018E0000CFB08F734BFA2EBC702B2EBC70261EBF7
:1018F0005771039F4FEA816141EA921104EBCC04D6
:101900004FEAD1374FEA826206FB07FC42EA9012A7
:101910004FEA80604FEA1C4C0CFB0BF7D21B03FB19
:101920000CF761EB07010CFB0EF7B0EB074072EB15
:1019300017420CFB08F734BFA2EB0742B2EB074299
:1019400061EB17414FEA8C554FEA910704EB9C2459
:1019500006FB07FC4FEA1C4C0CFB0BF7B0EBC74037
:1019600072EB573203FB0CF734BFA2EBC742B2EB6A
:10197000C74261EB57310CFB0EF7B0EBC70072EBBF
:1019800057720CFB08F734BFA2EBC702B2EBC702D9
:1019900061EB577115EB4C254FEA816141EA9211D9
:1019A0004FEA82624FEAD13742EA901206FB07FC07
:1019B00044F100044FEA80604FEA1C4C0CFB0BF72B
:1019C000D21B03FB0CF761EB07010CFB0EF7B0EB2E
:1019D000074072EB17420CFB08F734BFA2EB07423B
:1019E000B2EB074261EB174115EB1C154FEA813151
:1019F00041EA92414FEA823242EA90424FEA803015
:101A00004FEA0C7644F1000448EA03434EEA0B48DF
:101A10004FF0000EB2EB080C71EB030724BF6246D7
:101A200039464EEB0E0E4FF0000B00185241494163
:101A30004BEB0B0BB2EB080C71EB03077BF1000BCC
:101A400024BF624639464EEB0E0E4FF0000B0018D5
:101A5000524149414BEB0B0BB2EB080C71EB030706
:101A60007BF1000B24BF624639464EEB0E0E51EA65
:101A7000020718BF46F0010616EB0E7655F100027C
:101A800054F1000103D5BDE88901BDE80088BDE837
:101A90008901BDE80048B619524141EB0101A3F1AB
:101AA0000103704780807F7E7D7C7B7A79787776B2
:101AB00076757473727171706F6E6E6D6C6C6B6A2B
:101AC0006A696868676666656464636362616160C9
:101AD000605F5F5E5E5D5D5C5C5B5B5A5A59595846
:101AE00058575756565555555454535352525251B0
:101AF000515050504F4F4F4E4E4D4D4D4C4C4C4B06
:101B00004B4B4A4A4A49494948484847474747464C
:101B10004646454545444444444343434342424288
:101B200042414141002B9C4630D477002BD01CB55C
:101B30004FEA370703B44FF010004FF01001BAF12D
:101B4000000F06D0BCF1000FDCBF40F0080040F0F1
:101B500008014FF000000FBCBDE810400BF1010B75
:101B6000BBF1010F08BF5FEA170722BF12F10102A4
:101B700011F101014FF0004143F1000300F000407A
:101B800043EA00007047F9D35708D0E746EA064613
:101B900013F1400F4FEA16461FDD13F1200FDFBF90
:101BA00016430A46002120335B42BED0C3F1200712
:101BB00046EA064602FA07F74FEA164646EA0706DD
:101BC000C3F1200722FA03F201FA07F721FA03F121
:101BD0004FF0000342EA0702A7E746EA020646EA98
:101BE00006464FEA164646EA0106BCBF46EA0646E6
:101BF000360C4FF000034FF000024FF0000194E765
:101C00002DE9804C9A46934670B491E8380007C895
:101C100031EA400C48BF34EA430C03D5FFF7E6FD38
:101C2000FFF780FFF0BCBDE8008C2DE9804C9A46A0
:101C3000934670B491E8380007C810F0804F08BF91
:101C400013F0804F03D100F005F8FFF76BFFF0BCF5
:101C5000BDE8008C20F07F4780EA030023F07F4C32
:101C600007EB0C03A3F57C5300F00040A3F1FE0347
:101C700092F0000F00F0B38095F0000F00F0778035
:101C80002DE901494FEA11404FEA144621EA004884
:101C900000FB06FC24EA064708FB06F607FB08F8EB
:101CA00000FB07F718EB06484CEB164C4FEA124BBB
:101CB00018EB07484FEA15464CEB174022EA0B4E4B
:101CC0000BFB06FC25EA06470EFB06F607FB0EFE9D
:101CD0000BFB07F71EEB064E4CEB164C4FF00006C5
:101CE0001EEB074E4CEB174B18EB0B0840F10000B6
:101CF00018EB0E0B58EB000840F100008F1A4FF064
:101D000000013CBFC943661B14BFB5EB040C0021A6
:101D10003CBFC943F61B4FEA17444EEA8E0E27EA32
:101D200004454FEA1C4704FB07622CEA074C05FBFD
:101D300007F70CFB05F604FB0CFC16EB074642EB21
:101D4000174216EB0C4642EB1C421BEB060658EB07
:101D50000202414146EA9E0601D5BDE80189B61955
:101D6000524141EB0101A3F10103BDE801894FEAB2
:101D700014454FEA114724EA054621EA074C05FBC2
:101D800007F406FB07F70CFB06F105FB0CFC11EB57
:101D9000074144EB17444FEA124711EB0C4144EB67
:101DA0001C4422EA074C05FB07F206FB07F70CFB75
:101DB00006F605FB0CFC16EB074642EB174216EB4A
:101DC0000C4642EB1C456A1854F1000148BF7047AD
:101DD000B619524141EB0101A3F10103704795F09F
:101DE000000F37D04FEA11424FEA144721EA02466A
:101DF00024EA074C02FB07F106FB07F70CFB06F48D
:101E000002FB0CFC14EB074441EB17414FEA15476A
:101E100014EB0C4441EB1C4125EA074C02FB07F58F
:101E200006FB07F70CFB06F602FB0CFC16EB07465D
:101E300045EB174516EB0C4645EB1C42121951F1C8
:101E4000000148BF7047B619524141EB0101A3F1AF
:101E5000010370474FEA14454FEA114724EA05464B
:101E600021EA074C05FB07F106FB07F70CFB06F21E
:101E70004FF0000605FB0CFC12EB074241EB17414B
:101E800012EB0C4251EB1C4148BF7047921841EBDA
:101E90000101A3F101037047FEE782780188C07851
:101EA00062F31F4141EA006070470000014800F002
:101EB00051B900000804002001681823CAB2103A82
:101EC000B2FBF3F2054B6FF30901032A9B5CC36578
:101ED00000D9091D8165084670470000E27D0008B1
:101EE00010B5014600208B698A6A4FF0C07453B167
:101EF000B3F5005F15D072B1012A0CD0022A0AD0C6
:101F0000032A09D104E01AB1012A06D0022A03D11A
:101F1000C96AC90100D5012010BDC96AA142FAD021
:101F200010BD002AF7D0012AF2D0022AF3D0032AEA
:101F3000F3D010BD30B50468256825F480252560F0
:101F4000046863608368402B036803D0996000686D
:101F5000C26030BD9A600068C16030BD704700004B
:101F6000042802D39FED040A7047044901EB800066
:101F700090ED000A7047000000000000980000206B
:101F8000042802D39FED060A704706499FED061A02
:101F900001EB8000D0ED000A80EE810A704700005E
:101FA0000000000098000020C9755F43104910B57B
:101FB0000020086048608860C860086148618861E6
:101FC000C861086248628862C8623C21094801F021
:101FD00081FA3C21084801F07DFA3C21074801F0D4
:101FE00079FABDE810403C21054801F073BA0000C1
:101FF0007800002080010020C8010020100200208D
:1020000058020020FCB51E480068406AADF8000088
:102010001C480068406AADF802001B480068406A2E
:10202000ADF8040019480068406A194AADF8060086
:102030009FED181A00206D46A2F11003F2EE040A7B
:1020400002F1100635F8104032F8201053F82070D5
:10205000611A09B200EE101A0F4443F82070B8EE6E
:10206000C00A42F8204006EB8001401C20EE010A25
:10207000C0B20428C0EE201AC1ED001AE2D3FCBDA4
:1020800080010020C801002010020020580200201A
:102090008800002000007A4472B6FEE72DE9F04186
:1020A0000446876D00F0C6FA064694F83500002510
:1020B000022806D08020606584F834500120BDE8F5
:1020C000F0812068016821F01601016020684169F3
:1020D00021F080014161206C08B9A06C20B120681A
:1020E000016821F0080101602068016821F0010108
:1020F00001600CE000F09EFA801B052807D9202023
:102100006065032084F8350084F83450D7E72068F0
:102110000068C007EED194F85C103F208840B8609A
:10212000012084F8350084F834500020C7E790F887
:102130003510022903D08021416501207047052117
:1021400080F835100068016821F00101016000206D
:10215000704700002DE9F84304464FF00009CDF820
:10216000009063484FF41651A56D0068B0FBF1F77D
:102170002E6894F85C10082000FA01F131420FD06B
:1021800021680A6852070BD50A6822F004020A6027
:1021900094F85C108840A860606D40F001006065B4
:1021A00094F85C104FF0010808FA01F0304208D0B2
:1021B00021684969090604D5A860606D40F00200F5
:1021C000606594F85C1004208840304208D0216893
:1021D0000968890704D5A860606D40F00400606557
:1021E00094F85C1010208840304218D021680968AB
:1021F000090714D5A86020680168490304D5006860
:10220000000308D5A16C07E00168C90503D4016883
:1022100021F008010160216C09B12046884794F83B
:102220005C1020208840304231D021680968C906FE
:102230002DD5A86094F8350005282068016806D0DF
:10224000490347D5006800031DD4616C1CE021F0F0
:10225000160101602068416921F080014161206C14
:1022600008B9A06C20B12068016821F00801016064
:1022700094F85C103F208840A86084F8358084F88A
:102280003490216D1FE0E16B09B120468847606DF5
:1022900000282BD0606DC00714D0052084F83500CD
:1022A0002068016821F0010101600098401C009045
:1022B000B84203D820680068C007F6D184F835809A
:1022C00084F83490E16C002910D001B02046BDE8BC
:1022D000F04308470168C905D5D4016821F0100111
:1022E000016084F8358084F83490CCE7BDE8F88349
:1022F000680000202DE9F041044600F09BF90646F5
:102300005CB1022084F83500002584F83450206840
:10231000016821F0010101600DE00120BDE8F081BC
:1023200000F088F9801B052805D92020606503206E
:1023300084F83500F2E720680068C007F0D1226811
:10234000116820480140D4E901031843D4E9033659
:102350003343184363691843A3691843E369184377
:10236000236A18430843616A042903D1D4E90B1393
:1023700019430843106020684069666A20F007012D
:1023800030460E43012704280CD1A06A0643E06AB8
:1023900040B12046FFF7A4FD20B14020606584F8DD
:1023A0003570BAE7206846612046FFF785FD94F84E
:1023B0005C203F2191408160656584F83570002084
:1023C000ACE700003F8010F02DE9F0410446866D37
:1023D00090F83400002501280DD0012084F8340045
:1023E00094F835700020012F07D084F834000225BE
:1023F0002846BDE8F0810220FBE7022784F835700B
:1024000060652046FFF796FD94F85C103F208840F9
:10241000B0602068016841F016010160206C20B1B5
:102420002068016841F0080101602068016841F0FE
:1024300001010160DCE700002DE9F84FDFF8BCA1E5
:102440000022012503264FF00F090AF1040BAAF11F
:10245000040E00BF0B6805FA02F42340A34270D1BA
:102460000F7907F00307012F01D0022F16D18768DB
:102470004FEA420806FA08FC27EA0C07D1F80CC01C
:102480000CFA08FC4CEA070CC0F808C04768A743E0
:102490000C79C4F3001494403C4344600C79E44349
:1024A000A4070AD0C4684FEA420C06FA0CF7BC43F2
:1024B0008F6807FA0CF72743C7600C7904F0030410
:1024C000022C12D1D40800EB840CDCF82040570712
:1024D000FF0E09FA07F824EA0804D1F8108008FA78
:1024E00007F848EA0408CCF8208004684FEA420C58
:1024F00006FA0CF7BC430F7907F0030707FA0CF74D
:10250000274307604C6814F4403F70D03C4C276868
:1025100047F480472760246822F0030704F48044CE
:102520000094384C07EB040CDCF8084897074FEA96
:10253000177809FA08F7BC43334FB84202D1002795
:1025400024E054E0314FB84201D101271EE0304F62
:10255000B84201D1022719E02E4FB84201D103271A
:1025600014E02D4FB84201D104270FE02B4FB842A1
:1025700001D105270AE02A4FB84201D1062705E01C
:10258000284FB84201D1072700E0082707FA08F7CB
:102590002743CCF80878DAF800405746D1F804C051
:1025A0009C435FEACC2C00D51C433C60DBF8004028
:1025B0005F46D1F804C09C435FEA8C2C00D51C43D5
:1025C0003C60DEF800407746D1F804C09C435FEAE7
:1025D0008C3C00D51C433C60084F083F3C68D1F858
:1025E00004C09C435FEACC3C00D51C433C60521CB9
:1025F000102AFFF42FAFBDE8F88F0000083C01401F
:102600004438024000300140000002400004024013
:1026100000080240000C024000100240001402407A
:1026200000180240001C02400AB181617047090491
:10263000FBE7000001488068704700005C00002054
:102640000248816802781144816070475C00002074
:102650000B4810B5016841F400710160016841F454
:1026600080610160016841F480710160032000F025
:102670006FF80F2000F006F800F024F8002010BDDD
:10268000003C024070B50D4D04464FF47A71287835
:10269000B1FBF0F00A490968B1FBF0F000F096FCDC
:1026A00048B9102C07D200222146501E00F030F805
:1026B00000206C6070BD012070BD00005C00002037
:1026C000680000200A4808B5016841F480410160B3
:1026D000006800F4804000900548001F016841F048
:1026E00080510160006800F08050009008BD00003B
:1026F00044380240002809DB00F01F02012191400C
:102700004009800000F1E020C0F80011704700008F
:10271000F0B40E4B1B680C46C3F30223C3F107054C
:10272000042D00D90425191D072901D2002300E03A
:10273000DB1E012606FA05F1491E214099409E4004
:10274000761E16403143F0BC03F068BD0CED00E08E
:10275000064900F0070208684FF6FF03184040EAF8
:102760000220034A10430860704700000CED00E0AF
:102770000000FA052DE9F0470E46050065D0DFF8A8
:102780001481D8F80000F7B200F00700B04207D279
:1027900088F80070D8F8000000F00700B04254D16B
:1027A00028683D4C810712D5400703D5206840F4C6
:1027B000E05020602878000703D5206840F460408E
:1027C00020602068A96820F0F00008432060287885
:1027D000C0072DD0304968680839012812D0022876
:1027E00013D0032811D00968890700292DDA216840
:1027F00021F0030101432160FFF71CFF814641F2F4
:10280000883A0EE009688903EFE709688901ECE777
:10281000FFF710FFA0EB0901514502D90320BDE8E5
:10282000F0872068696800F00C00B0EB810FEFD1F1
:10283000D8F80010404601F00701B14207D90770EF
:10284000006800F00700B04201D00120E7E72878D7
:10285000400705D52068E96820F4E050084320606F
:102860002878000706D52068296920F4604040EAEE
:10287000C100206000F038F82168084AC1F3031154
:10288000515CC8400649086006480068FFF7FAFE38
:102890000020C4E7003C024008380240EA7D0008FE
:1028A00068000020600000200448054900680968AD
:1028B000044AC1F38221515CC8407047680000207F
:1028C00008380240FA7D0008044805490068096894
:1028D000044AC1F34231515CC8407047680000208F
:1028E00008380240FA7D0008154810B5006810F05D
:1028F0000C02144813D04110042A0FD0082A0ED11C
:102900000F4C241F2268236802F03F025B0207D5A8
:102910002068C0F38810A0FB010106E0084610BD46
:102920002168C1F38811A1FB00010023FDF7B0FC71
:102930002168C1F30141491C4900B0FBF1F010BD11
:10294000083802400024F4002DE9F84F04006ED04E
:102950002078DFF84C93C007A9F104054AD009F1AB
:1029600004000168C1F38101012908D00068C0F3A7
:10297000810002280AD1D9F80000400206D5286853
:10298000800337D560680028E1D033E06068B0F597
:10299000803F10D0B0F5A02F286810D020F48030F0
:1029A0002860286820F4802028606068A8B1FFF7BC
:1029B00041FE06460DE0286840F48030F4E740F41C
:1029C00080202860F7E700BFFFF734FE801B6428F3
:1029D00073D828688003F7D50CE0FFF72BFE064676
:1029E00005E000BFFFF726FE801B6428F0D82868AA
:1029F0008003F7D42078DFF8AC8280074FF0000A1C
:102A00003ED5A748001D016811F00C0F08D00068E2
:102A1000C0F3810002280BD1D9F80000400207D48E
:102A20002868800716D5E068012800D112E033E15C
:102A3000E068B8B10120C8F80000FFF7FBFD0646CA
:102A400005E000BFFFF7F6FD801B0228C0D828680C
:102A50008007F7D52868216920F0F80040EAC10016
:102A600028600DE0C8F800A0FFF7E4FD064604E08A
:102A7000FFF7E0FD801B02281FD828688007F7D4E5
:102A80002078000722D5864F87486169703771B179
:102A900001210160FFF7CEFD064604E0FFF7CAFD05
:102AA000801B022809D838688007F7D50EE0C0F8E7
:102AB00000A0FFF7BFFD064605E082E0FFF7BAFD84
:102AC000801B02287DD838688007F7D4207840071B
:102AD00068D5DFF8CCB100270BF13C0BDBF8000028
:102AE000C0000BD4DBF8001041F08051CBF800108F
:102AF000DBF80000012700F0805000906B4E30683A
:102B0000C00510D4306840F480703060FFF792FD4B
:102B1000009005E0FFF78EFD0099401A022850D87A
:102B20003068C005F6D55E4EA0686C3601280FD01F
:102B30000528306810D020F001003060306820F0A7
:102B400004003060A068B8B1FFF774FD00900FE09A
:102B5000306840F00100F4E740F004003060F7E72F
:102B6000FFF768FD0099411A41F28830814266D82A
:102B700030688007F4D50EE0FFF75CFD009007E0B9
:102B8000FFF758FD0099411A41F28830814256D82A
:102B900030688007F4D42FB1DBF8001021F08051A9
:102BA000CBF80010A069C8B33D49091D0968C1F3FD
:102BB000810102294AD00228504607D0C8F8600097
:102BC00000E03CE0FFF736FD04463BE04746C8F82E
:102BD0006000FFF72FFD064605E000BFFFF72AFD66
:102BE000801B02282BD828688001F7D4D4E907017C
:102BF0000843A16A2E4A490802EB0141626A41EA90
:102C00008211084394F82C1040EA0161C9F80010C1
:102C100001203866FFF70EFD044606E03EE000BFE7
:102C2000FFF708FD001B022809D828688001F7D5A6
:102C300034E000BFFFF7FEFC001B022802D903208E
:102C4000BDE8F88F28688001F4D427E00128F7D088
:102C5000D9F80000E26900F4800191421CD1226A97
:102C600000F03F01914217D147F6C071626A0140FE
:102C7000B1EB821F10D1A26A4FF0FF3300F4403154
:102C800003EB5202B1EB024F06D194F82C1000F086
:102C90007060B0EB016F01D00120D1E70020CFE7D9
:102CA0000438024000004742800E47420070004056
:102CB0000000FFFF70B5040009D0606A002540B134
:102CC00025616561A56294F8510040B10CE00120D6
:102CD00070BD6068B0F5827FF4D0E561F2E784F8FA
:102CE0005050204600F044F8022084F8510020683B
:102CF000016821F040010160A088218900F4827000
:102D000001F404410843A18901F400610843217CD6
:102D100001F002010843217D01F001010843218BEC
:102D200001F400710843217F01F03801084394F851
:102D3000201001F080010843218D01F40051084367
:102D400021680860A069042101EA104094F8241069
:102D500001F010010843216848602068C16921F42E
:102D60000061C1616565012084F85100002070BDDB
:102D700010B586B0044614216846FDF7E2FB1449FD
:102D80002068884221D113480021026842F4804221
:102D90000260006800F4804005900E481038026818
:102DA00042F002020260006800F0020005904FF459
:102DB000604000900220CDE901010320039005202E
:102DC000049069460448FFF737FB06B010BD0000C9
:102DD0000038004040380240000402402DE9FF4F17
:102DE00081B01D46934604464FF001090E9EFFF741
:102DF00021FC074694F851006168012806D0B1F51E
:102E0000827F3CD1A168C9BB042838D10298002830
:102E100071D0BBF1000FFBD0002DF9D094F8500019
:102E200001282CD04FF0010A84F850A094F85100EA
:102E3000042802D0052084F851004FF00008C4F89F
:102E40005480C4F838B0E587A58702992163E586E8
:102E5000A586C4F84080C4F844802068016849060B
:102E600003D4016841F040010160E068B0F5006FF3
:102E7000606808D0F0B3012D49D081E0FFE702205F
:102E800005B0BDE8F08F08B1012D39D1206B216864
:102E90000088C860206B801C2063E08E401EE086A6
:102EA0002EE02068816889070FD5E18E69B1B9F1FC
:102EB000010F0AD1216B0988C160206B801C20633F
:102EC000E08E401EE0864FF0000920688168C90747
:102ED0000CD0E18F51B1C068A16B0880A06B801C41
:102EE000A063E08F401EE0874FF00109FFF7A2FBCF
:102EF000C01B01E00BE067E0B04201D3701C50D171
:102F0000E08E0028CDD1E08F0028CAD13EE0206BB2
:102F1000216800780873206B401C2063E08E401EFF
:102F2000E0862DE02068816889070FD5E18E69B1C0
:102F3000B9F1010F0AD1216B09780173206B401C94
:102F40002063E08E401EE0864FF000092068816813
:102F5000C9070CD0E18F51B1C068A16B0870A06B9C
:102F6000401CA063E08F401EE0874FF00109FFF78F
:102F700061FBC01BB04202D3701C01D011E086B1CE
:102F8000E08E0028CED1E08F0028CBD13A463146E2
:102F9000204602F0E5FB50B12020606584F85080A7
:102FA00012E084F851A084F85080032068E7A068FC
:102FB00018B92068C1688068009084F851A084F82E
:102FC0005080606D0028F1D0012059E710B5401EF7
:102FD000B0F1807F01D3012010BD4FF0E02460618B
:102FE0000F21601703F01AF90020A061072020616B
:102FF000002010BD7047704710B590F83C20012AA2
:1030000022D0012280F83C20CA688C6822F44072E9
:1030100022434C6822F4806222430C6822F400624E
:1030200022430C6922F4805222434C6922F400525C
:103030002243C969002322F480420A4301684A649A
:1030400080F83C30002010BD022010BD70B590F813
:103050003C20012A32D0012480F83C40022280F832
:103060003D2003685A689D6822F070060A68324362
:103070005A60134B02689A4214D0B2F1804F11D0BB
:10308000104B9A420ED0104B9A420BD00F4B9A42E3
:1030900008D00F4B9A4205D00E4B9A4202D00E4BED
:1030A0009A4204D1496825F080031943916080F861
:1030B0003D40002180F83C10084670BD022070BDE4
:1030C000000001400004004000080040000C0040E7
:1030D00000040140004001400018004010B5040009
:1030E00003D094F83D0010B107E0012010BD00208E
:1030F00084F83C00204600F01FF8022084F83D00D0
:10310000211D206802F01CFC012084F8460084F890
:103110003E0084F83F0084F8400084F8410084F8C1
:10312000420084F8430084F8440084F8450084F8A1
:103130003D00002010BD000008B50068114988421C
:1031400012D11148016841F01001016000680022AD
:1031500000F01000009011463620FFF7D9FABDE8C4
:1031600008403620FFF7C6BA0849884209D1064808
:10317000001D016841F002010160006800F00200DA
:10318000009008BD0010004040380240000401409B
:1031900090F83D10012901D001207047022180F8EC
:1031A0003D100168CA6842F00102CA600068114916
:1031B000884214D0B0F1804F11D00F4988420ED010
:1031C0000E4988420BD00E49884208D00D498842EA
:1031D00005D00D49884202D00C49884204D181684B
:1031E00001F00701062903D0016841F001010160E7
:1031F000002070470000014000040040000800402B
:10320000000C004000040140004001400018004054
:1032100070B5044690F83C000025012817D001261F
:1032200084F83C60022084F83D002068826822F027
:10323000770222F47F4282600868502838D00DDC83
:1032400020284FD005DC90B3102811D14AE002208D
:1032500070BD302846D040280AD13BE060282FD0EE
:1032600070280DD0B0F5805F03D0B0F5005F12D0AC
:10327000012584F83D60002084F83C00284670BD9C
:10328000CB68D1E90121206802F0CFFB206881687A
:1032900041F0770109E0CB68D1E90121206802F013
:1032A000C4FB2068816841F480418160E1E719E056
:1032B000CA684968206802F08DFC5021206806E049
:1032C000CA684968206802F096FC6021206802F014
:1032D000B6FBCEE7CA684968206802F07BFC402153
:1032E0002068F4E7226801461046F0E72DE9F04136
:1032F0000D46040003D094F83D0018B108E0012009
:10330000BDE8F081002084F83C00204600F040F841
:10331000022084F83D002068816844F2070291434E
:103320008160211D206802F00BFB22689068916982
:10333000166A2B68AF69034340F20330814341EAC8
:103340000721A868EF6908434FF6FC418843E96804
:1033500040EA0720014328692F6A000140EA07304C
:10336000084369686D6926F0AA0646EA05152943EF
:1033700093602268906154F8460B0162012004F8C2
:103380001F09E0752076E0762077A0750020B7E76A
:10339000F0B587B0044614216846FDF7D2F84749D6
:1033A00023680024454810390225454A454EB3F1AB
:1033B000804F1FD0DFF810C1C027634546D1036896
:1033C00043F002030360006800F002000590086803
:1033D00040F00100086008680097CDE9015400F052
:1033E0000100CDE90450694603941046FFF724F824
:1033F00007B0F0BD036843F001030360006800F00C
:1034000001000590086840F001000860086800F0BD
:1034100001000590086840F0020008600868012774
:1034200000F00200059020200090CDE90154CDE984
:10343000034769461046FEF7FFFF08200090CDE9DC
:103440000154CDE9034769463046CFE7DFF87CC039
:10345000634517D1026842F004020260006800F080
:1034600004000590086840F00200086008680097B2
:10347000CDE9015400F00200CDE9045069460394FF
:103480003046B3E7124EB342B2D1036843F00803AB
:103490000360006800F008000590086840F0010033
:1034A00008600868694600F001000590032000905C
:1034B000CDE901541046CDE9034597E74038024075
:1034C00000000240000402400004004000080040E8
:1034D000000C004070B590F83E60044690F83F50F4
:1034E00090F8423090F84320022021B104290ED0F8
:1034F000012E1BD114E0012E18D1012B16D184F816
:103500003E0084F8420001220021206820E0012DC5
:103510000CD1012A0AD184F83F0084F8430014E05A
:10352000012D03D1012B01D1012A01D0012070BD51
:1035300084F83E0084F83F0084F8420084F8430099
:1035400001220021206802F063FA01220421206890
:1035500002F05EFA2068016841F00101016000207C
:1035600070BD70472DE9F04104460068C6680569E2
:103570004FF00007A90713D5B10711D5F91E016156
:1035800001202077206880698007204602D0FFF75D
:10359000E8FF04E000F0A8F8204600F03AF92777A9
:1035A000680716D5700714D521686FF0040008610C
:1035B000022020772068806910F4407F204602D0E6
:1035C000FFF7CFFF04E000F08FF8204600F021F96C
:1035D0002777280715D5300713D521686FF0080025
:1035E0000861042020772068C0698007204602D047
:1035F000FFF7B7FF04E000F077F8204600F009F984
:103600002777E80616D5F00614D521686FF010006C
:103610000861082020772068C06910F4407F2046A8
:1036200002D0FFF79EFF04E000F05EF8204600F0B5
:10363000F0F82777E80708D0F00706D021686FF088
:1036400001000861204600F049F9280608D5300637
:1036500006D521686FF0800008612046FFF7CAFC9C
:10366000680608D5700606D521686FF0400008612D
:10367000204600F047F9A8060AD5B00608D521680B
:103680006FF0200008612046BDE8F041FFF7B3BCB1
:10369000BDE8F08110B586B0044614216846FCF7F9
:1036A00050FF0E492068884216D10D48002102685B
:1036B00042F004020260006800F0040005904FF43C
:1036C000707000900220CDE901010320CDE90310C4
:1036D00069460448FEF7B0FE06B010BD0004014084
:1036E0003038024000080240704770B5044690F838
:1036F0003C0000260D4601280FD0012084F83C0034
:103700006AB1042A1DD0082A2FD00C2A3FD00126E6
:10371000002084F83C00304670BD022070BD206857
:1037200002F096F92068816941F008018161206802
:10373000816921F004018161206881692A6911434E
:1037400011E0206802F0B4F92068816941F4006159
:1037500081612068816921F48061816120688169CB
:103760002A6941EA02218161D2E7206802F0D6F994
:103770002068C16941F00801C1612068C16921F078
:103780000401C1612068C1692A69114311E0206800
:1037900002F0F8F92068C16941F40061C161206854
:1037A000C16921F48061C1612068C1692A6941EA67
:1037B0000221C161ACE710B5040003D094F83D00CC
:1037C00010B107E0012010BD002084F83C00204625
:1037D00000F01EF8022084F83D00211D206802F050
:1037E000AFF8012084F8460084F83E0084F83F00DA
:1037F00084F8400084F8410084F8420084F84300D3
:1038000084F8440084F8450084F83D00002010BD91
:103810007047704710B50446022249B104290ED002
:10382000082913D094F84100012816D0012010BDBA
:1038300094F83E000128F9D184F83E200FE094F876
:103840003F000128F2D184F83F2008E094F84000BE
:103850000128EBD184F8402001E084F841200122C6
:10386000206802F0D5F816492068164A884201D02F
:10387000904203D1436C43F4004343642068884280
:1038800013D0B0F1804F10D00F4988420DD00F49AE
:1038900088420AD00E49884207D0904205D00D498F
:1038A000884202D00C49884204D1816801F00701A6
:1038B000062903D0016841F001010160002010BD1C
:1038C00000000140000401400004004000080040E6
:1038D000000C00400040014000180040006807490B
:1038E00088420AD106480178491CC9B201700A29E8
:1038F00003D30021017001F031BA7047001000407D
:1039000010000020704738B5044690F84200202887
:1039100001D0022038BD51B14AB1012020630020FE
:103920006063204602F046FB216B012901D0012093
:1039300038BD21680A684968009121680C3151E856
:10394000002F42F0100241E80023002BF5D138BDD2
:103950002DE9F8430C46002848D0006824498842E5
:1039600044D1244E4FF043080E2C17D30025A4F168
:103970000E0711E0705DDF280CD170190E2101F0E7
:103980000BFE38B18DF800800A23012269461A48DF
:1039900000F083FA6D1CADB2BD42EBDD162C17D3DF
:1039A00000254746163C11E0705DDF280CD17019E8
:1039B000162101F067FD38B18DF800700A2301224D
:1039C00069460D4800F069FA6D1CADB2A542EBDD09
:1039D000802208490848FFF796FF0748C06B002877
:1039E00004D00068016821F008010160BDE8F88397
:1039F00000100140540500207803002070470000AB
:103A0000F8B5016804460868CA684B6910F00F0FE2
:103A10004FF0000559D003F0010602F490773743C8
:103A200065D0C10705D0D10503D5616C41F0010116
:103A30006164410705D5D90703D0616C41F00201EB
:103A40006164810705D5D90703D0616C41F0040199
:103A50006164010707D502F02001314303D0616C96
:103A600041F008016164616C00293AD0800604D5F8
:103A7000900602D5204602F0B6F920684069616CD4
:103A8000C0F38010090700D460B3204602F076F935
:103A900020684069400621D52068143050E8001F96
:103AA00021F0400140E80012002AF5D1E06BA8B1F6
:103AB00072490165E06BFEF73AFB002811D0E06B1C
:103AC000016D01B0BDE8F040084783060FD59306AD
:103AD0000DD52046BDE8F84002F085B92046FFF735
:103AE0008DFFF8BD2046FFF789FF6564F8BD266BA2
:103AF0002023012E7ED1C6067CD5D6067AD508684D
:103B00004868009048694FF0020640064DD5E26BC8
:103B1000106840684FF480770004000C3AD0A18D03
:103B2000814237D9E085D069B8422DD020680C3069
:103B300050E8001F21F4807140E80012002AF5D1FE
:103B40002068143050E8001F21F0010140E8001205
:103B5000002AF5D12068143050E8001F21F0400100
:103B600040E80012002AF5D184F84230256320682D
:103B70000C3050E8001F21F0100140E80012002A2C
:103B8000F5D1E06BFEF78AFA6663A08DE18D401AED
:103B900081B206E0A18D8142A8D1D069B842A5D1F9
:103BA00066632046FFF7D4FEF8BDA08DE18D401A74
:103BB00081B2E08D0028F7D00029F5D020680C30C4
:103BC00050E8002F22F4907240E80027002FF5D132
:103BD0002068143050E8002F22F0010240E800274E
:103BE000002FF5D184F84230256320680C3050E86E
:103BF000002F00E006E022F0100240E80023002B36
:103C0000F3D1CDE705062BD5150629D594F841004B
:103C10002128C9D1A068B0F5805F01D12069B0B179
:103C2000206A411C2162216800784860E08C401EB7
:103C30000004000CE084B7D12068C16821F0800145
:103C4000C1602068C16841F04001C160F8BD206AD0
:103C50000088C0F308004860206A801C2062E5E705
:103C60004006F3D55006F1D5CA68204622F040023E
:103C7000CA6084F8413000F060F9F8BD815C00084A
:103C800070B5040004D094F84100002510B106E09E
:103C9000012070BD84F84050204600F023F8242015
:103CA00084F841002068C16821F40051C1602046B9
:103CB00002F0FAF82068016921F49041016120685E
:103CC000416921F02A0141612068C16841F4005135
:103CD000C1606564202084F8410084F84200656377
:103CE000002070BD2DE9F04387B0064614216846D8
:103CF000FCF727FC4E484D4AD6F800C000254C4939
:103D00001038022403234FF0080994451BD10A6898
:103D100042F400220A60096801F40021059101685B
:103D200041F0040101600068694600F0040005905C
:103D300098028DE83100CDE903393E48FEF77CFB5F
:103D400007B0BDE8F083DFF8F08007273B4AC445A1
:103D50003CD13749091DD1F800C04CF0100CC1F816
:103D600000C0096801F010010591016841F00101EE
:103D700001600068694600F0010005904FF4C060E2
:103D80008DE83100CDE903371046FEF755FB2D4C89
:103D90002B4820604FF00060C4E901054014C4E9DD
:103DA000035065618001A561C4E907502046656242
:103DB000FEF7A0FA08B1FEF76FF9F463002211468E
:103DC0002520A663FEF7A4FC25202CE01E4EB4455A
:103DD000B6D10E6846F400360E60096801F4003171
:103DE0000591016841F0010101600068694600F039
:103DF0000100059004208DE83100CDE90337164617
:103E00001046FEF719FB0120CDE90250CDE90094E0
:103E1000694604973046FEF70FFB00221146262024
:103E2000FEF776FC2620FEF765FC89E7004C004093
:103E300040380240000802400010014000000240EB
:103E400040640240080400200044004090F84230E2
:103E5000202B01D00220704721B11AB10023036347
:103E600002F0F8B80120704710B500680749884291
:103E70000BD10748807801F0E1FA05490122BDE83D
:103E80001040891C0348FFF7E1BF10BD004400400B
:103E900004000020C003002070472DE9F8430446C9
:103EA00090F84100984616460D46202802D0022080
:103EB000BDE8F88385B17EB100206064212084F8DC
:103EC0004100FEF7B7FBA6848146E684A068202760
:103ED000B0F5805F02D003E00120E9E7206910B16E
:103EE0002E4600250EE000260CE08021204602F040
:103EF000CCF8A8B9C6B116F8010B21684860E08C6F
:103F0000401EE084E08C4B464FF00002CDF800806C
:103F10000028EAD14FF04001204602F0B6F840B147
:103F200084F841700320C3E735F8020BC0F30800A2
:103F3000E3E784F841700020BAE77047FEE710B568
:103F4000752000F083F8122801D0002010BD012058
:103F500010BD000070B5FEF76DFB1C4C05462078C7
:103F6000052823D2DFE800F0030A1017240080217F
:103F70006B2000F003FA0120656016E06068281AE3
:103F8000642813D3022010E001216B2000F0F6F921
:103F90000320656009E06068281A322806D3FFF71D
:103FA000CEFF08B1042000E006202070207870BD0C
:103FB00018211B2000F0E2F918211C2000F0DEF986
:103FC00006211D2000F0DAF90520EEE7140000209C
:103FD0002DE9FF41DFF8708004464FF4807700221E
:103FE00039464046FEF720FBBB2001F0A9FB002527
:103FF0006E46FF2001F0A4FB70556D1C0E2DF8DB02
:10400000012239464046FEF70FFBBDF8000040BADA
:104010002080BDF8020040BA6080BDF8040040BABC
:10402000A080BDF8060040BAA081BDF8080040BAE3
:10403000E080BDF80A0040BA2081BDF80C0040BA0B
:104040006081BDE8FF8100000000024070B50C4EA9
:1040500004464FF48075002229463046FEF7E4FA04
:1040600044F0800001F06CFBFF2001F069FB044686
:10407000012229463046FEF7D7FA204670BD0000DF
:104080000000024070B505462DED088B0E46B0F9D4
:10409000000000EE100AB5F90200B8EEC0BA00EE5A
:1040A000100AB5F90400B8EEC0AA00EE100AB5F97E
:1040B0000600F8EEC0AA00EE100AF8EEC00A9FED66
:1040C000A40AB5F9080060EE809A00EE900AB5F9EE
:1040D0000A00F8EEE00A20EE809A00EE900AF8EE70
:1040E000E00A60EE808A2BEE0B0A0AEE0A0A0AEE5C
:1040F000AA0A10EE100A03F0EFFD41EC100B02F0DB
:104100002BFE51EC100B03F0ADF800EE100AB0EEF0
:10411000008A904CB5EEC00AF1EE10FA4DDDD4EDF8
:10412000030AD4ED051ACBEE002A20EEA12A94ED65
:10413000041A8AEE004A8AEE803A94ED020A00EEF2
:10414000412A60EE203A20EE000A41EE213A00EECC
:10415000E00A22EE082A63EE883A01EE410A23EED5
:10416000021A01EEA10AD4ED061A64EE000A02EE6C
:10417000C01A22EEA30A43EE630A04EE420A9FED40
:10418000763A01EE089A40EE831A40EE889A40EEA5
:10419000088AC4ED061A94ED072A79EEA19A01EE79
:1041A000032A84ED072AD4ED082A39EE029A40EE5C
:1041B000032AC4ED082A78EEA28AD4ED030A94ED0E
:1041C000041A94ED050A60EEE92AD4ED021A41EED4
:1041D000492A40EE682A9FED612A42EE821AC4ED18
:1041E000021A61EEA92A41EE282A40EE492A42EE3F
:1041F000820A61EE892AC4ED030A40EEE82A40EE05
:10420000292A02EE821A61EEA82A61EEA11A40EE76
:10421000892A40EEA01A84ED041A41EE692A41EE83
:10422000011A02EE820A84ED050A40EE001A11EE30
:10423000900A03F051FD41EC100B02F08DFD51ECA2
:10424000100B03F00FF800EE100AD4ED020A80EE16
:1042500080BA84ED02BAD4ED030A80EE809A84ED30
:10426000039AD4ED040AC0EE808AC4ED048AD4ED2A
:10427000050AC0EE809A2BEE0B0A09EE490A08EEF9
:10428000E80AC4ED059A09EEA90A10EE100A03F037
:1042900023FD28EEA90A41EC1A0B0BEE090A20EEC9
:1042A000080A10EE100A03F017FD41EC100BB0EEF7
:1042B0004A1AF0EE6A1A02F0DFFA9FED291B51EC60
:1042C000100B53EC112B03F047FA02F0CBFF3060D8
:1042D00094ED030AD4ED050A94ED041A20EE200AA9
:1042E000D4ED020A00EEC10A20EE080A10EE100A10
:1042F00003F0F2FC41EC100B01F0A2FF9FED1A1B42
:1043000051EC100B53EC112B03F026FA02F0AAFF2C
:104310007060B5F90A00DFED160A00EE100A1549C3
:10432000B8EEC00A20EE200A10EE100A884204DC23
:1043300010EE100A10F17F5F07D9D6ED020A9FED4B
:104340000E1A40EE410AC6ED020ABDEC088B70BDA4
:1043500089A18B3A140000200AD7A33B6F12033ABD
:1043600000000020DCA54C4000000020DCA54CC073
:10437000D6FF793D000040406F12833A2DE9F041AD
:104380000B4E0F4604464FF48075002229463046F6
:10439000FEF74AF904F07F0001F0D2F9384601F047
:1043A000CFF929463046BDE8F0410122FEF73CB97D
:1043B0000000024070B52DED048B8EB0DFED5D8AFC
:1043C0005D4C5E4EB0EE689A2078B0EE688A0528A3
:1043D0000AD000F0A1FC012220213046FEF724F98A
:1043E0000EB0BDEC048B70BD684601F09DFE9DF8DB
:1043F0002000534DF0B19DF80000012802D00228A2
:104400000CD017E09DED019ADDED028A9DED038A47
:10441000012220213046FEF707F96AE0DDED071A98
:1044200095ED021ADDED050A9DED040A00F07AFD16
:1044300001F070FE00F026FD01285AD009A800F016
:10444000CFFFBDF82C00A0F22620642801D801205F
:1044500060706078E8B3002220213046FEF7E4F86F
:104460006078B8B39DF83000A0B3BDF82600DFED4A
:10447000350AA0F5806000EE100ADFED331ABDF8B2
:104480002400B8EEC00AA0F58060304920EE201A62
:1044900081EE210A01EE100ABDF82800B8EEC11A1B
:1044A000A0F5806021EE202A82EE211A02EE100A89
:1044B000B8EEC22A22EE202AC2EE210AF0EEC01A7D
:1044C00011EE900A884201DDF0EE408AB0EEC10A9A
:1044D00001E024E00DE010EE100A884201DDB0EEAC
:1044E000419AB0EEE00A10EE100A884201DDB0EE0B
:1044F000608A00F0C7FC012813D0D5ED021AB0EE97
:10450000481AF0EE680AB0EE490A00F035FB00BF29
:1045100095ED020ADFED0E0A00F06CFE60E7012265
:104520009AE700F0A7FD002220213046FEF77CF834
:10453000EEE70000000000003800002000100240FC
:104540006804002000004844000044440000A041EA
:104550000AD7233C2DE9F04F16488FB00078052884
:1045600025D1154801F05AFB08A800F023FE0C984D
:1045700003F0B2FB82468B460B9803F0ADFB8046FE
:1045800089460A9803F0A8FB06460F46099803F0EF
:10459000A3FB04460D46089803F09EFB8DE8F00F40
:1045A00041EC100B05A053EC102BFBF7E9FE0FB00C
:1045B000BDE8F08F38000020680400204F444F3AD7
:1045C00020783A252E316620793A252E31662079D9
:1045D00061773A252E31662076783A252E3166208D
:1045E00076793A252E31660A0000000070B5FEF794
:1045F00021F8124D0446686884420DD06C60FFF7C4
:10460000A9FC2870052807D10D48FFF7E1FC0C49EB
:104610000B480C39FFF736FDA868201A0A2802D388
:10462000AC60FFF7C7FEE868201A142804D3EC60DA
:10463000BDE87040FFF78EBF70BD0000380000205D
:1046400074040020094808B5016841F48001016044
:104650000068002200F48000009011463A20FEF726
:1046600057F8BDE808403A20FEF744B83038024019
:104670002DE9F04786B014216846FBF762FF384801
:104680000025016841F010010160016801F010018E
:104690000591016841F080010160016801F080012D
:1046A0000591016841F001010160016801F001011B
:1046B0000591016841F002010160016801F0020109
:1046C0000591016841F008010160016801F00801ED
:1046D0000591016841F0040101600068DFF8848001
:1046E00000F004000590012220214046FDF79CFFC8
:1046F000DFF8749041F6FF46002231464846FDF748
:1047000093FF0122DFF864A0170239465046FDF7F7
:104710008BFF01242020CDE9000469464046CDE905
:104720000245FDF789FE6002CDE900056946029465
:104730004846FDF781FECDE900640226CDE9024638
:1047400069464846FDF778FE01AA009782E87000A6
:1047500069465046FDF770FE06B0BDE8F0870000E0
:104760003038024000100240000C024000000240BD
:10477000104810B50E4901604FF48271416000216C
:1047800002228160C0E90312012242615202C0E9A3
:1047900006210162416281620A21C162FEF78AFA42
:1047A000002803D0BDE81040FDF776BC10BD000026
:1047B00000380040FC04002010B58CB0242168466D
:1047C000FBF7BFFE0024154809944FF080410A947E
:1047D000C0E900144FF6FF71C0E902410461846131
:1047E0000320CDE900040120CDE902040494CDE9C1
:1047F00005400794694609480894FEF777FD08B11B
:10480000FDF74AFC099409A904480A94FEF71EFC26
:10481000002801D0FDF740FC0CB010BD8001002045
:1048200010B58CB024216846FBF78BFE0024164897
:10483000099414490A94C0E900144FF6FF71C0E9C5
:104840000241046184610320CDE900040120CDE927
:1048500002040494CDE90540079469460A48089487
:10486000FEF744FD08B1FDF717FC099409A90648B5
:104870000A94FEF7EBFB002801D0FDF70DFC0CB00D
:1048800010BD000000040040C801002010B58CB02D
:1048900024216846FBF755FE002416480994144964
:1048A0000A94C0E900144FF6FF71C0E902410461A7
:1048B00084610320CDE900040120CDE902040494C1
:1048C000CDE90540079469460A480894FEF70EFDB5
:1048D00008B1FDF7E1FB099409A906480A94FEF71F
:1048E000B5FB002801D0FDF7D7FB0CB010BD0000D0
:1048F000000800401002002010B58CB0242168464A
:10490000FBF71FFE00241648099414490A94C0E9D5
:1049100000144FF6FF71C0E9024104618461032075
:10492000CDE900040120CDE902040494CDE905405D
:10493000079469460A480894FEF7D8FC08B1FDF7C9
:10494000ABFB099409A906480A94FEF77FFB0028EF
:1049500001D0FDF7A1FB0CB010BD0000000C004021
:10496000580200201CB500240E4800940C49019404
:1049700001605321C0E9011440F2E7318461C16054
:10498000FEF7ACFB08B1FDF787FB009469460548CC
:104990000194FEF75BFB002801D0FDF77DFB1CBDF9
:1049A00000100040A002002010B596B000240F9423
:1049B00010941194129413941C2168461494FBF7DC
:1049C000C0FD202107A8FBF7BCFD34483249016037
:1049D0005321C0E9011440F2E731C0E903144461F6
:1049E0008461FEF77BFB08B1FDF756FB4FF4805066
:1049F0000F900FA92948FEF70BFC08B1FDF74CFBFF
:104A00002648FEF7D8FE08B1FDF746FB139413A91C
:104A100022481494FEF71AFB08B1FDF73DFB602015
:104A2000CDE900040294039404940594002269469D
:104A30001A480694FEF759FE08B1FDF72DFB042233
:104A400069461648FEF751FE08B1FDF725FB08221E
:104A500069461248FEF749FE08B1FDF71DFB0C221E
:104A600069460E48FEF741FE08B1FDF715FB0794B5
:104A7000089409944FF400500A94CDE90B4007A91B
:104A800006480E94FEF7B8FA08B1FDF705FB034897
:104A9000FEF700FE16B010BD00040140E802002041
:104AA0000C4810B50A4901604FF4E1314160002122
:104AB00081600C22C160C0E904128161C161FFF70D
:104AC000DFF8002803D0BDE81040FDF7E5BA10BDBF
:104AD000004C0040300300200C4810B50A4901602A
:104AE0004FF4E1314160002181600C22C160C0E9D6
:104AF00004128161C161FFF7C3F8002803D0BDE84B
:104B00001040FDF7C9BA10BD001001407803002025
:104B10000E4810B50C4901604FF4164141604FF446
:104B2000805181604900C160C91001610C2141615F
:104B300000218161C161FFF7A3F8002803D0BDE81F
:104B40001040FDF7A9BA10BD00440040C00300208A
:104B5000FEE770EE201A30EE600A31EE812A71EE27
:104B6000C12A70EE410A70EE011AB0EE420AB0EEB0
:104B7000621A00F0B9B8000010B52549254C2DED9A
:104B8000048BB0EE418AF0EE408AB0EEC80A10EE17
:104B9000100AF0EE619AB0EE609A884207DD0020BC
:104BA0002070C4ED019A1C4800F00EFC1DE0207836
:104BB00030B901202070C4ED019A174800F004FCC0
:104BC00094ED010A154970EE690AF0EEE00A10EE64
:104BD000900A884202DA9FED128A06E0F0EE690A36
:104BE0000D4800F079FBB0EE408A39EE281A79EED4
:104BF000681A31EE080A71EEC80A31EE481A71EEF1
:104C0000881ABDEC048BBDE8104000F06DB80000C0
:104C10000AD7233C0800002060010020CDCC4C3D89
:104C20000000000010B50446042802D39FED090AD5
:104C300010BDFDF7A5F954B1032C08D05FF00100B9
:104C400000EE900AF8EEE00A20EE200A10BD4FF0C8
:104C5000FF30F5E70000000070B52DED048BFDF787
:104C6000A5F91B48FEF794FA00211A48FEF7D2FD79
:104C700004211848FEF7CEFD08211648FEF7CAFDAC
:104C80000C211448FEF7C6FD134DDFED148A9FED8D
:104C9000149A9FED148A0024A5F1100605EB441028
:104CA000B0EE682AF0EE491AB0EE481AF7EE080A9C
:104CB000B0EE080A00F066FB06EB8400641CE4B268
:104CC00080ED008A042CE9D3BDEC048B70BD00009C
:104CD000A0020020E8020020B800002000C079C433
:104CE00000C07944000000009FED092A094820EE29
:104CF000020A80ED000A20EE820A80ED010A21EE10
:104D0000020A80ED020A21EE820A80ED030A704752
:104D1000C9755F43A800002070B50F4D00242DED2C
:104D2000028B05F110069FED0B8A00BF05EB840096
:104D300080ED008A06EB441000F046FB002120467F
:104D400000F046F8641CE4B2042CEFD3BDEC028BF7
:104D500070BD000000000000A800002070B52DED1F
:104D6000028BFDF74FF9184D9FED188A002405F1CD
:104D700010062046FDF7F4F81CB3032C21D00120C7
:104D800000EE900A05EB8400F8EEE00A20EE201A0F
:104D9000D0ED000A06EB441080EE880AC1EE080A46
:104DA00000F09AFABDEEC00A10EE100A01B22046D9
:104DB00000F00EF8641CE4B2042CDAD3BDEC028BD4
:104DC00070BD4FF0FF30DBE7A80000200000C842B4
:104DD0002DE9F0410446042842D294B1032C10D0AE
:104DE0005FF0010010FB01F0244E00B2224900F1F7
:104DF000C702336801F10807B2F5C77F04D8002065
:104E000009E04FF0FF30EDE74FF47A72551E0028AD
:104E10000CDB904200DA85B231F8141001221846FA
:104E2000FDF702FC37F8141000220CE040429042DB
:104E300000DA85B231F8141000221846FDF7F4FBB1
:104E400037F8141001223068FDF7EEFB0C484CB126
:104E5000012C0AD0022C0BD0032C01D10068056470
:104E6000BDE8F08100684563FAE700688563F7E70D
:104E70000068C563F4E70000D27D00080000002050
:104E8000E802002001480078704700004800002038
:104E900010B5B2EE040A2DED048BDFED1A8A9FEDFA
:104EA0001A9ADFED1A9A9FED1A8AB0EE682AF0EE90
:104EB000491AB0EE691AF0EE480A164800F062FA94
:104EC0001448B0EE682AF0EE491AB0EE691AF0EE16
:104ED000480AB2EE040A203000F054FA0D489FED63
:104EE0000E2ADFED0E1AB0EE481AF0EE480AB2EEC6
:104EF000040A403000F046FA094900200870BDEC71
:104F0000048B10BD0000FAC30000FA43CDCCCC3DA9
:104F100000000000840400200000C8C20000C84255
:104F2000480000202DE9F0472DED048B8CB0B0EE49
:104F3000618AF0EE418AB0EE609AF0EE409A06A8DF
:104F400000F038F99DED060A344CB5EEC08A30EE1B
:104F5000290A84ED010A9DED070A30EE090A84ED65
:104F6000020A9FED2F0AC4ED038AF1EE10FA06DD66
:104F700018EE100A2B49884201DCB0EE480A9FED7A
:104F80002A8ADFED2A8AF0EE401A84ED040AB1EE97
:104F9000612AB0EE481AF0EE680AB2EE040A24481C
:104FA00000F0F0F9D4ED041A2148B0EE481AB1EE41
:104FB000612AF0EE680AB2EE040A203000F0E2F94D
:104FC0001B4800F001FA1A48203000F0FDF918489B
:104FD000403000F0F9F901202070206902F07CFED9
:104FE00081468A46E06802F077FE07468846A06858
:104FF00002F072FE05460E46606802F06DFE8DE816
:10500000E00741EC100B0BA053EC102BFBF7B8F9A9
:105010000CB0BDEC048BBDE8F08700004800002018
:105020000000FA430000FA43CDCCCC3D0000000064
:10503000840400204D6F76652053746172743A20A9
:1050400054617267657420583A252E316620593AAA
:10505000252E3166205961773A252E31662C205352
:1050600070656564204C696D69743A252E31660A55
:105070000000000030B52DED068B89B03F4C207844
:10508000012834D102A800F095F89DED020AD4ED74
:10509000010A94ED021A30EEC00ADDED030A71EE4A
:1050A000600A20EE000A00EEA00A01F092FE10EE67
:1050B000100A334988421EDA02209FED320A20701E
:1050C000B0EE401AF0EE400AFFF743FD039802F0FD
:1050D00003FE04460D46029802F0FEFD41EC100B63
:1050E00029A053EC102BCDE90045FBF749F909B095
:1050F000BDEC068B30BDDDED020A94ED010A2A48B5
:1051000000F0EAF8B0EE401A2748B0EE419ADDED23
:10511000030A94ED020A203000F0DEF8B0EE401AE7
:105120002148F0EE419ADDED040A94ED030A403087
:1051300000F0D2F8B0EE408A9DED040ADFED1B0AC4
:1051400020EE20AAB0EE4A0A01F096FCF0EE408A6A
:10515000B0EE4A0A01F038FD69EE281AF0EE400A76
:10516000B0EE481A29EE200A49EEE01A09EEA80A24
:10517000F0EE610AFFF7EDFCB9E7000048000020FF
:1051800000002041000000004D6F76652046696EEA
:10519000697368656420617420583A252E31662051
:1051A000593A252E31660A008404002034FA8E3CD8
:1051B000FEE70000002803D018220249FBF78FB950
:1051C00070470000E4040020AFF3008008489FED22
:1051D000070A80ED000A80ED010A80ED020A80EDE9
:1051E000030A80ED040A80ED050A70470000000004
:1051F000E404002010B500202DED068BB0EE609A7F
:10520000B0EE408AFFF70EFDB0EE40AA0120FFF796
:1052100009FDF0EE401A0220F0EE619AFFF702FD60
:10522000F0EE408A0320FFF7FDFCB0EE401A3AEEA4
:10523000290AF5EE000A264C7AEE691A30EE280AA1
:1052400030EE010A20EE200A84ED040A31EEA80AAD
:1052500030EE410A20EE200A84ED030A31EEE80A1E
:1052600030EE010A20EE200A84ED050A9FED190AAE
:1052700084ED028A68EE008AB0EE680A01F0FCFB59
:10528000B0EE401AB0EE680AB0EE418A01F09CFC24
:10529000D4ED031A94ED042A61EE880A22EE081A6E
:1052A00042EE000A01EEC01A60EE890A21EE090AF8
:1052B00094ED001A71EE200AC4ED000AD4ED010A43
:1052C00030EE800A84ED010ABDEC068B10BD0000B3
:1052D000E404002034FA8E3CF0B330EE600ADFEDD7
:1052E000270AD0ED031A90ED001A40EE201A21EEA5
:1052F000002AC0ED031A90ED071AF4EEC11AF1EE80
:1053000010FA01DD80ED031AD0ED031AB1EE411A57
:10531000F4EEC11AF1EE10FA01D280ED031A90ED0D
:10532000011AD0ED031A21EE211AD0ED041A80EDF6
:10533000040A70EE612A90ED020AC2EEA01A72EE23
:10534000010A20EE210A30EE800AD0ED050AF4EEC3
:10535000C00AF1EE10FA00E00CE001D2B0EE600AF3
:10536000D0ED060AF4EEC00AF1EE10FA01DDB0EE5F
:10537000600A70479FED020A704700000AD7233C7D
:105380000000000010B504002DED068BF0EE428AFF
:10539000B0EE618AB0EE419AF0EE609AB0EE40AAAB
:1053A0000ED02021FBF7CDF884ED00AAC4ED019AC0
:1053B00084ED029A84ED058AC4ED068A84ED078A9D
:1053C000BDEC068B10BD0000002805D09FED030A40
:1053D00080ED030A80ED040A704700000000000021
:1053E00000280ED007490A8802804A8842808A88AD
:1053F0008280CA88C2800A8902814A894281097BE7
:10540000017370473801002009484FF48061012280
:10541000018041808180C18001810021418102732E
:10542000044801704170811C0348FEF70FBD000065
:105430003801002004000020C003002070B50F4C8C
:105440000F4962781AB10025012A13D106E00F280E
:1054500003D1087001202070607070BD22788854DC
:10546000521CD0B220701928F7D3087E10B9044816
:1054700000F02EF96570257070BD0000040000205A
:105480004601002010B504462DED028B8AB0162986
:1054900020D12078DF281DD1207DFD281AD1607809
:1054A000012817D1A078972814D1E078022811D1CB
:1054B000207964280ED160790E280BD1002108468E
:1054C000225C401C1144C0B2C9B21428F8D9607DD6
:1054D000884204D000200AB0BDEC028B10BD24210C
:1054E0006846FBF72EF802208DF80000A01DFCF79F
:1054F000D4FC00EE100A9FED268A04F10A00B8EEF3
:10550000C00AC0EE080ACDED040AFCF7C6FC00EEA6
:10551000100A04F10E00B8EEC00AC0EE080ACDED84
:10552000050AFCF7BAFC00EE100AF2EE041AF8EED7
:10553000C00A80EE880A8DED060AA07CE17C9DF809
:10554000002040EA012000EE900A12480121B8EE46
:10555000601A0270C1EE210A9DED011A80ED011A58
:105560009DED021A80ED021A9DED031A80ED031ADB
:105570009DED041A80ED041A9DED051A80ED051AC3
:1055800080ED060AC0ED070A80F820100120A2E78E
:105590000000C842D405002010B58AB004460E2988
:1055A00020D12078DF281DD1207BFD281AD16078FA
:1055B000012817D1A078972814D1E078022811D1BA
:1055C000207967280ED1607906280BD10021084682
:1055D000225C401C1144C0B2C9B20C28F8D9607BCF
:1055E000884202D000200AB010BD24216846FAF794
:1055F000A8FF01218DF80010A279E07942EA00208D
:1056000000B200EE100AB8EEC01A8DED011A227A2F
:10561000607A42EA002000B200EE100AF8EEC00AFA
:10562000CDED020AA27AE07A42EA002000B200EE52
:10563000100A0F48B8EEC00A017080ED011AC0EDE3
:10564000020A80ED030A9DED040A80ED040A9DED37
:10565000050A80ED050A9DED060A80ED060A9DED1E
:10566000070A80ED070A80F820100120BBE7000040
:10567000D40500207047000010B59FED0F2ADFED24
:105680000F1ADFED100A9FED100A10482DED028B66
:105690009FED0B8AB0EE481AFFF774FEF0EE481A41
:1056A000B0EE481AF0EE480AB0EE480ABDEC028BA4
:1056B000BDE81040FFF718BB000048C40000484494
:1056C000000000003333333F0000704260010020CF
:1056D00070B501780F2901D1017E09B1002070BD9C
:1056E000B0F801100479C1F30A038178067ACA0878
:1056F000C17842EA4112890941EA84014479C2F33E
:105700000A0204F0010541EA85218579640844EA2A
:10571000C514C579407AED0945EA460545EA4020B9
:10572000C0F30A050548C4F30A048380C28041809F
:105730000480058101210173084670BD38010020F5
:1057400001B582B064200090012301AA02A9034898
:10575000FDF744FB9DF804000EBD0000FC04002092
:10576000F8B515460E460B4600920446012202216A
:1057700000F02CF8A0B9134813490068B0FBF1F011
:105780004FF47A71484300906068B0F5827F0DD184
:105790003346002280212046009500F017F870B1B2
:1057A000606D40F0200060650320F8BD009830B1C6
:1057B000401E009020688068C0430006F6D5002097
:1057C000F8BD00006800002000366E012DE9F843A6
:1057D0001E46914688460446089DFCF72BFF401B59
:1057E000351AFCF727FF074626480068C0F3CB3080
:1057F00068430AE0701C09D0FCF71CFFC01BA842DC
:105800000FD275B10098B8B3401E0090206881682F
:1058100038EA010033D000214945EBD10020BDE832
:10582000F8832068416821F0E00141606068B0F5CC
:10583000827F0BD1A068B0F5004F02D0B0F5806F29
:1058400004D12068016821F040010160A06AB0F530
:10585000005F09D12068016821F4005101602068CF
:10586000016841F400510160012084F851000020DA
:1058700084F850000320D2E7FFE70025C6E70121A6
:10588000CAE70000680000207047FCF7D9BE00009E
:1058900030B593B030216846FAF753FE14210CA8B6
:1058A000FAF74FFE1D480025016841F08051016064
:1058B000006800F0805011901948016841F480415F
:1058C00001600068022400F48040119001200090E3
:1058D000000401908001CDE9064008AA0420A82117
:1058E00082E813000B906846FDF72EF808B172B6F7
:1058F000FEE70CA90F2081E831004FF4A0500F9073
:105900004FF48050109005210CA8FCF733FF0028BD
:1059100001D072B6FEE713B030BD0000403802403F
:10592000007000400248016841F470010160704756
:1059300088ED00E00148FDF715BE0000A002002040
:10594000F0B50268274B284D284E294F294C4FF0BF
:10595000804C984209D0604507D0A84205D0B0429B
:1059600003D0B84201D0A04204D122F0700E4A68A0
:1059700042EA0E0298421BD0604519D0A84217D0C7
:10598000B04215D0B84213D0A04211D01A4DA8424F
:105990000ED01A4DA8420BD0194DA84208D0194D6F
:1059A000A84205D0184DA84202D0184DA84203D1F4
:1059B00022F44075CA682A434D6922F080022A43C6
:1059C0008D68C5620D688562984201D0A04201D100
:1059D00009690163016841F004010160012141612D
:1059E0000260F0BD000001400004004000080040DB
:1059F000000C004000040140004001400044014010
:105A00000048014000180040001C004000200040F9
:105A100010B501F01F030121046A99408C43046210
:105A2000016A9A401143016210BD10B5846842EAD0
:105A3000032224F47F440A432243826010BD82681B
:105A400022F070020A4342F00701816070470000B3
:105A5000F0B5036A026A22F00102026242688469B8
:105A6000124E24F073050C682C4323F002058B685A
:105A70002B430D4DA84201D0B04205D123F00807B9
:105A8000CB683B4323F00403A84201D0B04205D1C8
:105A90004D6922F4407215438A692A434260846149
:105AA000496841630362F0BD000001400004014009
:105AB000F0B5026A036A23F0100303624368846945
:105AC0000D6824F4E64444EA05248D6822F020029F
:105AD00042EA05120F4D104EA84201D0B04206D145
