:020000040800F2
:10000000800900204102000819320008E12B000895
:1000100019300008EF130008F5390008000000004F
:10002000000000000000000000000000273300086E
:10003000F1130008000000002533000829330008F0
:100040005B0200085B0200085B0200085B0200081C
:100050005B0200085B0200085B0200085B0200080C
:100060005B0200085B0200085B0200085B020008FC
:100070005B0200085B0200085B0200085B020008EC
:100080005B0200085B0200085B0200085B020008DC
:100090005B0200085B0200085B0200085B020008CC
:1000A0005B0200085B0200085B0200085B020008BC
:1000B0005B0200085B0200085B0200085B020008AC
:1000C0005B0200085B0200085B0200085B0200089C
:1000D0005B0200085B020008E93900085B020008C7
:1000E0005B0200085B0200085B0200085B0200087C
:1000F0005B0200085B0200085B0200085B0200086C
:100100005B0200085B0200085B0200085B0200085B
:100110005B0200085B020008D13300085B020008A4
:100120005B0200085B0200085B0200085B0200083B
:100130005B0200085B0200085B0200085B0200082B
:100140005B0200085B0200085B0200085B0200081B
:100150005B0200085B0200085B0200085B0200080B
:100160005B0200085B0200085B0200085B020008FB
:100170005B0200085B0200085B0200080000000050
:100180005B0200085B02000800F002F800F049F88A
:100190000AA090E8000C82448344AAF10107DA45E2
:1001A00001D100F03EF8AFF2090EBAE80F0013F0EB
:1001B000010F18BFFB1A43F001031847DC3A000097
:1001C000FC3A0000103A24BF78C878C1FAD8520728
:1001D00024BF30C830C144BF04680C6070470000C1
:1001E0000023002400250026103A28BF78C1FBD840
:1001F000520728BF30C148BF0B607047662903F023
:10020000EB84002070471FB503F0E1FC00F0B2FB67
:1002100004000020002103F04DFCE0601FBD10B57C
:1002200010BD00F0A7FC1146FFF7EDFF03F012FC34
:1002300000F0C5FC03B4FFF7F2FF03BC00F008FDBB
:100240000948804709480047FEE7FEE7FEE7FEE76A
:10025000FEE7FEE7FEE7FEE7FEE7FEE704480549A6
:10026000054A064B70470000C133000889010008A9
:1002700080030020800900208005002080050020E8
:1002800053EA020C00F069802DE9F04B4FF00006B4
:10029000002B1FBFB3FA83F503FA05F424FA05F621
:1002A0005E4012BF1643B2FA82F502FA05F4C5F1B8
:1002B00020051EBF22FA05FC44EA0C04203556EA4C
:1002C000044C4FEA144418BF641C4FF000084FF070
:1002D0000009904271EB030C39D3002919BFB1FA20
:1002E00081F701FA07F6B0FA80F700FA07F6C7F1CE
:1002F00020071EBF20FA07FC46EA0C062037B6FB93
:10030000F4FCA7EB0507103F07F01F0BCBF120060D
:100310000CFA0BFB2CFA06F644BFB3460026202F3E
:10032000A4BF5E464FF0000B5BEA060C08BF4FF01F
:10033000010B19EB0B09ABFB027C48EB0608C01B59
:1003400006FB02CC0BFB03CC71EB0C01C1E70B46A7
:10035000024641464846BDE8F08B13B54FF0000019
:100360004FF00001AFF30080BDE81C407047000073
:100370000FB47CB50C0009AA009001D02044401EA7
:10038000084B7B4469460190089800F0D2FA054674
:100390001CB10020694600F0DFFA28467CBC5DF8FD
:1003A00014FB0000DD0500002DE9F0474FF0000AC6
:1003B00089460446C0F820A02046E1688847002806
:1003C00076D0252806D0D4E901219047206A401C28
:1003D0002062F1E7E168204600258847C4F81CA0A8
:1003E00006460027C4F818A02A2E09D0304603F08C
:1003F0002AFB38B304EB8708303EC8F8186019E0D0
:1004000059F8041B204604EB87029161E168884794
:10041000012F064618D1E069002820DA25F02005D2
:100420001DE0D8F8180000EB800006EB40003038E3
:10043000C8F818002046E1688847064603F003FB29
:100440000028EED1012F0AD02E2E08D12046E168D7
:1004500088477F1C0646022F45F02005C4DBA069B3
:10046000002803DA404245F00105A061E80701D009
:1004700025F01005B6B1A6F14100192802D82036A2
:1004800045F400654A463146204625604D46FFF753
:10049000B5FE58B1012806D0ED1D25F0070000F18A
:1004A000080989E704E005F1040985E730468AE791
:1004B000206ABDE8F0874FF0000200B5134694466D
:1004C0009646203922BFA0E80C50A0E80C50B1F1AC
:1004D0002001BFF4F7AF090728BFA0E80C5048BFC0
:1004E0000CC05DF804EB890028BF40F8042B08BF5E
:1004F000704748BF20F8022B11F0804F18BF00F85A
:10050000012B704770477047704770472DE9FF4FC8
:100510000C461E464FF0FF378BB0D2E90001DDF8E4
:1005200060800A908A46C1F30A5505B93D4600210C
:1005300008464FF00000BAF1000F00F4400005DA61
:1005400000EB80004FF4400101EA50004FEA90595F
:10055000B9F1010F00DDB9460A9850EA4A000ED001
:1005600044F61050A5F2FF3545432F14B8F1000FA3
:100570001ED07542291E1EDDC9F100021CE0B8F133
:10058000010F4FF0000001D0302103E0F24305E0FD
:100590002154401CB042FBDB304600220021215494
:1005A0000B99C1F80880C1E900200FB0BDE8F08FB9
:1005B000BD1B6D1CDEE74A4600DA694206A800F062
:1005C00063FA06AB93E8070003AB83E807005046E5
:1005D0000A9900F044FB8DE80700A0F500501F3891
:1005E00000900398002D0ADD42F21F014A4608449C
:1005F000002303A90390684600F0ADFD09E0A0F5D3
:1006000000504A461F38002303A90390684600F0B3
:10061000B7FD8DE807000004000C03D04FF0FF3059
:10062000410800E01046B8F1000F03D0002200920C
:1006300015461EE0751E05D400F0A0F93032625553
:100640006D1EF9D5B3460122084302D000227F1C5B
:1006500004E02078302801D100227F1E002A09976B
:1006600084D01DE0112D07DA00F088F93032625590
:100670006D1C50EA0102F5D1084302D00098C8B1C0
:100680000EE00021681E05E0235C625C6354225486
:10069000401E491C8142F7DBAB46A81B401E099057
:1006A000002004F80B000B98099AC0F80880C0E9F4
:1006B000002B7AE711264FF0000857E72DE9F04F9D
:1006C00088460446D21D22F0070191B0D1E900010D
:1006D000CDE90A0103F08FF902460B98C00F01D053
:1006E0002D2007E02068810701D52B2002E0202182
:1006F00001EAC000032A099001D0072A05DB03465E
:100700004146204600F080F90BE12078800601D5B3
:10071000E06900E00620B8F1650F814606D0B8F127
:10072000660F18D0B8F1670F70D131E00020B9F131
:10073000110F009001DB112301E009F101030AAA66
:1007400001A90CA8FFF7E2FEDDE90C70002609F113
:100750000105834647E001204B4600904FF00047DB
:100760000AAA01A90CA8FFF7D1FEDDE90DB00C998A
:100770005D46002610B909F101000D18B9EB05001E
:1007800003D4C0F1FF3609F10105A5EB09002BE008
:10079000B9F1010F01DA4FF001090020B9F1110F91
:1007A0000090484601DD112300E003460AAA01A992
:1007B0000CA8FFF7ABFEDDE90C704D460026834622
:1007C000207800070AD4AB4500DA5D4601A8012D68
:1007D00004DD411911F8011C302907D04F4502DA18
:1007E00017F1040F04DA012082460FE06D1EEEE7D8
:1007F000002F02DCED1B3E4403E0781CA84200DD24
:100800007D1CB81B00F1010A4FF00047207800075B
:1008100003D4AA4501DB4FF0FF3A0021B7F1004FA6
:100820000DF143088DF8431024D002202B23002F14
:1008300001DA7F422D230A21021EA0F1010000DC13
:100840005FB197FBF1FC97FBF1F201FB1C7C1746B3
:100850000CF1300C08F801CDEEE7A8F101000370AF
:100860002188090501D5452100E06521A0F1010895
:1008700000F8011C09980FA9A1EB0807FF1D00B1A2
:100880000120411901EBEA70A1693844081A401EA1
:10089000A0612078C00602D42046AFF300800998FA
:1008A00028B1D4E901219047206A401C20622078B9
:1008B000C00622D52046AFF300801EE0002E04DBE8
:1008C000B34502DD01A8805D00E03020D4E90121BC
:1008D0009047206A401C2062761CAAF101005FEA62
:1008E000000A0AD100F046F8C0680168405CD4E90B
:1008F00001219047206A401C2062281EA5F10105B5
:10090000DCDC07E0D4E9012118F8010B9047206AEC
:10091000401C2062381EA7F10107F3DC2046AFF32C
:100920000080032011B041E601694A1C0261087889
:10093000704700B58FB0CDE901310021059105491F
:100940007944CDE9031011466846FFF72DFD0FB03D
:1009500000BD0000E5FFFFFF0A6802F8010B0A6016
:100960007047D1E900239A4202D2531C0B601070E9
:1009700070470000004870474003002030B5B0F1D8
:100980000A024FEA900E71F100034EEA817EB0EB4D
:100990000E0061EB91014FEA101E4EEA017E10EB52
:1009A0000E0041EB11114FEA102E4EEA016E10EBD2
:1009B0000E0041EB11214FEA104E4EEA014E10EBB2
:1009C0000E0041EB1141401841F100014FEAD00007
:1009D00040EA41704FEAD10110EB80054FEA8104F3
:1009E00044EA907444EB01046D1944EB0404521B77
:1009F000A3414FF0000348BF0A3200D530BD401C70
:100A000041F1000130BD00002DE9F0411F460446D0
:100A100003260168072A01F4006004DB08B116A56B
:100A200005E016A503E008B115A500E015A521F025
:100A300010002060A069C01EA0610FB1401EA0611F
:100A40002046AFF300804FB1D4E9012138469047EA
:100A5000206A401C2062C01C206206E0206AFAE77F
:100A6000D4E9012115F8010B9047761EF8D22046F3
:100A7000AFF30080BDE8F0814E414E006E616E0024
:100A8000494E4600696E66002DE9F04781461646DC
:100A90008AB0354878440DC88DE80D003248784456
:100AA000801C03AC0DC884E80D0041F69B3008445F
:100AB000372190FBF1F290FBF1F5A5F1800501FBE8
:100AC00012041B3C02D56442012000E00020DFF844
:100AD00098A080460027FA44AAF1BE0A0EE0E0077B
:100AE0000AD03246684607EB470101230AEB810131
:100AF00000F046FB8DE8070064107F1C002CEED14F
:100B0000194F7F44AE3F19E0E80715D007EB0410FA
:100B10000DF1180A90E80E008AE80E00C068F04255
:100B200001D1981908903246012306A903A800F0C4
:100B300027FB03AB83E807006D10641C002DE3D195
:100B40004FF0010332466946B8F1000F03A802D006
:100B500000F001FB01E000F013FBC9E90001C9F856
:100B600008200AB0BDE8F087E8310000004870476F
:100B7000200300207546FFF7F9FFAE4605006946E1
:100B8000534620F00700854618B020B5FFF766FBF6
:100B9000BDE820404FF000064FF000074FF000087E
:100BA0004FF0000B21F00701AC46ACE8C009ACE8FF
:100BB000C009ACE8C009ACE8C0098D46704710B563
:100BC0000446AFF300802046BDE81040FFF732BB7B
:100BD0004FF0013C50F8042B51F8043B9A4221D1CC
:100BE000A2EB0C03934313EACC1317D150F8042B58
:100BF00051F8043B9A4215D1A2EB0C03934313EA3C
:100C0000CC130BD150F8042B51F8043B9A4209D174
:100C1000A2EB0C03934313EACC13DBD04FF000009C
:100C2000704700BFD01A01BAB1FA81F101F0180182
:100C300022FA01F0CB40C1F12001DBB2C0B2C01AF0
:100C40002CFA01F3D11A914311EAC311E6D170478E
:100C500001491820ABBEFEE72600020070475FEA9C
:100C6000400C08BF91F0000F4FEA8C234FEAC122DD
:100C700043EA51514FEA1C5018BF00F5F0404FEACB
:100C8000300018BF41F000415FEA6C5C00F0298041
:100C9000BCF1FF3F08BF40F080407047130C06BF17
:100CA00012044FF0100C4FF0000C130E04BF120290
:100CB0000CF1080C130F04BF12010CF1040C930F7C
:100CC00004BF92000CF1020CD30F04BF52000CF1D0
:100CD000010C11464FF00002A0F11F00A0EB0C0028
:100CE000704711F0004F08BF704731F000413FF4EA
:100CF000D5AF0B0C06BF09044FF0100C4FF0000CE1
:100D00000B0E04BF09020CF1080C0B0F04BF090104
:100D10000CF1040C8B0F04BF89000CF1020CCB0FFB
:100D200004BF49000CF1010CCCF12003A0EB0C0036
:100D300022FA03F302FA0CF241EA030100F1010086
:100D4000704720F07F4C80EA030023F07F47ACEB34
:100D5000070303F57C5300F0004003F1FF032DE986
:100D600080494FEA154B09B44FEA144325EA0B4E6C
:100D700024EA03480FF2042606EB132749083E78BD
:100D80005FEA320203FB0667C7F5000707FB06F6BA
:100D90004FEA54374FEAD64606F1020607FB066CC7
:100DA000CCF1005C4FEA1C472CEA074C07FB06F429
:100DB0000CFB06F504EB15464FEA961634BF0020EF
:100DC0004FF000404FEAD13706FB07FC4FEA1C4CBE
:100DD0000CFB0BF7D21B03FB0CF761EB07010CFBC1
:100DE0000EF7B0EB074072EB17420CFB08F734BF6D
:100DF000A2EB0742B2EB074261EB17414FEA0C440A
:100E00004FEA910706FB07FC4FEA1C4C0CFB0BF763
:100E1000B0EBC74072EB573203FB0CF734BFA2EBC9
:100E2000C742B2EBC74261EB57310CFB0EF7B0EB98
:100E3000C70072EB57720CFB08F734BFA2EBC70276
:100E4000B2EBC70261EB5771039F4FEA816141EA40
:100E5000921104EBCC044FEAD1374FEA826206FBD1
:100E600007FC42EA90124FEA80604FEA1C4C0CFBF0
:100E70000BF7D21B03FB0CF761EB07010CFB0EF722
:100E8000B0EB074072EB17420CFB08F734BFA2EB44
:100E90000742B2EB074261EB17414FEA8C554FEA2C
:100EA000910704EB9C2406FB07FC4FEA1C4C0CFB4F
:100EB0000BF7B0EBC74072EB573203FB0CF734BFB4
:100EC000A2EBC742B2EBC74261EB57310CFB0EF706
:100ED000B0EBC70072EB57720CFB08F734BFA2EB04
:100EE000C702B2EBC70261EB577115EB4C254FEA15
:100EF000816141EA92114FEA82624FEAD13742EAB8
:100F0000901206FB07FC44F100044FEA80604FEAB0
:100F10001C4C0CFB0BF7D21B03FB0CF761EB07011E
:100F20000CFB0EF7B0EB074072EB17420CFB08F717
:100F300034BFA2EB0742B2EB074261EB174115EB5E
:100F40001C154FEA813141EA92414FEA823242EA6E
:100F500090424FEA80304FEA0C7644F1000448EAB0
:100F600003434EEA0B484FF0000EB2EB080C71EB56
:100F7000030724BF624639464EEB0E0E4FF0000BBE
:100F80000018524149414BEB0B0BB2EB080C71EBD3
:100F900003077BF1000B24BF624639464EEB0E0E71
:100FA0004FF0000B0018524149414BEB0B0BB2EBD9
:100FB000080C71EB03077BF1000B24BF6246394636
:100FC0004EEB0E0E51EA020718BF46F0010616EB73
:100FD0000E7655F1000254F1000103D5BDE88901F8
:100FE000BDE80088BDE88901BDE80048B619524156
:100FF00041EB0101A3F10103704780807F7E7D7C7E
:101000007B7A7978777676757473727171706F6E9A
:101010006E6D6C6C6B6A6A69686867666665646445
:10102000636362616160605F5F5E5E5D5D5C5C5BCF
:101030005B5A5A595958585757565655555554543E
:10104000535352525251515050504F4F4F4E4E4D9C
:101050004D4D4C4C4C4B4B4B4A4A4A4949494848E8
:101060004847474747464646454545444444444328
:1010700043434342424242414141002B9C4630D4CB
:1010800077002BD01CB54FEA370703B44FF01000A0
:101090004FF01001BAF1000F06D0BCF1000FDCBF19
:1010A00040F0080040F008014FF000000FBCBDE820
:1010B00010400BF1010BBBF1010F08BF5FEA1707EE
:1010C00022BF12F1010211F101014FF0004143F181
:1010D000000300F0004043EA00007047F9D35708CE
:1010E000D0E746EA064613F1400F4FEA16461FDDE9
:1010F00013F1200FDFBF16430A46002120335B4265
:10110000BED0C3F1200746EA064602FA07F74FEAC7
:10111000164646EA0706C3F1200722FA03F201FA4F
:1011200007F721FA03F14FF0000342EA0702A7E7AD
:1011300046EA020646EA06464FEA164646EA01062F
:10114000BCBF46EA0646360C4FF000034FF00002E3
:101150004FF0000194E72DE9804C9A46934670B415
:1011600091E8380007C831EA400C48BF34EA430C24
:1011700003D5FFF7E6FDFFF780FFF0BCBDE8008C6C
:101180002DE9804C9A46934670B491E8380007C820
:1011900010F0804F08BF13F0804F03D100F005F826
:1011A000FFF76BFFF0BCBDE8008C20F07F4780EAC2
:1011B000030023F07F4C07EB0C03A3F57C5300F0F6
:1011C0000040A3F1FE0392F0000F00F0B38095F011
:1011D000000F00F077802DE901494FEA11404FEAF6
:1011E000144621EA004800FB06FC24EA064708FBF7
:1011F00006F607FB08F800FB07F718EB06484CEB70
:10120000164C4FEA124B18EB07484FEA15464CEBC9
:10121000174022EA0B4E0BFB06FC25EA06470EFBA5
:1012200006F607FB0EFE0BFB07F71EEB064E4CEB1C
:10123000164C4FF000061EEB074E4CEB174B18EB0D
:101240000B0840F1000018EB0E0B58EB000840F1C2
:1012500000008F1A4FF000013CBFC943661B14BF4A
:10126000B5EB040C00213CBFC943F61B4FEA174401
:101270004EEA8E0E27EA04454FEA1C4704FB07623C
:101280002CEA074C05FB07F70CFB05F604FB0CFCEE
:1012900016EB074642EB174216EB0C4642EB1C429C
:1012A0001BEB060658EB0202414146EA9E0601D5B9
:1012B000BDE80189B619524141EB0101A3F10103D7
:1012C000BDE801894FEA14454FEA114724EA054673
:1012D00021EA074C05FB07F406FB07F70CFB06F1B8
:1012E00005FB0CFC11EB074144EB17444FEA124796
:1012F00011EB0C4144EB1C4422EA074C05FB07F2BE
:1013000006FB07F70CFB06F605FB0CFC16EB074685
:1013100042EB174216EB0C4642EB1C456A1854F19F
:10132000000148BF7047B619524141EB0101A3F1DA
:101330000103704795F0000F37D04FEA11424FEA92
:10134000144721EA024624EA074C02FB07F106FB98
:1013500007F70CFB06F402FB0CFC14EB074441EB13
:1013600017414FEA154714EB0C4441EB1C4125EAA9
:10137000074C02FB07F506FB07F70CFB06F602FB22
:101380000CFC16EB074645EB174516EB0C4645EBF8
:101390001C42121951F1000148BF7047B619524161
:1013A00041EB0101A3F1010370474FEA14454FEAF5
:1013B000114724EA054621EA074C05FB07F106FB25
:1013C00007F70CFB06F24FF0000605FB0CFC12EBD6
:1013D000074241EB174112EB0C4251EB1C4148BF55
:1013E0007047921841EB0101A3F101037047FEE73A
:1013F00070470000042802D39FED040A7047044997
:1014000001EB800090ED000A704700000000000032
:1014100080020020104910B50020086048608860F4
:10142000C860086148618861C86108624862886272
:10143000C8623C21094800F085FF3C21084800F0C3
:1014400081FF3C21074800F07DFFBDE810403C21B2
:10145000054800F077BF0000600200202000002057
:1014600068000020B0000020F8000020FCB51E48F5
:101470000068406AADF800001C480068406AADF89A
:1014800002001B480068406AADF804001948006873
:10149000406A194AADF806009FED181A00206D4603
:1014A000A2F11003F2EE040A02F1100635F8104022
:1014B00032F8201053F82070611A09B200EE101AA9
:1014C0000F4443F82070B8EEC00A42F8204006EB03
:1014D0008001401C20EE010AC0B20428C0EE201A90
:1014E000C1ED001AE2D3FCBD2000002068000020FE
:1014F000B0000020F80000207002002000007A44B4
:1015000072B6FEE72DE9F0410446876D00F054F90C
:10151000064694F835000025022806D08020606534
:1015200084F834500120BDE8F0812068016821F082
:10153000160101602068416921F080014161206C41
:1015400008B9A06C20B12068016821F00801016091
:101550002068016821F0010101600CE000F02CF925
:10156000801B052807D920206065032084F83500FA
:1015700084F83450D7E720680068C007EED194F8AB
:101580005C103F208840B860012084F8350084F862
:1015900034500020C7E790F83510022903D080218D
:1015A000416501207047052180F835100068016809
:1015B00021F0010101600020704700002DE9F84F83
:1015C000DFF8BCA10022012503264FF00F090AF124
:1015D000040BAAF1040E00BF0B6805FA02F42340C5
:1015E000A34270D10F7907F00307012F01D0022F1A
:1015F00016D187684FEA420806FA08FC27EA0C076A
:10160000D1F80CC00CFA08FC4CEA070CC0F808C072
:101610004768A7430C79C4F3001494403C434460EA
:101620000C79E443A4070AD0C4684FEA420C06FAD6
:101630000CF7BC438F6807FA0CF72743C7600C7997
:1016400004F00304022C12D1D40800EB840CDCF863
:1016500020405707FF0E09FA07F824EA0804D1F8DA
:10166000108008FA07F848EA0408CCF820800468DB
:101670004FEA420C06FA0CF7BC430F7907F0030758
:1016800007FA0CF7274307604C6814F4403F70D00A
:101690003C4C276847F480472760246822F0030702
:1016A00004F480440094384C07EB040CDCF8084840
:1016B00097074FEA177809FA08F7BC43334FB84247
:1016C00002D1002724E054E0314FB84201D1012774
:1016D0001EE0304FB84201D1022719E02E4FB84228
:1016E00001D1032714E02D4FB84201D104270FE0A8
:1016F0002B4FB84201D105270AE02A4FB84201D149
:10170000062705E0284FB84201D1072700E0082747
:1017100007FA08F72743CCF80878DAF8004057466C
:10172000D1F804C09C435FEACC2C00D51C433C603C
:10173000DBF800405F46D1F804C09C435FEA8C2C84
:1017400000D51C433C60DEF800407746D1F804C069
:101750009C435FEA8C3C00D51C433C60084F083F2B
:101760003C68D1F804C09C435FEACC3C00D51C43E4
:101770003C60521C102AFFF42FAFBDE8F88F000028
:10178000083C014044380240003001400000024063
:101790000004024000080240000C02400010024019
:1017A0000014024000180240001C02400AB181618E
:1017B00070470904FBE7000001488068704700009B
:1017C000100000200248816802781144816070474F
:1017D000100000200B4810B5016841F40071016051
:1017E000016841F480610160016841F48071016029
:1017F000032000F06FF80F2000F006F800F024F846
:10180000002010BD003C024070B50D4D04464FF461
:101810007A712878B1FBF0F00A490968B1FBF0F061
:1018200000F00CFB48B9102C07D200222146501EB4
:1018300000F030F800206C6070BD012070BD000029
:10184000100000201C0000200A4808B5016841F47F
:1018500080410160006800F4804000900548001F4E
:10186000016841F080510160006800F080500090F4
:1018700008BD000044380240002809DB00F01F02C8
:10188000012191404009800000F1E020C0F80011E2
:1018900070470000F0B40E4B1B680C46C3F30223E4
:1018A000C3F10705042D00D90425191D072901D20C
:1018B000002300E0DB1E012606FA05F1491E214047
:1018C00099409E40761E16403143F0BC02F0ABB802
:1018D0000CED00E0064900F0070208684FF6FF0330
:1018E000184040EA0220034A104308607047000095
:1018F0000CED00E00000FA052DE9F0470E4605006A
:1019000065D0DFF81481D8F80000F7B200F00700C6
:10191000B04207D288F80070D8F8000000F0070045
:10192000B04254D128683D4C810712D5400703D5F9
:10193000206840F4E05020602878000703D5206834
:1019400040F4604020602068A96820F0F00008435F
:1019500020602878C0072DD03049686808390128F0
:1019600012D0022813D0032811D009688907002952
:101970002DDA216821F0030101432160FFF71CFFEC
:10198000814641F2883A0EE009688903EFE7096869
:101990008901ECE7FFF710FFA0EB0901514502D9DF
:1019A0000320BDE8F0872068696800F00C00B0EB08
:1019B000810FEFD1D8F80010404601F00701B14285
:1019C00007D90770006800F00700B04201D001207D
:1019D000E7E72878400705D52068E96820F4E0505B
:1019E000084320602878000706D52068296920F47C
:1019F000604040EAC100206000F038F82168084AE1
:101A0000C1F30311515CC8400649086006480068EC
:101A1000FFF7FAFE0020C4E7003C0240083802400D
:101A2000EC3B00081C00002014000020044805497D
:101A300000680968044AC1F38221515CC8407047BC
:101A40001C00002008380240FC3B000804480549FF
:101A500000680968044AC1F34231515CC8407047CC
:101A60001C00002008380240FC3B0008154810B557
:101A7000006810F00C02144813D01449042A0FD047
:101A8000082A0ED10F4C241F2268236802F03F025F
:101A90005B0207D52068C0F38810A0FB010106E0B7
:101AA000084610BD2168C1F38811A1FB0001002385
:101AB000FEF7E6FB2168C1F30141491C4900B0FB78
:101AC000F1F010BD083802400024F40040787D0198
:101AD0002DE9F84F04006ED02078DFF84C93C00752
:101AE000A9F104054AD009F104000168C1F381019C
:101AF000012908D00068C0F3810002280AD1D9F872
:101B00000000400206D52868800337D560680028A9
:101B1000E1D033E06068B0F5803F10D0B0F5A02F81
:101B2000286810D020F480302860286820F48020B5
:101B300028606068A8B1FFF73FFE06460DE0286800
:101B400040F48030F4E740F480202860F7E700BFDD
:101B5000FFF732FE801B642873D828688003F7D50E
:101B60000CE0FFF729FE064605E000BFFFF724FE64
:101B7000801B6428F0D828688003F7D42078DFF829
:101B8000AC8280074FF0000A3ED5A748001D0168CF
:101B900011F00C0F08D00068C0F3810002280BD1AF
:101BA000D9F80000400207D42868800716D5E068FD
:101BB000012800D112E033E1E068B8B10120C8F893
:101BC0000000FFF7F9FD064605E000BFFFF7F4FD52
:101BD000801B0228C0D828688007F7D528682169AB
:101BE00020F0F80040EAC10028600DE0C8F800A02D
:101BF000FFF7E2FD064604E0FFF7DEFD801B02284A
:101C00001FD828688007F7D42078000722D5864F90
:101C100087486169703771B101210160FFF7CCFD20
:101C2000064604E0FFF7C8FD801B022809D8386883
:101C30008007F7D50EE0C0F800A0FFF7BDFD06460F
:101C400005E082E0FFF7B8FD801B02287DD83868E8
:101C50008007F7D42078400768D5DFF8CCB100279B
:101C60000BF13C0BDBF80000C0000BD4DBF80010DC
:101C700041F08051CBF80010DBF80000012700F0A4
:101C8000805000906B4E3068C00510D4306840F42E
:101C900080703060FFF790FD009005E0FFF78CFD4D
:101CA0000099401A022850D83068C005F6D55E4E1B
:101CB000A0686C3601280FD00528306810D020F0BD
:101CC00001003060306820F004003060A068B8B1D6
:101CD000FFF772FD00900FE0306840F00100F4E77C
:101CE00040F004003060F7E7FFF766FD0099411A05
:101CF00041F28830814266D830688007F4D50EE022
:101D0000FFF75AFD009007E0FFF756FD0099411AD2
:101D100041F28830814256D830688007F4D42FB120
:101D2000DBF8001021F08051CBF80010A069C8B397
:101D30003D49091D0968C1F3810102294AD00228E1
:101D4000504607D0C8F8600000E03CE0FFF734FDE3
:101D500004463BE04746C8F86000FFF72DFD064605
:101D600005E000BFFFF728FD801B02282BD828685C
:101D70008001F7D4D4E907010843A16A2E4A490833
:101D800002EB0141626A41EA8211084394F82C1087
:101D900040EA0161C9F8001001203866FFF70CFD28
:101DA000044606E03EE000BFFFF706FD001B0228E8
:101DB00009D828688001F7D534E000BFFFF7FCFCA4
:101DC000001B022802D90320BDE8F88F2868800193
:101DD000F4D427E00128F7D0D9F80000E26900F434
:101DE000800191421CD1226A00F03F01914217D13B
:101DF00047F6C071626A0140B1EB821F10D1A26A3E
:101E00004FF0FF3300F4403103EB5202B1EB024FCD
:101E100006D194F82C1000F07060B0EB016F01D087
:101E20000120D1E70020CFE70438024000004742FC
:101E3000800E4742007000400000FFFF10B5401EBA
:101E4000B0F1807F01D3012010BD4FF0E02460612C
:101E50000F21601701F0E7FD0020A061072020613D
:101E6000002010BD7047704710B590F83C20012A43
:101E700022D0012280F83C20CA688C6822F440728B
:101E800022434C6822F4806222430C6822F40062F0
:101E900022430C6922F4805222434C6922F40052FE
:101EA0002243C969002322F480420A4301684A643C
:101EB00080F83C30002010BD022010BD70B590F8B5
:101EC0003C20012A32D0012480F83C40022280F8D4
:101ED0003D2003685A689D6822F070060A68324304
:101EE0005A60134B02689A4214D0B2F1804F11D05D
:101EF000104B9A420ED0104B9A420BD00F4B9A4285
:101F000008D00F4B9A4205D00E4B9A4202D00E4B8E
:101F10009A4204D1496825F080031943916080F802
:101F20003D40002180F83C10084670BD022070BD85
:101F3000000001400004004000080040000C004088
:101F400000040140004001400018004010B50400AA
:101F500003D094F83D0010B107E0012010BD00202F
:101F600084F83C00204600F01FF8022084F83D0071
:101F7000211D206801F032FA012084F8460084F81F
:101F80003E0084F83F0084F8400084F8410084F863
:101F9000420084F8430084F8440084F8450084F843
:101FA0003D00002010BD000008B5006811498842BE
:101FB00012D11148016841F010010160006800224F
:101FC00000F01000009011463620FFF763FCBDE8DA
:101FD00008403620FFF750BC0849884209D106481E
:101FE000001D016841F002010160006800F002007C
:101FF000009008BD0010004040380240000401403D
:1020000090F83D10012901D001207047022180F88D
:102010003D100168CA6842F00102CA6000681149B7
:10202000884214D0B0F1804F11D00F4988420ED0B1
:102030000E4988420BD00E49884208D00D4988428B
:1020400005D00D49884202D00C49884204D18168EC
:1020500001F00701062903D0016841F00101016088
:1020600000207047000001400004004000080040CC
:10207000000C0040000401400040014000180040F6
:1020800070B5044690F83C000025012817D00126C1
:1020900084F83C60022084F83D002068826822F0C9
:1020A000770222F47F4282600868502838D00DDC25
:1020B00020284FD005DC90B3102811D14AE002202F
:1020C00070BD302846D040280AD13BE060282FD090
:1020D00070280DD0B0F5805F03D0B0F5005F12D04E
:1020E000012584F83D60002084F83C00284670BD3E
:1020F000CB68D1E90121206801F0E5F92068816809
:1021000041F0770109E0CB68D1E90121206801F0B5
:10211000DAF92068816841F480418160E1E719E0E3
:10212000CA684968206801F0A3FA5021206806E0D7
:10213000CA684968206801F0ACFA6021206801F0A3
:10214000CCF9CEE7CA684968206801F091FA4021CD
:102150002068F4E7226801461046F0E72DE9F041D7
:102160000D46040003D094F83D0018B108E00120AA
:10217000BDE8F081002084F83C00204600F040F8E3
:10218000022084F83D002068816844F207029143F0
:102190008160211D206801F021F922689068916911
:1021A000166A2B68AF69034340F20330814341EA6A
:1021B0000721A868EF6908434FF6FC418843E968A6
:1021C00040EA0720014328692F6A000140EA0730EE
:1021D000084369686D6926F0AA0646EA0515294391
:1021E00093602268906154F8460B0162012004F864
:1021F0001F09E0752076E0762077A0750020B7E70C
:10220000F0B587B0044614216846FEF754F94749F3
:1022100023680024454810390225454A454EB3F14C
:10222000804F1FD0DFF810C1C027634546D1036837
:1022300043F002030360006800F0020005900868A4
:1022400040F00100086008680097CDE9015400F0F3
:102250000100CDE90450694603941046FFF7AEF93A
:1022600007B0F0BD036843F001030360006800F0AD
:1022700001000590086840F001000860086800F05F
:1022800001000590086840F0020008600868012716
:1022900000F00200059020200090CDE90154CDE926
:1022A000034769461046FFF789F908200090CDE9F9
:1022B0000154CDE9034769463046CFE7DFF87CC0DB
:1022C000634517D1026842F004020260006800F022
:1022D00004000590086840F0020008600868009754
:1022E000CDE9015400F00200CDE9045069460394A1
:1022F0003046B3E7124EB342B2D1036843F008034D
:102300000360006800F008000590086840F00100D4
:1023100008600868694600F00100059003200090FD
:10232000CDE901541046CDE9034597E74038024016
:102330000000024000040240000400400008004089
:10234000000C004070B590F83E60044690F83F5095
:1023500090F8423090F84320022021B104290ED099
:10236000012E1BD114E0012E18D1012B16D184F8B7
:102370003E0084F8420001220021206820E0012D67
:102380000CD1012A0AD184F83F0084F8430014E0FC
:10239000012D03D1012B01D1012A01D0012070BDF3
:1023A00084F83E0084F83F0084F8420084F843003B
:1023B00001220021206801F079F80122042120681F
:1023C00001F074F82068016841F00101016000200B
:1023D00070BD70472DE9F04104460068C668056984
:1023E0004FF00007A90713D5B10711D5F91E0161F8
:1023F00001202077206880698007204602D0FFF7FF
:10240000E8FF04E000F0A8F8204600F03AF927774A
:10241000680716D5700714D521686FF004000861AD
:10242000022020772068806910F4407F204602D087
:10243000FFF7CFFF04E000F08FF8204600F021F90D
:102440002777280715D5300713D521686FF00800C6
:102450000861042020772068C0698007204602D0E8
:10246000FFF7B7FF04E000F077F8204600F009F925
:102470002777E80616D5F00614D521686FF010000E
:102480000861082020772068C06910F4407F20464A
:1024900002D0FFF79EFF04E000F05EF8204600F057
:1024A000F0F82777E80708D0F00706D021686FF02A
:1024B00001000861204600F049F9280608D53006D9
:1024C00006D521686FF0800008612046FFF7CAFC3E
:1024D000680608D5700606D521686FF040000861CF
:1024E000204600F047F9A8060AD5B00608D52168AD
:1024F0006FF0200008612046BDE8F041FFF7B3BC53
:10250000BDE8F08110B586B0044614216846FDF799
:10251000D2FF0E492068884216D10D48002102687A
:1025200042F004020260006800F0040005904FF4DD
:10253000707000900220CDE901010320CDE9031065
:1025400069460448FFF73AF806B010BD00040140A0
:102550003038024000080240704770B5044690F8D9
:102560003C0000260D4601280FD0012084F83C00D5
:102570006AB1042A1DD0082A2FD00C2A3FD0012688
:10258000002084F83C00304670BD022070BD2068F9
:1025900000F0ACFF2068816941F00801816120688A
:1025A000816921F004018161206881692A691143F0
:1025B00011E0206800F0CAFF2068816941F40061E1
:1025C00081612068816921F480618161206881696D
:1025D0002A6941EA02218161D2E7206800F0ECFF1C
:1025E0002068C16941F00801C1612068C16921F01A
:1025F0000401C1612068C1692A69114311E02068A2
:1026000001F00EF82068C16941F40061C1612068E1
:10261000C16921F48061C1612068C1692A6941EA08
:102620000221C161ACE710B5040003D094F83D006D
:1026300010B107E0012010BD002084F83C002046C6
:1026400000F01EF8022084F83D00211D206800F0F3
:10265000C5FE012084F8460084F83E0084F83F005F
:1026600084F8400084F8410084F8420084F8430074
:1026700084F8440084F8450084F83D00002010BD33
:102680007047704710B50446022249B104290ED0A4
:10269000082913D094F84100012816D0012010BD5C
:1026A00094F83E000128F9D184F83E200FE094F818
:1026B0003F000128F2D184F83F2008E094F8400060
:1026C0000128EBD184F8402001E084F84120012268
:1026D000206800F0EBFE16492068164A884201D0B7
:1026E000904203D1436C43F4004343642068884222
:1026F00013D0B0F1804F10D00F4988420DD00F4950
:1027000088420AD00E49884207D0904205D00D4930
:10271000884202D00C49884204D1816801F0070147
:10272000062903D0016841F001010160002010BDBD
:102730000000014000040140000400400008004087
:10274000000C0040004001400018004000680749AC
:1027500088420AD106480178491CC9B201700A2989
:1027600003D30021017000F0B9BC70470010004095
:10277000000000207047704770470000F8B50168FE
:1027800004460868CA684B6910F00F0F4FF0000547
:1027900059D003F0010602F49077374365D0C107A2
:1027A00005D0D10503D5616C41F001016164410799
:1027B00005D5D90703D0616C41F00201616481073E
:1027C00005D5D90703D0616C41F0040161640107AC
:1027D00007D502F02001314303D0616C41F00801BC
:1027E0006164616C00293AD0800604D5900602D558
:1027F000204600F0D7FF20684069616CC0F380106C
:10280000090700D460B3204600F0A5FF20684069A6
:10281000400621D52068143050E8001F21F0400107
:1028200040E80012002AF5D1E06BA8B172490165B9
:10283000E06BFEF7B0FE002811D0E06B016D01B037
:10284000BDE8F040084783060FD593060DD5204616
:10285000BDE8F84000F0A6BF2046FFF78DFFF8BDA9
:102860002046FFF789FF6564F8BD266B2023012E03
:102870007ED1C6067CD5D6067AD508684868009011
:1028800048694FF0020640064DD5E26B106840687B
:102890004FF480770004000C3AD0A18D814237D9E3
:1028A000E085D069B8422DD020680C3050E8001F78
:1028B00021F4807140E80012002AF5D1206814301C
:1028C00050E8001F21F0010140E80012002AF5D174
:1028D0002068143050E8001F21F0400140E8001249
:1028E000002AF5D184F84230256320680C3050E886
:1028F000001F21F0100140E80012002AF5D1E06B22
:10290000FEF700FE6663A08DE18D401A81B206E0FD
:10291000A18D8142A8D1D069B842A5D16663204675
:10292000FFF729FFF8BDA08DE18D401A81B2E08D3F
:102930000028F7D00029F5D020680C3050E8002F8F
:1029400022F4907240E80027002FF5D1206814305F
:1029500050E8002F22F0010240E80027002FF5D1B7
:1029600084F84230256320680C3050E8002F00E0E6
:1029700006E022F0100240E80023002BF3D1CDE75F
:1029800005062BD5150629D594F841002128C9D173
:10299000A068B0F5805F01D12069B0B1206A411C08
:1029A0002162216800784860E08C401E0004000C21
:1029B000E084B7D12068C16821F08001C16020683F
:1029C000C16841F04001C160F8BD206A0088C0F3D1
:1029D00008004860206A801C2062E5E74006F3D5C5
:1029E0005006F1D5CA68204622F04002CA6084F839
:1029F000413000F0F4F8F8BD4937000870B5040024
:102A000004D094F84100002510B106E0012070BD0B
:102A100084F84050204600F023F8242084F8410038
:102A20002068C16821F40051C160204600F01CFFFD
:102A30002068016921F4904101612068416921F019
:102A40002A0141612068C16841F40051C160656498
:102A5000202084F8410084F842006563002070BDA6
:102A60002DE9F04186B0044614216846FDF723FDA8
:102A70002E482D4F236800242C49103802250322AC
:102A80000826BB421CD10B6843F400230B60096885
:102A900001F400210591016841F004010160006822
:102AA000CDE9024200F0040005909002CDE9000556
:102AB000694604961E48FEF781FD06B0BDE8F08128
:102AC0001C4FBB42F9D10B6843F400330B6009681B
:102AD00001F400310591016841F0010101600068D5
:102AE000DFF8548000F0010005900420CDE90005D6
:102AF000CDE902420727694604974046FEF75EFD8E
:102B00000120CDE90240CDE90065694604974046C1
:102B1000FEF754FD002211462620FEF7BBFE2620BC
:102B2000FEF7AAFEC9E70000004C00404038024012
:102B300000080240004400400000024070472DE9B8
:102B4000F843044690F84100984616460D46202862
:102B500002D00220BDE8F88385B17EB10020606418
:102B6000212084F84100FEF727FEA6848146E684F2
:102B7000A0682027B0F5805F02D003E00120E9E7DC
:102B8000206910B12E4600250EE000260CE08021C1
:102B9000204600F0EFFEA8B9C6B116F8010B216877
:102BA0004860E08C401EE084E08C4B464FF0000211
:102BB000CDF800800028EAD14FF04001204600F017
:102BC000D9FE40B184F841700320C3E735F8020B09
:102BD000C0F30800E3E784F841700020BAE77047CB
:102BE000FEE700002DE9F04186B014216846FDF7AC
:102BF00062FC2F480025016841F010010160016866
:102C000001F010010591016841F080010160016847
:102C100001F080010591016841F001010160016846
:102C200001F001010591016841F0080101600168AE
:102C300001F008010591016841F00401016001689B
:102C400001F004010591016841F002010160006892
:102C5000184F00F002000590012220213846FEF7AF
:102C6000A5FDDFF8548041F6FF460022314640467C
:102C7000FEF79CFD01242020CDE90004694638467A
:102C8000CDE90245FEF79AFC6002CDE900056946F0
:102C900002944046FEF792FC0220CDE90240CDE9C5
:102CA000006469464046FEF789FC06B0BDE8F08145
:102CB0003038024000100240000C024010B58CB0C9
:102CC00024216846FDF7F7FB0024154809944FF0CE
:102CD00080410A94C0E900144FF6FF71C0E9024137
:102CE000046184610320CDE900040120CDE90204E0
:102CF0000494CDE905400794694609480894FFF714
:102D00002DFA08B1FEF7FCFB099409A904480A94BE
:102D1000FFF7D4F8002801D0FEF7F2FB0CB010BD8D
:102D20002000002010B58CB024216846FDF7C3FBBD
:102D300000241648099414490A94C0E900144FF677
:102D4000FF71C0E90241046184610320CDE9000400
:102D50000120CDE902040494CDE9054007946946B9
:102D60000A480894FFF7FAF908B1FEF7C9FB09947D
:102D700009A906480A94FFF7A1F8002801D0FEF738
:102D8000BFFB0CB010BD0000000400406800002034
:102D900010B58CB024216846FDF78DFB0024164841
:102DA000099414490A94C0E900144FF6FF71C0E970
:102DB0000241046184610320CDE900040120CDE9D2
:102DC00002040494CDE90540079469460A48089432
:102DD000FFF7C4F908B1FEF793FB099409A9064867
:102DE0000A94FFF76BF8002801D0FEF789FB0CB0BE
:102DF00010BD000000080040B000002010B58CB0ED
:102E000024216846FDF757FB00241648099414490D
:102E10000A94C0E900144FF6FF71C0E90241046151
:102E200084610320CDE900040120CDE9020404946B
:102E3000CDE90540079469460A480894FFF78EF9E2
:102E400008B1FEF75DFB099409A906480A94FFF74B
:102E500035F8002801D0FEF753FB0CB010BD000080
:102E6000000C0040F80000201CB500240E4800941F
:102E70000C49019401605321C0E9011440F2E7318B
:102E80008461C160FFF762F808B1FEF739FB009476
:102E9000694605480194FFF711F8002801D0FEF7B4
:102EA0002FFB1CBD001000404001002010B596B063
:102EB00000240F9410941194129413941C216846CA
:102EC0001494FDF7F8FA202107A8FDF7F4FA344826
:102ED000324901605321C0E9011440F2E731C0E9F1
:102EE000031444618461FFF731F808B1FEF708FB71
:102EF0004FF480500F900FA92948FFF7C1F808B18F
:102F0000FEF7FEFA2648FFF78EFB08B1FEF7F8FA47
:102F1000139413A922481494FEF7D0FF08B1FEF7CA
:102F2000EFFA6020CDE90004029403940494059420
:102F3000002269461A480694FFF70FFB08B1FEF716
:102F4000DFFA042269461648FFF707FB08B1FEF7CF
:102F5000D7FA082269461248FFF7FFFA08B1FEF7D0
:102F6000CFFA0C2269460E48FFF7F7FA08B1FEF7D0
:102F7000C7FA0794089409944FF400500A94CDE9D5
:102F80000B4007A906480E94FEF76EFF08B1FEF746
:102F9000B7FA0348FFF7B6FA16B010BD00040140B7
:102FA000880100200C4810B50A4901604FF4E13156
:102FB0004160002181600C22C160C0E9041281617E
:102FC000C161FFF71BFD002803D0BDE81040FEF7EC
:102FD00097BA10BD004C0040D00100200D4810B53C
:102FE0000B4901604FF41641416000214FF400523B
:102FF000C0E902120C22C0E904128161C161FFF72D
:10300000FDFC002803D0BDE81040FEF779BA10BDE2
:103010000044004018020020FEE7000070B52DEDCE
:10302000048BFEF7F7F91B48FEF7EAFF00211A4868
:10303000FFF728FB04211848FFF724FB0821164856
:10304000FFF720FB0C211448FFF71CFB134DDFEDAD
:10305000148A9FED149A9FED148A0024A5F110069E
:1030600005EB4410B0EE682AF0EE491AB0EE481AAB
:10307000F0EE480AB0EE080A00F026F906EB8400EC
:10308000641CE4B280ED008A042CE9D3BDEC048B0F
:1030900070BD00004001002088010020A002002037
:1030A00000C079C400C07944000000009FED092AE7
:1030B000094820EE020A80ED000A20EE820A80ED27
:1030C000010A21EE020A80ED020A21EE820A80ED59
:1030D000030A7047766A30439002002070B52DEDE8
:1030E000048BFEF7C3F9214D9FED219A002405F1D1
:1030F00010062046FEF77EF924B3032C22D00120CF
:1031000000EE900A05EB8400F8EEE00A20EE200ABB
:10311000D0ED000A06EB441080EE898AC0EE098AE1
:10312000B0EE480AF0EE680A00F078F8F0EE409A47
:10313000BDEEE90A10EE100A01B2204600F01AF8BE
:103140001CB10CE04FF0FF30DAE738EE681AF0EE11
:10315000691AF0EE680AB0EE480A00F0ADFA641C95
:10316000E4B2042CC5D3BDEC048B70BD90020020EA
:103170000000C8422DE9F041044604283BD2ECB1DE
:10318000032C1BD05FF0010010FB01F0204E4FF428
:103190007A721E4900B2551E336801F108070028F3
:1031A0000FDB904200DA85B231F814100122184684
:1031B000FEF7FCFA37F8141000220FE04FF0FF3052
:1031C000E2E74042904200DA85B231F81410002262
:1031D0001846FEF7EBFA37F8141001223068FEF7B4
:1031E000E5FA0C484CB1012C0AD0022C0BD0032C70
:1031F00001D100680564BDE8F08100684563FAE725
:1032000000688563F7E70068C563F4E7DC3B000806
:103210000400002088010020FEE70000F0B330EE3B
:10322000600ADFED270AD0ED031A90ED001A40EE98
:10323000201A21EE002AC0ED031A90ED071AF4EED1
:10324000C11AF1EE10FA01DD80ED031AD0ED031A78
:10325000B1EE411AF4EEC11AF1EE10FA01D280ED8E
:10326000031A90ED011AD0ED031A21EE211AD0EDC8
:10327000041A80ED040A70EE612A90ED020AC2EE93
:10328000A01A72EE010A20EE210A30EE800AD0ED7B
:10329000050AF4EEC00AF1EE10FA00E00CE001D2EB
:1032A000B0EE600AD0ED060AF4EEC00AF1EE10FAB4
:1032B00001DDB0EE600A70479FED020A7047000022
:1032C0000AD7233C0000000010B504002DED068B4A
:1032D000F0EE428AB0EE618AB0EE419AF0EE609A6A
:1032E000B0EE40AA0ED02021FDF7E5F884ED00AA4B
:1032F000C4ED019A84ED029A84ED058AC4ED068A34
:1033000084ED078ABDEC068B10BD000004488021C7
:10331000017041708170C17000218180817170479E
:103320000800002070477047FEF74CBA30B593B0E4
:1033300030216846FDF7BFF814210CA8FDF7BBF853
:103340001D480025016841F080510160006800F0CF
:10335000805011901948016841F480410160006873
:10336000022400F48040119001200390102004906A
:10337000009406940820CDE90750A820CDE909045F
:1033800004200B906846FEF7A3FB08B172B6FEE777
:103390000CA90F2081E831004FF4A0500F904FF49A
:1033A0008050109005210CA8FEF7A6FA002801D045
:1033B00072B6FEE713B030BD4038024000700040E6
:1033C0000248016841F470010160704788ED00E037
:1033D0000148FEF7FFBF000040010020F0B5026881
:1033E000274B284D284E294F294C4FF0804C9842AE
:1033F00009D0604507D0A84205D0B04203D0B842FA
:1034000001D0A04204D122F0700E4A6842EA0E02B6
:1034100098421BD0604519D0A84217D0B04215D0B1
:10342000B84213D0A04211D01A4DA8420ED01A4D66
:10343000A8420BD0194DA84208D0194DA84205D07A
:10344000184DA84202D0184DA84203D122F440756D
:10345000CA682A434D6922F080022A438D68C562FA
:103460000D688562984201D0A04201D109690163CB
:10347000016841F004010160012141610260F0BD79
:10348000000001400004004000080040000C004023
:103490000004014000400140004401400048014058
:1034A00000180040001C00400020004010B501F052
:1034B0001F030121046A99408C430462016A9A4007
:1034C0001143016210BD10B5846842EA032224F45E
:1034D0007F440A432243826010BD826822F070025A
:1034E0000A4342F00701816070470000F0B5036AAB
:1034F000026A22F00102026242688469124E24F0DC
:1035000073050C682C4323F002058B682B430D4D8B
:10351000A84201D0B04205D123F00807CB683B4355
:1035200023F00403A84201D0B04205D14D6922F432
:10353000407215438A692A43426084614968416345
:103540000362F0BD0000014000040140F0B5026AD2
:10355000036A23F010030362436884690D6824F44E
:10356000E64444EA05248D6822F0200242EA05126E
:103570000F4D104EA84201D0B04206D1CF6822F0C4
:10358000800242EA071222F04002A84201D0B04273
:1035900007D14D6923F4406343EA85038D6943EA0B
:1035A000850343608461496881630262F0BD000065
:1035B0000000014000040140F0B5026A036A23F4F0
:1035C000807303624368C46922F4007224F07305B7
:1035D0000C68124E2C438D6842EA05220E4DA8421B
:1035E00001D0B04206D1CF6822F4006242EA07223D
:1035F00022F48062A84201D0B04207D14D6923F481
:10360000405343EA05138D6943EA05134360C461DF
:103610004968C1630262F0BD00000140000401403E
:1036200030B5046A026A22F4805202624268C369B9
:103630000D6823F4E64343EA05238D6824F400541F
:1036400044EA0534084DA84202D0084DA84204D1EE
:103650004D6922F4804242EA85124260C3614968A2
:103660000164046230BD000000000140000401401C
:1036700010B5036A046A24F001040462846924F02A
:10368000F00444EA021423F00A020A43846102624D
:1036900010BD10B5036A046A24F010040462846942
:1036A00023F0A00324F4704444EA023243EA0111F7
:1036B0008261016210BD00002DE9F0432DED048B05
:1036C00099B0B0EE418AF0EE608AB0EE409A11EE09
:1036D000900A00F00BFA06460F4618EE100A00F0AA
:1036E00005FA04460D4618EE900A00F0FFF98046F0
:1036F000894619EE100A00F0F9F90B4602468DE8EA
:103700000C0304AB09A283E8F000402108A8FCF7F1
:103710002FFE002805DD82B20A2308A90948FFF719
:103720000EFA19B0BDEC048BBDE8F083252E32668D
:103730002C252E32662C252E32662C252E32660A3A
:1037400000000000D001002010B5806B0021C18571
:10375000FFF712F810BD01680C3151E8002F22F478
:10376000907241E80023002BF5D10168143151E833
:10377000002F22F0010241E80023002BF5D1016B5C
:10378000012909D101680C3151E8002F22F0100203
:1037900041E80023002BF5D1202180F842100021C0
:1037A0000163704708B590F84210222901D0022029
:1037B00008BD82684FF480539A4201D1016921B15A
:1037C000816A9A421BD04AB10AE00268816A526853
:1037D000C2F308020A80816A891C08E0026972B19A
:1037E0000268526802F07F020A70816A491C816295
:1037F000C18D491E0904090CC18503D01BE0026874
:103800005268F1E70168CA6822F02002CA600168C4
:10381000CA6822F48072CA6001684A6922F0010213
:103820004A61202180F8421000214163026B012A85
:1038300003D0FFF783F9002008BD016301680C3154
:1038400051E8002F22F0100241E80023002BF5D1AF
:1038500001680A68D20602D50A6849680091818D1C
:10386000FEF789FFE7E7000070B5044600680169CC
:10387000E26821F44051114301612169A068E269C5
:1038800008436169114308432168CA6849F20C631F
:103890009A430243CA6020684169A26921F44071D9
:1038A0001143416131492068884202D03049884241
:1038B00002D1FEF7CBF801E0FEF7B8F8E269002389
:1038C000192164253226B2F5004F626828D0A0FB8A
:1038D0000101930F9200FCF7D3FC0146B0FBF5F019
:1038E0006FF01802504301EB800006EB0010B0FBB4
:1038F000F5F000F0F002B1FBF5F002EB0012B1FBC5
:10390000F5F06FF01803584301EB800006EB001050
:10391000B0FBF5F000F00F0021681044886070BD26
:10392000A0FB010192185B41FCF7AAFC0146B0FB29
:10393000F5F00201B1FBF5F06FF01803584301EB0D
:10394000800006EBC000B0FBF5F000F0F80002EBE1
:103950004002B1FBF5F0584301EB800006EBC000DC
:10396000B0FBF5F000F00700D6E7000000100140C2
:10397000001401402DE9F843984617460D460446C9
:10398000089E24E0701C22D0FDF716FFA0EB080073
:10399000B0421AD8CEB12068C168490717D5802D2A
:1039A00015D0402D13D00168C94309070FD4016811
:1039B0000025406800902046FFF7CDFE0820606497
:1039C00084F840500120BDE8F8830320FBE720681D
:1039D000006835EA000004D00020B842D2D00020B0
:1039E000F1E70120F9E700000148FEF7C7BE00003B
:1039F00018020020FEE703B401984100009850EA45
:103A0000C12018BF04204A0D18BF40F0010040F249
:103A1000FF72B2EB515F08BF40F00200012808BFFF
:103A2000052002B070470907090E002804DB00F1E9
:103A3000E02080F80014704700F00F0000F1E02053
:103A400080F8141D704730380A2801D201207047D1
:103A500000207047FDF7BEFEFFF768FCFFF7C2F8D5
:103A6000FFF724FAFFF72AF9FFF75CF9FFF790F95F
:103A7000FFF7C4F9FFF7F8F9FFF794FAFFF7AEFA8A
:103A8000FFF7CCFAFFF742FC9FED080AF0EE401A70
:103A9000B0EE401AF0EE400AFFF708FB044C00229B
:103AA00020212046FDF782FEF9E700000000FA43DE
:103AB0000010024010B500290AD00878002807D06D
:103AC00005487844FDF784F8002801D0002010BD97
:103AD0000248784410BD0000F6010000EE0100002D
:103AE0000808A0F500114FEA3101704743004FEA82
:103AF000D30C4FEA3C0C43401FBF40070CF1605110
:103B000013F0FE4F70471CF0006F03D100200CF043
:103B1000004170470CF0004343EA507010B540EA92
:103B2000CC0000F00EF800BF000000924FEA000148
:103B3000FFF7D6BF4FF000414FF00000A1F5002184
:103B400070470EF1020E2EF0030E5EF8044B244275
:103B500004D44FEA4102B2F17F4F11D84FEA40033B
:103B6000B3F17F4F0CD80ED14FEAD07CB2F17F4F2A
:103B70000CEB4C0C0CF1020C08BF4CEBD17C04E0BC
:103B80004FF0080C01E04FEAD17C0CEB4C0324FA17
:103B900003F404F00704B4F1040C06D20EEB840C19
:103BA000BDE810404CF0010C6047DFE80CF007085E
:103BB00002024FF00040A0F5800010BD0846420010
:103BC00018BFD2F1807288BF00F0004010BD4FF0E6
:103BD0004070E1EE100A7047FCF770BD0100040070
:103BE00010004000020008002000800000000000DB
:103BF000000000000102030406070809000000009D
:103C00000102030402400000000000A000000000C8
:103C100005400000000000C8000000000C4000004B
:103C20000000409C00000000194000000020BCBEC5
:103C30000000000034400000BFC91B8E00000004DB
:103C4000B5400000504BCFD06607E2CF0100000026
:103C50006C4100003E8251AADFEEA7340100000053
:103C6000D9420000DCB5A0E23A301F97FFFFFFFF0A
:103C7000B4450000FD25A0C8E9A3C14FFFFFFFFF29
:103C8000FF3F00000000008000000000FF3F000038
:103C90000000008000000000D43C0008000000206C
:103CA00020000000C4010008F43C000820000020AF
:103CB00060090000E00100081C0000004300000053
:103CC000F8FFFFFF0C0000000E0000000F000000D6
:103CD0002E00000000000000000C02400000000068
:103CE00000000000010000001000000000000000C3
:043CF0000024F400B8
:040000050800018965
:00000001FF
