:020000040800F2
:10000000B00B002041020008E94000083934000824
:10001000B93E00080F140008294F00080000000036
:100020000000000000000000000000002D46000855
:10003000C114000800000000214300082F460008FA
:100040005B0200085B0200085B0200085B0200081C
:100050005B0200085B0200085B0200085B0200080C
:100060005B0200085B0200085B0200085B020008FC
:100070005B0200085B0200085B0200085B020008EC
:100080005B0200085B0200085B0200085B020008DC
:100090005B0200085B0200085B0200085B020008CC
:1000A0005B0200085B0200085B0200085B020008BC
:1000B0005B0200085B0200085B0200085B020008AC
:1000C0005B0200085B0200085B0200085B0200089C
:1000D0005B020008A14E0008AD4E00085B0200085C
:1000E0005B0200085B0200085B0200085B0200087C
:1000F0005B0200085B0200085B0200085B0200086C
:100100005B0200085B0200085B0200085B0200085B
:100110005B0200085B020008D94600085B02000889
:100120005B0200085B020008111400085B02000873
:100130005B0200085B0200085B0200085B0200082B
:100140005B0200085B0200085B0200085B0200081B
:100150005B0200085B0200085B0200085B0200080B
:100160005B0200085B0200085B0200085B020008FB
:100170005B0200085B0200085B0200080000000050
:100180005B0200085B02000800F002F800F049F88A
:100190000AA090E8000C82448344AAF10107DA45E2
:1001A00001D100F03EF8AFF2090EBAE80F0013F0EB
:1001B000010F18BFFB1A43F00103184758660000EF
:1001C00078660000103A24BF78C878C1FAD8520780
:1001D00024BF30C830C144BF04680C6070470000C1
:1001E0000023002400250026103A28BF78C1FBD840
:1001F000520728BF30C148BF0B607047662906F020
:100200002C82002070471FB506F01DFA00F0BEFBDF
:1002100004000020002105F049FCE0601FBD10B57E
:1002200010BD00F0B7FC1146FFF7EDFF05F0D0FB65
:1002300000F0D5FC03B4FFF7F2FF03BC00F018FD9B
:100240000948804709480047FEE7FEE7FEE7FEE76A
:10025000FEE7FEE7FEE7FEE7FEE7FEE704480549A6
:10026000054A064B70470000C9460008890100088E
:10027000B0050020B00B0020B0070020B007002020
:1002800053EA020C00F069802DE9F04B4FF00006B4
:10029000002B1FBFB3FA83F503FA05F424FA05F621
:1002A0005E4012BF1643B2FA82F502FA05F4C5F1B8
:1002B00020051EBF22FA05FC44EA0C04203556EA4C
:1002C000044C4FEA144418BF641C4FF000084FF070
:1002D0000009904271EB030C39D3002919BFB1FA20
:1002E00081F701FA07F6B0FA80F700FA07F6C7F1CE
:1002F00020071EBF20FA07FC46EA0C062037B6FB93
:10030000F4FCA7EB0507103F07F01F0BCBF120060D
:100310000CFA0BFB2CFA06F644BFB3460026202F3E
:10032000A4BF5E464FF0000B5BEA060C08BF4FF01F
:10033000010B19EB0B09ABFB027C48EB0608C01B59
:1003400006FB02CC0BFB03CC71EB0C01C1E70B46A7
:10035000024641464846BDE8F08B13B54FF0000019
:100360004FF00001AFF30080BDE81C407047000073
:100370000FB47CB50C0009AA009001D02044401EA7
:10038000084B7B4469460190089800F0DEFA054668
:100390001CB10020694600F0EBFA28467CBC5DF8F1
:1003A00014FB0000F50500002DE9F0474FF0000AAE
:1003B00089460446C0F820A02046E1688847002806
:1003C00076D0252806D0D4E901219047206A401C28
:1003D0002062F1E7E168204600258847C4F81CA0A8
:1003E00006460027C4F818A02A2E09D0304605F08A
:1003F000D3FA38B304EB8708303EC8F8186019E028
:1004000059F8041B204604EB87029161E168884794
:10041000012F064618D1E069002820DA25F02005D2
:100420001DE0D8F8180000EB800006EB40003038E3
:10043000C8F818002046E1688847064605F0ACFA7F
:100440000028EED1012F0AD02E2E08D12046E168D7
:1004500088477F1C0646022F45F02005C4DBA069B3
:10046000002803DA404245F00105A061E80701D009
:1004700025F01005B6B1A6F14100192802D82036A2
:1004800045F400654A463146204625604D46FFF753
:10049000B5FE58B1012806D0ED1D25F0070000F18A
:1004A000080989E704E005F1040985E730468AE791
:1004B000206ABDE8F0874FF0000200B5134694466D
:1004C0009646203922BFA0E80C50A0E80C50B1F1AC
:1004D0002001BFF4F7AF090728BFA0E80C5048BFC0
:1004E0000CC05DF804EB890028BF40F8042B08BF5E
:1004F000704748BF20F8022B11F0804F18BF00F85A
:10050000012B704770477047704710B500F042FAF2
:10051000006810BD10B5044600F03CFA046010BD40
:1005200070472DE9FF4F0C461E464FF0FF378BB04A
:10053000D2E90001DDF860800A908A46C1F30A55CD
:1005400005B93D46002108464FF00000BAF1000F02
:1005500000F4400005DA00EB80004FF4400101EAAE
:1005600050004FEA9059B9F1010F00DDB9460A98E1
:1005700050EA4A000ED044F61050A5F2FF3545432C
:100580002F14B8F1000F1ED07542291E1EDDC9F1CF
:1005900000021CE0B8F1010F4FF0000001D0302143
:1005A00003E0F24305E02154401CB042FBDB30463F
:1005B0000022002121540B99C1F80880C1E90020D4
:1005C0000FB0BDE8F08FBD1B6D1CDEE74A4600DAB8
:1005D000694206A800F068FA06AB93E8070003AB8F
:1005E00083E8070050460A9900F049FB8DE80700B0
:1005F000A0F500501F3800900398002D0ADD42F24C
:100600001F014A460844002303A90390684600F0EE
:10061000B2FD09E0A0F500504A461F38002303A9A7
:100620000390684600F0BCFD8DE807000004000C54
:1006300003D04FF0FF30410800E01046B8F1000F42
:1006400003D00022009215461EE0751E05D400F06E
:10065000A5F9303262556D1EF9D5B3460122084323
:1006600002D000227F1C04E02078302801D1002233
:100670007F1E002A099784D01DE0112D07DA00F0B3
:100680008DF9303262556D1C50EA0102F5D10843F4
:1006900002D00098C8B10EE00021681E05E0235C7E
:1006A000625C63542254401E491C8142F7DBAB4616
:1006B000A81B401E0990002004F80B000B98099A13
:1006C000C0F80880C0E9002B7AE711264FF0000837
:1006D00057E72DE9F04F88460446D21D22F0070166
:1006E00091B0D1E90001CDE90A0104F01EFC0246F7
:1006F0000B98C00F01D02D2007E02068810701D59D
:100700002B2002E0202101EAC000032A099001D039
:10071000072A05DB03464146204600F085F90BE138
:100720002078800601D5E06900E00620B8F1650F69
:10073000814606D0B8F1660F18D0B8F1670F70D1B6
:1007400031E00020B9F1110F009001DB112301E02D
:1007500009F101030AAA01A90CA8FFF7E2FEDDE9ED
:100760000C70002609F10105834647E001204B4645
:1007700000904FF000470AAA01A90CA8FFF7D1FE8C
:10078000DDE90DB00C995D46002610B909F10100B4
:100790000D18B9EB050003D4C0F1FF3609F10105CE
:1007A000A5EB09002BE0B9F1010F01DA4FF00109C7
:1007B0000020B9F1110F0090484601DD112300E03F
:1007C00003460AAA01A90CA8FFF7ABFEDDE90C70ED
:1007D0004D4600268346207800070AD4AB4500DA50
:1007E0005D4601A8012D04DD411911F8011C3029D5
:1007F00007D04F4502DA17F1040F04DA01208246D0
:100800000FE06D1EEEE7002F02DCED1B3E4403E01F
:10081000781CA84200DD7D1CB81B00F1010A4FF0D6
:1008200000472078000703D4AA4501DB4FF0FF3AC8
:100830000021B7F1004F0DF143088DF8431024D08B
:1008400002202B23002F01DA7F422D230A21021ED2
:10085000A0F1010000DC5FB197FBF1FC97FBF1F226
:1008600001FB1C7C17460CF1300C08F801CDEEE7BB
:10087000A8F1010003702188090501D5452100E098
:100880006521A0F1010800F8011C09980FA9A1EB4E
:100890000807FF1D00B10120411901EBEA70A169B1
:1008A0003844081A401EA0612078C00602D42046B1
:1008B000AFF30080099828B1D4E901219047206A5C
:1008C000401C20622078C00622D52046AFF300806D
:1008D0001EE0002E04DBB34502DD01A8805D00E0D0
:1008E0003020D4E901219047206A401C2062761C08
:1008F000AAF101005FEA000A0AD100F047F8C068D7
:100900000168405CD4E901219047206A401C2062C4
:10091000281EA5F10105DCDC07E0D4E9012118F867
:10092000010B9047206A401C2062381EA7F1010786
:10093000F3DC2046AFF30080032011B041E6000055
:1009400001694A1C02610878704700B58FB0CDE993
:1009500001310021059105497944CDE90310114683
:100960006846FFF721FD0FB000BD0000E5FFFFFF67
:100970000A6802F8010B0A607047D1E900239A4225
:1009800002D2531C0B601070704700000048704783
:100990006C050020004870474C05002030B5B0F1D0
:1009A0000A024FEA900E71F100034EEA817EB0EB2D
:1009B0000E0061EB91014FEA101E4EEA017E10EB32
:1009C0000E0041EB11114FEA102E4EEA016E10EBB2
:1009D0000E0041EB11214FEA104E4EEA014E10EB92
:1009E0000E0041EB1141401841F100014FEAD000E7
:1009F00040EA41704FEAD10110EB80054FEA8104D3
:100A000044EA907444EB01046D1944EB0404521B56
:100A1000A3414FF0000348BF0A3200D530BD401C4F
:100A200041F1000130BD00002DE9F0411F460446B0
:100A300003260168072A01F4006004DB08B116A54B
:100A400005E016A503E008B115A500E015A521F005
:100A500010002060A069C01EA0610FB1401EA061FF
:100A60002046AFF300804FB1D4E9012138469047CA
:100A7000206A401C2062C01C206206E0206AFAE75F
:100A8000D4E9012115F8010B9047761EF8D22046D3
:100A9000AFF30080BDE8F0814E414E006E616E0004
:100AA000494E4600696E66002DE9F04781461646BC
:100AB0008AB0354878440DC88DE80D003248784436
:100AC000801C03AC0DC884E80D0041F69B3008443F
:100AD000372190FBF1F290FBF1F5A5F1800501FBC8
:100AE00012041B3C02D56442012000E00020DFF824
:100AF00098A080460027FA44AAF1BE0A0EE0E0075B
:100B00000AD03246684607EB470101230AEB810110
:100B100000F046FB8DE8070064107F1C002CEED12E
:100B2000194F7F44AE3F19E0E80715D007EB0410DA
:100B30000DF1180A90E80E008AE80E00C068F04235
:100B400001D1981908903246012306A903A800F0A4
:100B500027FB03AB83E807006D10641C002DE3D175
:100B60004FF0010332466946B8F1000F03A802D0E6
:100B700000F001FB01E000F013FBC9E90001C9F836
:100B800008200AB0BDE8F087445D000000487047C7
:100B90004C0500207546FFF7F9FFAE460500694693
:100BA000534620F00700854618B020B5FFF756FBE6
:100BB000BDE820404FF000064FF000074FF000085E
:100BC0004FF0000B21F00701AC46ACE8C009ACE8DF
:100BD000C009ACE8C009ACE8C0098D46704710B543
:100BE0000446AFF300802046BDE81040FFF722BB6B
:100BF0004FF0013C50F8042B51F8043B9A4221D1AC
:100C0000A2EB0C03934313EACC1317D150F8042B37
:100C100051F8043B9A4215D1A2EB0C03934313EA1B
:100C2000CC130BD150F8042B51F8043B9A4209D154
:100C3000A2EB0C03934313EACC13DBD04FF000007C
:100C4000704700BFD01A01BAB1FA81F101F0180162
:100C500022FA01F0CB40C1F12001DBB2C0B2C01AD0
:100C60002CFA01F3D11A914311EAC311E6D170476E
:100C700001491820ABBEFEE72600020070475FEA7C
:100C8000400C08BF91F0000F4FEA8C234FEAC122BD
:100C900043EA51514FEA1C5018BF00F5F0404FEAAB
:100CA000300018BF41F000415FEA6C5C00F0298021
:100CB000BCF1FF3F08BF40F080407047130C06BFF7
:100CC00012044FF0100C4FF0000C130E04BF120270
:100CD0000CF1080C130F04BF12010CF1040C930F5C
:100CE00004BF92000CF1020CD30F04BF52000CF1B0
:100CF000010C11464FF00002A0F11F00A0EB0C0008
:100D0000704711F0004F08BF704731F000413FF4C9
:100D1000D5AF0B0C06BF09044FF0100C4FF0000CC0
:100D20000B0E04BF09020CF1080C0B0F04BF0901E4
:100D30000CF1040C8B0F04BF89000CF1020CCB0FDB
:100D400004BF49000CF1010CCCF12003A0EB0C0016
:100D500022FA03F302FA0CF241EA030100F1010066
:100D6000704720F07F4C80EA030023F07F47ACEB14
:100D7000070303F57C5300F0004003F1FF032DE966
:100D800080494FEA154B09B44FEA144325EA0B4E4C
:100D900024EA03480FF2042606EB132749083E789D
:100DA0005FEA320203FB0667C7F5000707FB06F69A
:100DB0004FEA54374FEAD64606F1020607FB066CA7
:100DC000CCF1005C4FEA1C472CEA074C07FB06F409
:100DD0000CFB06F504EB15464FEA961634BF0020CF
:100DE0004FF000404FEAD13706FB07FC4FEA1C4C9E
:100DF0000CFB0BF7D21B03FB0CF761EB07010CFBA1
:100E00000EF7B0EB074072EB17420CFB08F734BF4C
:100E1000A2EB0742B2EB074261EB17414FEA0C44E9
:100E20004FEA910706FB07FC4FEA1C4C0CFB0BF743
:100E3000B0EBC74072EB573203FB0CF734BFA2EBA9
:100E4000C742B2EBC74261EB57310CFB0EF7B0EB78
:100E5000C70072EB57720CFB08F734BFA2EBC70256
:100E6000B2EBC70261EB5771039F4FEA816141EA20
:100E7000921104EBCC044FEAD1374FEA826206FBB1
:100E800007FC42EA90124FEA80604FEA1C4C0CFBD0
:100E90000BF7D21B03FB0CF761EB07010CFB0EF702
:100EA000B0EB074072EB17420CFB08F734BFA2EB24
:100EB0000742B2EB074261EB17414FEA8C554FEA0C
:100EC000910704EB9C2406FB07FC4FEA1C4C0CFB2F
:100ED0000BF7B0EBC74072EB573203FB0CF734BF94
:100EE000A2EBC742B2EBC74261EB57310CFB0EF7E6
:100EF000B0EBC70072EB57720CFB08F734BFA2EBE4
:100F0000C702B2EBC70261EB577115EB4C254FEAF4
:100F1000816141EA92114FEA82624FEAD13742EA97
:100F2000901206FB07FC44F100044FEA80604FEA90
:100F30001C4C0CFB0BF7D21B03FB0CF761EB0701FE
:100F40000CFB0EF7B0EB074072EB17420CFB08F7F7
:100F500034BFA2EB0742B2EB074261EB174115EB3E
:100F60001C154FEA813141EA92414FEA823242EA4E
:100F700090424FEA80304FEA0C7644F1000448EA90
:100F800003434EEA0B484FF0000EB2EB080C71EB36
:100F9000030724BF624639464EEB0E0E4FF0000B9E
:100FA0000018524149414BEB0B0BB2EB080C71EBB3
:100FB00003077BF1000B24BF624639464EEB0E0E51
:100FC0004FF0000B0018524149414BEB0B0BB2EBB9
:100FD000080C71EB03077BF1000B24BF6246394616
:100FE0004EEB0E0E51EA020718BF46F0010616EB53
:100FF0000E7655F1000254F1000103D5BDE88901D8
:10100000BDE80088BDE88901BDE80048B619524135
:1010100041EB0101A3F10103704780807F7E7D7C5D
:101020007B7A7978777676757473727171706F6E7A
:101030006E6D6C6C6B6A6A69686867666665646425
:10104000636362616160605F5F5E5E5D5D5C5C5BAF
:101050005B5A5A595958585757565655555554541E
:10106000535352525251515050504F4F4F4E4E4D7C
:101070004D4D4C4C4C4B4B4B4A4A4A4949494848C8
:101080004847474747464646454545444444444308
:1010900043434342424242414141002B9C4630D4AB
:1010A00077002BD01CB54FEA370703B44FF0100080
:1010B0004FF01001BAF1000F06D0BCF1000FDCBFF9
:1010C00040F0080040F008014FF000000FBCBDE800
:1010D00010400BF1010BBBF1010F08BF5FEA1707CE
:1010E00022BF12F1010211F101014FF0004143F161
:1010F000000300F0004043EA00007047F9D35708AE
:10110000D0E746EA064613F1400F4FEA16461FDDC8
:1011100013F1200FDFBF16430A46002120335B4244
:10112000BED0C3F1200746EA064602FA07F74FEAA7
:10113000164646EA0706C3F1200722FA03F201FA2F
:1011400007F721FA03F14FF0000342EA0702A7E78D
:1011500046EA020646EA06464FEA164646EA01060F
:10116000BCBF46EA0646360C4FF000034FF00002C3
:101170004FF0000194E72DE9804C9A46934670B4F5
:1011800091E8380007C831EA400C48BF34EA430C04
:1011900003D5FFF7E6FDFFF780FFF0BCBDE8008C4C
:1011A0002DE9804C9A46934670B491E8380007C800
:1011B00010F0804F08BF13F0804F03D100F005F806
:1011C000FFF76BFFF0BCBDE8008C20F07F4780EAA2
:1011D000030023F07F4C07EB0C03A3F57C5300F0D6
:1011E0000040A3F1FE0392F0000F00F0B38095F0F1
:1011F000000F00F077802DE901494FEA11404FEAD6
:10120000144621EA004800FB06FC24EA064708FBD6
:1012100006F607FB08F800FB07F718EB06484CEB4F
:10122000164C4FEA124B18EB07484FEA15464CEBA9
:10123000174022EA0B4E0BFB06FC25EA06470EFB85
:1012400006F607FB0EFE0BFB07F71EEB064E4CEBFC
:10125000164C4FF000061EEB074E4CEB174B18EBED
:101260000B0840F1000018EB0E0B58EB000840F1A2
:1012700000008F1A4FF000013CBFC943661B14BF2A
:10128000B5EB040C00213CBFC943F61B4FEA1744E1
:101290004EEA8E0E27EA04454FEA1C4704FB07621C
:1012A0002CEA074C05FB07F70CFB05F604FB0CFCCE
:1012B00016EB074642EB174216EB0C4642EB1C427C
:1012C0001BEB060658EB0202414146EA9E0601D599
:1012D000BDE80189B619524141EB0101A3F10103B7
:1012E000BDE801894FEA14454FEA114724EA054653
:1012F00021EA074C05FB07F406FB07F70CFB06F198
:1013000005FB0CFC11EB074144EB17444FEA124775
:1013100011EB0C4144EB1C4422EA074C05FB07F29D
:1013200006FB07F70CFB06F605FB0CFC16EB074665
:1013300042EB174216EB0C4642EB1C456A1854F17F
:10134000000148BF7047B619524141EB0101A3F1BA
:101350000103704795F0000F37D04FEA11424FEA72
:10136000144721EA024624EA074C02FB07F106FB78
:1013700007F70CFB06F402FB0CFC14EB074441EBF3
:1013800017414FEA154714EB0C4441EB1C4125EA89
:10139000074C02FB07F506FB07F70CFB06F602FB02
:1013A0000CFC16EB074645EB174516EB0C4645EBD8
:1013B0001C42121951F1000148BF7047B619524141
:1013C00041EB0101A3F1010370474FEA14454FEAD5
:1013D000114724EA054621EA074C05FB07F106FB05
:1013E00007F70CFB06F24FF0000605FB0CFC12EBB6
:1013F000074241EB174112EB0C4251EB1C4148BF35
:101400007047921841EB0101A3F101037047FEE719
:10141000014800F03BB90000E803002001681823F0
:10142000CAB2103AB2FBF3F2054B6FF30901032A7B
:101430009B5CC36500D9091D8165084670470000A3
:101440006E66000810B5014600208B698A6A4FF06D
:10145000C07453B1B3F5005F15D072B1012A0CD03E
:10146000022A0AD0032A09D104E01AB1012A06D0BF
:10147000022A03D1C96AC90100D5012010BDC96A79
:10148000A142FAD010BD002AF7D0012AF2D0022AD8
:10149000F3D0032AF3D010BD30B50468256825F4D5
:1014A00080252560046863608368402B036803D04F
:1014B00099600068C26030BD9A600068C16030BD4C
:1014C00070470000042802D39FED040A70470449C6
:1014D00001EB800090ED000A704700000000000062
:1014E00078000020104910B500200860486088602E
:1014F000C860086148618861C861086248628862A2
:10150000C8623C21094801F081FA3C21084801F0F9
:101510007DFA3C21074801F079FABDE810403C21F2
:10152000054801F073BA0000580000206001002057
:10153000A8010020F001002038020020FCB51E4860
:101540000068406AADF800001C480068406AADF8C9
:1015500002001B480068406AADF8040019480068A2
:10156000406A194AADF806009FED181A00206D4632
:10157000A2F11003F2EE040A02F1100635F8104051
:1015800032F8201053F82070611A09B200EE101AD8
:101590000F4443F82070B8EEC00A42F8204006EB32
:1015A0008001401C20EE010AC0B20428C0EE201ABF
:1015B000C1ED001AE2D3FCBD60010020A8010020AB
:1015C000F0010020380200206800002000007A446A
:1015D00072B6FEE72DE9F0410446876D00F0C6FAC9
:1015E000064694F835000025022806D08020606564
:1015F00084F834500120BDE8F0812068016821F0B2
:10160000160101602068416921F080014161206C70
:1016100008B9A06C20B12068016821F008010160C0
:101620002068016821F0010101600CE000F09EFAE1
:10163000801B052807D920206065032084F8350029
:1016400084F83450D7E720680068C007EED194F8DA
:101650005C103F208840B860012084F8350084F891
:1016600034500020C7E790F83510022903D08021BC
:10167000416501207047052180F835100068016838
:1016800021F0010101600020704700002DE9F843BE
:1016900004464FF00009CDF8009063484FF416510E
:1016A000A56D0068B0FBF1F72E6894F85C10082077
:1016B00000FA01F131420FD021680A6852070BD5B8
:1016C0000A6822F004020A6094F85C108840A8605E
:1016D000606D40F00100606594F85C104FF0010807
:1016E00008FA01F0304208D021684969090604D59A
:1016F000A860606D40F00200606594F85C10042002
:101700008840304208D021680968890704D5A8605C
:10171000606D40F00400606594F85C101020884013
:10172000304218D021680968090714D5A8602068DC
:101730000168490304D50068000308D5A16C07E0DF
:101740000168C90503D4016821F008010160216C1A
:1017500009B12046884794F85C1020208840304228
:1017600031D021680968C9062DD5A86094F83500E4
:1017700005282068016806D0490347D500680003A2
:101780001DD4616C1CE021F01601016020684169E4
:1017900021F080014161206C08B9A06C20B1206863
:1017A000016821F00801016094F85C103F20884036
:1017B000A86084F8358084F83490216D1FE0E16BD7
:1017C00009B120468847606D00282BD0606DC007A6
:1017D00014D0052084F835002068016821F001014B
:1017E00001600098401C0090B84203D8206800684F
:1017F000C007F6D184F8358084F83490E16C002974
:1018000010D001B02046BDE8F04308470168C90583
:10181000D5D4016821F01001016084F8358084F886
:101820003490CCE7BDE8F883540000202DE9F04166
:10183000044600F09BF906465CB1022084F83500AE
:10184000002584F834502068016821F0010101600E
:101850000DE00120BDE8F08100F088F9801B05282B
:1018600005D920206065032084F83500F2E7206860
:101870000068C007F0D12268116820480140D4E90F
:1018800001031843D4E9033633431843636918430B
:10189000A3691843E3691843236A18430843616A3C
:1018A000042903D1D4E90B131943084310602068BD
:1018B0004069666A20F0070130460E43012704287C
:1018C0000CD1A06A0643E06A40B12046FFF7BAFD9A
:1018D00020B14020606584F83570BAE72068466121
:1018E0002046FFF79BFD94F85C203F2191408160EA
:1018F000656584F835700020ACE700003F8010F08B
:101900002DE9F0410446866D90F834000025012849
:101910000DD0012084F8340094F835700020012F98
:1019200007D084F8340002252846BDE8F081022063
:10193000FBE7022784F8357060652046FFF7ACFDB1
:1019400094F85C103F208840B0602068016841F046
:1019500016010160206C20B12068016841F0080187
:1019600001602068016841F001010160DCE70000CE
:101970002DE9F84FDFF8BCA10022012503264FF026
:101980000F090AF1040BAAF1040E00BF0B6805FA57
:1019900002F42340A34270D10F7907F00307012F0F
:1019A00001D0022F16D187684FEA420806FA08FCD8
:1019B00027EA0C07D1F80CC00CFA08FC4CEA070C1B
:1019C000C0F808C04768A7430C79C4F300149440DA
:1019D0003C4344600C79E443A4070AD0C4684FEA4E
:1019E000420C06FA0CF7BC438F6807FA0CF7274342
:1019F000C7600C7904F00304022C12D1D40800EB68
:101A0000840CDCF820405707FF0E09FA07F824EA97
:101A10000804D1F8108008FA07F848EA0408CCF85E
:101A2000208004684FEA420C06FA0CF7BC430F7999
:101A300007F0030707FA0CF7274307604C6814F414
:101A4000403F70D03C4C276847F4804727602468AB
:101A500022F0030704F480440094384C07EB040C94
:101A6000DCF8084897074FEA177809FA08F7BC43EB
:101A7000334FB84202D1002724E054E0314FB8423E
:101A800001D101271EE0304FB84201D1022719E0F1
:101A90002E4FB84201D1032714E02D4FB84201D197
:101AA00004270FE02B4FB84201D105270AE02A4F47
:101AB000B84201D1062705E0284FB84201D10727D7
:101AC00000E0082707FA08F72743CCF80878DAF887
:101AD00000405746D1F804C09C435FEACC2C00D5A7
:101AE0001C433C60DBF800405F46D1F804C09C43D7
:101AF0005FEA8C2C00D51C433C60DEF80040774642
:101B0000D1F804C09C435FEA8C3C00D51C433C6088
:101B1000084F083F3C68D1F804C09C435FEACC3CC6
:101B200000D51C433C60521C102AFFF42FAFBDE8C7
:101B3000F88F0000083C014044380240003001406A
:101B4000000002400004024000080240000C024075
:101B5000001002400014024000180240001C024025
:101B60000AB1816170470904FBE700000148806801
:101B70007047000048000020024881680278114444
:101B800081607047480000200B4810B5016841F49F
:101B900000710160016841F480610160016841F4F5
:101BA00080710160032000F06FF80F2000F006F84C
:101BB00000F024F8002010BD003C024070B50D4D2F
:101BC00004464FF47A712878B1FBF0F00A490968AD
:101BD000B1FBF0F000F096FC48B9102C07D20022BF
:101BE0002146501E00F030F800206C6070BD0120CE
:101BF00070BD000048000020540000200A4808B5CD
:101C0000016841F480410160006800F48040009068
:101C10000548001F016841F080510160006800F034
:101C20008050009008BD000044380240002809DBC5
:101C300000F01F02012191404009800000F1E020E6
:101C4000C0F8001170470000F0B40E4B1B680C4642
:101C5000C3F30223C3F10705042D00D90425191D80
:101C6000072901D2002300E0DB1E012606FA05F158
:101C7000491E214099409E40761E16403143F0BCDB
:101C800003F06BB90CED00E0064900F007020868AC
:101C90004FF6FF03184040EA0220034A1043086051
:101CA000704700000CED00E00000FA052DE9F04758
:101CB0000E46050065D0DFF81481D8F80000F7B2B1
:101CC00000F00700B04207D288F80070D8F8000092
:101CD00000F00700B04254D128683D4C810712D56E
:101CE000400703D5206840F4E050206028780007C2
:101CF00003D5206840F4604020602068A96820F087
:101D0000F000084320602878C0072DD0304968686B
:101D10000839012812D0022813D0032811D00968ED
:101D2000890700292DDA216821F003010143216090
:101D3000FFF71CFF814641F2883A0EE009688903EB
:101D4000EFE709688901ECE7FFF710FFA0EB090155
:101D5000514502D90320BDE8F0872068696800F08A
:101D60000C00B0EB810FEFD1D8F80010404601F025
:101D70000701B14207D90770006800F00700B042C0
:101D800001D00120E7E72878400705D52068E968F9
:101D900020F4E050084320602878000706D520682A
:101DA000296920F4604040EAC100206000F038F862
:101DB0002168084AC1F30311515CC8400649086014
:101DC00006480068FFF7FAFE0020C4E7003C024026
:101DD0000838024076660008540000204C000020BD
:101DE0000448054900680968044AC1F38221515C2E
:101DF000C84070475400002008380240866600083A
:101E00000448054900680968044AC1F34231515C3D
:101E1000C840704754000020083802408666000819
:101E2000154810B5006810F00C02144813D041108A
:101E3000042A0FD0082A0ED10F4C241F22682368D1
:101E400002F03F025B0207D52068C0F38810A0FBB8
:101E5000010106E0084610BD2168C1F38811A1FB0D
:101E600000010023FEF70CFA2168C1F30141491C6F
:101E70004900B0FBF1F010BD083802400024F40026
:101E80002DE9F84F04006ED02078DFF84C93C0079E
:101E9000A9F104054AD009F104000168C1F38101E8
:101EA000012908D00068C0F3810002280AD1D9F8BE
:101EB0000000400206D52868800337D560680028F6
:101EC000E1D033E06068B0F5803F10D0B0F5A02FCE
:101ED000286810D020F480302860286820F4802002
:101EE00028606068A8B1FFF741FE06460DE028684B
:101EF00040F48030F4E740F480202860F7E700BF2A
:101F0000FFF734FE801B642873D828688003F7D558
:101F10000CE0FFF72BFE064605E000BFFFF726FEAC
:101F2000801B6428F0D828688003F7D42078DFF875
:101F3000AC8280074FF0000A3ED5A748001D01681B
:101F400011F00C0F08D00068C0F3810002280BD1FB
:101F5000D9F80000400207D42868800716D5E06849
:101F6000012800D112E033E1E068B8B10120C8F8DF
:101F70000000FFF7FBFD064605E000BFFFF7F6FD9A
:101F8000801B0228C0D828688007F7D528682169F7
:101F900020F0F80040EAC10028600DE0C8F800A079
:101FA000FFF7E4FD064604E0FFF7E0FD801B022892
:101FB0001FD828688007F7D42078000722D5864FDD
:101FC00087486169703771B101210160FFF7CEFD6B
:101FD000064604E0FFF7CAFD801B022809D83868CE
:101FE0008007F7D50EE0C0F800A0FFF7BFFD06465A
:101FF00005E082E0FFF7BAFD801B02287DD8386833
:102000008007F7D42078400768D5DFF8CCB10027E7
:102010000BF13C0BDBF80000C0000BD4DBF8001028
:1020200041F08051CBF80010DBF80000012700F0F0
:10203000805000906B4E3068C00510D4306840F47A
:1020400080703060FFF792FD009005E0FFF78EFD95
:102050000099401A022850D83068C005F6D55E4E67
:10206000A0686C3601280FD00528306810D020F009
:1020700001003060306820F004003060A068B8B122
:10208000FFF774FD00900FE0306840F00100F4E7C6
:1020900040F004003060F7E7FFF768FD0099411A4F
:1020A00041F28830814266D830688007F4D50EE06E
:1020B000FFF75CFD009007E0FFF758FD0099411A1B
:1020C00041F28830814256D830688007F4D42FB16D
:1020D000DBF8001021F08051CBF80010A069C8B3E4
:1020E0003D49091D0968C1F3810102294AD002282E
:1020F000504607D0C8F8600000E03CE0FFF736FD2E
:1021000004463BE04746C8F86000FFF72FFD06464F
:1021100005E000BFFFF72AFD801B02282BD82868A6
:102120008001F7D4D4E907010843A16A2E4A49087F
:1021300002EB0141626A41EA8211084394F82C10D3
:1021400040EA0161C9F8001001203866FFF70EFD72
:10215000044606E03EE000BFFFF708FD001B022832
:1021600009D828688001F7D534E000BFFFF7FEFCEE
:10217000001B022802D90320BDE8F88F28688001DF
:10218000F4D427E00128F7D0D9F80000E26900F480
:10219000800191421CD1226A00F03F01914217D187
:1021A00047F6C071626A0140B1EB821F10D1A26A8A
:1021B0004FF0FF3300F4403103EB5202B1EB024F1A
:1021C00006D194F82C1000F07060B0EB016F01D0D4
:1021D0000120D1E70020CFE7043802400000474249
:1021E000800E4742007000400000FFFF70B5040001
:1021F00009D0606A002540B125616561A56294F847
:10220000510040B10CE0012070BD6068B0F5827FE4
:10221000F4D0E561F2E784F85050204600F044F82D
:10222000022084F851002068016821F0400101601B
:10223000A088218900F4827001F404410843A18937
:1022400001F400610843217C01F002010843217D73
:1022500001F001010843218B01F400710843217F43
:1022600001F03801084394F8201001F08001084380
:10227000218D01F40051084321680860A069042100
:1022800001EA104094F8241001F01001084321687D
:1022900048602068C16921F40061C1616565012061
:1022A00084F85100002070BD10B586B0044614219A
:1022B0006846FEF700F914492068884221D1134886
:1022C0000021026842F480420260006800F480400D
:1022D00005900E481038026842F002020260006861
:1022E00000F0020005904FF4604000900220CDE91C
:1022F0000101032003900520049069460448FFF77C
:1023000037FB06B010BD00000038004040380240E6
:10231000000402402DE9FF4F81B01D46934604465C
:102320004FF001090E9EFFF721FC074694F851007B
:102330006168012806D0B1F5827F3CD1A168C9BB94
:10234000042838D10298002871D0BBF1000FFBD0CF
:10235000002DF9D094F8500001282CD04FF0010A3C
:1023600084F850A094F85100042802D0052084F885
:1023700051004FF00008C4F85480C4F838B0E58725
:10238000A58702992163E586A586C4F84080C4F834
:10239000448020680168490603D4016841F0400187
:1023A0000160E068B0F5006F606808D0F0B3012DFF
:1023B00049D081E0FFE7022005B0BDE8F08F08B109
:1023C000012D39D1206B21680088C860206B801CEA
:1023D0002063E08E401EE0862EE020688168890739
:1023E0000FD5E18E69B1B9F1010F0AD1216B0988CE
:1023F000C160206B801C2063E08E401EE0864FF0A1
:10240000000920688168C9070CD0E18F51B1C0680C
:10241000A16B0880A06B801CA063E08F401EE0874A
:102420004FF00109FFF7A2FBC01B01E00BE067E0E2
:10243000B04201D3701C50D1E08E0028CDD1E08F86
:102440000028CAD13EE0206B216800780873206B19
:10245000401C2063E08E401EE0862DE020688168ED
:1024600089070FD5E18E69B1B9F1010F0AD1216B4E
:1024700009780173206B401C2063E08E401EE086CB
:102480004FF0000920688168C9070CD0E18F51B175
:10249000C068A16B0870A06B401CA063E08F401E59
:1024A000E0874FF00109FFF761FBC01BB04202D388
:1024B000701C01D011E086B1E08E0028CED1E08FF3
:1024C0000028CBD13A463146204602F01BF850B1E5
:1024D0002020606584F8508012E084F851A084F8D0
:1024E0005080032068E7A06818B92068C168806838
:1024F000009084F851A084F85080606D0028F1D0DD
:10250000012059E710B5401EB0F1807F01D30120B2
:1025100010BD4FF0E02460610F21601702F01DFD37
:102520000020A06107202061002010BD7047704787
:1025300010B590F83C20012A22D0012280F83C20DE
:10254000CA688C6822F4407222434C6822F480628C
:1025500022430C6822F4006222430C6922F4805268
:1025600022434C6922F400522243C969002322F419
:1025700080420A4301684A6480F83C30002010BD64
:10258000022010BD70B590F83C20012A32D0012401
:1025900080F83C40022280F83D2003685A689D681C
:1025A00022F070060A6832435A60134B02689A425E
:1025B00014D0B2F1804F11D0104B9A420ED0104B74
:1025C0009A420BD00F4B9A4208D00F4B9A4205D03B
:1025D0000E4B9A4202D00E4B9A4204D1496825F024
:1025E00080031943916080F83D40002180F83C1041
:1025F000084670BD022070BD00000140000400408C
:1026000000080040000C0040000401400040014070
:102610000018004010B5040003D094F83D0010B13C
:1026200007E0012010BD002084F83C00204600F0A7
:102630001FF8022084F83D00211D206802F052F8A6
:10264000012084F8460084F83E0084F83F0084F8B6
:10265000400084F8410084F8420084F8430084F884
:10266000440084F8450084F83D00002010BD0000BF
:1026700008B500681149884212D11148016841F03B
:10268000100101600068002200F010000090114667
:102690003620FFF7D9FABDE808403620FFF7C6BA62
:1026A0000849884209D10648001D016841F002012D
:1026B0000160006800F00200009008BD00100040BA
:1026C000403802400004014090F83D10012901D03B
:1026D00001207047022180F83D100168CA6842F06D
:1026E0000102CA6000681149884214D0B0F1804FDD
:1026F00011D00F4988420ED00E4988420BD00E49A6
:10270000884208D00D49884205D00D49884202D040
:102710000C49884204D1816801F00701062903D0E1
:10272000016841F001010160002070470000014094
:102730000004004000080040000C0040000401407C
:10274000004001400018004070B5044690F83C007D
:102750000025012817D0012684F83C60022084F867
:102760003D002068826822F0770222F47F42826076
:102770000868502838D00DDC20284FD005DC90B3F5
:10278000102811D14AE0022070BD302846D04028E0
:102790000AD13BE060282FD070280DD0B0F5805FC3
:1027A00003D0B0F5005F12D0012584F83D60002011
:1027B00084F83C00284670BDCB68D1E9012120682F
:1027C00002F005F82068816841F0770109E0CB68E4
:1027D000D1E90121206801F0FAFF2068816841F405
:1027E00080418160E1E719E0CA684968206802F029
:1027F000C3F85021206806E0CA684968206802F0E2
:10280000CCF86021206801F0ECFFCEE7CA68496887
:10281000206802F0B1F840212068F4E72268014600
:102820001046F0E72DE9F0410D46040003D094F87E
:102830003D0018B108E00120BDE8F081002084F8D7
:102840003C00204600F040F8022084F83D0020685B
:10285000816844F2070291438160211D206801F0E4
:1028600041FF226890689169166A2B68AF6903433B
:1028700040F20330814341EA0721A868EF69084329
:102880004FF6FC418843E96840EA07200143286984
:102890002F6A000140EA0730084369686D6926F035
:1028A000AA0646EA0515294393602268906154F808
:1028B000460B0162012004F81F09E0752076E076DE
:1028C0002077A0750020B7E7F0B587B00446142143
:1028D0006846FDF7F0FD4749236800244548103954
:1028E0000225454A454EB3F1804F1FD0DFF810C195
:1028F000C027634546D1036843F0020303600068C4
:1029000000F002000590086840F0010008600868C7
:102910000097CDE9015400F00100CDE9045069466B
:1029200003941046FFF724F807B0F0BD036843F0A6
:1029300001030360006800F001000590086840F0A2
:1029400001000860086800F001000590086840F088
:10295000020008600868012700F0020005902020AE
:102960000090CDE90154CDE9034769461046FEF7D2
:10297000FFFF08200090CDE90154CDE903476946E7
:102980003046CFE7DFF87CC0634517D1026842F0DC
:1029900004020260006800F004000590086840F03E
:1029A0000200086008680097CDE9015400F00200B9
:1029B000CDE90450694603943046B3E7124EB34262
:1029C000B2D1036843F008030360006800F0080018
:1029D0000590086840F0010008600868694600F04A
:1029E0000100059003200090CDE901541046CDE987
:1029F000034597E7403802400000024000040240CF
:102A00000004004000080040000C004070B590F841
:102A10003E60044690F83F5090F8423090F84320D2
:102A2000022021B104290ED0012E1BD114E0012E69
:102A300018D1012B16D184F83E0084F842000122FF
:102A40000021206820E0012D0CD1012A0AD184F850
:102A50003F0084F8430014E0012D03D1012B01D184
:102A6000012A01D0012070BD84F83E0084F83F00A7
:102A700084F8420084F8430001220021206801F01C
:102A800099FE01220421206801F094FE206801686B
:102A900041F001010160002070BD70472DE9F04157
:102AA00004460068C66805694FF00007A90713D5FA
:102AB000B10711D5F91E01610120207720688069D6
:102AC0008007204602D0FFF7E8FF04E000F0A8F8F6
:102AD000204600F03AF92777680716D5700714D515
:102AE00021686FF004000861022020772068806967
:102AF00010F4407F204602D0FFF7CFFF04E000F043
:102B00008FF8204600F021F92777280715D53007E0
:102B100013D521686FF00800086104202077206831
:102B2000C0698007204602D0FFF7B7FF04E000F03D
:102B300077F8204600F009F92777E80616D5F00661
:102B400014D521686FF010000861082020772068F4
:102B5000C06910F4407F204602D0FFF79EFF04E0DA
:102B600000F05EF8204600F0F0F82777E80708D07C
:102B7000F00706D021686FF001000861204600F0E0
:102B800049F9280608D5300606D521686FF080007F
:102B900008612046FFF7CAFC680608D5700606D50E
:102BA00021686FF040000861204600F047F9A80650
:102BB0000AD5B00608D521686FF0200008612046CC
:102BC000BDE8F041FFF7B3BCBDE8F08110B586B0B9
:102BD000044614216846FDF76EFC0E4920688842C1
:102BE00016D10D480021026842F00402026000681C
:102BF00000F0040005904FF4707000900220CDE9C1
:102C000001010320CDE9031069460448FEF7B0FE38
:102C100006B010BD000401403038024000080240F8
:102C2000704770B5044690F83C0000260D46012818
:102C30000FD0012084F83C006AB1042A1DD0082A74
:102C40002FD00C2A3FD00126002084F83C003046CB
:102C500070BD022070BD206801F0CCFD2068816944
:102C600041F0080181612068816921F004018161DE
:102C7000206881692A69114311E0206801F0EAFDAA
:102C80002068816941F4006181612068816921F4D3
:102C900080618161206881692A6941EA022181613C
:102CA000D2E7206801F00CFE2068C16941F00801FC
:102CB000C1612068C16921F00401C1612068C16956
:102CC0002A69114311E0206801F02EFE2068C169D5
:102CD00041F40061C1612068C16921F48061C16172
:102CE0002068C1692A6941EA0221C161ACE710B5D7
:102CF000040003D094F83D0010B107E0012010BD9E
:102D0000002084F83C00204600F01EF8022084F8E1
:102D10003D00211D206801F0E5FC012084F84600FB
:102D200084F83E0084F83F0084F8400084F84100B5
:102D300084F8420084F8430084F8440084F8450095
:102D400084F83D00002010BD7047704710B5044660
:102D5000022249B104290ED0082913D094F8410069
:102D6000012816D0012010BD94F83E000128F9D1A9
:102D700084F83E200FE094F83F000128F2D184F857
:102D80003F2008E094F840000128EBD184F840206F
:102D900001E084F841200122206801F00BFD164972
:102DA0002068164A884201D0904203D1436C43F414
:102DB000004343642068884213D0B0F1804F10D0A4
:102DC0000F4988420DD00F4988420AD00E498842E7
:102DD00007D0904205D00D49884202D00C49884264
:102DE00004D1816801F00701062903D0016841F090
:102DF00001010160002010BD0000014000040140FD
:102E00000004004000080040000C00400040014069
:102E1000001800400068074988420AD10648017836
:102E2000491CC9B201700A2903D30021017001F0C5
:102E3000C7B870470010004010000020704738B538
:102E4000044690F84200202801D0022038BD51B13C
:102E50004AB10120206300206063204601F07CFF1E
:102E6000216B012901D0012038BD21680A68496819
:102E7000009121680C3151E8002F42F0100241E826
:102E80000023002BF5D138BDF8B500282DD00068FF
:102E9000164A904229D10E2919D30E3900248EB238
:102EA000134D432711E0285DDF280CD128190E218E
:102EB00001F0F2F938B18DF800700A230122694659
:102EC0000C4800F068FA641CA4B2B442EBD980222A
:102ED00007490848FFF7B3FF0648C06B002804D035
:102EE0000068016821F008010160F8BD0010014090
:102EF000BC0400205803002070470000F8B50168AA
:102F000004460868CA684B6910F00F0F4FF00005BF
:102F100059D003F0010602F49077374365D0C1071A
:102F200005D0D10503D5616C41F001016164410711
:102F300005D5D90703D0616C41F0020161648107B6
:102F400005D5D90703D0616C41F004016164010724
:102F500007D502F02001314303D0616C41F0080134
:102F60006164616C00293AD0800604D5900602D5D0
:102F7000204601F00AFE20684069616CC0F38010B1
:102F8000090700D460B3204601F0CAFD20684069FB
:102F9000400621D52068143050E8001F21F0400180
:102FA00040E80012002AF5D1E06BA8B17249016532
:102FB000E06BFEF758FB002811D0E06B016D01B00B
:102FC000BDE8F040084783060FD593060DD520468F
:102FD000BDE8F84001F0D9BD2046FFF78DFFF8BDF0
:102FE0002046FFF789FF6564F8BD266B2023012E7C
:102FF0007ED1C6067CD5D6067AD50868486800908A
:1030000048694FF0020640064DD5E26B10684068F3
:103010004FF480770004000C3AD0A18D814237D95B
:10302000E085D069B8422DD020680C3050E8001FF0
:1030300021F4807140E80012002AF5D12068143094
:1030400050E8001F21F0010140E80012002AF5D1EC
:103050002068143050E8001F21F0400140E80012C1
:10306000002AF5D184F84230256320680C3050E8FE
:10307000001F21F0100140E80012002AF5D1E06B9A
:10308000FEF7A8FA6663A08DE18D401A81B206E0D2
:10309000A18D8142A8D1D069B842A5D166632046EE
:1030A000FFF7F2FEF8BDA08DE18D401A81B2E08DF0
:1030B0000028F7D00029F5D020680C3050E8002F08
:1030C00022F4907240E80027002FF5D120681430D8
:1030D00050E8002F22F0010240E80027002FF5D130
:1030E00084F84230256320680C3050E8002F00E05F
:1030F00006E022F0100240E80023002BF3D1CDE7D8
:1031000005062BD5150629D594F841002128C9D1EB
:10311000A068B0F5805F01D12069B0B1206A411C80
:103120002162216800784860E08C401E0004000C99
:10313000E084B7D12068C16821F08001C1602068B7
:10314000C16841F04001C160F8BD206A0088C0F349
:1031500008004860206A801C2062E5E74006F3D53D
:103160005006F1D5CA68204622F04002CA6084F8B1
:10317000413000F060F9F8BD254A000870B5040040
:1031800004D094F84100002510B106E0012070BD84
:1031900084F84050204600F023F8242084F84100B1
:1031A0002068C16821F40051C160204601F04EFD45
:1031B0002068016921F4904101612068416921F092
:1031C0002A0141612068C16841F40051C160656411
:1031D000202084F8410084F842006563002070BD1F
:1031E0002DE9F04387B0064614216846FDF763F9E0
:1031F0004E484D4AD6F800C000254C4910380224EC
:1032000003234FF0080994451BD10A6842F40022B9
:103210000A60096801F400210591016841F0040188
:1032200001600068694600F00400059098028DE88E
:103230003100CDE903393E48FEF79AFB07B0BDE8FF
:10324000F083DFF8F08007273B4AC4453CD137497B
:10325000091DD1F800C04CF0100CC1F800C009687D
:1032600001F010010591016841F001010160006861
:10327000694600F0010005904FF4C0608DE8310010
:10328000CDE903371046FEF773FB2D4C2B48206029
:103290004FF00060C4E901054014C4E903506561C2
:1032A0008001A561C4E9075020466562FEF7BEFAB9
:1032B00008B1FEF78DF9F463002211462520A663BC
:1032C000FEF7C2FC25202CE01E4EB445B6D10E6898
:1032D00046F400360E60096801F40031059101687A
:1032E00041F0010101600068694600F001000590AD
:1032F00004208DE83100CDE9033716461046FEF76D
:1033000037FB0120CDE90250CDE9009469460497CE
:103310003046FEF72DFB002211462620FEF794FCD6
:103320002620FEF783FC89E7004C0040403802402D
:1033300000080240001001400000024040640240CA
:10334000E80300200044004090F84230202B01D0D8
:103350000220704721B11AB10023036301F04CBD74
:103360000120704710B50068074988420BD1074813
:10337000807800F06DFF05490122BDE81040891CEE
:103380000348FFF7E1BF10BD0044004004000020E7
:10339000A003002070472DE9F843044690F841004F
:1033A000984616460D46202802D00220BDE8F88334
:1033B00085B17EB100206064212084F84100FEF7D1
:1033C000D5FBA6848146E684A0682027B0F5805FFF
:1033D00002D003E00120E9E7206910B12E46002564
:1033E0000EE000260CE08021204601F020FDA8B967
:1033F000C6B116F8010B21684860E08C401EE084DD
:10340000E08C4B464FF00002CDF800800028EAD156
:103410004FF04001204601F00AFD40B184F84170B0
:103420000320C3E735F8020BC0F30800E3E784F894
:1034300041700020BAE77047FEE710B5752000F034
:1034400083F8122801D0002010BD012010BD00001B
:1034500070B5FEF78BFB1C4C05462078052823D25F
:10346000DFE800F0030A1017240080216B2000F031
:1034700003FA0120656016E06068281A642813D3F7
:10348000022010E001216B2000F0F6F903206560B6
:1034900009E06068281A322806D3FFF7CEFF08B18A
:1034A000042000E006202070207870BD18211B2029
:1034B00000F0E2F918211C2000F0DEF906211D20A1
:1034C00000F0DAF90520EEE7140000202DE9FF41B5
:1034D000DFF8708004464FF480770022394640467A
:1034E000FEF73EFBBB2000F0FDFF00256E46FF20EF
:1034F00000F0F8FF70556D1C0E2DF8DB01223946E7
:103500004046FEF72DFBBDF8000040BA2080BDF814
:10351000020040BA6080BDF8040040BAA080BDF847
:10352000060040BAA081BDF8080040BAE080BDF8AE
:103530000A0040BA2081BDF80C0040BA6081BDE8A5
:10354000FF8100000000024070B50C4E04464FF4AD
:103550008075002229463046FEF702FB44F08000C9
:1035600000F0C0FFFF2000F0BDFF04460122294605
:103570003046FEF7F5FA204670BD0000000002401C
:1035800070B505462DED088B0E46B0F9000000EE33
:10359000100AB5F90200B8EEC0BA00EE100AB5F98B
:1035A0000400B8EEC0AA00EE100AB5F90600F8EE65
:1035B000C0AA00EE100AF8EEC00A9FEDA40AB5F901
:1035C000080060EE809A00EE900AB5F90A00F8EE65
:1035D000E00A20EE809A00EE900AF8EEE00A60EE33
:1035E000808A2BEE0B0A0AEE0A0A0AEEAA0A10EEED
:1035F000100A02F0B7FF41EC100B02F0DDF851ECBD
:10360000100B02F075FA00EE100AB0EE008A904C32
:10361000B5EEC00AF1EE10FA4DDDD4ED030AD4ED9B
:10362000051ACBEE002A20EEA12A94ED041A8AEEA8
:10363000004A8AEE803A94ED020A00EE412A60EEDA
:10364000203A20EE000A41EE213A00EEE00A22EE96
:10365000082A63EE883A01EE410A23EE021A01EECF
:10366000A10AD4ED061A64EE000A02EEC01A22EE98
:10367000A30A43EE630A04EE420A9FED763A01EE96
:10368000089A40EE831A40EE889A40EE088AC4ED0C
:10369000061A94ED072A79EEA19A01EE032A84ED29
:1036A000072AD4ED082A39EE029A40EE032AC4ED27
:1036B000082A78EEA28AD4ED030A94ED041A94ED58
:1036C000050A60EEE92AD4ED021A41EE492A40EEDD
:1036D000682A9FED612A42EE821AC4ED021A61EE59
:1036E000A92A41EE282A40EE492A42EE820A61EEDA
:1036F000892AC4ED030A40EEE82A40EE292A02EEA8
:10370000821A61EEA82A61EEA11A40EE892A40EEE3
:10371000A01A84ED041A41EE692A41EE011A02EE64
:10372000820A84ED050A40EE001A11EE900A02F0BA
:1037300019FF41EC100B02F03FF851EC100B02F0B6
:10374000D7F900EE100AD4ED020A80EE80BA84EDBB
:1037500002BAD4ED030A80EE809A84ED039AD4ED88
:10376000040AC0EE808AC4ED048AD4ED050AC0EED6
:10377000809A2BEE0B0A09EE490A08EEE80AC4ED1E
:10378000059A09EEA90A10EE100A02F0EBFE28EEE7
:10379000A90A41EC1A0B0BEE090A20EE080A10EEFA
:1037A000100A02F0DFFE41EC100BB0EE4A1AF0EE08
:1037B0006A1A01F001FF9FED291B51EC100B53EC2D
:1037C000112B02F00FFC02F093F9306094ED030A24
:1037D000D4ED050A94ED041A20EE200AD4ED020A75
:1037E00000EEC10A20EE080A10EE100A02F0BAFE3E
:1037F00041EC100B01F0C4FB9FED1A1B51EC100BB8
:1038000053EC112B02F0EEFB02F072F97060B5F987
:103810000A00DFED160A00EE100A1549B8EEC00ADC
:1038200020EE200A10EE100A884204DC10EE100A86
:1038300010F17F5F07D9D6ED020A9FED0E1A40EE18
:10384000410AC6ED020ABDEC088B70BD89A18B3A16
:10385000140000200AD7A33B6F12033A0000002097
:10386000DCA54C4000000020DCA54CC0D6FF793D13
:10387000000040406F12833A2DE9F0410B4E0F4695
:1038800004464FF48075002229463046FEF768F959
:1038900004F07F0000F026FE384600F023FE2946A3
:1038A0003046BDE8F0410122FEF75AB9000002405F
:1038B00030B5234C234D89B02078052809D000F07D
:1038C0005DFB09B02846BDE8304001222021FEF70B
:1038D00047B9684601F0F0FA9DF80C00A0B1DDEDA3
:1038E000010A9DED001ADDED021A30EE812A70EE1C
:1038F000C12A32EE210A72EEE10A32EE611A72EE4C
:10390000A11A00F023FB19E004A800F073FCBDF835
:103910001800A0F22620642801D8012060700A480F
:1039200090ED020A607800F047FD607830B1002227
:1039300020212846FEF714F909B030BD0122F7E72F
:1039400038000020001002404804002070B5FEF747
:103950000DF9144D0446686884420DD06C60FFF781
:1039600077FD2870052807D10F48FFF7AFFD0E49F6
:103970000D480C39FFF704FEA868201A0A2802D364
:10398000AC60FFF795FFE868201A142809D3EC60B3
:103990002878052805D1BDE8704003480C3801F0AF
:1039A0000FB870BD3800002054040020094808B545
:1039B000016841F4800101600068002200F4800089
:1039C000009011463A20FEF73FF9BDE808403A2042
:1039D000FEF72CB9303802402DE9F04786B01421AB
:1039E0006846FCF768FD38480025016841F0100181
:1039F0000160016801F010010591016841F080014A
:103A00000160016801F080010591016841F0010148
:103A10000160016801F001010591016841F00201B6
:103A20000160016801F002010591016841F008019F
:103A30000160016801F008010591016841F004018D
:103A400001600068DFF8848000F004000590012226
:103A500020214046FEF784F8DFF8749041F6FF46D7
:103A6000002231464846FEF77BF80122DFF864A0C9
:103A7000170239465046FEF773F801242020CDE99D
:103A8000000469464046CDE90245FDF771FF60023A
:103A9000CDE90005694602944846FDF769FFCDE986
:103AA00000640226CDE9024669464846FDF760FFFC
:103AB00001AA009782E8700069465046FDF758FF5A
:103AC00006B0BDE8F0870000303802400010024028
:103AD000000C024000000240104810B50E49016081
:103AE0004FF482714160002102228160C0E903121B
:103AF000012242615202C0E90621016241628162F3
:103B00000A21C162FEF772FB002803D0BDE8104015
:103B1000FDF75EBD10BD00000038004064040020C9
:103B200010B58CB024216846FCF7C5FC002415486C
:103B300009944FF080410A94C0E900144FF6FF71D8
:103B4000C0E90241046184610320CDE90004012041
:103B5000CDE902040494CDE905400794694609487B
:103B60000894FEF75FFE08B1FDF732FD099409A93C
:103B700004480A94FEF706FD002801D0FDF728FD51
:103B80000CB010BD6001002010B58CB02421684637
:103B9000FCF791FC00241648099414490A94C0E9E2
:103BA00000144FF6FF71C0E90241046184610320F3
:103BB000CDE900040120CDE902040494CDE90540DB
:103BC000079469460A480894FEF72CFE08B1FDF7F1
:103BD000FFFC099409A906480A94FEF7D3FC0028C3
:103BE00001D0FDF7F5FC0CB010BD00000004004052
:103BF000A801002010B58CB024216846FCF75BFCBE
:103C000000241648099414490A94C0E900144FF698
:103C1000FF71C0E90241046184610320CDE9000421
:103C20000120CDE902040494CDE9054007946946DA
:103C30000A480894FEF7F6FD08B1FDF7C9FC09949F
:103C400009A906480A94FEF79DFC002801D0FDF75B
:103C5000BFFC0CB010BD000000080040F0010020C7
:103C600010B58CB024216846FCF725FC00241648CA
:103C7000099414490A94C0E900144FF6FF71C0E991
:103C80000241046184610320CDE900040120CDE9F3
:103C900002040494CDE90540079469460A48089453
:103CA000FEF7C0FD08B1FDF793FC099409A9064889
:103CB0000A94FEF767FC002801D0FDF789FC0CB0E0
:103CC00010BD0000000C0040380200201CB500248C
:103CD0000E4800940C49019401605321C0E901147D
:103CE00040F2E7318461C160FEF794FC08B1FDF752
:103CF0006FFC0094694605480194FEF743FC0028D8
:103D000001D0FDF765FC1CBD0010004080020020C2
:103D100010B596B000240F9410941194129413943B
:103D20001C2168461494FCF7C6FB202107A8FCF769
:103D3000C2FB3448324901605321C0E9011440F20A
:103D4000E731C0E9031444618461FEF763FC08B104
:103D5000FDF73EFC4FF480500F900FA92948FEF765
:103D6000F3FC08B1FDF734FC2648FEF7C0FF08B1AC
:103D7000FDF72EFC139413A922481494FEF702FCBD
:103D800008B1FDF725FC6020CDE9000402940394FE
:103D900004940594002269461A480694FEF741FFF0
:103DA00008B1FDF715FC042269461648FEF739FFF5
:103DB00008B1FDF70DFC082269461248FEF731FFF5
:103DC00008B1FDF705FC0C2269460E48FEF729FFF5
:103DD00008B1FDF7FDFB0794089409944FF40050D7
:103DE0000A94CDE90B4007A906480E94FEF7A0FB04
:103DF00008B1FDF7EDFB0348FEF7E8FE16B010BD75
:103E000000040140C80200200C4810B50A490160B6
:103E10004FF4E1314160002181600C22C160C0E9B2
:103E200004128161C161FFF7A9F9002803D0BDE840
:103E30001040FDF7CDBB10BD004C0040100300202A
:103E40000C4810B50A4901604FF4E131416000218E
:103E500081600C22C160C0E904128161C161FFF779
:103E60008DF9002803D0BDE81040FDF7B1BB10BDAF
:103E700000100140580300200E4810B50C490160A5
:103E80004FF4164141604FF4805181604900C16098
:103E9000C91001610C21416100218161C161FFF7FD
:103EA0006DF9002803D0BDE81040FDF791BB10BDAF
:103EB00000440040A0030020FEE7000070B52DED97
:103EC000048BFDF70FFB1B48FEF7FEFB00211A4891
:103ED000FEF73CFF04211848FEF738FF082116487A
:103EE000FEF734FF0C211448FEF730FF134DDFEDD1
:103EF000148A9FED149A9FED148A0024A5F11006F0
:103F000005EB4410B0EE682AF0EE491AB0EE481AFC
:103F1000F7EE080AB0EE080A00F03EF906EB84005E
:103F2000641CE4B280ED008A042CE9D3BDEC048B60
:103F300070BD000080020020C80200209800002010
:103F400000C079C400C07944000000009FED092A38
:103F5000094820EE020A80ED000A20EE820A80ED78
:103F6000010A21EE020A80ED020A21EE820A80EDAA
:103F7000030A7047766A30438800002070B50F4D01
:103F800000242DED028B05F110069FED0B8A00BF7A
:103F900005EB840080ED008A06EB441000F01EF96A
:103FA0000021204600F046F8641CE4B2042CEFD354
:103FB000BDEC028B70BD00000000000088000020F6
:103FC00070B52DED028BFDF7B9FA184D9FED188AEB
:103FD000002405F110062046FDF774FA1CB3032CEB
:103FE00021D0012000EE900A05EB8400F8EEE00AF3
:103FF00020EE201AD0ED000A06EB441080EE880A6D
:10400000C1EE080A00F072F8BDEEC00A10EE100A08
:1040100001B2204600F00EF8641CE4B2042CDAD39E
:10402000BDEC028B70BD4FF0FF30DBE78800002055
:104030000000C8422DE9F0410446042842D294B160
:10404000032C10D05FF0010010FB01F0244E00B2F1
:10405000224900F1C702336801F10807B2F5C77FB2
:1040600004D8002009E04FF0FF30EDE74FF47A72FA
:10407000551E00280CDB904200DA85B231F814108E
:1040800001221846FDF76CFD37F8141000220CE0F1
:104090004042904200DA85B231F8141000221846EE
:1040A000FDF75EFD37F8141001223068FDF758FD6A
:1040B0000C484CB1012C0AD0022C0BD0032C01D19E
:1040C00000680564BDE8F08100684563FAE70068B0
:1040D0008563F7E70068C563F4E700005E660008E3
:1040E00000000020C8020020FEE70000F0B330EE20
:1040F000600ADFED270AD0ED031A90ED001A40EEBA
:10410000201A21EE002AC0ED031A90ED071AF4EEF2
:10411000C11AF1EE10FA01DD80ED031AD0ED031A99
:10412000B1EE411AF4EEC11AF1EE10FA01D280EDAF
:10413000031A90ED011AD0ED031A21EE211AD0EDE9
:10414000041A80ED040A70EE612A90ED020AC2EEB4
:10415000A01A72EE010A20EE210A30EE800AD0ED9C
:10416000050AF4EEC00AF1EE10FA00E00CE001D20C
:10417000B0EE600AD0ED060AF4EEC00AF1EE10FAD5
:1041800001DDB0EE600A70479FED020A7047000043
:104190000AD7233C0000000010B504002DED068B6B
:1041A000F0EE428AB0EE618AB0EE419AF0EE609A8B
:1041B000B0EE40AA0ED02021FCF77DF984ED00AAD4
:1041C000C4ED019A84ED029A84ED058AC4ED068A55
:1041D00084ED078ABDEC068B10BD0000002805D0D9
:1041E0009FED030A80ED030A80ED040A704700008A
:1041F0000000000000280ED007490A8802804A8883
:1042000042808A888280CA88C2800A8902814A895B
:104210004281097B017370471801002009484FF45F
:1042200080610122018041808180C1800181002163
:1042300041810273044801704170811C0348FFF7FB
:1042400083B800001801002004000020A003002013
:1042500070B50F4C0F4962781AB10025012A13D1AD
:1042600006E00F2803D1087001202070607070BD37
:1042700022788854521CD0B220701928F7D3087EB7
:1042800010B9044800F0F6F86570257070BD0000A4
:1042900004000020260100200E2920D10178DF290A
:1042A0001DD1017BFD291AD142788178012A16D1CE
:1042B000972914D1C2780179022A10D167290ED129
:1042C000417906290BD100221146435C491C1A444E
:1042D000C9B2D2B20C29F8D9417B914201D0002059
:1042E0007047B0F90620B0F9081000EE102AB0F9B6
:1042F0000A00F8EEC00A00EE101A0121B8EEC01A4A
:1043000000EE100A0548B8EEC00AC0ED000A80EDC4
:10431000011A80ED020A0173084670473C0500202F
:1043200070470000A0F54E71B1F5C87F02D89FED2F
:10433000090A7047A0F5806000EE100ADFED060A5A
:104340009FED061AB8EEC00A60EE200A80EE810AE0
:104350007047000000000000000048440000444492
:1043600010B59FED0F2ADFED0F1ADFED100A9FED5C
:10437000100A10482DED028B9FED0B8AB0EE481A03
:10438000FFF70AFFF0EE481AB0EE481AF0EE480ABE
:10439000B0EE480ABDEC028BBDE81040FFF7D6BD79
:1043A000000048C400004844000000003333333F9D
:1043B000000070424001002010B504462DED048B32
:1043C00084B0F0EE409A6846FFF714FFDFED268ACE
:1043D000B0EE689AB0EE688AA4B19DF80C0088B17E
:1043E000BDF80200FFF79EFFB0EE409ABDF8000056
:1043F000FFF798FFF0EE408ABDF80400FFF792FF48
:10440000B0EE408A194CB5EEC08AF1EE10FA07D032
:1044100000202070C4ED019A1548FFF7DFFE11E07F
:10442000207830B901202070C4ED019A1048FFF7C0
:10443000D5FEF0EE690A94ED010A0D48FFF756FE2D
:10444000B0EE408A39EE281A79EE681A31EE080A81
:1044500071EEC80A31EE481A71EE881AFFF776FD40
:1044600004B0BDEC048B10BD00000000080000206B
:104470004001002070B501780F2901D1017E09B1FA
:10448000002070BDB0F801100479C1F30A038178EF
:10449000067ACA08C17842EA4112890941EA8401D0
:1044A0004479C2F30A0204F0010541EA85218579C5
:1044B000640844EAC514C579407AED0945EA460521
:1044C00045EA4020C0F30A050548C4F30A04838086
:1044D000C28041800480058101210173084670BDBE
:1044E0001801002001B582B064200090012301AAC8
:1044F00002A90348FDF70EFF9DF804000EBD000061
:1045000064040020F8B515460E460B46009204469A
:104510000122022100F02CF8A0B9134813490068C9
:10452000B0FBF1F04FF47A71484300906068B0F549
:10453000827F0DD13346002280212046009500F075
:1045400017F870B1606D40F0200060650320F8BD81
:10455000009830B1401E009020688068C04300067B
:10456000F6D50020F8BD00005400002000366E0192
:104570002DE9F8431E46914688460446089DFDF7FE
:10458000F5FA401B351AFDF7F1FA07462648006890
:10459000C0F3CB3068430AE0701C09D0FDF7E6FA9F
:1045A000C01BA8420FD275B10098B8B3401E00904E
:1045B0002068816838EA010033D000214945EBD1F9
:1045C0000020BDE8F8832068416821F0E0014160E7
:1045D0006068B0F5827F0BD1A068B0F5004F02D0C3
:1045E000B0F5806F04D12068016821F040010160BE
:1045F000A06AB0F5005F09D12068016821F400517C
:1046000001602068016841F400510160012084F8D4
:104610005100002084F850000320D2E7FFE7002576
:10462000C6E70121CAE70000540000207047FDF7EB
:10463000A3BA000030B593B030216846FBF73BFFCA
:1046400014210CA8FBF737FF1D480025016841F035
:1046500080510160006800F0805011901948016895
:1046600041F4804101600068022400F48040119010
:1046700001200090000401908001CDE9064008AAC5
:104680000420A82182E813000B906846FDF7F8FB90
:1046900008B172B6FEE70CA90F2081E831004FF493
:1046A000A0500F904FF48050109005210CA8FDF7FA
:1046B000FDFA002801D072B6FEE713B030BD00004D
:1046C00040380240007000400248016841F4700127
:1046D0000160704788ED00E00148FEF7DFB9000097
:1046E00080020020F0B50268274B284D284E294F44
:1046F000294C4FF0804C984209D0604507D0A84221
:1047000005D0B04203D0B84201D0A04204D122F07B
:10471000700E4A6842EA0E0298421BD0604519D0DA
:10472000A84217D0B04215D0B84213D0A04211D041
:104730001A4DA8420ED01A4DA8420BD0194DA842CE
:1047400008D0194DA84205D0184DA84202D0184DE6
:10475000A84203D122F44075CA682A434D6922F069
:1047600080022A438D68C5620D688562984201D037
:10477000A04201D109690163016841F004010160AF
:10478000012141610260F0BD0000014000040040D1
:1047900000080040000C00400004014000400140BF
:1047A000004401400048014000180040001C004047
:1047B0000020004010B501F01F030121046A994058
:1047C0008C430462016A9A401143016210BD10B526
:1047D000846842EA032224F47F440A43224382602D
:1047E00010BD826822F070020A4342F00701816026
:1047F00070470000F0B5036A026A22F0010202620B
:1048000042688469124E24F073050C682C4323F02F
:1048100002058B682B430D4DA84201D0B04205D153
:1048200023F00807CB683B4323F00403A84201D0E0
:10483000B04205D14D6922F4407215438A692A437A
:1048400042608461496841630362F0BD0000014039
:1048500000040140F0B5026A036A23F0100303620A
:10486000436884690D6824F4E64444EA05248D68AD
:1048700022F0200242EA05120F4D104EA84201D04C
:10488000B04206D1CF6822F0800242EA071222F03D
:104890004002A84201D0B04207D14D6923F44063E1
:1048A00043EA85038D6943EA85034360846149686F
:1048B00081630262F0BD000000000140000401407D
:1048C000F0B5026A036A23F4807303624368C46923
:1048D00022F4007224F073050C68124E2C438D688C
:1048E00042EA05220E4DA84201D0B04206D1CF685F
:1048F00022F4006242EA072222F48062A84201D038
:10490000B04207D14D6923F4405343EA05138D6942
:1049100043EA05134360C4614968C1630262F0BDA4
:10492000000001400004014030B5046A026A22F42C
:10493000805202624268C3690D6823F4E64343EA89
:1049400005238D6824F4005444EA0534084DA84238
:1049500002D0084DA84204D14D6922F4804242EAB7
:1049600085124260C36149680164046230BD000081
:10497000000001400004014010B5036A046A24F0FD
:1049800001040462846924F0F00444EA021423F070
:104990000A020A438461026210BD10B5036A046A08
:1049A00024F010040462846923F0A00324F470440A
:1049B00044EA023243EA01118261016210BD000043
:1049C0002DE9F041804696B0806801F0CBFD0646A7
:1049D0000F46D8F8040001F0C5FD04460D46D8F88E
:1049E000000001F0BFFD0B4602468DE8FC0008A266
:1049F000402106A8FBF7BCFC002805DD82B20A2393
:104A000006A90748FEF7C7FC16B0BDE8F081000014
:104A1000252E32662C252E32662C252E32660A0073
:104A20001003002010B5806B0021C185FEF764FAE9
:104A300010BD70B5846B2068406994F84110C0F3D4
:104A4000C0100025212904D118B1E584204600F0CA
:104A50008EF82068406994F84210C0F38010222933
:104A600004D118B1E585204600F05AF8606C40F09A
:104A7000100060642046FEF73FFA70BD10B5014695
:104A8000806B096809684FF00002C9052ED4C28501
:104A900001680C3151E8003F23F4807341E8003491
:104AA000002CF5D10168143151E8003F23F00103D7
:104AB00041E80034002CF5D10168143151E8003F81
:104AC00023F0400341E80034002CF5D1202180F888
:104AD0004210016B012909D101680C3151E8003FF6
:104AE00023F0100341E80034002CF5D14263016B40
:104AF000012902D0FEF736FC10BD818DFEF7C4F906
:104B000010BD10B5806B01214163016B012902D0FA
:104B1000FEF740FC10BD818D4908FEF7B5F910BDC8
:104B200001680C3151E8002F22F4907241E8002313
:104B3000002BF5D10168143151E8002F22F0010259
:104B400041E80023002BF5D1016B012909D101684F
:104B50000C3151E8002F22F0100241E80023002B15
:104B6000F5D1202180F842100021016370470168CF
:104B70000C3151E8002F22F0C00241E80023002B45
:104B8000F5D1202180F84110704708B590F8421007
:104B9000222901D0022008BD82684FF480539A4236
:104BA00001D1016921B1816A9A421BD04AB10AE060
:104BB0000268816A5268C2F308020A80816A891C0D
:104BC00008E0026972B10268526802F07F020A705E
:104BD000816A491C8162C18D491E0904090CC18585
:104BE00003D01BE002685268F1E70168CA6822F04E
:104BF0002002CA600168CA6822F48072CA60016833
:104C00004A6922F001024A61202180F84210002105
:104C10004163026B012A03D0FEF7A4FB002008BD0C
:104C2000016301680C3151E8002F22F0100241E8C5
:104C30000023002BF5D101680A68D20602D50A6864
:104C400049680091818DFEF71FF9E7E770B50446CA
:104C500000680169E26821F4405111430161216952
:104C6000A068E26908436169114308432168CA6882
:104C700049F20C639A430243CA6020684169A26901
:104C800021F440711143416131492068884202D0CA
:104C90003049884202D1FDF7B3F801E0FDF7A0F8F2
:104CA000E2690023192164253226B2F5004F6268BB
:104CB00028D0A0FB0101930F9200FBF7E1FA014617
:104CC000B0FBF5F06FF01802504301EB800006EBEB
:104CD0000010B0FBF5F000F0F002B1FBF5F002EBD4
:104CE0000012B1FBF5F06FF01803584301EB8000A0
:104CF00006EB0010B0FBF5F000F00F002168104447
:104D0000886070BDA0FB010192185B41FBF7B8FA07
:104D10000146B0FBF5F00201B1FBF5F06FF01803AE
:104D2000584301EB800006EBC000B0FBF5F000F04B
:104D3000F80002EB4002B1FBF5F0584301EB8000B4
:104D400006EBC000B0FBF5F000F00700D6E700006E
:104D5000001001400014014038B58162044682858C
:104D6000002013466064222284F84220E56B1F4A2B
:104D7000EA63E56B1E4A2A64E56B1E4AEA64E26B4D
:104D800010650A462168E06B091DFCF7B9FD30B1DA
:104D900010206064202084F84200012038BD206883
:104DA000016840680090206948B120680C3050E8E4
:104DB000001F41F4807140E80012002AF5D12068FC
:104DC000143050E8001F41F0010140E80012002AB1
:104DD000F5D12068143050E8001F41F0400140E850
:104DE0000012002AF5D1002038BD00007D4A0008DD
:104DF000034B0008334A000881628285C285002186
:104E00004164222180F84210016921B10168CA6819
:104E100042F48072CA6001684A6942F001024A6144
:104E20000068C16841F02001C160002070472DE991
:104E3000F843984617460D460446089E24E0701C29
:104E400022D0FCF793FEA0EB0800B0421AD8CEB1F6
:104E50002068C168490717D5802D15D0402D13D083
:104E60000168C94309070FD4016800254068009014
:104E70002046FFF755FE0820606484F8405001206A
:104E8000BDE8F8830320FBE72068006835EA0000EE
:104E900004D00020B842D2D00020F1E70120F9E789
:104EA0000148FEF72BB80000580300200148FEF728
:104EB00025B80000A0030020002810D072B60849D1
:104EC00091ED000A80ED000A91ED010A80ED010AE2
:104ED00091ED020A80ED020A097B017362B6704708
:104EE0003C0500200E4810B59FED0C0A002180ED16
:104EF000000A80ED010A80ED020A0173A0F1800131
:104F000080220848FDF79BFF0648C06B002804D0AC
:104F10000068016821F00801016010BD0000000078
:104F20003C05002058030020FEE703B4019841002F
:104F3000009850EAC12018BF04204A0D18BF40F065
:104F4000010040F2FF72B2EB515F08BF40F0020077
:104F5000012808BF052002B070470907090E002884
:104F600004DB00F1E02080F80014704700F00F002F
:104F700000F1E02080F8141D7047000000000000E0
:104F800070B5C1482DED020B2DED0E8B82B0119D39
:104F900025F000449FEDBEDB9FEDBFEB84423EDB7E
:104FA000A4F140511098A1F17F6108430FD0BC4893
:104FB000844202DC28D1109830B39DED100B02B072
:104FC000BDEC0E8B02B0BDE8704000F0AEBC9DEDB4
:104FD000100B53EC1D2B51EC100B01F003F89DED61
:104FE000100B41EC180B53EC1E2B51EC100B00F086
:104FF000F9FF53EC182B00F0ADFD41EC100B02B0A3
:10500000BDEC0E8B02B070BD0120FBF783FA02B03D
:10501000BDEC0E8B02B0BDE8704000F09DBCA14815
:105020009FEDA18B844256DA9DED100BB4F1795FB0
:105030000ADA51EC100BFFF778FF042808BF00F0E4
:105040009BFC9DED100BDAE753EC102B51EC100B91
:1050500000F0C8FF41EC190B95480621B0EE490A53
:10506000F0EE690A784400F0E4FB53EC192B51ECA4
:10507000100B00F0B7FF41EC1A0B8E48B0EE490A56
:10508000F0EE690A0421784400F0D3FB53EC192BAD
:1050900051EC100B00F0A6FF53EC182B00F05AFD5A
:1050A00041EC100B51EC1A0B53EC102B00F006FEE8
:1050B000CDE900019DED000B53EC102B9DED100B85
:1050C00051EC100B00F08EFF9DED101B53EC112BDB
:1050D00000F040FDD2E09DED100B51EC100B00F004
:1050E0006AFC53EC182B01F07BF89FED730BCDE9B4
:1050F000000153EC102B9DED000B51EC100B00F058
:1051000071FF41EC190B6E480621B0EE490AF0EE32
:10511000690A784400F08DFB53EC192B51EC100B0D
:1051200000F060FF41EC1B0B6648B0EE490AF0EE60
:10513000690A0421784400F07CFB53EC192B51ECF4
:10514000100B00F04FFF53EC182B00F003FD41EC67
:105150001C0B51EC190B00F071FC41EC180B5A4878
:105160009FED5BABA04222DC53EC1C2B51EC1B0BE4
:1051700000F0A4FDCDE900019DED000B51EC180BF2
:1051800053EC102B00F02EFF53EC182B00F0E2FC38
:1051900053EC1A2B00F026FF53EC1D2B01F0F8F80E
:1051A00053EC1E2B01F01CF841EC100B5FE08DED71
:1051B000008B002000909DED000B51EC180B53EC80
:1051C000102B00F0C7FC9DED000B41EC1E0B53ECC7
:1051D000102B51EC100B00F005FF53EC192B00F0D5
:1051E000FFFF53EC1E2B00F069FD41EC190B53EC53
:1051F0001C2B51EC1B0B00F061FD41EC1B0B53EC25
:105200001A2B51EC190B00F0EDFE53EC1D2B00F0A6
:10521000E7FF41EC190B53EC1A2B51EC180B00F083
:10522000E1FE53EC1B2B00F0DDFE53EC192B01F0DB
:10523000AFF89DED000B41EC180B53EC1A2B51EC21
:10524000100B00F0CFFE9FED249B53EC192B00F0C8
:10525000C7FF41EC100B51EC180B53EC102B01F075
:1052600097F853EC192B00F0BBFF41EC100B002D0D
:105270003FF7C5AE51EC100B00F02EFC41EC100BCB
:10528000BDE60000000000000000F03F000000004C
:10529000075C143326A6913C182D4454FB21F93F9A
:1052A0000000F07F0000E03F000000000000F03F41
:1052B0002816000036160000000000000000E03F45
:1052C0007A150000881500003333EF3F000000001E
:1052D0000000000000000040182D4454FB21E93F6D
:1052E00070B59B482DED020B2DED068B079D25F02B
:1052F0000044A04218DC9748844202DC0AD1069898
:1053000040B19DED060BBDEC068B02B0BDE87040D0
:1053100000F00BBB002DCCBF9FED8F0B9FED900BD2
:10532000BDEC068B02B070BD8F48A04215DD8F48E2
:10533000A042D8BF4FF0FF3458DD9DED060B51EC75
:10534000100BFFF7F2FD042808BF00F015FB9DEDE0
:10535000060BBDEC068B02B070BD9DED060B51EC4B
:10536000100B00F028FBCDE9060181489FED828BF0
:10537000A0423CDD8248A0421FDD00249FED82ABAD
:105380009DED060B53EC1A2B51EC100B00F0E2FBD9
:105390009DED060B41EC190B53EC1A2B51EC100B45
:1053A00000F020FE53EC182B00F0F2FF53EC192B09
:1053B00000F084FCCDE9060149E09DED060B0124D7
:1053C00053EC182B51EC100B00F0C4FB9DED060BB9
:1053D00041EC190B53EC182B51EC100B00F0D8FFDB
:1053E00053EC192B00F06AFCCDE906012FE0684868
:1053F000A0421FDD02249FED689B9DED060B53EC40
:10540000192B51EC100B00F0EDFD53EC182B00F0B4
:10541000A1FB9DED060B41EC180B53EC192B51EC45
:10542000100B00F0B5FF53EC182B00F047FCCDE952
:1054300006010CE09DED060B032453EC102B9FEDB1
:10544000580B51EC100B00F039FCCDE906019DED35
:10545000060B53EC102B51EC100B00F0C3FD41EC8C
:10546000180B53EC182B00F0BDFD41EC190B4E4806
:105470000621B0EE490AF0EE690A784400F0D9F945
:1054800053EC182B51EC100B00F0ACFD41EC180B59
:105490004648B0EE490AF0EE690A0521784400F06A
:1054A000C8F953EC192B51EC100B00F09BFD41ECAB
:1054B000100B51EC180B53EC102B002C0EDA00F0F3
:1054C00049FB9DED061B53EC112B00F08BFD9DED70
:1054D000061B53EC112B00F083FE35E000F03AFB85
:1054E0009DED061B53EC112B00F07CFD41EC100BE5
:1054F0002F48784400EBC40090ED001B51EC100BDA
:1055000053EC112B00F044FF9DED061B53EC112BC7
:1055100000F03EFF41EC100B2648784400EBC4003D
:1055200090ED001B51EC100B53EC112B00F058FECA
:1055300041EC100B002DA2BFBDEC068B02B070BD7C
:1055400051EC100B00F0C8FA41EC100B01E7000021
:10555000000010440000F07F182D4454FB21F93F57
:10556000182D4454FB21F9BF0000DC3F0000203E11
:105570000000F33F00000000000000000000F03FCA
:105580000000E63F000000000000000000000040B6
:105590000080034000000000000000000000F83F11
:1055A000000000000000F0BFCA12000080120000DE
:1055B0000A120000C211000070B56F4E2DED040BF1
:1055C0002DED048B82B0DDF824C0DDE907235C42B9
:1055D0002CF000411C4341EAD474069D22F00040A7
:1055E000B44205D86C422C4340EAD474B4420BD97F
:1055F0009DED081B9DED060B02B0BDEC048B04B0C5
:10560000BDE8704000F09BB9ACF14054A4F17F6458
:105610001C430BD0022404EAAC7444EAD274054360
:105620009FED578B9FED582B07D015E09DED060B96
:1056300051EC100B00F0B7F942E0002C11BF012C27
:105640009DED060B02B0BDEC048B04BF04B070BD31
:10565000022C38D0032C3BD00B439FED4D1B9FED0C
:105660004E0B0AD0B14218D1B04209D121F080418D
:1056700020F08040099107900FE0002A15DA10E031
:10568000474B7B44002C08BF93ED000B0DD0012C41
:1056900010D0022C17D0032C1AD0B0421DD1002AF2
:1056A00003DAB0EE410AF0EE610A02B0BDEC048B01
:1056B00004B070BD93ED000B51EC100B00F00CFA30
:1056C00041EC100BF1E7B0EE480AF0EE680AECE7A7
:1056D000B0EE420AF0EE620AE7E7401A00159FEDCD
:1056E000329B3C28C8BF8DED000B17DCBCF1000FCE
:1056F000BCBF10F13C0F8DED009B0FDB9DED080B47
:1057000053EC102B9DED060B51EC100B00F0D6FA6C
:1057100000F051F900F047F9CDE90001B4B1012CD6
:1057200010D0022C9FED220B53EC102B9DED000BA3
:1057300051EC100B19D000F02BFE53EC182B00F09D
:1057400027FEBDE7019880F0004001909DED000B21
:1057500053EC192B51EC100B00F008FC04BF022095
:10576000FAF7D8FE9DED000B9FE700F011FE53EC19
:10577000182B00F035FDA3E70000F07F00000000CB
:10578000182D4454FB210940182D4454FB2109C015
:10579000182D4454FB21F9BF182D4454FB21F93F27
:1057A000F2100000000000000000000000000000F7
:1057B000075C143326A6A13C00B52DED048BB0EE9A
:1057C000409AF0EE609A83B051EC190B00F014FD92
:1057D00041EC180B18EE100A18EE901A8DED008BA4
:1057E000002818BF0120084320F00040C0F17F606E
:1057F00000F1E040C00F14D019EE101A19EE900A13
:105800008DED009B002918BF0121084320F00040C6
:10581000C0F17F6000F1E040C00F04BF0120FAF743
:1058200079FEB0EE480A03B0F0EE680ABDEC048BD6
:1058300000BD70B504462DED028B4D1E00EBC5007A
:10584000B0EE408AF0EE608A90ED000B35F0060075
:1058500017D053EC182B51EC100B00F0C3FB41ECAC
:10586000100B6D1E04EBC50090ED001B51EC100BEE
:1058700053EC112B00F06EF941EC100B35F00600E3
:10588000E7D1022D36D0042D1CD0062D1CBFBDEC57
:10589000028B70BD53EC182B51EC100B00F0A2FBE7
:1058A00094ED0A1B53EC112B00F054F953EC182B18
:1058B00000F098FB94ED081B53EC112B00F04AF913
:1058C00041EC100B53EC182B51EC100B00F08AFB41
:1058D00094ED061B53EC112B00F03CF953EC182B04
:1058E00000F080FB94ED040B53EC102B00F032F928
:1058F00041EC100B53EC182B51EC100B00F072FB29
:1059000094ED021B53EC112B00F024F953EC182BEF
:1059100000F068FB94ED001B53EC112B00F01AF91A
:10592000BDEC028B41EC100B70BD10B553EC102B8D
:1059300051EC100B00F00EF941EC100B10BD10B53E
:1059400053EC112B51EC100B00F004F941EC100B4F
:1059500010BD0000000000009FED050B10B553ECDA
:10596000102B51EC100B00F0A9F941EC100B10BDFD
:1059700000000000000000009FED050B10B553EC87
:10598000102B51EC100B00F02DFB41EC100B10BD57
:10599000000000000000001030380A2801D2012069
:1059A00070470020704710B541EC100BFFF798FCD2
:1059B00051EC100B10BD82B0CDE9000121F0004088
:1059C00001909DED000B02B051EC100B70470000F0
:1059D000FCF7DAF8FEF72EFEFDF7FEFFFDF7E6FF17
:1059E000FEF796F9FEF79CF8FEF7CEF8FEF702F9FF
:1059F000FEF736F9FEF76AF9FEF706FAFEF73CFA0B
:105A0000FEF76AF8FEF71CFAFFF76CFAFEF756FA93
:105A1000FEF704FCFEF7A4FCFDF70FFD01000648AD
:105A200001D0002200E001222021FCF799F800BFFC
:105A3000FDF78CFFFCE700000010024000B52DEDE3
:105A4000048B83B041EC190B00F0D6FB41EC180B32
:105A500018EE100A18EE901A8DED008B002818BF72
:105A60000120084320F00040C0F17F6000F1E040D9
:105A7000C00F14D019EE101A19EE900A8DED009B8C
:105A8000002918BF0121084320F00040C0F17F60C9
:105A900000F1E040C00F04BF0120FAF73BFD51ECDC
:105AA000180B03B0BDEC048B00BD000010B500293D
:105AB0000AD00878002807D005487844FBF798F802
:105AC000002801D0002010BD0248784410BD00001D
:105AD0007A0D0000720D000081F00041704780F0E7
