:020000040800F2
:10000000A809002031020008D52400087B1E000842
:10001000B52200083F060008692E00080000000015
:10002000000000000000000000000000B9270008E8
:10003000410600080000000085260008BB270008D4
:100040004B0200084B0200084B0200084B0200085C
:100050004B0200084B0200084B0200084B0200084C
:100060004B0200084B0200084B0200084B0200083C
:100070004B0200084B0200084B0200084B0200082C
:100080004B0200084B0200084B0200084B0200081C
:100090004B0200084B0200084B0200084B0200080C
:1000A0004B0200084B0200084B0200084B020008FC
:1000B0004B0200084B0200084B0200084B020008EC
:1000C0004B0200084B0200084B0200084B020008DC
:1000D0004B0200084B0200085D2E00084B0200088E
:1000E0004B0200084B0200084B0200084B020008BC
:1000F0004B0200084B0200084B0200084B020008AC
:100100004B0200084B0200084B0200084B0200089B
:100110004B0200084B020008652800084B0200084B
:100120004B0200084B0200084B0200084B0200087B
:100130004B0200084B0200084B0200084B0200086B
:100140004B0200084B0200084B0200084B0200085B
:100150004B0200084B0200084B0200084B0200084B
:100160004B0200084B0200084B0200084B0200083B
:100170004B0200084B0200084B0200080000000080
:100180004B0200084B02000800F002F800F041F8B2
:100190000AA090E8000C82448344AAF10107DA45E2
:1001A00001D100F036F8AFF2090EBAE80F0013F0F3
:1001B000010F18BFFB1A43F001031847A02D0000E0
:1001C000C02D0000103A24BF78C878C1FAD8520771
:1001D00024BF30C830C144BF04680C6070470000C1
:1001E0000023002400250026103A28BF78C1FBD840
:1001F000520728BF30C148BF0B607047752900F017
:10020000FF80002070471FB502F08EFE1FBD10B5A5
:1002100010BD00F0DAF91146FFF7F5FF02F036FEE7
:1002200000F0F8F903B4FFF7F2FF03BC00F000FAA6
:100230000948804709480047FEE7FEE7FEE7FEE77A
:10024000FEE7FEE7FEE7FEE7FEE7FEE704480549B6
:10025000054A064B70470000552800088901000830
:10026000A8030020A8090020A8050020A805002058
:1002700053EA020C00F069802DE9F04B4FF00006C4
:10028000002B1FBFB3FA83F503FA05F424FA05F631
:100290005E4012BF1643B2FA82F502FA05F4C5F1C8
:1002A00020051EBF22FA05FC44EA0C04203556EA5C
:1002B000044C4FEA144418BF641C4FF000084FF080
:1002C0000009904271EB030C39D3002919BFB1FA30
:1002D00081F701FA07F6B0FA80F700FA07F6C7F1DE
:1002E00020071EBF20FA07FC46EA0C062037B6FBA3
:1002F000F4FCA7EB0507103F07F01F0BCBF120061E
:100300000CFA0BFB2CFA06F644BFB3460026202F4E
:10031000A4BF5E464FF0000B5BEA060C08BF4FF02F
:10032000010B19EB0B09ABFB027C48EB0608C01B69
:1003300006FB02CC0BFB03CC71EB0C01C1E70B46B7
:10034000024641464846BDE8F08B13B54FF0000029
:100350004FF00001AFF30080BDE81C407047000083
:100360000FB47CB50C0009AA009001D02044401EB7
:10037000084B7B4469460190089800F006F9054651
:100380001CB10020694600F013F928467CBC5DF8DA
:1003900014FB0000450200002DE9F0410E46044622
:1003A000002020622046E168884730B3252805D028
:1003B000D4E901219047206A401CF2E7E168204619
:1003C00000278847050018D0A5F14100192802D858
:1003D00020354FF400673246294620462760FFF754
:1003E0000DFF40B1012804D0F61D26F0070608369F
:1003F000D8E7361DD6E72846DAE7206ABDE8F0815F
:100400002DE9F0410646002410687529314616A5ED
:1004100010D0AFF30080002802DA404213A507E0B5
:1004200031688A0701D512A502E0490704D511A554
:10043000012401E0AFF3008000210A2206F1240725
:1004400009E0B0FBF2FCB0FBF2F302FB1C00303021
:1004500078541846491C0028F3D123462A463046D2
:10046000BDE8F04100F032B8000000002D000000AF
:100470002B000000200000004FF0000200B51346E2
:1004800094469646203922BFA0E80C50A0E80C50B4
:10049000B1F12001BFF4F7AF090728BFA0E80C5065
:1004A00048BF0CC05DF804EB890028BF40F8042B5E
:1004B00008BF704748BF20F8022B11F0804F18BFCB
:1004C00000F8012B70477047704770472DE9F047DF
:1004D0000D4699469246044600F1240801688806B4
:1004E00004D5E06921F01001216000E00120A8425C
:1004F00001DD471B00E00027A1697A1902EB090022
:10050000081AA0612078C00602D42046AFF300800C
:10051000002608E0D4E901211AF806009047206A75
:10052000401C761C20624E45F4DB2078C0060AD5BC
:100530002046AFF3008006E0D4E901213020904747
:10054000206A401C2062381EA7F10107F4DC07E096
:10055000D4E9012118F805009047206A401C206268
:10056000281EA5F10105F3DC2046AFF300802078BA
:10057000000602D50220BDE8F0870120FBE700005D
:1005800001694A1C02610878704700B58FB0CDE957
:1005900001310021059105497944CDE90310114647
:1005A0006846FFF7F9FE0FB000BD0000E5FFFFFF52
:1005B0000A6802F8010B0A607047D1E900239A42E9
:1005C00002D2531C0B6010707047754600F02CF877
:1005D000AE4605006946534620F00700854618B030
:1005E00020B5FFF733FEBDE820404FF000064FF086
:1005F00000074FF000084FF0000B21F00701AC4658
:10060000ACE8C009ACE8C009ACE8C009ACE8C00976
:100610008D46704710B50446AFF300802046BDE814
:100620001040FFF7FFBD0000004870474403002062
:1006300001491820ABBEFEE7260002007047FEE726
:1006400070470000042802D39FED040A7047044954
:1006500001EB800090ED000A7047000000000000F0
:100660007C020020104910B50020086048608860B6
:10067000C860086148618861C86108624862886230
:10068000C8623C21094800F085FF3C21084800F081
:1006900081FF3C21074800F07DFFBDE810403C2170
:1006A000054800F077BF00005C0200201C0000201D
:1006B00064000020AC000020F4000020FCB51E48BF
:1006C0000068406AADF800001C480068406AADF858
:1006D00002001B480068406AADF804001948006831
:1006E000406A194AADF806009FED181A00206D46C1
:1006F000A2F11003F2EE040A02F1100635F81040E0
:1007000032F8201053F82070611A09B200EE101A66
:100710000F4443F82070B8EEC00A42F8204006EBC0
:100720008001401C20EE010AC0B20428C0EE201A4D
:10073000C1ED001AE2D3FCBD1C00002064000020C3
:10074000AC000020F40000206C02002000007A447D
:1007500072B6FEE72DE9F0410446876D00F054F9CA
:10076000064694F835000025022806D080206065F2
:1007700084F834500120BDE8F0812068016821F040
:10078000160101602068416921F080014161206CFF
:1007900008B9A06C20B12068016821F0080101604F
:1007A0002068016821F0010101600CE000F02CF9E3
:1007B000801B052807D920206065032084F83500B8
:1007C00084F83450D7E720680068C007EED194F869
:1007D0005C103F208840B860012084F8350084F820
:1007E00034500020C7E790F83510022903D080214B
:1007F000416501207047052180F8351000680168C7
:1008000021F0010101600020704700002DE9F84F40
:10081000DFF8BCA10022012503264FF00F090AF1E1
:10082000040BAAF1040E00BF0B6805FA02F4234082
:10083000A34270D10F7907F00307012F01D0022FD7
:1008400016D187684FEA420806FA08FC27EA0C0727
:10085000D1F80CC00CFA08FC4CEA070CC0F808C030
:100860004768A7430C79C4F3001494403C434460A8
:100870000C79E443A4070AD0C4684FEA420C06FA94
:100880000CF7BC438F6807FA0CF72743C7600C7955
:1008900004F00304022C12D1D40800EB840CDCF821
:1008A00020405707FF0E09FA07F824EA0804D1F898
:1008B000108008FA07F848EA0408CCF82080046899
:1008C0004FEA420C06FA0CF7BC430F7907F0030716
:1008D00007FA0CF7274307604C6814F4403F70D0C8
:1008E0003C4C276847F480472760246822F00307C0
:1008F00004F480440094384C07EB040CDCF80848FE
:1009000097074FEA177809FA08F7BC43334FB84204
:1009100002D1002724E054E0314FB84201D1012731
:100920001EE0304FB84201D1022719E02E4FB842E5
:1009300001D1032714E02D4FB84201D104270FE065
:100940002B4FB84201D105270AE02A4FB84201D106
:10095000062705E0284FB84201D1072700E0082705
:1009600007FA08F72743CCF80878DAF8004057462A
:10097000D1F804C09C435FEACC2C00D51C433C60FA
:10098000DBF800405F46D1F804C09C435FEA8C2C42
:1009900000D51C433C60DEF800407746D1F804C027
:1009A0009C435FEA8C3C00D51C433C60084F083FE9
:1009B0003C68D1F804C09C435FEACC3C00D51C43A2
:1009C0003C60521C102AFFF42FAFBDE8F88F0000E6
:1009D000083C014044380240003001400000024021
:1009E0000004024000080240000C024000100240D7
:1009F0000014024000180240001C02400AB181614C
:100A000070470904FBE70000014880687047000058
:100A10000C00002002488168027811448160704710
:100A20000C0000200B4810B5016841F40071016012
:100A3000016841F480610160016841F480710160E6
:100A4000032000F06FF80F2000F006F800F024F803
:100A5000002010BD003C024070B50D4D04464FF41F
:100A60007A712878B1FBF0F00A490968B1FBF0F01F
:100A700000F00CFB48B9102C07D200222146501E72
:100A800000F030F800206C6070BD012070BD0000E7
:100A90000C000020180000200A4808B5016841F445
:100AA00080410160006800F4804000900548001F0C
:100AB000016841F080510160006800F080500090B2
:100AC00008BD000044380240002809DB00F01F0286
:100AD000012191404009800000F1E020C0F80011A0
:100AE00070470000F0B40E4B1B680C46C3F30223A2
:100AF000C3F10705042D00D90425191D072901D2CA
:100B0000002300E0DB1E012606FA05F1491E214004
:100B100099409E40761E16403143F0BC02F0A5B9C4
:100B20000CED00E0064900F0070208684FF6FF03ED
:100B3000184040EA0220034A104308607047000052
:100B40000CED00E00000FA052DE9F0470E46050027
:100B500065D0DFF81481D8F80000F7B200F0070084
:100B6000B04207D288F80070D8F8000000F0070003
:100B7000B04254D128683D4C810712D5400703D5B7
:100B8000206840F4E05020602878000703D52068F2
:100B900040F4604020602068A96820F0F00008431D
:100BA00020602878C0072DD03049686808390128AE
:100BB00012D0022813D0032811D009688907002910
:100BC0002DDA216821F0030101432160FFF71CFFAA
:100BD000814641F2883A0EE009688903EFE7096827
:100BE0008901ECE7FFF710FFA0EB0901514502D99D
:100BF0000320BDE8F0872068696800F00C00B0EBC6
:100C0000810FEFD1D8F80010404601F00701B14242
:100C100007D90770006800F00700B04201D001203A
:100C2000E7E72878400705D52068E96820F4E05018
:100C3000084320602878000706D52068296920F439
:100C4000604040EAC100206000F038F82168084A9E
:100C5000C1F30311515CC8400649086006480068AA
:100C6000FFF7FAFE0020C4E7003C024008380240CB
:100C7000422F0008180000201000002004480549F9
:100C800000680968044AC1F38221515CC84070477A
:100C90001800002008380240522F00080448054977
:100CA00000680968044AC1F34231515CC84070478A
:100CB0001800002008380240522F0008154810B5CF
:100CC000006810F00C02144813D01449042A0FD005
:100CD000082A0ED10F4C241F2268236802F03F021D
:100CE0005B0207D52068C0F38810A0FB010106E075
:100CF000084610BD2168C1F38811A1FB0001002343
:100D0000FFF7B6FA2168C1F30141491C4900B0FB65
:100D1000F1F010BD083802400024F40040787D0155
:100D20002DE9F84F04006ED02078DFF84C93C0070F
:100D3000A9F104054AD009F104000168C1F3810159
:100D4000012908D00068C0F3810002280AD1D9F82F
:100D50000000400206D52868800337D56068002867
:100D6000E1D033E06068B0F5803F10D0B0F5A02F3F
:100D7000286810D020F480302860286820F4802073
:100D800028606068A8B1FFF73FFE06460DE02868BE
:100D900040F48030F4E740F480202860F7E700BF9B
:100DA000FFF732FE801B642873D828688003F7D5CC
:100DB0000CE0FFF729FE064605E000BFFFF724FE22
:100DC000801B6428F0D828688003F7D42078DFF8E7
:100DD000AC8280074FF0000A3ED5A748001D01688D
:100DE00011F00C0F08D00068C0F3810002280BD16D
:100DF000D9F80000400207D42868800716D5E068BB
:100E0000012800D112E033E1E068B8B10120C8F850
:100E10000000FFF7F9FD064605E000BFFFF7F4FD0F
:100E2000801B0228C0D828688007F7D52868216968
:100E300020F0F80040EAC10028600DE0C8F800A0EA
:100E4000FFF7E2FD064604E0FFF7DEFD801B022807
:100E50001FD828688007F7D42078000722D5864F4E
:100E600087486169703771B101210160FFF7CCFDDE
:100E7000064604E0FFF7C8FD801B022809D8386841
:100E80008007F7D50EE0C0F800A0FFF7BDFD0646CD
:100E900005E082E0FFF7B8FD801B02287DD83868A6
:100EA0008007F7D42078400768D5DFF8CCB1002759
:100EB0000BF13C0BDBF80000C0000BD4DBF800109A
:100EC00041F08051CBF80010DBF80000012700F062
:100ED000805000906B4E3068C00510D4306840F4EC
:100EE00080703060FFF790FD009005E0FFF78CFD0B
:100EF0000099401A022850D83068C005F6D55E4ED9
:100F0000A0686C3601280FD00528306810D020F07A
:100F100001003060306820F004003060A068B8B193
:100F2000FFF772FD00900FE0306840F00100F4E739
:100F300040F004003060F7E7FFF766FD0099411AC2
:100F400041F28830814266D830688007F4D50EE0DF
:100F5000FFF75AFD009007E0FFF756FD0099411A90
:100F600041F28830814256D830688007F4D42FB1DE
:100F7000DBF8001021F08051CBF80010A069C8B355
:100F80003D49091D0968C1F3810102294AD002289F
:100F9000504607D0C8F8600000E03CE0FFF734FDA1
:100FA00004463BE04746C8F86000FFF72DFD0646C3
:100FB00005E000BFFFF728FD801B02282BD828681A
:100FC0008001F7D4D4E907010843A16A2E4A4908F1
:100FD00002EB0141626A41EA8211084394F82C1045
:100FE00040EA0161C9F8001001203866FFF70CFDE6
:100FF000044606E03EE000BFFFF706FD001B0228A6
:1010000009D828688001F7D534E000BFFFF7FCFC61
:10101000001B022802D90320BDE8F88F2868800150
:10102000F4D427E00128F7D0D9F80000E26900F4F1
:10103000800191421CD1226A00F03F01914217D1F8
:1010400047F6C071626A0140B1EB821F10D1A26AFB
:101050004FF0FF3300F4403103EB5202B1EB024F8B
:1010600006D194F82C1000F07060B0EB016F01D045
:101070000120D1E70020CFE70438024000004742BA
:10108000800E4742007000400000FFFF10B5401E78
:10109000B0F1807F01D3012010BD4FF0E0246061EA
:1010A0000F21601701F0E1FE0020A0610720206100
:1010B000002010BD7047704710B590F83C20012A01
:1010C00022D0012280F83C20CA688C6822F4407249
:1010D00022434C6822F4806222430C6822F40062AE
:1010E00022430C6922F4805222434C6922F40052BC
:1010F0002243C969002322F480420A4301684A64FA
:1011000080F83C30002010BD022010BD70B590F872
:101110003C20012A32D0012480F83C40022280F891
:101120003D2003685A689D6822F070060A683243C1
:101130005A60134B02689A4214D0B2F1804F11D01A
:10114000104B9A420ED0104B9A420BD00F4B9A4242
:1011500008D00F4B9A4205D00E4B9A4202D00E4B4C
:101160009A4204D1496825F080031943916080F8C0
:101170003D40002180F83C10084670BD022070BD43
:10118000000001400004004000080040000C004046
:1011900000040140004001400018004010B5040068
:1011A00003D094F83D0010B107E0012010BD0020ED
:1011B00084F83C00204600F01FF8022084F83D002F
:1011C000211D206801F054FB012084F8460084F8BA
:1011D0003E0084F83F0084F8400084F8410084F821
:1011E000420084F8430084F8440084F8450084F801
:1011F0003D00002010BD000008B50068114988427C
:1012000012D11148016841F010010160006800220C
:1012100000F01000009011463620FFF763FCBDE897
:1012200008403620FFF750BC0849884209D10648DB
:10123000001D016841F002010160006800F0020039
:10124000009008BD001000404038024000040140FA
:1012500090F83D10012901D001207047022180F84B
:101260003D100168CA6842F00102CA600068114975
:10127000884214D0B0F1804F11D00F4988420ED06F
:101280000E4988420BD00E49884208D00D49884249
:1012900005D00D49884202D00C49884204D18168AA
:1012A00001F00701062903D0016841F00101016046
:1012B000002070470000014000040040000800408A
:1012C000000C0040000401400040014000180040B4
:1012D00070B5044690F83C000025012817D001267F
:1012E00084F83C60022084F83D002068826822F087
:1012F000770222F47F4282600868502838D00DDCE3
:1013000020284FD005DC90B3102811D14AE00220EC
:1013100070BD302846D040280AD13BE060282FD04D
:1013200070280DD0B0F5805F03D0B0F5005F12D00B
:10133000012584F83D60002084F83C00284670BDFB
:10134000CB68D1E90121206801F007FB20688168A2
:1013500041F0770109E0CB68D1E90121206801F073
:10136000FCFA2068816841F480418160E1E719E07E
:10137000CA684968206801F0C5FB5021206806E072
:10138000CA684968206801F0CEFB6021206801F03E
:10139000EEFACEE7CA684968206801F0B3FB402145
:1013A0002068F4E7226801461046F0E72DE9F04195
:1013B0000D46040003D094F83D0018B108E0012068
:1013C000BDE8F081002084F83C00204600F040F8A1
:1013D000022084F83D002068816844F207029143AE
:1013E0008160211D206801F043FA226890689169AC
:1013F000166A2B68AF69034340F20330814341EA28
:101400000721A868EF6908434FF6FC418843E96863
:1014100040EA0720014328692F6A000140EA0730AB
:10142000084369686D6926F0AA0646EA051529434E
:1014300093602268906154F8460B0162012004F821
:101440001F09E0752076E0762077A0750020B7E7C9
:10145000F0B587B0044614216846FFF70DF84749F8
:1014600023680024454810390225454A454EB3F10A
:10147000804F1FD0DFF810C1C027634546D10368F5
:1014800043F002030360006800F002000590086862
:1014900040F00100086008680097CDE9015400F0B1
:1014A0000100CDE90450694603941046FFF7AEF9F8
:1014B00007B0F0BD036843F001030360006800F06B
:1014C00001000590086840F001000860086800F01D
:1014D00001000590086840F00200086008680127D4
:1014E00000F00200059020200090CDE90154CDE9E4
:1014F000034769461046FFF789F908200090CDE9B7
:101500000154CDE9034769463046CFE7DFF87CC098
:10151000634517D1026842F004020260006800F0DF
:1015200004000590086840F0020008600868009711
:10153000CDE9015400F00200CDE90450694603945E
:101540003046B3E7124EB342B2D1036843F008030A
:101550000360006800F008000590086840F0010092
:1015600008600868694600F00100059003200090BB
:10157000CDE901541046CDE9034597E740380240D4
:101580000000024000040240000400400008004047
:10159000000C004070B590F83E60044690F83F5053
:1015A00090F8423090F84320022021B104290ED057
:1015B000012E1BD114E0012E18D1012B16D184F875
:1015C0003E0084F8420001220021206820E0012D25
:1015D0000CD1012A0AD184F83F0084F8430014E0BA
:1015E000012D03D1012B01D1012A01D0012070BDB1
:1015F00084F83E0084F83F0084F8420084F84300F9
:1016000001220021206801F09BF9012204212068B9
:1016100001F096F92068016841F0010101600020A5
:1016200070BD70472DE9F04104460068C668056941
:101630004FF00007A90713D5B10711D5F91E0161B5
:1016400001202077206880698007204602D0FFF7BC
:10165000E8FF04E000F0A8F8204600F03AF9277708
:10166000680716D5700714D521686FF0040008616B
:10167000022020772068806910F4407F204602D045
:10168000FFF7CFFF04E000F08FF8204600F021F9CB
:101690002777280715D5300713D521686FF0080084
:1016A0000861042020772068C0698007204602D0A6
:1016B000FFF7B7FF04E000F077F8204600F009F9E3
:1016C0002777E80616D5F00614D521686FF01000CC
:1016D0000861082020772068C06910F4407F204608
:1016E00002D0FFF79EFF04E000F05EF8204600F015
:1016F000F0F82777E80708D0F00706D021686FF0E8
:1017000001000861204600F049F9280608D5300696
:1017100006D521686FF0800008612046FFF7CAFCFB
:10172000680608D5700606D521686FF0400008618C
:10173000204600F047F9A8060AD5B00608D521686A
:101740006FF0200008612046BDE8F041FFF7B3BC10
:10175000BDE8F08110B586B0044614216846FEF756
:101760008BFE0E492068884216D10D480021026880
:1017700042F004020260006800F0040005904FF49B
:10178000707000900220CDE901010320CDE9031023
:1017900069460448FFF73AF806B010BD000401405E
:1017A0003038024000080240704770B5044690F897
:1017B0003C0000260D4601280FD0012084F83C0093
:1017C0006AB1042A1DD0082A2FD00C2A3FD0012646
:1017D000002084F83C00304670BD022070BD2068B7
:1017E00001F0CEF82068816941F00801816120682C
:1017F000816921F004018161206881692A691143AE
:1018000011E0206801F0ECF82068816941F4006182
:1018100081612068816921F480618161206881692A
:101820002A6941EA02218161D2E7206801F00EF9BC
:101830002068C16941F00801C1612068C16921F0D7
:101840000401C1612068C1692A69114311E020685F
:1018500001F030F92068C16941F40061C16120687C
:10186000C16921F48061C1612068C1692A6941EAC6
:101870000221C161ACE710B5040003D094F83D002B
:1018800010B107E0012010BD002084F83C00204684
:1018900000F01EF8022084F83D00211D206800F0B1
:1018A000E7FF012084F8460084F83E0084F83F00FA
:1018B00084F8400084F8410084F8420084F8430032
:1018C00084F8440084F8450084F83D00002010BDF1
:1018D0007047704710B50446022249B104290ED062
:1018E000082913D094F84100012816D0012010BD1A
:1018F00094F83E000128F9D184F83E200FE094F8D6
:101900003F000128F2D184F83F2008E094F840001D
:101910000128EBD184F8402001E084F84120012225
:10192000206801F00DF816492068164A884201D057
:10193000904203D1436C43F40043436420688842DF
:1019400013D0B0F1804F10D00F4988420DD00F490D
:1019500088420AD00E49884207D0904205D00D49EE
:10196000884202D00C49884204D1816801F0070105
:10197000062903D0016841F001010160002010BD7B
:101980000000014000040140000400400008004045
:10199000000C00400040014000180040006807496A
:1019A00088420AD106480178491CC9B201700A2947
:1019B00003D30021017000F001BD7047001000400A
:1019C000000000207047704770470000F8B50168BC
:1019D00004460868CA684B6910F00F0F4FF0000505
:1019E00059D003F0010602F49077374365D0C10760
:1019F00005D0D10503D5616C41F001016164410757
:101A000005D5D90703D0616C41F0020161648107FB
:101A100005D5D90703D0616C41F004016164010769
:101A200007D502F02001314303D0616C41F0080179
:101A30006164616C00293AD0800604D5900602D515
:101A4000204601F0CFF820684069616CC0F3801037
:101A5000090700D460B3204601F09DF82068406972
:101A6000400621D52068143050E8001F21F04001C5
:101A700040E80012002AF5D1E06BA8B17249016577
:101A8000E06BFEF7B0FE002811D0E06B016D01B0F5
:101A9000BDE8F040084783060FD593060DD52046D4
:101AA000BDE8F84001F09EB82046FFF78DFFF8BD75
:101AB0002046FFF789FF6564F8BD266B2023012EC1
:101AC0007ED1C6067CD5D6067AD5086848680090CF
:101AD00048694FF0020640064DD5E26B1068406839
:101AE0004FF480770004000C3AD0A18D814237D9A1
:101AF000E085D069B8422DD020680C3050E8001F36
:101B000021F4807140E80012002AF5D120681430D9
:101B100050E8001F21F0010140E80012002AF5D131
:101B20002068143050E8001F21F0400140E8001206
:101B3000002AF5D184F84230256320680C3050E843
:101B4000001F21F0100140E80012002AF5D1E06BDF
:101B5000FEF700FE6663A08DE18D401A81B206E0BB
:101B6000A18D8142A8D1D069B842A5D16663204633
:101B7000FFF729FFF8BDA08DE18D401A81B2E08DFD
:101B80000028F7D00029F5D020680C3050E8002F4D
:101B900022F4907240E80027002FF5D1206814301D
:101BA00050E8002F22F0010240E80027002FF5D175
:101BB00084F84230256320680C3050E8002F00E0A4
:101BC00006E022F0100240E80023002BF3D1CDE71D
:101BD00005062BD5150629D594F841002128C9D131
:101BE000A068B0F5805F01D12069B0B1206A411CC6
:101BF0002162216800784860E08C401E0004000CDF
:101C0000E084B7D12068C16821F08001C1602068FC
:101C1000C16841F04001C160F8BD206A0088C0F38E
:101C200008004860206A801C2062E5E74006F3D582
:101C30005006F1D5CA68204622F04002CA6084F8F6
:101C4000413000F019F9F8BD892B000870B5040087
:101C500004D094F84100002510B106E0012070BDC9
:101C600084F84050204600F023F8242084F84100F6
:101C70002068C16821F40051C160204601F014F8C9
:101C80002068016921F4904101612068416921F0D7
:101C90002A0141612068C16841F40051C160656456
:101CA000202084F8410084F842006563002070BD64
:101CB0002DE9F04186B0044614216846FEF7DCFBAE
:101CC0002E482D4F236800242C491038022503226A
:101CD0000826BB421CD10B6843F400230B60096843
:101CE00001F400210591016841F0040101600068E0
:101CF000CDE9024200F0040005909002CDE9000514
:101D0000694604961E48FEF781FD06B0BDE8F081E5
:101D10001C4FBB42F9D10B6843F400330B600968D8
:101D200001F400310591016841F001010160006892
:101D3000DFF8548000F0010005900420CDE9000593
:101D4000CDE902420727694604974046FEF75EFD4B
:101D50000120CDE90240CDE900656946049740467F
:101D6000FEF754FD002211462620FEF7BBFE26207A
:101D7000FEF7AAFEC9E70000004C004040380240D0
:101D800000080240004400400000024090F8423049
:101D9000202B01D00220704721B11AB10023036328
:101DA00001F008B80120704710B500680749884263
:101DB0000BD10748807800F041FC05490122BDE8BD
:101DC0001040891C0348FFF7E1BF10BD00440040EC
:101DD00008000020140200202DE9F843044690F882
:101DE0004100984616460D46202802D00220BDE844
:101DF000F88385B17EB100206064212084F8410021
:101E0000FEF702FEA6848146E684A0682027B0F58E
:101E1000805F02D003E00120E9E7206910B12E467F
:101E200000250EE000260CE08021204600F0DDFFBA
:101E3000A8B9C6B116F8010B21684860E08C401EB5
:101E4000E084E08C4B464FF00002CDF80080002883
:101E5000EAD14FF04001204600F0C7FF40B184F8BE
:101E600041700320C3E735F8020BC0F30800E3E735
:101E700084F841700020BAE77047FEE72DE9F04191
:101E800086B014216846FEF7F7FA2F48002501684E
:101E900041F010010160016801F010010591016835
:101EA00041F080010160016801F080010591016845
:101EB00041F001010160016801F001010591016833
:101EC00041F008010160016801F008010591016815
:101ED00041F004010160016801F00401059101680D
:101EE00041F0020101600068184F00F00200059007
:101EF000012220213846FEF781FDDFF8548041F6AB
:101F0000FF46002231464046FEF778FD012420209E
:101F1000CDE9000469463846CDE90245FEF776FC76
:101F20006002CDE90005694602944046FEF76EFC6A
:101F30000220CDE90240CDE9006469464046FEF743
:101F400065FC06B0BDE8F081303802400010024068
:101F5000000C024010B58CB024216846FEF78CFAC4
:101F60000024154809944FF080410A94C0E90014F8
:101F70004FF6FF71C0E90241046184610320CDE99D
:101F800000040120CDE902040494CDE90540079442
:101F9000694609480894FFF709FA08B1FEF7D8FB2B
:101FA000099409A904480A94FFF7B0F8002801D061
:101FB000FEF7CEFB0CB010BD1C00002010B58CB09D
:101FC00024216846FEF758FA00241648099414495B
:101FD0000A94C0E900144FF6FF71C0E902410461A0
:101FE00084610320CDE900040120CDE902040494BA
:101FF000CDE90540079469460A480894FFF7D6F9E9
:1020000008B1FEF7A5FB099409A906480A94FFF751
:102010007DF8002801D0FEF79BFB0CB010BD00003E
:10202000000400406400002010B58CB024216846F4
:10203000FEF722FA00241648099414490A94C0E9CC
:1020400000144FF6FF71C0E902410461846103206E
:10205000CDE900040120CDE902040494CDE9054056
:10206000079469460A480894FFF7A0F908B1FEF7FB
:102070006FFB099409A906480A94FFF747F800285E
:1020800001D0FEF765FB0CB010BD00000008004059
:10209000AC00002010B58CB024216846FEF7ECF9A6
:1020A00000241648099414490A94C0E900144FF614
:1020B000FF71C0E90241046184610320CDE900049D
:1020C0000120CDE902040494CDE905400794694656
:1020D0000A480894FFF76AF908B1FEF739FB09943A
:1020E00009A906480A94FFF711F8002801D0FEF765
:1020F0002FFB0CB010BD0000000C0040F4000020CD
:102100001CB500240E4800940C4901940160532131
:10211000C0E9011440F2E7318461C160FFF73EF885
:1021200008B1FEF715FB0094694605480194FEF7D7
:10213000EDFF002801D0FEF70BFB1CBD0010004096
:102140003C01002010B596B000240F941094119417
:10215000129413941C2168461494FEF78DF92021E3
:1021600007A8FEF789F93448324901605321C0E9D4
:10217000011440F2E731C0E9031444618461FFF7C0
:102180000DF808B1FEF7E4FA4FF480500F900FA954
:102190002948FFF79DF808B1FEF7DAFA2648FFF75D
:1021A0006AFB08B1FEF7D4FA139413A922481494D9
:1021B000FEF7ACFF08B1FEF7CBFA6020CDE90004D2
:1021C0000294039404940594002269461A480694E4
:1021D000FFF7EBFA08B1FEF7BBFA0422694616488E
:1021E000FFF7E3FA08B1FEF7B3FA0822694612488E
:1021F000FFF7DBFA08B1FEF7ABFA0C2269460E488E
:10220000FFF7D3FA08B1FEF7A3FA079408940994EC
:102210004FF400500A94CDE90B4007A906480E94EC
:10222000FEF74AFF08B1FEF793FA0348FFF792FA68
:1022300016B010BD00040140840100200C4810B508
:102240000A4901604FF4E1314160002181600C22B4
:10225000C160C0E904128161C161FFF7F7FC002889
:1022600003D0BDE81040FEF773BA10BD004C00402B
:10227000CC0100200E4810B50C4901604FF4164106
:10228000416000214FF40052C0E90212D2100261F5
:102290000C22C0E90521C161FFF7D8FC002803D05A
:1022A000BDE81040FEF754BA10BD000000440040E5
:1022B00014020020FEE7000070B52DED048BFEF740
:1022C000D1F91B48FEF7C4FF00211A48FFF702FBB3
:1022D00004211848FFF7FEFA08211648FFF7FAFA1A
:1022E0000C211448FFF7F6FA134DDFED148A9FED29
:1022F000149A9FED148A0024A5F1100605EB4410F2
:10230000B0EE682AF0EE491AB0EE481AF0EE480A2C
:10231000B0EE080A00F036F906EB8400641CE4B263
:1023200080ED008A042CE9D3BDEC048B70BD000065
:102330003C010020840100209C02002000C079C4E0
:1023400000C07944000000009FED092A094820EEF2
:10235000020A80ED000A20EE820A80ED010A21EED9
:10236000020A80ED020A21EE820A80ED030A70471C
:10237000766A30438C02002070B50F4D00242DED9D
:10238000028B05F110069FED0B8A00BF05EB840060
:1023900080ED008A06EB441000F016F9002120467B
:1023A00000F046F8641CE4B2042CEFD3BDEC028BC1
:1023B00070BD0000000000008C02002070B52DED03
:1023C000028BFEF77BF9184D9FED188A002405F16A
:1023D00010062046FEF736F91CB3032C21D001204D
:1023E00000EE900A05EB8400F8EEE00A20EE201AD9
:1023F000D0ED000A06EB441080EE880AC1EE080A10
:1024000000F06AF8BDEEC00A10EE100A01B22046D4
:1024100000F00EF8641CE4B2042CDAD3BDEC028B9D
:1024200070BD4FF0FF30DBE78C0200200000C84297
:102430002DE9F041044604283BD2ECB1032C1BD01B
:102440005FF0010010FB01F0204E4FF47A721E493C
:1024500000B2551E336801F1080700280FDB9042D7
:1024600000DA85B231F8141001221846FEF7C6FAD8
:1024700037F8141000220FE04FF0FF30E2E740423F
:10248000904200DA85B231F8141000221846FEF7A7
:10249000B5FA37F8141001223068FEF7AFFA0C488D
:1024A0004CB1012C0AD0022C0BD0032C01D10068B6
:1024B0000564BDE8F08100684563FAE7006885635C
:1024C000F7E70068C563F4E7322F00080400002036
:1024D00084010020FEE70000F0B330EE600ADFED7B
:1024E000270AD0ED031A90ED001A40EE201A21EED3
:1024F000002AC0ED031A90ED071AF4EEC11AF1EEAE
:1025000010FA01DD80ED031AD0ED031AB1EE411A85
:10251000F4EEC11AF1EE10FA01D280ED031A90ED3B
:10252000011AD0ED031A21EE211AD0ED041A80ED24
:10253000040A70EE612A90ED020AC2EEA01A72EE51
:10254000010A20EE210A30EE800AD0ED050AF4EEF1
:10255000C00AF1EE10FA00E00CE001D2B0EE600A21
:10256000D0ED060AF4EEC00AF1EE10FA01DDB0EE8D
:10257000600A70479FED020A704700000AD7233CAB
:102580000000000010B504002DED068BF0EE428A2D
:10259000B0EE618AB0EE419AF0EE609AB0EE40AAD9
:1025A0000ED02021FDF768FF84ED00AAC4ED019A4A
:1025B00084ED029A84ED058AC4ED068A84ED078ACB
:1025C000BDEC068B10BD0000002805D09FED030A6E
:1025D00080ED030A80ED040A70470000000000004F
:1025E00000280ED007490A8802804A8842808A88DB
:1025F0008280CA88C2800A8902814A894281097B15
:10260000017370471C03002009484FF480610122C8
:10261000018041808180C18001810021418102735C
:10262000044801704170811C0348FFF7AFBB0000F4
:102630001C030020080000201402002070B50F4C7D
:102640000F4962781AB10025012A13D106E00F283C
:1026500003D1087001202070607070BD227888540A
:10266000521CD0B220701928F7D3087E10B9044844
:1026700000F06AF86570257070BD00000800002049
:102680002A03002070470000A0F54E71B1F5C87F05
:1026900002D89FED090A7047A0F5806000EE100A8D
:1026A000DFED060A9FED061AB8EEC00A60EE200ABA
:1026B00080EE810A704700000000000000004844DE
:1026C000000044449FED040AF0EE401AB0EE401AB8
:1026D000F0EE400AFFF738BE0000000000B52DED17
:1026E000028B85B06846FFF77BFF9DF80C0038B37E
:1026F000BDF80200FFF7C8FFF0EE400ABDF8000089
:10270000F0EE608AFFF7C0FFB0EE408ABDF804002B
:10271000FFF7BAFFF0EE680AF0EE401A30EE881AC2
:1027200030EEC82A31EE210A72EE610A31EE611AEA
:1027300072EE211AFFF708FE05B0BDEC028B00BD5A
:10274000FFF71AFEF8E7000070B501780F2901D1F4
:10275000017E09B1002070BDB0F801108579C1F388
:102760000A048178067ACA08C17842EA4112C2F3A3
:102770000A030279890941EA8202417942EA812207
:10278000490841EAC511C579407AED0945EA46058F
:1027900045EA4020C0F30A050648C2F30A02C1F325
:1027A0000A018480C3804280018005810121017378
:1027B000084670BD1C0300207047FEF72BB90000CF
:1027C00030B593B030216846FDF756FE14210CA8B1
:1027D000FDF752FE1D480025016841F0805101605F
:1027E000006800F0805011901948016841F4804160
:1027F00001600068022400F48040119001200390E1
:1028000010200490009406940820CDE90750A820D9
:10281000CDE9090404200B906846FEF781FA08B15F
:1028200072B6FEE70CA90F2081E831004FF4A050EA
:102830000F904FF48050109005210CA8FEF784F9FA
:10284000002801D072B6FEE713B030BD4038024018
:10285000007000400248016841F470010160704757
:1028600088ED00E00148FEF7DDBE00003C010020DD
:10287000F0B50268274B284D284E294F294C4FF0C0
:10288000804C984209D0604507D0A84205D0B0429C
:1028900003D0B84201D0A04204D122F0700E4A68A1
:1028A00042EA0E0298421BD0604519D0A84217D0C8
:1028B000B04215D0B84213D0A04211D01A4DA84250
:1028C0000ED01A4DA8420BD0194DA84208D0194D70
:1028D000A84205D0184DA84202D0184DA84203D1F5
:1028E00022F44075CA682A434D6922F080022A43C7
:1028F0008D68C5620D688562984201D0A04201D101
:1029000009690163016841F004010160012141612D
:102910000260F0BD000001400004004000080040DB
:10292000000C004000040140004001400044014010
:102930000048014000180040001C004000200040FA
:1029400010B501F01F030121046A99408C43046211
:10295000016A9A401143016210BD10B5846842EAD1
:10296000032224F47F440A432243826010BD82681C
:1029700022F070020A4342F00701816070470000B4
:10298000F0B5036A026A22F00102026242688469B9
:10299000124E24F073050C682C4323F002058B685B
:1029A0002B430D4DA84201D0B04205D123F00807BA
:1029B000CB683B4323F00403A84201D0B04205D1C9
:1029C0004D6922F4407215438A692A43426084614A
:1029D000496841630362F0BD00000140000401400A
:1029E000F0B5026A036A23F0100303624368846946
:1029F0000D6824F4E64444EA05248D6822F02002A0
:102A000042EA05120F4D104EA84201D0B04206D145
:102A1000CF6822F0800242EA071222F04002A84268
:102A200001D0B04207D14D6923F4406343EA8503E6
:102A30008D6943EA8503436084614968816302626A
:102A4000F0BD00000000014000040140F0B5026A42
:102A5000036A23F4807303624368C46922F400723A
:102A600024F073050C68124E2C438D6842EA05224F
:102A70000E4DA84201D0B04206D1CF6822F40062C8
:102A800042EA072222F48062A84201D0B04207D174
:102A90004D6923F4405343EA05138D6943EA051356
:102AA0004360C4614968C1630262F0BD0000014037
:102AB0000004014030B5046A026A22F480520262C6
:102AC0004268C3690D6823F4E64343EA05238D6831
:102AD00024F4005444EA0534084DA84202D0084DBD
:102AE000A84204D14D6922F4804242EA8512426034
:102AF000C36149680164046230BD00000000014008
:102B00000004014010B5036A046A24F00104046261
:102B1000846924F0F00444EA021423F00A020A4310
:102B20008461026210BD10B5036A046A24F01004C7
:102B30000462846923F0A00324F4704444EA02325E
:102B400043EA01118261016210BD000000B58FB03F
:102B50008DE80E00034607A2302103A8FDF700FC14
:102B6000002805DD82B20A2303A90648FFF734F9DD
:102B70000FB000BD25752C25752C25752C25750AE3
:102B800000000000CC01002010B5806B0021C18541
:102B9000FEF71AFF10BD01680C3151E8002F22F436
:102BA000907241E80023002BF5D10168143151E8FF
:102BB000002F22F0010241E80023002BF5D1016B28
:102BC000012909D101680C3151E8002F22F01002CF
:102BD00041E80023002BF5D1202180F8421000218C
:102BE0000163704708B590F84210222901D00220F5
:102BF00008BD82684FF480539A4201D1016921B126
:102C0000816A9A421BD04AB10AE00268816A52681E
:102C1000C2F308020A80816A891C08E0026972B165
:102C20000268526802F07F020A70816A491C816260
:102C3000C18D491E0904090CC18503D01BE002683F
:102C40005268F1E70168CA6822F02002CA60016890
:102C5000CA6822F48072CA6001684A6922F00102DF
:102C60004A61202180F8421000214163026B012A51
:102C700003D0FFF799F8002008BD016301680C310B
:102C800051E8002F22F0100241E80023002BF5D17B
:102C900001680A68D20602D50A6849680091818DE8
:102CA000FEF791FEE7E7000070B504460068016991
:102CB000E26821F44051114301612169A068E26991
:102CC00008436169114308432168CA6849F20C63EB
:102CD0009A430243CA6020684169A26921F44071A5
:102CE0001143416131492068884202D0304988420D
:102CF00002D1FDF7D3FF01E0FDF7C0FFE269002339
:102D0000192164253226B2F5004F626828D0A0FB55
:102D10000101930F9200FDF7ABFA0146B0FBF5F00D
:102D20006FF01802504301EB800006EB0010B0FB7F
:102D3000F5F000F0F002B1FBF5F002EB0012B1FB90
:102D4000F5F06FF01803584301EB800006EB00101C
:102D5000B0FBF5F000F00F0021681044886070BDF2
:102D6000A0FB010192185B41FDF782FA0146B0FB1E
:102D7000F5F00201B1FBF5F06FF01803584301EBD9
:102D8000800006EBC000B0FBF5F000F0F80002EBAD
:102D90004002B1FBF5F0584301EB800006EBC000A8
:102DA000B0FBF5F000F00700D6E70000001001408E
:102DB0000014014081628285C28500214164222184
:102DC00080F84210016921B10168CA6842F480723A
:102DD000CA6001684A6942F001024A610068C1683C
:102DE00041F02001C160002070472DE9F84398466A
:102DF00017460D460446089E24E0701C22D0FDF7BD
:102E000003FEA0EB0800B0421AD8CEB12068C1681A
:102E1000490717D5802D15D0402D13D00168C9431F
:102E200009070FD401680025406800902046FFF78D
:102E3000B2FE0820606484F840500120BDE8F883A9
:102E40000320FBE72068006835EA000004D000207A
:102E5000B842D2D00020F1E70120F9E70148FEF79F
:102E6000B5BD000014020020FEE70907090E002886
:102E700004DB00F1E02080F80014704700F00F0040
:102E800000F1E02080F8141D704700001FB5FDF729
:102E9000C9FDFFF795FCFEF7F1FFFFF753F9FFF7C8
:102EA00059F8FFF78BF8FFF7BFF8FFF7F3F8FFF7D4
:102EB00027F9FFF7C3F9FFF7DDF9FFF7FDF9FFF792
:102EC000A3FBFFF7FFFBFDF79FFD04460025154E12
:102ED000FDF79AFD001B0A28FAD3FDF795FD04467D
:102EE0006846FFF77DFBBDF80630BDF80420BDF84D
:102EF0000210BDF80000FFF729FEBDF80800A0F29F
:102F00002620642801D8012500E01DB1FFF7E6FB6B
:102F1000002202E0FFF730FA012220213046FDF7BF
:102F20006DFDD5E7001002404FF04070E1EE100A51
:102F3000704701000400100040000200080020005B
:102F400080000000000000000000010203040607EA
:102F50000809000000000102030400007C2F0008A3
:102F6000000000201C000000C4010008982F000889
:102F70001C0000208C090000E00100080000000097
:102F8000000C0240000000000100000010000000E2
:082F9000000000000024F40021
:040000050800018965
:00000001FF
