:020000040800F2
:10000000780A002041020008713B00085F2F0008B9
:10001000413900080F1400080547000800000000DF
:100020000000000000000000000000002D4000085B
:100030001114000800000000213D00082F400008B6
:100040005B0200085B0200085B0200085B0200081C
:100050005B0200085B0200085B0200085B0200080C
:100060005B0200085B0200085B0200085B020008FC
:100070005B0200085B0200085B0200085B020008EC
:100080005B0200085B0200085B0200085B020008DC
:100090005B0200085B0200085B0200085B020008CC
:1000A0005B0200085B0200085B0200085B020008BC
:1000B0005B0200085B0200085B0200085B020008AC
:1000C0005B0200085B0200085B0200085B0200089C
:1000D0005B0200085B020008F94600085B020008AA
:1000E0005B0200085B0200085B0200085B0200087C
:1000F0005B0200085B0200085B0200085B0200086C
:100100005B0200085B0200085B0200085B0200085B
:100110005B0200085B020008D94000085B0200088F
:100120005B0200085B0200085B0200085B0200083B
:100130005B0200085B0200085B0200085B0200082B
:100140005B0200085B0200085B0200085B0200081B
:100150005B0200085B0200085B0200085B0200080B
:100160005B0200085B0200085B0200085B020008FB
:100170005B0200085B0200085B0200080000000050
:100180005B0200085B02000800F002F800F049F88A
:100190000AA090E8000C82448344AAF10107DA45E2
:1001A00001D100F03EF8AFF2090EBAE80F0013F0EB
:1001B000010F18BFFB1A43F001031847205E00002F
:1001C000405E0000103A24BF78C878C1FAD85207C0
:1001D00024BF30C830C144BF04680C6070470000C1
:1001E0000023002400250026103A28BF78C1FBD840
:1001F000520728BF30C148BF0B607047662905F021
:100200001286002070471FB505F003FE00F0BEFB0C
:1002100004000020002105F02FF8E0601FBD10B59C
:1002200010BD00F0B7FC1146FFF7EDFF04F0BCFF76
:1002300000F0D5FC03B4FFF7F2FF03BC00F018FD9B
:100240000948804709480047FEE7FEE7FEE7FEE76A
:10025000FEE7FEE7FEE7FEE7FEE7FEE704480549A6
:10026000054A064B70470000C94000088901000894
:1002700078040020780A0020780600207806002004
:1002800053EA020C00F069802DE9F04B4FF00006B4
:10029000002B1FBFB3FA83F503FA05F424FA05F621
:1002A0005E4012BF1643B2FA82F502FA05F4C5F1B8
:1002B00020051EBF22FA05FC44EA0C04203556EA4C
:1002C000044C4FEA144418BF641C4FF000084FF070
:1002D0000009904271EB030C39D3002919BFB1FA20
:1002E00081F701FA07F6B0FA80F700FA07F6C7F1CE
:1002F00020071EBF20FA07FC46EA0C062037B6FB93
:10030000F4FCA7EB0507103F07F01F0BCBF120060D
:100310000CFA0BFB2CFA06F644BFB3460026202F3E
:10032000A4BF5E464FF0000B5BEA060C08BF4FF01F
:10033000010B19EB0B09ABFB027C48EB0608C01B59
:1003400006FB02CC0BFB03CC71EB0C01C1E70B46A7
:10035000024641464846BDE8F08B13B54FF0000019
:100360004FF00001AFF30080BDE81C407047000073
:100370000FB47CB50C0009AA009001D02044401EA7
:10038000084B7B4469460190089800F0DEFA054668
:100390001CB10020694600F0EBFA28467CBC5DF8F1
:1003A00014FB0000F50500002DE9F0474FF0000AAE
:1003B00089460446C0F820A02046E1688847002806
:1003C00076D0252806D0D4E901219047206A401C28
:1003D0002062F1E7E168204600258847C4F81CA0A8
:1003E00006460027C4F818A02A2E09D0304604F08B
:1003F000BFFE38B304EB8708303EC8F8186019E038
:1004000059F8041B204604EB87029161E168884794
:10041000012F064618D1E069002820DA25F02005D2
:100420001DE0D8F8180000EB800006EB40003038E3
:10043000C8F818002046E1688847064604F098FE90
:100440000028EED1012F0AD02E2E08D12046E168D7
:1004500088477F1C0646022F45F02005C4DBA069B3
:10046000002803DA404245F00105A061E80701D009
:1004700025F01005B6B1A6F14100192802D82036A2
:1004800045F400654A463146204625604D46FFF753
:10049000B5FE58B1012806D0ED1D25F0070000F18A
:1004A000080989E704E005F1040985E730468AE791
:1004B000206ABDE8F0874FF0000200B5134694466D
:1004C0009646203922BFA0E80C50A0E80C50B1F1AC
:1004D0002001BFF4F7AF090728BFA0E80C5048BFC0
:1004E0000CC05DF804EB890028BF40F8042B08BF5E
:1004F000704748BF20F8022B11F0804F18BF00F85A
:10050000012B704770477047704710B500F042FAF2
:10051000006810BD10B5044600F03CFA046010BD40
:1005200070472DE9FF4F0C461E464FF0FF378BB04A
:10053000D2E90001DDF860800A908A46C1F30A55CD
:1005400005B93D46002108464FF00000BAF1000F02
:1005500000F4400005DA00EB80004FF4400101EAAE
:1005600050004FEA9059B9F1010F00DDB9460A98E1
:1005700050EA4A000ED044F61050A5F2FF3545432C
:100580002F14B8F1000F1ED07542291E1EDDC9F1CF
:1005900000021CE0B8F1010F4FF0000001D0302143
:1005A00003E0F24305E02154401CB042FBDB30463F
:1005B0000022002121540B99C1F80880C1E90020D4
:1005C0000FB0BDE8F08FBD1B6D1CDEE74A4600DAB8
:1005D000694206A800F068FA06AB93E8070003AB8F
:1005E00083E8070050460A9900F049FB8DE80700B0
:1005F000A0F500501F3800900398002D0ADD42F24C
:100600001F014A460844002303A90390684600F0EE
:10061000B2FD09E0A0F500504A461F38002303A9A7
:100620000390684600F0BCFD8DE807000004000C54
:1006300003D04FF0FF30410800E01046B8F1000F42
:1006400003D00022009215461EE0751E05D400F06E
:10065000A5F9303262556D1EF9D5B3460122084323
:1006600002D000227F1C04E02078302801D1002233
:100670007F1E002A099784D01DE0112D07DA00F0B3
:100680008DF9303262556D1C50EA0102F5D10843F4
:1006900002D00098C8B10EE00021681E05E0235C7E
:1006A000625C63542254401E491C8142F7DBAB4616
:1006B000A81B401E0990002004F80B000B98099A13
:1006C000C0F80880C0E9002B7AE711264FF0000837
:1006D00057E72DE9F04F88460446D21D22F0070166
:1006E00091B0D1E90001CDE90A0104F00CF802460D
:1006F0000B98C00F01D02D2007E02068810701D59D
:100700002B2002E0202101EAC000032A099001D039
:10071000072A05DB03464146204600F085F90BE138
:100720002078800601D5E06900E00620B8F1650F69
:10073000814606D0B8F1660F18D0B8F1670F70D1B6
:1007400031E00020B9F1110F009001DB112301E02D
:1007500009F101030AAA01A90CA8FFF7E2FEDDE9ED
:100760000C70002609F10105834647E001204B4645
:1007700000904FF000470AAA01A90CA8FFF7D1FE8C
:10078000DDE90DB00C995D46002610B909F10100B4
:100790000D18B9EB050003D4C0F1FF3609F10105CE
:1007A000A5EB09002BE0B9F1010F01DA4FF00109C7
:1007B0000020B9F1110F0090484601DD112300E03F
:1007C00003460AAA01A90CA8FFF7ABFEDDE90C70ED
:1007D0004D4600268346207800070AD4AB4500DA50
:1007E0005D4601A8012D04DD411911F8011C3029D5
:1007F00007D04F4502DA17F1040F04DA01208246D0
:100800000FE06D1EEEE7002F02DCED1B3E4403E01F
:10081000781CA84200DD7D1CB81B00F1010A4FF0D6
:1008200000472078000703D4AA4501DB4FF0FF3AC8
:100830000021B7F1004F0DF143088DF8431024D08B
:1008400002202B23002F01DA7F422D230A21021ED2
:10085000A0F1010000DC5FB197FBF1FC97FBF1F226
:1008600001FB1C7C17460CF1300C08F801CDEEE7BB
:10087000A8F1010003702188090501D5452100E098
:100880006521A0F1010800F8011C09980FA9A1EB4E
:100890000807FF1D00B10120411901EBEA70A169B1
:1008A0003844081A401EA0612078C00602D42046B1
:1008B000AFF30080099828B1D4E901219047206A5C
:1008C000401C20622078C00622D52046AFF300806D
:1008D0001EE0002E04DBB34502DD01A8805D00E0D0
:1008E0003020D4E901219047206A401C2062761C08
:1008F000AAF101005FEA000A0AD100F047F8C068D7
:100900000168405CD4E901219047206A401C2062C4
:10091000281EA5F10105DCDC07E0D4E9012118F867
:10092000010B9047206A401C2062381EA7F1010786
:10093000F3DC2046AFF30080032011B041E6000055
:1009400001694A1C02610878704700B58FB0CDE993
:1009500001310021059105497944CDE90310114683
:100960006846FFF721FD0FB000BD0000E5FFFFFF67
:100970000A6802F8010B0A607047D1E900239A4225
:1009800002D2531C0B601070704700000048704783
:1009900034040020004870471404002030B5B0F142
:1009A0000A024FEA900E71F100034EEA817EB0EB2D
:1009B0000E0061EB91014FEA101E4EEA017E10EB32
:1009C0000E0041EB11114FEA102E4EEA016E10EBB2
:1009D0000E0041EB11214FEA104E4EEA014E10EB92
:1009E0000E0041EB1141401841F100014FEAD000E7
:1009F00040EA41704FEAD10110EB80054FEA8104D3
:100A000044EA907444EB01046D1944EB0404521B56
:100A1000A3414FF0000348BF0A3200D530BD401C4F
:100A200041F1000130BD00002DE9F0411F460446B0
:100A300003260168072A01F4006004DB08B116A54B
:100A400005E016A503E008B115A500E015A521F005
:100A500010002060A069C01EA0610FB1401EA061FF
:100A60002046AFF300804FB1D4E9012138469047CA
:100A7000206A401C2062C01C206206E0206AFAE75F
:100A8000D4E9012115F8010B9047761EF8D22046D3
:100A9000AFF30080BDE8F0814E414E006E616E0004
:100AA000494E4600696E66002DE9F04781461646BC
:100AB0008AB0354878440DC88DE80D003248784436
:100AC000801C03AC0DC884E80D0041F69B3008443F
:100AD000372190FBF1F290FBF1F5A5F1800501FBC8
:100AE00012041B3C02D56442012000E00020DFF824
:100AF00098A080460027FA44AAF1BE0A0EE0E0075B
:100B00000AD03246684607EB470101230AEB810110
:100B100000F046FB8DE8070064107F1C002CEED12E
:100B2000194F7F44AE3F19E0E80715D007EB0410DA
:100B30000DF1180A90E80E008AE80E00C068F04235
:100B400001D1981908903246012306A903A800F0A4
:100B500027FB03AB83E807006D10641C002DE3D175
:100B60004FF0010332466946B8F1000F03A802D0E6
:100B700000F001FB01E000F013FBC9E90001C9F836
:100B800008200AB0BDE8F0870C5500000048704707
:100B9000140400207546FFF7F9FFAE4605006946CC
:100BA000534620F00700854618B020B5FFF756FBE6
:100BB000BDE820404FF000064FF000074FF000085E
:100BC0004FF0000B21F00701AC46ACE8C009ACE8DF
:100BD000C009ACE8C009ACE8C0098D46704710B543
:100BE0000446AFF300802046BDE81040FFF722BB6B
:100BF0004FF0013C50F8042B51F8043B9A4221D1AC
:100C0000A2EB0C03934313EACC1317D150F8042B37
:100C100051F8043B9A4215D1A2EB0C03934313EA1B
:100C2000CC130BD150F8042B51F8043B9A4209D154
:100C3000A2EB0C03934313EACC13DBD04FF000007C
:100C4000704700BFD01A01BAB1FA81F101F0180162
:100C500022FA01F0CB40C1F12001DBB2C0B2C01AD0
:100C60002CFA01F3D11A914311EAC311E6D170476E
:100C700001491820ABBEFEE72600020070475FEA7C
:100C8000400C08BF91F0000F4FEA8C234FEAC122BD
:100C900043EA51514FEA1C5018BF00F5F0404FEAAB
:100CA000300018BF41F000415FEA6C5C00F0298021
:100CB000BCF1FF3F08BF40F080407047130C06BFF7
:100CC00012044FF0100C4FF0000C130E04BF120270
:100CD0000CF1080C130F04BF12010CF1040C930F5C
:100CE00004BF92000CF1020CD30F04BF52000CF1B0
:100CF000010C11464FF00002A0F11F00A0EB0C0008
:100D0000704711F0004F08BF704731F000413FF4C9
:100D1000D5AF0B0C06BF09044FF0100C4FF0000CC0
:100D20000B0E04BF09020CF1080C0B0F04BF0901E4
:100D30000CF1040C8B0F04BF89000CF1020CCB0FDB
:100D400004BF49000CF1010CCCF12003A0EB0C0016
:100D500022FA03F302FA0CF241EA030100F1010066
:100D6000704720F07F4C80EA030023F07F47ACEB14
:100D7000070303F57C5300F0004003F1FF032DE966
:100D800080494FEA154B09B44FEA144325EA0B4E4C
:100D900024EA03480FF2042606EB132749083E789D
:100DA0005FEA320203FB0667C7F5000707FB06F69A
:100DB0004FEA54374FEAD64606F1020607FB066CA7
:100DC000CCF1005C4FEA1C472CEA074C07FB06F409
:100DD0000CFB06F504EB15464FEA961634BF0020CF
:100DE0004FF000404FEAD13706FB07FC4FEA1C4C9E
:100DF0000CFB0BF7D21B03FB0CF761EB07010CFBA1
:100E00000EF7B0EB074072EB17420CFB08F734BF4C
:100E1000A2EB0742B2EB074261EB17414FEA0C44E9
:100E20004FEA910706FB07FC4FEA1C4C0CFB0BF743
:100E3000B0EBC74072EB573203FB0CF734BFA2EBA9
:100E4000C742B2EBC74261EB57310CFB0EF7B0EB78
:100E5000C70072EB57720CFB08F734BFA2EBC70256
:100E6000B2EBC70261EB5771039F4FEA816141EA20
:100E7000921104EBCC044FEAD1374FEA826206FBB1
:100E800007FC42EA90124FEA80604FEA1C4C0CFBD0
:100E90000BF7D21B03FB0CF761EB07010CFB0EF702
:100EA000B0EB074072EB17420CFB08F734BFA2EB24
:100EB0000742B2EB074261EB17414FEA8C554FEA0C
:100EC000910704EB9C2406FB07FC4FEA1C4C0CFB2F
:100ED0000BF7B0EBC74072EB573203FB0CF734BF94
:100EE000A2EBC742B2EBC74261EB57310CFB0EF7E6
:100EF000B0EBC70072EB57720CFB08F734BFA2EBE4
:100F0000C702B2EBC70261EB577115EB4C254FEAF4
:100F1000816141EA92114FEA82624FEAD13742EA97
:100F2000901206FB07FC44F100044FEA80604FEA90
:100F30001C4C0CFB0BF7D21B03FB0CF761EB0701FE
:100F40000CFB0EF7B0EB074072EB17420CFB08F7F7
:100F500034BFA2EB0742B2EB074261EB174115EB3E
:100F60001C154FEA813141EA92414FEA823242EA4E
:100F700090424FEA80304FEA0C7644F1000448EA90
:100F800003434EEA0B484FF0000EB2EB080C71EB36
:100F9000030724BF624639464EEB0E0E4FF0000B9E
:100FA0000018524149414BEB0B0BB2EB080C71EBB3
:100FB00003077BF1000B24BF624639464EEB0E0E51
:100FC0004FF0000B0018524149414BEB0B0BB2EBB9
:100FD000080C71EB03077BF1000B24BF6246394616
:100FE0004EEB0E0E51EA020718BF46F0010616EB53
:100FF0000E7655F1000254F1000103D5BDE88901D8
:10100000BDE80088BDE88901BDE80048B619524135
:1010100041EB0101A3F10103704780807F7E7D7C5D
:101020007B7A7978777676757473727171706F6E7A
:101030006E6D6C6C6B6A6A69686867666665646425
:10104000636362616160605F5F5E5E5D5D5C5C5BAF
:101050005B5A5A595958585757565655555554541E
:10106000535352525251515050504F4F4F4E4E4D7C
:101070004D4D4C4C4C4B4B4B4A4A4A4949494848C8
:101080004847474747464646454545444444444308
:1010900043434342424242414141002B9C4630D4AB
:1010A00077002BD01CB54FEA370703B44FF0100080
:1010B0004FF01001BAF1000F06D0BCF1000FDCBFF9
:1010C00040F0080040F008014FF000000FBCBDE800
:1010D00010400BF1010BBBF1010F08BF5FEA1707CE
:1010E00022BF12F1010211F101014FF0004143F161
:1010F000000300F0004043EA00007047F9D35708AE
:10110000D0E746EA064613F1400F4FEA16461FDDC8
:1011100013F1200FDFBF16430A46002120335B4244
:10112000BED0C3F1200746EA064602FA07F74FEAA7
:10113000164646EA0706C3F1200722FA03F201FA2F
:1011400007F721FA03F14FF0000342EA0702A7E78D
:1011500046EA020646EA06464FEA164646EA01060F
:10116000BCBF46EA0646360C4FF000034FF00002C3
:101170004FF0000194E72DE9804C9A46934670B4F5
:1011800091E8380007C831EA400C48BF34EA430C04
:1011900003D5FFF7E6FDFFF780FFF0BCBDE8008C4C
:1011A0002DE9804C9A46934670B491E8380007C800
:1011B00010F0804F08BF13F0804F03D100F005F806
:1011C000FFF76BFFF0BCBDE8008C20F07F4780EAA2
:1011D000030023F07F4C07EB0C03A3F57C5300F0D6
:1011E0000040A3F1FE0392F0000F00F0B38095F0F1
:1011F000000F00F077802DE901494FEA11404FEAD6
:10120000144621EA004800FB06FC24EA064708FBD6
:1012100006F607FB08F800FB07F718EB06484CEB4F
:10122000164C4FEA124B18EB07484FEA15464CEBA9
:10123000174022EA0B4E0BFB06FC25EA06470EFB85
:1012400006F607FB0EFE0BFB07F71EEB064E4CEBFC
:10125000164C4FF000061EEB074E4CEB174B18EBED
:101260000B0840F1000018EB0E0B58EB000840F1A2
:1012700000008F1A4FF000013CBFC943661B14BF2A
:10128000B5EB040C00213CBFC943F61B4FEA1744E1
:101290004EEA8E0E27EA04454FEA1C4704FB07621C
:1012A0002CEA074C05FB07F70CFB05F604FB0CFCCE
:1012B00016EB074642EB174216EB0C4642EB1C427C
:1012C0001BEB060658EB0202414146EA9E0601D599
:1012D000BDE80189B619524141EB0101A3F10103B7
:1012E000BDE801894FEA14454FEA114724EA054653
:1012F00021EA074C05FB07F406FB07F70CFB06F198
:1013000005FB0CFC11EB074144EB17444FEA124775
:1013100011EB0C4144EB1C4422EA074C05FB07F29D
:1013200006FB07F70CFB06F605FB0CFC16EB074665
:1013300042EB174216EB0C4642EB1C456A1854F17F
:10134000000148BF7047B619524141EB0101A3F1BA
:101350000103704795F0000F37D04FEA11424FEA72
:10136000144721EA024624EA074C02FB07F106FB78
:1013700007F70CFB06F402FB0CFC14EB074441EBF3
:1013800017414FEA154714EB0C4441EB1C4125EA89
:10139000074C02FB07F506FB07F70CFB06F602FB02
:1013A0000CFC16EB074645EB174516EB0C4645EBD8
:1013B0001C42121951F1000148BF7047B619524141
:1013C00041EB0101A3F1010370474FEA14454FEAD5
:1013D000114724EA054621EA074C05FB07F106FB05
:1013E00007F70CFB06F24FF0000605FB0CFC12EBB6
:1013F000074241EB174112EB0C4251EB1C4148BF35
:101400007047921841EB0101A3F101037047FEE719
:1014100070470000042802D39FED040A7047044976
:1014200001EB800090ED000A704700000000000012
:1014300078000020104910B50020086048608860DE
:10144000C860086148618861C86108624862886252
:10145000C8623C21094801F00FF93C21084801F01D
:101460000BF93C21074801F007F9BDE810403C2189
:10147000054801F001B9000058000020600100207B
:10148000A8010020F001002038020020FCB51E4811
:101490000068406AADF800001C480068406AADF87A
:1014A00002001B480068406AADF804001948006853
:1014B000406A194AADF806009FED181A00206D46E3
:1014C000A2F11003F2EE040A02F1100635F8104002
:1014D00032F8201053F82070611A09B200EE101A89
:1014E0000F4443F82070B8EEC00A42F8204006EBE3
:1014F0008001401C20EE010AC0B20428C0EE201A70
:10150000C1ED001AE2D3FCBD60010020A80100205B
:10151000F0010020380200206800002000007A441A
:1015200072B6FEE72DE9F0410446876D00F054F9EC
:10153000064694F835000025022806D08020606514
:1015400084F834500120BDE8F0812068016821F062
:10155000160101602068416921F080014161206C21
:1015600008B9A06C20B12068016821F00801016071
:101570002068016821F0010101600CE000F02CF905
:10158000801B052807D920206065032084F83500DA
:1015900084F83450D7E720680068C007EED194F88B
:1015A0005C103F208840B860012084F8350084F842
:1015B00034500020C7E790F83510022903D080216D
:1015C000416501207047052180F8351000680168E9
:1015D00021F0010101600020704700002DE9F84F63
:1015E000DFF8BCA10022012503264FF00F090AF104
:1015F000040BAAF1040E00BF0B6805FA02F42340A5
:10160000A34270D10F7907F00307012F01D0022FF9
:1016100016D187684FEA420806FA08FC27EA0C0749
:10162000D1F80CC00CFA08FC4CEA070CC0F808C052
:101630004768A7430C79C4F3001494403C434460CA
:101640000C79E443A4070AD0C4684FEA420C06FAB6
:101650000CF7BC438F6807FA0CF72743C7600C7977
:1016600004F00304022C12D1D40800EB840CDCF843
:1016700020405707FF0E09FA07F824EA0804D1F8BA
:10168000108008FA07F848EA0408CCF820800468BB
:101690004FEA420C06FA0CF7BC430F7907F0030738
:1016A00007FA0CF7274307604C6814F4403F70D0EA
:1016B0003C4C276847F480472760246822F00307E2
:1016C00004F480440094384C07EB040CDCF8084820
:1016D00097074FEA177809FA08F7BC43334FB84227
:1016E00002D1002724E054E0314FB84201D1012754
:1016F0001EE0304FB84201D1022719E02E4FB84208
:1017000001D1032714E02D4FB84201D104270FE087
:101710002B4FB84201D105270AE02A4FB84201D128
:10172000062705E0284FB84201D1072700E0082727
:1017300007FA08F72743CCF80878DAF8004057464C
:10174000D1F804C09C435FEACC2C00D51C433C601C
:10175000DBF800405F46D1F804C09C435FEA8C2C64
:1017600000D51C433C60DEF800407746D1F804C049
:101770009C435FEA8C3C00D51C433C60084F083F0B
:101780003C68D1F804C09C435FEACC3C00D51C43C4
:101790003C60521C102AFFF42FAFBDE8F88F000008
:1017A000083C014044380240003001400000024043
:1017B0000004024000080240000C024000100240F9
:1017C0000014024000180240001C02400AB181616E
:1017D00070470904FBE7000001488068704700007B
:1017E00048000020024881680278114481607047F7
:1017F000480000200B4810B5016841F400710160F9
:10180000016841F480610160016841F48071016008
:10181000032000F06FF80F2000F006F800F024F825
:10182000002010BD003C024070B50D4D04464FF441
:101830007A712878B1FBF0F00A490968B1FBF0F041
:1018400000F096FC48B9102C07D200222146501E09
:1018500000F030F800206C6070BD012070BD000009
:1018600048000020540000200A4808B5016841F4EF
:1018700080410160006800F4804000900548001F2E
:10188000016841F080510160006800F080500090D4
:1018900008BD000044380240002809DB00F01F02A8
:1018A000012191404009800000F1E020C0F80011C2
:1018B00070470000F0B40E4B1B680C46C3F30223C4
:1018C000C3F10705042D00D90425191D072901D2EC
:1018D000002300E0DB1E012606FA05F1491E214027
:1018E00099409E40761E16403143F0BC02F023BF63
:1018F0000CED00E0064900F0070208684FF6FF0310
:10190000184040EA0220034A104308607047000074
:101910000CED00E00000FA052DE9F0470E46050049
:1019200065D0DFF81481D8F80000F7B200F00700A6
:10193000B04207D288F80070D8F8000000F0070025
:10194000B04254D128683D4C810712D5400703D5D9
:10195000206840F4E05020602878000703D5206814
:1019600040F4604020602068A96820F0F00008433F
:1019700020602878C0072DD03049686808390128D0
:1019800012D0022813D0032811D009688907002932
:101990002DDA216821F0030101432160FFF71CFFCC
:1019A000814641F2883A0EE009688903EFE7096849
:1019B0008901ECE7FFF710FFA0EB0901514502D9BF
:1019C0000320BDE8F0872068696800F00C00B0EBE8
:1019D000810FEFD1D8F80010404601F00701B14265
:1019E00007D90770006800F00700B04201D001205D
:1019F000E7E72878400705D52068E96820F4E0503B
:101A0000084320602878000706D52068296920F45B
:101A1000604040EAC100206000F038F82168084AC0
:101A2000C1F30311515CC8400649086006480068CC
:101A3000FFF7FAFE0020C4E7003C024008380240ED
:101A40003A5E0008540000204C000020044805497C
:101A500000680968044AC1F38221515CC84070479C
:101A600054000020083802404A5E00080448054936
:101A700000680968044AC1F34231515CC8407047AC
:101A800054000020083802404A5E0008154810B58E
:101A9000006810F00C02144813D04110042A0FD033
:101AA000082A0ED10F4C241F2268236802F03F023F
:101AB0005B0207D52068C0F38810A0FB010106E097
:101AC000084610BD2168C1F38811A1FB0001002365
:101AD000FEF7D6FB2168C1F30141491C4900B0FB68
:101AE000F1F010BD083802400024F4002DE9F84F51
:101AF00004006ED02078DFF84C93C007A9F10405EC
:101B00004AD009F104000168C1F38101012908D01C
:101B10000068C0F3810002280AD1D9F80000400211
:101B200006D52868800337D560680028E1D033E007
:101B30006068B0F5803F10D0B0F5A02F286810D0B5
:101B400020F480302860286820F4802028606068B5
:101B5000A8B1FFF741FE06460DE0286840F480304A
:101B6000F4E740F480202860F7E700BFFFF734FE79
:101B7000801B642873D828688003F7D50CE0FFF732
:101B80002BFE064605E000BFFFF726FE801B6428FB
:101B9000F0D828688003F7D42078DFF8AC8280077B
:101BA0004FF0000A3ED5A748001D016811F00C0F48
:101BB00008D00068C0F3810002280BD1D9F80000DA
:101BC000400207D42868800716D5E068012800D1B4
:101BD00012E033E1E068B8B10120C8F80000FFF777
:101BE000FBFD064605E000BFFFF7F6FD801B02285F
:101BF000C0D828688007F7D52868216920F0F80048
:101C000040EAC10028600DE0C8F800A0FFF7E4FD3D
:101C1000064604E0FFF7E0FD801B02281FD8286875
:101C20008007F7D42078000722D5864F874861695E
:101C3000703771B101210160FFF7CEFD064604E067
:101C4000FFF7CAFD801B022809D838688007F7D53E
:101C50000EE0C0F800A0FFF7BFFD064605E082E0F9
:101C6000FFF7BAFD801B02287DD838688007F7D4BB
:101C70002078400768D5DFF8CCB100270BF13C0B8A
:101C8000DBF80000C0000BD4DBF8001041F08051FD
:101C9000CBF80010DBF80000012700F08050009026
:101CA0006B4E3068C00510D4306840F480703060EE
:101CB000FFF792FD009005E0FFF78EFD0099401AB6
:101CC000022850D83068C005F6D55E4EA0686C3644
:101CD00001280FD00528306810D020F001003060B6
:101CE000306820F004003060A068B8B1FFF774FDE0
:101CF00000900FE0306840F00100F4E740F004008D
:101D00003060F7E7FFF768FD0099411A41F288302B
:101D1000814266D830688007F4D50EE0FFF75CFD9D
:101D2000009007E0FFF758FD0099411A41F2883012
:101D3000814256D830688007F4D42FB1DBF8001008
:101D400021F08051CBF80010A069C8B33D49091DAE
:101D50000968C1F3810102294AD00228504607D000
:101D6000C8F8600000E03CE0FFF736FD04463BE0C9
:101D70004746C8F86000FFF72FFD064605E000BFA4
:101D8000FFF72AFD801B02282BD828688001F7D492
:101D9000D4E907010843A16A2E4A490802EB014130
:101DA000626A41EA8211084394F82C1040EA01610A
:101DB000C9F8001001203866FFF70EFD044606E062
:101DC0003EE000BFFFF708FD001B022809D8286885
:101DD0008001F7D534E000BFFFF7FEFC001B0228AE
:101DE00002D90320BDE8F88F28688001F4D427E0E9
:101DF0000128F7D0D9F80000E26900F4800191428F
:101E00001CD1226A00F03F01914217D147F6C07100
:101E1000626A0140B1EB821F10D1A26A4FF0FF331A
:101E200000F4403103EB5202B1EB024F06D194F8BB
:101E30002C1000F07060B0EB016F01D00120D1E7F1
:101E40000020CFE70438024000004742800E47429E
:101E5000007000400000FFFF70B5040009D0606A08
:101E6000002540B125616561A56294F8510040B13B
:101E70000CE0012070BD6068B0F5827FF4D0E561B0
:101E8000F2E784F85050204600F044F8022084F82D
:101E900051002068016821F040010160A08821897B
:101EA00000F4827001F404410843A18901F4006147
:101EB0000843217C01F002010843217D01F001016A
:101EC0000843218B01F400710843217F01F03801A0
:101ED000084394F8201001F080010843218D01F49B
:101EE0000051084321680860A069042101EA1040FC
:101EF00094F8241001F0100108432168486020681C
:101F0000C16921F40061C1616565012084F8510057
:101F1000002070BD10B586B0044614216846FEF757
:101F2000CAFA14492068884221D113480021026866
:101F300042F480420260006800F4804005900E4840
:101F40001038026842F002020260006800F00200ED
:101F500005904FF4604000900220CDE9010103207C
:101F600003900520049069460448FFF737FB06B04C
:101F700010BD00000038004040380240000402401C
:101F80002DE9FF4F81B01D46934604464FF00109ED
:101F90000E9EFFF721FC074694F851006168012866
:101FA00006D0B1F5827F3CD1A168C9BB042838D1E5
:101FB0000298002871D0BBF1000FFBD0002DF9D0A2
:101FC00094F8500001282CD04FF0010A84F850A05A
:101FD00094F85100042802D0052084F851004FF0F5
:101FE0000008C4F85480C4F838B0E587A587029982
:101FF0002163E586A586C4F84080C4F84480206843
:102000000168490603D4016841F040010160E068BD
:10201000B0F5006F606808D0F0B3012D49D081E0C1
:10202000FFE7022005B0BDE8F08F08B1012D39D1DE
:10203000206B21680088C860206B801C2063E08EC4
:10204000401EE0862EE02068816889070FD5E18E6A
:1020500069B1B9F1010F0AD1216B0988C160206B08
:10206000801C2063E08E401EE0864FF0000920684F
:102070008168C9070CD0E18F51B1C068A16B08809D
:10208000A06B801CA063E08F401EE0874FF0010929
:10209000FFF7A2FBC01B01E00BE067E0B04201D3F9
:1020A000701C50D1E08E0028CDD1E08F0028CAD11D
:1020B0003EE0206B216800780873206B401C206391
:1020C000E08E401EE0862DE02068816889070FD5EC
:1020D000E18E69B1B9F1010F0AD1216B0978017361
:1020E000206B401C2063E08E401EE0864FF000090C
:1020F00020688168C9070CD0E18F51B1C068A16B1D
:102100000870A06B401CA063E08F401EE0874FF07A
:102110000109FFF761FBC01BB04202D3701C01D064
:1021200011E086B1E08E0028CED1E08F0028CBD11F
:102130003A463146204601F0E5FE50B12020606568
:1021400084F8508012E084F851A084F85080032075
:1021500068E7A06818B92068C1688068009084F8B2
:1021600051A084F85080606D0028F1D0012059E71B
:1021700010B5401EB0F1807F01D3012010BD4FF09B
:10218000E02460610F21601702F0D5FA0020A06101
:1021900007202061002010BD7047704710B590F8EF
:1021A0003C20012A22D0012280F83C20CA688C6899
:1021B00022F4407222434C6822F4806222430C686D
:1021C00022F4006222430C6922F4805222434C69BB
:1021D00022F400522243C969002322F480420A43B8
:1021E00001684A6480F83C30002010BD022010BD18
:1021F00070B590F83C20012A32D0012480F83C4090
:10220000022280F83D2003685A689D6822F070061B
:102210000A6832435A60134B02689A4214D0B2F1F2
:10222000804F11D0104B9A420ED0104B9A420BD0D7
:102230000F4B9A4208D00F4B9A4205D00E4B9A4250
:1022400002D00E4B9A4204D1496825F0800319430D
:10225000916080F83D40002180F83C10084670BD38
:10226000022070BD00000140000400400008004052
:10227000000C0040000401400040014000180040F4
:1022800010B5040003D094F83D0010B107E0012020
:1022900010BD002084F83C00204600F01FF802200A
:1022A00084F83D00211D206801F01CFF012084F806
:1022B000460084F83E0084F83F0084F8400084F82B
:1022C000410084F8420084F8430084F8440084F814
:1022D000450084F83D00002010BD000008B50068EE
:1022E0001149884212D11148016841F01001016082
:1022F0000068002200F01000009011463620FFF721
:10230000D9FABDE808403620FFF7C6BA0849884226
:1023100009D10648001D016841F002010160006812
:1023200000F00200009008BD00100040403802405C
:102330000004014090F83D10012901D001207047B0
:10234000022180F83D100168CA6842F00102CA60AB
:1023500000681149884214D0B0F1804F11D00F4964
:1023600088420ED00E4988420BD00E49884208D0D0
:102370000D49884205D00D49884202D00C49884257
:1023800004D1816801F00701062903D0016841F0FA
:10239000010101600020704700000140000400407E
:1023A00000080040000C00400004014000400140D3
:1023B0000018004070B5044690F83C000025012844
:1023C00017D0012684F83C60022084F83D00206884
:1023D000826822F0770222F47F42826008685028E7
:1023E00038D00DDC20284FD005DC90B3102811D157
:1023F0004AE0022070BD302846D040280AD13BE098
:1024000060282FD070280DD0B0F5805F03D0B0F5D4
:10241000005F12D0012584F83D60002084F83C0064
:10242000284670BDCB68D1E90121206801F0CFFEBC
:102430002068816841F0770109E0CB68D1E901218A
:10244000206801F0C4FE2068816841F48041816009
:10245000E1E719E0CA684968206801F08DFF502162
:10246000206806E0CA684968206801F096FF60218C
:10247000206801F0B6FECEE7CA684968206801F01E
:102480007BFF40212068F4E7226801461046F0E710
:102490002DE9F0410D46040003D094F83D0018B139
:1024A00008E00120BDE8F081002084F83C002046CF
:1024B00000F040F8022084F83D002068816844F272
:1024C000070291438160211D206801F00BFE226804
:1024D00090689169166A2B68AF69034340F2033034
:1024E000814341EA0721A868EF6908434FF6FC41A0
:1024F0008843E96840EA0720014328692F6A000100
:1025000040EA0730084369686D6926F0AA0646EA82
:102510000515294393602268906154F8460B0162C7
:10252000012004F81F09E0752076E0762077A07579
:102530000020B7E7F0B587B0044614216846FDF7E0
:10254000BAFF474923680024454810390225454A07
:10255000454EB3F1804F1FD0DFF810C1C02763454F
:1025600046D1036843F002030360006800F00200F4
:102570000590086840F00100086008680097CDE900
:10258000015400F00100CDE904506946039410465F
:10259000FFF724F807B0F0BD036843F001030360C0
:1025A000006800F001000590086840F00100086034
:1025B000086800F001000590086840F0020008601B
:1025C0000868012700F00200059020200090CDE966
:1025D0000154CDE9034769461046FEF7FFFF082086
:1025E0000090CDE90154CDE9034769463046CFE775
:1025F000DFF87CC0634517D1026842F00402026034
:10260000006800F004000590086840F002000860CF
:1026100008680097CDE9015400F00200CDE90450AC
:10262000694603943046B3E7124EB342B2D1036811
:1026300043F008030360006800F008000590086894
:1026400040F0010008600868694600F0010005904C
:1026500003200090CDE901541046CDE9034597E7EA
:1026600040380240000002400004024000040040E4
:1026700000080040000C004070B590F83E60044631
:1026800090F83F5090F8423090F84320022021B15A
:1026900004290ED0012E1BD114E0012E18D1012BDC
:1026A00016D184F83E0084F84200012200212068FF
:1026B00020E0012D0CD1012A0AD184F83F0084F8D2
:1026C000430014E0012D03D1012B01D1012A01D0D7
:1026D000012070BD84F83E0084F83F0084F8420079
:1026E00084F8430001220021206801F063FD0122EB
:1026F0000421206801F05EFD2068016841F00101BD
:102700000160002070BD70472DE9F041044600686B
:10271000C66805694FF00007A90713D5B10711D5A1
:10272000F91E01610120207720688069800720461A
:1027300002D0FFF7E8FF04E000F0A8F8204600F020
:102740003AF92777680716D5700714D521686FF016
:1027500004000861022020772068806910F4407F1F
:10276000204602D0FFF7CFFF04E000F08FF82046AC
:1027700000F021F92777280715D5300713D52168F0
:102780006FF008000861042020772068C069800786
:10279000204602D0FFF7B7FF04E000F077F82046AC
:1027A00000F009F92777E80616D5F00614D5216858
:1027B0006FF010000861082020772068C06910F4CD
:1027C000407F204602D0FFF79EFF04E000F05EF855
:1027D000204600F0F0F82777E80708D0F00706D089
:1027E00021686FF001000861204600F049F92806D1
:1027F00008D5300606D521686FF0800008612046B4
:10280000FFF7CAFC680608D5700606D521686FF088
:1028100040000861204600F047F9A8060AD5B00636
:1028200008D521686FF0200008612046BDE8F0411E
:10283000FFF7B3BCBDE8F08110B586B004461421A3
:102840006846FDF738FE0E492068884216D10D48CB
:102850000021026842F004020260006800F00400F7
:1028600005904FF4707000900220CDE90101032023
:10287000CDE9031069460448FEF7B0FE06B010BD6E
:10288000000401403038024000080240704770B533
:10289000044690F83C0000260D4601280FD0012088
:1028A00084F83C006AB1042A1DD0082A2FD00C2AD3
:1028B0003FD00126002084F83C00304670BD022045
:1028C00070BD206801F096FC2068816941F0080124
:1028D00081612068816921F004018161206881693A
:1028E0002A69114311E0206801F0B4FC2068816975
:1028F00041F4006181612068816921F48061816116
:10290000206881692A6941EA02218161D2E7206851
:1029100001F0D6FC2068C16941F00801C16120685E
:10292000C16921F00401C1612068C1692A691143AC
:1029300011E0206801F0F8FC2068C16941F40061F1
:10294000C1612068C16921F48061C1612068C169E9
:102950002A6941EA0221C161ACE710B5040003D045
:1029600094F83D0010B107E0012010BD002084F86C
:102970003C00204600F01EF8022084F83D00211D96
:10298000206801F0AFFB012084F8460084F83E0087
:1029900084F83F0084F8400084F8410084F8420045
:1029A00084F8430084F8440084F8450084F83D002E
:1029B000002010BD7047704710B50446022249B18F
:1029C00004290ED0082913D094F84100012816D00C
:1029D000012010BD94F83E000128F9D184F83E2072
:1029E0000FE094F83F000128F2D184F83F2008E07E
:1029F00094F840000128EBD184F8402001E084F8ED
:102A000041200122206801F0D5FB16492068164AB2
:102A1000884201D0904203D1436C43F400434364A5
:102A20002068884213D0B0F1804F10D00F498842FF
:102A30000DD00F4988420AD00E49884207D09042F3
:102A400005D00D49884202D00C49884204D18168E2
:102A500001F00701062903D0016841F0010101607E
:102A6000002010BD000001400004014000040040AF
:102A700000080040000C00400040014000180040E9
:102A80000068074988420AD106480178491CC9B242
:102A900001700A2903D30021017000F0D5BF7047EF
:102AA0000010004010000020704770477047000081
:102AB000F8B5016804460868CA684B6910F00F0F42
:102AC0004FF0000559D003F0010602F49077374328
:102AD00065D0C10705D0D10503D5616C41F0010176
:102AE0006164410705D5D90703D0616C41F002014B
:102AF0006164810705D5D90703D0616C41F00401F9
:102B00006164010707D502F02001314303D0616CF5
:102B100041F008016164616C00293AD0800604D557
:102B2000900602D5204601F0ABFC20684069616C3C
:102B3000C0F38010090700D460B3204601F079FC8F
:102B400020684069400621D52068143050E8001FF5
:102B500021F0400140E80012002AF5D1E06BA8B155
:102B600072490165E06BFEF726FD002811D0E06B8D
:102B7000016D01B0BDE8F040084783060FD593060C
:102B80000DD52046BDE8F84001F07ABC2046FFF79D
:102B90008DFFF8BD2046FFF789FF6564F8BD266B01
:102BA0002023012E7ED1C6067CD5D6067AD50868AC
:102BB0004868009048694FF0020640064DD5E26B28
:102BC000106840684FF480770004000C3AD0A18D63
:102BD000814237D9E085D069B8422DD020680C30C9
:102BE00050E8001F21F4807140E80012002AF5D15E
:102BF0002068143050E8001F21F0010140E8001265
:102C0000002AF5D12068143050E8001F21F040015F
:102C100040E80012002AF5D184F84230256320688C
:102C20000C3050E8001F21F0100140E80012002A8B
:102C3000F5D1E06BFEF776FC6663A08DE18D401A5E
:102C400081B206E0A18D8142A8D1D069B842A5D158
:102C500066632046FFF729FFF8BDA08DE18D401A7D
:102C600081B2E08D0028F7D00029F5D020680C3023
:102C700050E8002F22F4907240E80027002FF5D191
:102C80002068143050E8002F22F0010240E80027AD
:102C9000002FF5D184F84230256320680C3050E8CD
:102CA000002F00E006E022F0100240E80023002B95
:102CB000F3D1CDE705062BD5150629D594F84100AB
:102CC0002128C9D1A068B0F5805F01D12069B0B1D9
:102CD000206A411C2162216800784860E08C401E17
:102CE0000004000CE084B7D12068C16821F08001A5
:102CF000C1602068C16841F04001C160F8BD206A30
:102D00000088C0F308004860206A801C2062E5E764
:102D10004006F3D55006F1D5CA68204622F040029D
:102D2000CA6084F8413000F019F9F8BD2544000864
:102D300070B5040004D094F84100002510B106E0FD
:102D4000012070BD84F84050204600F023F8242074
:102D500084F841002068C16821F40051C160204618
:102D600001F0F0FB2068016921F4904101612068C5
:102D7000416921F02A0141612068C16841F4005194
:102D8000C1606564202084F8410084F842006563D6
:102D9000002070BD2DE9F04186B00446142168463C
:102DA000FDF789FB2E482D4F236800242C4910384D
:102DB000022503220826BB421CD10B6843F40023E2
:102DC0000B60096801F400210591016841F00401DC
:102DD00001600068CDE9024200F004000590900215
:102DE000CDE90005694604961E48FEF7F7FB06B0DC
:102DF000BDE8F0811C4FBB42F9D10B6843F40033AE
:102E00000B60096801F400310591016841F001018E
:102E100001600068DFF8548000F001000590042094
:102E2000CDE90005CDE902420727694604974046EF
:102E3000FEF7D4FB0120CDE90240CDE900656946EB
:102E400004974046FEF7CAFB002211462620FEF7F3
:102E500031FD2620FEF720FDC9E70000004C0040B0
:102E60004038024000080240004400400000024098
:102E700090F84230202B01D00220704721B11AB1C6
:102E80000023036301F0E4BB0120704710B5006824
:102E9000074988420BD10748807800F01DFF05499B
:102EA0000122BDE81040891C0348FFF7E1BF10BDB7
:102EB0000044004004000020580300202DE9F8439E
:102EC000044690F84100984616460D46202802D048
:102ED0000220BDE8F88385B17EB100206064212026
:102EE00084F84100FEF778FCA6848146E684A06859
:102EF0002027B0F5805F02D003E00120E9E72069D8
:102F000010B12E4600250EE000260CE08021204660
:102F100001F0B9FBA8B9C6B116F8010B21684860E9
:102F2000E08C401EE084E08C4B464FF00002CDF870
:102F300000800028EAD14FF04001204601F0A3FBB9
:102F400040B184F841700320C3E735F8020BC0F3A9
:102F50000800E3E784F841700020BAE77047FEE715
:102F600010B5752000F082F8122801D0002010BDA5
:102F7000012010BD70B5FEF72FFC1C4C05462078D3
:102F8000052823D2DFE800F0030A1017240080216F
:102F90006B2000F003FA0120656016E06068281AD3
:102FA000642813D3022010E001216B2000F0F6F911
:102FB0000320656009E06068281A322806D3FFF70D
:102FC000CFFF08B1042000E006202070207870BDFB
:102FD00018211B2000F0E2F918211C2000F0DEF976
:102FE00006211D2000F0DAF90520EEE7140000208C
:102FF0002DE9FF41DFF8708004464FF4807700220E
:1030000039464046FEF7E2FBBB2000F06BFF00258F
:103010006E46FF2000F066FF70556D1C0E2DF8DB2C
:10302000012239464046FEF7D1FBBDF8000040BA08
:103030002080BDF8020040BA6080BDF8040040BAAC
:10304000A080BDF8060040BAA081BDF8080040BAD3
:10305000E080BDF80A0040BA2081BDF80C0040BAFB
:103060006081BDE8FF8100000000024070B50C4E99
:1030700004464FF48075002229463046FEF7A6FB31
:1030800044F0800000F02EFFFF2000F02BFF0446EC
:10309000012229463046FEF799FB204670BD00000C
:1030A0000000024070B505462DED088B0E46B0F9C4
:1030B000000000EE100AB5F90200B8EEC0BA00EE4A
:1030C000100AB5F90400B8EEC0AA00EE100AB5F96E
:1030D0000600F8EEC0AA00EE100AF8EEC00A9FED56
:1030E000A40AB5F9080060EE809A00EE900AB5F9DE
:1030F0000A00F8EEE00A20EE809A00EE900AF8EE60
:10310000E00A60EE808A2BEE0B0A0AEE0A0A0AEE4B
:10311000AA0A10EE100A02F00BFE41EC100B01F0AF
:1031200037FF51EC100B02F0C9F800EE100AB0EEB8
:10313000008A904CB5EEC00AF1EE10FA4DDDD4EDE8
:10314000030AD4ED051ACBEE002A20EEA12A94ED55
:10315000041A8AEE004A8AEE803A94ED020A00EEE2
:10316000412A60EE203A20EE000A41EE213A00EEBC
:10317000E00A22EE082A63EE883A01EE410A23EEC5
:10318000021A01EEA10AD4ED061A64EE000A02EE5C
:10319000C01A22EEA30A43EE630A04EE420A9FED30
:1031A000763A01EE089A40EE831A40EE889A40EE95
:1031B000088AC4ED061A94ED072A79EEA19A01EE69
:1031C000032A84ED072AD4ED082A39EE029A40EE4C
:1031D000032AC4ED082A78EEA28AD4ED030A94EDFE
:1031E000041A94ED050A60EEE92AD4ED021A41EEC4
:1031F000492A40EE682A9FED612A42EE821AC4ED08
:10320000021A61EEA92A41EE282A40EE492A42EE2E
:10321000820A61EE892AC4ED030A40EEE82A40EEF4
:10322000292A02EE821A61EEA82A61EEA11A40EE66
:10323000892A40EEA01A84ED041A41EE692A41EE73
:10324000011A02EE820A84ED050A40EE001A11EE20
:10325000900A02F06DFD41EC100B01F099FE51EC6B
:10326000100B02F02BF800EE100AD4ED020A80EEEB
:1032700080BA84ED02BAD4ED030A80EE809A84ED20
:10328000039AD4ED040AC0EE808AC4ED048AD4ED1A
:10329000050AC0EE809A2BEE0B0A09EE490A08EEE9
:1032A000E80AC4ED059A09EEA90A10EE100A02F028
:1032B0003FFD28EEA90A41EC1A0B0BEE090A20EE9D
:1032C000080A10EE100A02F033FD41EC100BB0EECC
:1032D0004A1AF0EE6A1A01F05BFD9FED291B51ECD2
:1032E000100B53EC112B02F063FA01F0E7FF306092
:1032F00094ED030AD4ED050A94ED041A20EE200A99
:10330000D4ED020A00EEC10A20EE080A10EE100AFF
:1033100002F00EFD41EC100B01F01EFA9FED1A1B9E
:1033200051EC100B53EC112B02F042FA01F0C6FFE6
:103330007060B5F90A00DFED160A00EE100A1549B3
:10334000B8EEC00A20EE200A10EE100A884204DC13
:1033500010EE100A10F17F5F07D9D6ED020A9FED3B
:103360000E1A40EE410AC6ED020ABDEC088B70BD94
:1033700089A18B3A140000200AD7A33B6F12033AAD
:1033800000000020DCA54C4000000020DCA54CC063
:10339000D6FF793D000040406F12833A2DE9F0419D
:1033A0000B4E0F4604464FF48075002229463046E6
:1033B000FEF70CFA04F07F0000F094FD384600F0B0
:1033C00091FD29463046BDE8F0410122FEF7FEB9E5
:1033D000000002407FB5154C154D2078052809D016
:1033E00000F010FB04B02846BDE870400122202107
:1033F000FEF7ECB9684600F041FCBDF80800A0F209
:103400002620642801D8012060700A4890ED020A45
:10341000607800F0D1FC607828B100222021284695
:10342000FEF7D4F97FBD0122F8E700003800002044
:1034300000100240A003002070B5FEF7CDF9144D36
:103440000446686884420DD06C60FFF793FD2870D5
:10345000052807D10F48FFF7CBFD0E490D480C3961
:10346000FFF720FEA868201A0A2802D3AC60FFF7F5
:10347000B1FFE868201A142809D3EC6028780528E1
:1034800005D1BDE8704003480C3800F099BF70BD0D
:1034900038000020AC0300202DE9F04786B014214D
:1034A0006846FDF708F838480025016841F010012A
:1034B0000160016801F010010591016841F080018F
:1034C0000160016801F080010591016841F001018E
:1034D0000160016801F001010591016841F00201FC
:1034E0000160016801F002010591016841F00801E5
:1034F0000160016801F008010591016841F00401D3
:1035000001600068DFF8848000F00400059001226B
:1035100020214046FEF75AF9DFF8749041F6FF4645
:10352000002231464846FEF751F90122DFF864A037
:10353000170239465046FEF749F901242020CDE90B
:10354000000469464046CDE90245FEF747F86002AF
:10355000CDE90005694602944846FEF73FF8CDE9FB
:1035600000640226CDE9024669464846FEF736F871
:1035700001AA009782E8700069465046FEF72EF8CF
:1035800006B0BDE8F087000030380240001002406D
:10359000000C024000000240104810B50E490160C6
:1035A0004FF482714160002102228160C0E9031260
:1035B000012242615202C0E9062101624162816238
:1035C0000A21C162FEF748FC002803D0BDE8104084
:1035D000FDF7A6BF10BD000000380040BC0300206E
:1035E00010B58CB024216846FCF765FF002415480F
:1035F00009944FF080410A94C0E900144FF6FF711E
:10360000C0E90241046184610320CDE90004012086
:10361000CDE902040494CDE90540079469460948C0
:103620000894FEF735FF08B1FDF77AFF099409A960
:1036300004480A94FEF7DCFD002801D0FDF770FF76
:103640000CB010BD6001002010B58CB0242168467C
:10365000FCF731FF00241648099414490A94C0E984
:1036600000144FF6FF71C0E9024104618461032038
:10367000CDE900040120CDE902040494CDE9054020
:10368000079469460A480894FEF702FF08B1FDF75F
:1036900047FF099409A906480A94FEF7A9FD0028E6
:1036A00001D0FDF73DFF0CB010BD0000000400404C
:1036B000A801002010B58CB024216846FCF7FBFE61
:1036C00000241648099414490A94C0E900144FF6DE
:1036D000FF71C0E90241046184610320CDE9000467
:1036E0000120CDE902040494CDE905400794694620
:1036F0000A480894FEF7CCFE08B1FDF711FF0994C3
:1037000009A906480A94FEF773FD002801D0FDF7C9
:1037100007FF0CB010BD000000080040F0010020C1
:1037200010B58CB024216846FCF7C5FE002416486D
:10373000099414490A94C0E900144FF6FF71C0E9D6
:103740000241046184610320CDE900040120CDE938
:1037500002040494CDE90540079469460A48089498
:10376000FEF796FE08B1FDF7DBFE099409A90648AD
:103770000A94FEF73DFD002801D0FDF7D1FE0CB004
:1037800010BD0000000C0040380200201CB50024D1
:103790000E4800940C49019401605321C0E90114C2
:1037A00040F2E7318461C160FEF76AFD08B1FDF7C0
:1037B000B7FE0094694605480194FEF719FD0028FC
:1037C00001D0FDF7ADFE1CBD0010004080020020BE
:1037D00010B596B000240F94109411941294139481
:1037E0001C2168461494FCF766FE202107A8FCF70C
:1037F00062FE3448324901605321C0E9011440F2AD
:10380000E731C0E9031444618461FEF739FD08B172
:10381000FDF786FE4FF480500F900FA92948FEF760
:10382000C9FD08B1FDF77CFE2648FFF796F808B100
:10383000FDF776FE139413A922481494FEF7D8FCE2
:1038400008B1FDF76DFE6020CDE9000402940394F9
:1038500004940594002269461A480694FFF717F865
:1038600008B1FDF75DFE042269461648FFF70FF820
:1038700008B1FDF755FE082269461248FFF707F820
:1038800008B1FDF74DFE0C2269460E48FEF7FFFF1A
:1038900008B1FDF745FE0794089409944FF40050D1
:1038A0000A94CDE90B4007A906480E94FEF776FC72
:1038B00008B1FDF735FE0348FEF7BEFF16B010BD98
:1038C00000040140C80200200C4810B50A490160FC
:1038D0004FF4E1314160002181600C22C160C0E9F8
:1038E00004128161C161FFF723FA002803D0BDE80B
:1038F0001040FDF715BE10BD004C00401003002025
:103900000E4810B50C4901604FF4164141604FF468
:10391000805181604900C160C91001610C21416181
:1039200000218161C161FFF703FA002803D0BDE8DF
:103930001040FDF7F5BD10BD0044004058030020C5
:10394000FEE7000070B52DED048BFDF773FD1B48FD
:10395000FEF7F0FC00211A48FFF72EF80421184862
:10396000FFF72AF808211648FFF726F80C2114481B
:10397000FFF722F8134DDFED148A9FED149A9FEDA7
:10398000148A0024A5F1100605EB4410B0EE682A55
:10399000F0EE491AB0EE481AF7EE080AB0EE080A3F
:1039A00000F03EF906EB8400641CE4B280ED008A6E
:1039B000042CE9D3BDEC048B70BD00008002002014
:1039C000C80200209800002000C079C400C07944DB
:1039D000000000009FED092A094820EE020A80ED50
:1039E000000A20EE820A80ED010A21EE020A80ED33
:1039F000020A21EE820A80ED030A7047766A30439C
:103A00008800002070B50F4D00242DED028B05F1CC
:103A100010069FED0B8A00BF05EB840080ED008A45
:103A200006EB441000F01EF90021204600F046F895
:103A3000641CE4B2042CEFD3BDEC028B70BD00001B
:103A4000000000008800002070B52DED028BFDF70E
:103A50001DFD184D9FED188A002405F11006204623
:103A6000FDF7D8FC1CB3032C21D0012000EE900AF6
:103A700005EB8400F8EEE00A20EE201AD0ED000AF3
:103A800006EB441080EE880AC1EE080A00F072F8D6
:103A9000BDEEC00A10EE100A01B2204600F00EF88A
:103AA000641CE4B2042CDAD3BDEC028B70BD4FF081
:103AB000FF30DBE7880000200000C8422DE9F0411C
:103AC0000446042842D294B1032C10D05FF00100C8
:103AD00010FB01F0244E00B2224900F1C702336806
:103AE00001F10807B2F5C77F04D8002009E04FF0C4
:103AF000FF30EDE74FF47A72551E00280CDB904240
:103B000000DA85B231F8141001221846FDF75EFE86
:103B100037F8141000220CE04042904200DA85B2DF
:103B200031F8141000221846FDF750FE37F8141033
:103B300001223068FDF74AFE0C484CB1012C0AD036
:103B4000022C0BD0032C01D100680564BDE8F08184
:103B500000684563FAE700688563F7E70068C563B6
:103B6000F4E700002A5E000800000020C8020020E0
:103B7000FEE70000F0B330EE600ADFED270AD0ED7B
:103B8000031A90ED001A40EE201A21EE002AC0ED33
:103B9000031A90ED071AF4EEC11AF1EE10FA01DDE6
:103BA00080ED031AD0ED031AB1EE411AF4EEC11AFA
:103BB000F1EE10FA01D280ED031A90ED011AD0ED6A
:103BC000031A21EE211AD0ED041A80ED040A70EEDA
:103BD000612A90ED020AC2EEA01A72EE010A20EEEE
:103BE000210A30EE800AD0ED050AF4EEC00AF1EEAB
:103BF00010FA00E00CE001D2B0EE600AD0ED060A47
:103C0000F4EEC00AF1EE10FA01DDB0EE600A704782
:103C10009FED020A704700000AD7233C0000000015
:103C200010B504002DED068BF0EE428AB0EE618AED
:103C3000B0EE419AF0EE609AB0EE40AA0ED020218C
:103C4000FCF739FC84ED00AAC4ED019A84ED029AD8
:103C500084ED058AC4ED068A84ED078ABDEC068BE7
:103C600010BD0000002805D09FED030A80ED030A77
:103C700080ED040A704700000000000000280ED00C
:103C800007490A8802804A8842808A888280CA88D6
:103C9000C2800A8902814A894281097B0173704787
:103CA0001801002009484FF4806101220180418001
:103CB0008180C1800181002141810273044801702B
:103CC0004170811C0348FFF7D3B8000018010020A1
:103CD000040000205803002070B50F4C0F49627893
:103CE0001AB10025012A13D106E00F2803D108706C
:103CF00001202070607070BD22788854521CD0B2B0
:103D000020701928F7D3087E10B9044800F0B2F8E3
:103D10006570257070BD00000400002026010020A1
:103D200070470000A0F54E71B1F5C87F02D89FED35
:103D3000090A7047A0F5806000EE100ADFED060A60
:103D40009FED061AB8EEC00A60EE200A80EE810AE6
:103D50007047000000000000000048440000444498
:103D600010B59FED0F2ADFED0F1ADFED100A9FED62
:103D7000100A10482DED028B9FED0B8AB0EE481A09
:103D8000FFF74EFFF0EE481AB0EE481AF0EE480A80
:103D9000B0EE480ABDEC028BBDE81040FFF71ABE3A
:103DA000000048C400004844000000003333333FA3
:103DB000000070424001002010B504462DED048B38
:103DC00084B0F0EE409A6846FFF758FFDFED268A90
:103DD000B0EE689AB0EE688AA4B19DF80C0088B184
:103DE000BDF80200FFF79EFFB0EE409ABDF800005C
:103DF000FFF798FFF0EE408ABDF80400FFF792FF4E
:103E0000B0EE408A194CB5EEC08AF1EE10FA07D038
:103E100000202070C4ED019A1548FFF723FF11E040
:103E2000207830B901202070C4ED019A1048FFF7C6
:103E300019FFF0EE690A94ED010A0D48FFF79AFEAA
:103E4000B0EE408A39EE281A79EE681A31EE080A87
:103E500071EEC80A31EE481A71EE881AFFF7BAFD02
:103E600004B0BDEC048B10BD000000000800002071
:103E70004001002070B501780F2901D1017E09B100
:103E8000002070BDB0F801100479C1F30A038178F5
:103E9000067ACA08C17842EA4112890941EA8401D6
:103EA0004479C2F30A0204F0010541EA85218579CB
:103EB000640844EAC514C579407AED0945EA460527
:103EC00045EA4020C0F30A050548C4F30A0483808C
:103ED000C28041800480058101210173084670BDC4
:103EE0001801002001B582B064200090012301AACE
:103EF00002A90348FEF744F89DF804000EBD000037
:103F0000BC030020F8B515460E460B460092044649
:103F10000122022100F02CF8A0B9134813490068CF
:103F2000B0FBF1F04FF47A71484300906068B0F54F
:103F3000827F0DD13346002280212046009500F07B
:103F400017F870B1606D40F0200060650320F8BD87
:103F5000009830B1401E009020688068C043000681
:103F6000F6D50020F8BD00005400002000366E0198
:103F70002DE9F8431E46914688460446089DFDF704
:103F80002BFC401B351AFDF727FC07462648006826
:103F9000C0F3CB3068430AE0701C09D0FDF71CFC6D
:103FA000C01BA8420FD275B10098B8B3401E009054
:103FB0002068816838EA010033D000214945EBD1FF
:103FC0000020BDE8F8832068416821F0E0014160ED
:103FD0006068B0F5827F0BD1A068B0F5004F02D0C9
:103FE000B0F5806F04D12068016821F040010160C4
:103FF000A06AB0F5005F09D12068016821F4005182
:1040000001602068016841F400510160012084F8DA
:104010005100002084F850000320D2E7FFE700257C
:10402000C6E70121CAE70000540000207047FDF7F1
:10403000D9BB000030B593B030216846FCF73BFA9D
:1040400014210CA8FCF737FA1D480025016841F03F
:1040500080510160006800F080501190194801689B
:1040600041F4804101600068022400F48040119016
:1040700001200090000401908001CDE9064008AACB
:104080000420A82182E813000B906846FDF72EFD5E
:1040900008B172B6FEE70CA90F2081E831004FF499
:1040A000A0500F904FF48050109005210CA8FDF700
:1040B00033FC002801D072B6FEE713B030BD00001B
:1040C00040380240007000400248016841F470012D
:1040D0000160704788ED00E00148FEF715BB000065
:1040E00080020020F0B50268274B284D284E294F4A
:1040F000294C4FF0804C984209D0604507D0A84227
:1041000005D0B04203D0B84201D0A04204D122F081
:10411000700E4A6842EA0E0298421BD0604519D0E0
:10412000A84217D0B04215D0B84213D0A04211D047
:104130001A4DA8420ED01A4DA8420BD0194DA842D4
:1041400008D0194DA84205D0184DA84202D0184DEC
:10415000A84203D122F44075CA682A434D6922F06F
:1041600080022A438D68C5620D688562984201D03D
:10417000A04201D109690163016841F004010160B5
:10418000012141610260F0BD0000014000040040D7
:1041900000080040000C00400004014000400140C5
:1041A000004401400048014000180040001C00404D
:1041B0000020004010B501F01F030121046A99405E
:1041C0008C430462016A9A401143016210BD10B52C
:1041D000846842EA032224F47F440A432243826033
:1041E00010BD826822F070020A4342F0070181602C
:1041F00070470000F0B5036A026A22F00102026211
:1042000042688469124E24F073050C682C4323F035
:1042100002058B682B430D4DA84201D0B04205D159
:1042200023F00807CB683B4323F00403A84201D0E6
:10423000B04205D14D6922F4407215438A692A4380
:1042400042608461496841630362F0BD000001403F
:1042500000040140F0B5026A036A23F01003036210
:10426000436884690D6824F4E64444EA05248D68B3
:1042700022F0200242EA05120F4D104EA84201D052
:10428000B04206D1CF6822F0800242EA071222F043
:104290004002A84201D0B04207D14D6923F44063E7
:1042A00043EA85038D6943EA850343608461496875
:1042B00081630262F0BD0000000001400004014083
:1042C000F0B5026A036A23F4807303624368C46929
:1042D00022F4007224F073050C68124E2C438D6892
:1042E00042EA05220E4DA84201D0B04206D1CF6865
:1042F00022F4006242EA072222F48062A84201D03E
:10430000B04207D14D6923F4405343EA05138D6948
:1043100043EA05134360C4614968C1630262F0BDAA
:10432000000001400004014030B5046A026A22F432
:10433000805202624268C3690D6823F4E64343EA8F
:1043400005238D6824F4005444EA0534084DA8423E
:1043500002D0084DA84204D14D6922F4804242EABD
:1043600085124260C36149680164046230BD000087
:10437000000001400004014010B5036A046A24F003
:1043800001040462846924F0F00444EA021423F076
:104390000A020A438461026210BD10B5036A046A0E
:1043A00024F010040462846923F0A00324F4704410
:1043B00044EA023243EA01118261016210BD000049
:1043C0002DE9F041804696B0806801F0B1FC0646C8
:1043D0000F46D8F8040001F0ABFC04460D46D8F8AF
:1043E000000001F0A5FC0B4602468DE8FC0008A287
:1043F000402106A8FBF7BCFF002805DD82B20A2396
:1044000006A90748FEF75AFD16B0BDE8F081000086
:10441000252E32662C252E32662C252E32660A0079
:104420001003002010B5806B0021C185FEF73EFB14
:1044300010BD01680C3151E8002F22F4907241E860
:104440000023002BF5D10168143151E8002F22F030
:10445000010241E80023002BF5D1016B012909D1AC
:1044600001680C3151E8002F22F0100241E80023CE
:10447000002BF5D1202180F8421000210163704704
:1044800008B590F84210222901D0022008BD8268A8
:104490004FF480539A4201D1016921B1816A9A4255
:1044A0001BD04AB10AE00268816A5268C2F308026E
:1044B0000A80816A891C08E0026972B10268526848
:1044C00002F07F020A70816A491C8162C18D491E17
:1044D0000904090CC18503D01BE002685268F1E7AA
:1044E0000168CA6822F02002CA600168CA6822F422
:1044F0008072CA6001684A6922F001024A61202183
:1045000080F8421000214163026B012A03D0FEF7BC
:10451000BDFC002008BD016301680C3151E8002F8B
:1045200022F0100241E80023002BF5D101680A684F
:10453000D20602D50A6849680091818DFEF7B5FA66
:10454000E7E7000070B5044600680169E26821F4FD
:104550004051114301612169A068E2690843616922
:10456000114308432168CA6849F20C639A43024325
:10457000CA6020684169A26921F440711143416118
:1045800031492068884202D03049884202D1FDF783
:104590006DFA01E0FDF75AFAE2690023192164255A
:1045A0003226B2F5004F626828D0A0FB0101930FBC
:1045B0009200FBF765FE0146B0FBF5F06FF01802C4
:1045C000504301EB800006EB0010B0FBF5F000F06B
:1045D000F002B1FBF5F002EB0012B1FBF5F06FF069
:1045E0001803584301EB800006EB0010B0FBF5F018
:1045F00000F00F0021681044886070BDA0FB01012D
:1046000092185B41FBF73CFE0146B0FBF5F002015E
:10461000B1FBF5F06FF01803584301EB800006EB97
:10462000C000B0FBF5F000F0F80002EB4002B1FB77
:10463000F5F0584301EB800006EBC000B0FBF5F04D
:1046400000F00700D6E70000001001400014014010
:1046500081628285C28500214164222180F8421056
:10466000016921B10168CA6842F48072CA600168B8
:104670004A6942F001024A610068C16841F02001C4
:10468000C160002070472DE9F843984617460D4653
:104690000446089E24E0701C22D0FDF79DF8A0EB94
:1046A0000800B0421AD8CEB12068C168490717D5B2
:1046B000802D15D0402D13D00168C94309070FD4B0
:1046C00001680025406800902046FFF7B2FE0820F0
:1046D000606484F840500120BDE8F8830320FBE7C4
:1046E0002068006835EA000004D00020B842D2D02B
:1046F0000020F1E70120F9E70148FEF7D9B90000F1
:1047000058030020FEE703B401984100009850EAE6
:10471000C12018BF04204A0D18BF40F0010040F22C
:10472000FF72B2EB515F08BF40F00200012808BFE2
:10473000052002B070470907090E002804DB00F1CC
:10474000E02080F80014704700F00F0000F1E02036
:1047500080F8141D7047000070B5C1482DED020BA4
:104760002DED0E8B82B0119D25F000449FEDBEDB38
:104770009FEDBFEB84423EDBA4F140511098A1F1C4
:104780007F6108430FD0BC48844202DC28D11098D6
:1047900030B39DED100B02B0BDEC0E8B02B0BDE846
:1047A000704000F0AEBC9DED100B53EC1D2B51EC96
:1047B000100B00F0FDFF9DED100B41EC180B53ECBE
:1047C0001E2B51EC100B00F0F3FF53EC182B00F0F4
:1047D000A7FD41EC100B02B0BDEC0E8B02B070BD1A
:1047E0000120FBF797FE02B0BDEC0E8B02B0BDE8D6
:1047F000704000F09DBCA1489FEDA18B844256DA29
:104800009DED100BB4F1795F0ADA51EC100BFFF754
:104810007AFF042808BF00F09BFC9DED100BDAE73F
:1048200053EC102B51EC100B00F0C2FF41EC190BB4
:1048300095480621B0EE490AF0EE690A784400F086
:10484000E4FB53EC192B51EC100B00F0B1FF41ECE1
:104850001A0B8E48B0EE490AF0EE690A042178443A
:1048600000F0D3FB53EC192B51EC100B00F0A0FF20
:1048700053EC182B00F054FD41EC100B51EC1A0BCB
:1048800053EC102B00F000FECDE900019DED000B74
:1048900053EC102B9DED100B51EC100B00F088FF2A
:1048A0009DED101B53EC112B00F03AFDD2E09DED75
:1048B000100B51EC100B00F06AFC53EC182B01F0BC
:1048C00075F89FED730BCDE9000153EC102B9DEDB6
:1048D000000B51EC100B00F06BFF41EC190B6E4814
:1048E0000621B0EE490AF0EE690A784400F08DFB2B
:1048F00053EC192B51EC100B00F05AFF41EC1B0B41
:104900006648B0EE490AF0EE690A0421784400F0E6
:104910007CFB53EC192B51EC100B00F049FF53ECCE
:10492000182B00F0FDFC41EC1C0B51EC190B00F0B6
:104930006BFC41EC180B5A489FED5BABA04222DCAC
:1049400053EC1C2B51EC1B0B00F09EFDCDE900013C
:104950009DED000B51EC180B53EC102B00F028FFD1
:1049600053EC182B00F0DCFC53EC1A2B00F020FF6A
:1049700053EC1D2B01F0F2F853EC1E2B01F016F84E
:1049800041EC100B5FE08DED008B002000909DED61
:10499000000B51EC180B53EC102B00F0C1FC9DEDFB
:1049A000000B41EC1E0B53EC102B51EC100B00F0E4
:1049B000FFFE53EC192B00F0F9FF53EC1E2B00F017
:1049C00063FD41EC190B53EC1C2B51EC1B0B00F05D
:1049D0005BFD41EC1B0B53EC1A2B51EC190B00F057
:1049E000E7FE53EC1D2B00F0E1FF41EC190B53ECFB
:1049F0001A2B51EC180B00F0DBFE53EC1B2B00F0D4
:104A0000D7FE53EC192B01F0A9F89DED000B41ECFA
:104A1000180B53EC1A2B51EC100B00F0C9FE9FED54
:104A2000249B53EC192B00F0C1FF41EC100B51EC0F
:104A3000180B53EC102B01F091F853EC192B00F0EC
:104A4000B5FF41EC100B002D3FF7C5AE51EC100B3C
:104A500000F028FC41EC100BBDE600000000000057
:104A60000000F03F00000000075C143326A6913CD4
:104A7000182D4454FB21F93F0000F07F0000E03F77
:104A8000000000000000F03F18160000261600008D
:104A9000000000000000E03F6A15000078150000EB
:104AA0003333EF3F00000000000000000000004032
:104AB000182D4454FB21E93F70B59B482DED020BA6
:104AC0002DED068B079D25F00044A04218DC974889
:104AD000844202DC0AD1069840B19DED060BBDEC84
:104AE000068B02B0BDE8704000F00BBB002DCCBFC0
:104AF0009FED8F0B9FED900BBDEC068B02B070BD50
:104B00008F48A04215DD8F48A042D8BF4FF0FF3438
:104B100058DD9DED060B51EC100BFFF7F4FD04285A
:104B200008BF00F015FB9DED060BBDEC068B02B037
:104B300070BD9DED060B51EC100B00F028FBCDE98C
:104B4000060181489FED828BA0423CDD8248A04255
:104B50001FDD00249FED82AB9DED060B53EC1A2B5D
:104B600051EC100B00F0DCFB9DED060B41EC190B3A
:104B700053EC1A2B51EC100B00F01AFE53EC182BCF
:104B800000F0ECFF53EC192B00F07EFCCDE90601A0
:104B900049E09DED060B012453EC182B51EC100B52
:104BA00000F0BEFB9DED060B41EC190B53EC182BEE
:104BB00051EC100B00F0D2FF53EC192B00F064FC09
:104BC000CDE906012FE06848A0421FDD02249FEDD9
:104BD000689B9DED060B53EC192B51EC100B00F06C
:104BE000E7FD53EC182B00F09BFB9DED060B41EC11
:104BF000180B53EC192B51EC100B00F0AFFF53ECDA
:104C0000182B00F041FCCDE906010CE09DED060BF0
:104C1000032453EC102B9FED580B51EC100B00F0BC
:104C200033FCCDE906019DED060B53EC102B51EC46
:104C3000100B00F0BDFD41EC180B53EC182B00F0ED
:104C4000B7FD41EC190B4E480621B0EE490AF0EED3
:104C5000690A784400F0D9F953EC182B51EC100B89
:104C600000F0A6FD41EC180B4648B0EE490AF0EE04
:104C7000690A0521784400F0C8F953EC192B51EC6E
:104C8000100B00F095FD41EC100B51EC180B53ECA0
:104C9000102B002C0EDA00F043FB9DED061B53ECAD
:104CA000112B00F085FD9DED061B53EC112B00F040
:104CB0007DFE35E000F034FB9DED061B53EC112B1F
:104CC00000F076FD41EC100B2F48784400EBC40057
:104CD00090ED001B51EC100B53EC112B00F03EFF3C
:104CE0009DED061B53EC112B00F038FF41EC100B2F
:104CF0002648784400EBC40090ED001B51EC100BEB
:104D000053EC112B00F052FE41EC100B002DA2BF12
:104D1000BDEC068B02B070BD51EC100B00F0C2FA76
:104D200041EC100B01E70000000010440000F07F90
:104D3000182D4454FB21F93F182D4454FB21F9BF91
:104D40000000DC3F0000203E0000F33F00000000B8
:104D5000000000000000F03F0000E63F00000000FF
:104D60000000000000000040008003400000000040
:104D7000000000000000F83F000000000000F0BF4D
:104D8000BA12000070120000FA110000B211000007
:104D900070B56F4E2DED040B2DED048B82B0DDF858
:104DA00024C0DDE907235C422CF000411C4341EAAA
:104DB000D474069D22F00040B44205D86C422C43C6
:104DC00040EAD474B4420BD99DED081B9DED060B4F
:104DD00002B0BDEC048B04B0BDE8704000F09BB99C
:104DE000ACF14054A4F17F641C430BD0022404EACC
:104DF000AC7444EAD27405439FED578B9FED582B5A
:104E000007D015E09DED060B51EC100B00F0B7F943
:104E100042E0002C11BF012C9DED060B02B0BDEC51
:104E2000048B04BF04B070BD022C38D0032C3BD0DF
:104E30000B439FED4D1B9FED4E0B0AD0B14218D195
:104E4000B04209D121F0804120F0804009910790C3
:104E50000FE0002A15DA10E0474B7B44002C08BF16
:104E600093ED000B0DD0012C10D0022C17D0032C89
:104E70001AD0B0421DD1002A03DAB0EE410AF0EE9A
:104E8000610A02B0BDEC048B04B070BD93ED000B61
:104E900051EC100B00F006FA41EC100BF1E7B0EE0C
:104EA000480AF0EE680AECE7B0EE420AF0EE620A59
:104EB000E7E7401A00159FED329B3C28C8BF8DEDF7
:104EC000000B17DCBCF1000FBCBF10F13C0F8DEDE7
:104ED000009B0FDB9DED080B53EC102B9DED060B9B
:104EE00051EC100B00F0D0FA00F051F900F047F946
:104EF000CDE90001B4B1012C10D0022C9FED220BA2
:104F000053EC102B9DED000B51EC100B19D000F061
:104F100025FE53EC182B00F021FEBDE7019880F030
:104F2000004001909DED000B53EC192B51EC100B40
:104F300000F002FC04BF0220FBF7ECFA9DED000B31
:104F40009FE700F00BFE53EC182B00F02FFDA3E7BA
:104F50000000F07F00000000182D4454FB210940A0
:104F6000182D4454FB2109C0182D4454FB21F9BFCE
:104F7000182D4454FB21F93FE2100000000000000E
:104F80000000000000000000075C143326A6A13CCE
:104F900000B52DED048BB0EE409AF0EE609A83B030
:104FA00051EC190B00F00EFD41EC180B18EE100A35
:104FB00018EE901A8DED008B002818BF01200843D1
:104FC00020F00040C0F17F6000F1E040C00F14D03D
:104FD00019EE101A19EE900A8DED009B002918BFEA
:104FE0000121084320F00040C0F17F6000F1E04063
:104FF000C00F04BF0120FBF78DFAB0EE480A03B0E2
:10500000F0EE680ABDEC048B00BD70B504462DEDD2
:10501000028B4D1E00EBC500B0EE408AF0EE608AB8
:1050200090ED000B35F0060017D053EC182B51EC27
:10503000100B00F0BDFB41EC100B6D1E04EBC50026
:1050400090ED001B51EC100B53EC112B00F068F9A4
:1050500041EC100B35F00600E7D1022D36D0042DBF
:105060001CD0062D1CBFBDEC028B70BD53EC182B61
:1050700051EC100B00F09CFB94ED0A1B53EC112B30
:1050800000F04EF953EC182B00F092FB94ED081B46
:1050900053EC112B00F044F941EC100B53EC182B9E
:1050A00051EC100B00F084FB94ED061B53EC112B1C
:1050B00000F036F953EC182B00F07AFB94ED040B5A
:1050C00053EC102B00F02CF941EC100B53EC182B87
:1050D00051EC100B00F06CFB94ED021B53EC112B08
:1050E00000F01EF953EC182B00F062FB94ED001B4E
:1050F00053EC112B00F014F9BDEC028B41EC100BBA
:1051000070BD10B553EC102B51EC100B00F008F9EA
:1051100041EC100B10BD10B553EC112B51EC100BE2
:1051200000F0FEF841EC100B10BD00000000000084
:105130009FED050B10B553EC102B51EC100B00F04C
:10514000A3F941EC100B10BD0000000000000000AE
:105150009FED050B10B553EC102B51EC100B00F02C
:1051600027FB41EC100B10BD0000000000000010F8
:1051700030380A2801D2012070470020704710B54E
:1051800041EC100BFFF798FC51EC100B10BD82B0F6
:10519000CDE9000121F0004001909DED000B02B02F
:1051A00051EC100B70470000FCF724FBFEF742FFA8
:1051B000FEF772F9FEF70CFBFEF712FAFEF744FA5F
:1051C000FEF778FAFEF7ACFAFEF7E0FAFEF77CFBA2
:1051D000FEF796FBFEF7E0F9FEF7B4FBFEF762FD83
:1051E000FEF7BEFDFDF7BCFE0100064801D000221F
:1051F00000E001222021FCF7E9FA00BFFEF71CF9CC
:10520000FCE700000010024000B52DED048B83B0D8
:1052100041EC190B00F0D6FB41EC180B18EE100A0C
:1052200018EE901A8DED008B002818BF012008435E
:1052300020F00040C0F17F6000F1E040C00F14D0CA
:1052400019EE101A19EE900A8DED009B002918BF77
:105250000121084320F00040C0F17F6000F1E040F0
:10526000C00F04BF0120FBF755F951EC180B03B038
:10527000BDEC048B00BD000010B500290AD00878F1
:10528000002807D005487844FBF7B2FC002801D07D
:10529000002010BD0248784410BD0000760D0000CB
:1052A0006E0D000081F00041704780F000407047B3
:1052B00021F00041704720F00040704721F000428B
:1052C000A2F16052B2F5801F01F0004328BFD2F175
:1052D0007F6C0BD95FEA001C43EAC20242EB5070BC
:1052E00018BF704728BF20F001007047B2F5801F3B
:1052F000BCBF184670474FEA410C1CF5001F02D294
:10530000084600F08BBD70B500F0FCFA0000008983
:10531000FFF7F6BF4FF00040A0F580007047000097
:1053200010B591EA030F48BF83F0004300F11E84DB
:10533000841A71EB030C05D2121943EB0C03001B0A
:1053400061EB0C01DFF824E14FEA1154A4EB135C8C
:105350001EEA430F18BF9EEA445F73D023EA0E0390
:10536000DCF1200E21EA045143F4801332D322FAF7
:105370000CFE10EB0E0023FA0CFE41EB0E01CCF1FB
:10538000200E03FA0EFE10EB0E0051F10001B1F5F4
:10539000801FCCF1200E32D201EB045112FA0EF232
:1053A000BDE8104058BF7047401C38BF5FEA42025A
:1053B00018BF7047002814BF20F0010041F1000120
:1053C0004FEA410313F5001F38BF7047A1F1C041F8
:1053D00000F0E6BA012A43EB0302ACF1200CDCF149
:1053E0001F0E32BF4FF0000E23FA0CF310EB030038
:1053F00041EB0451B4EB115FD0D0A1EB045101F5A6
:10540000801149085FEA300001EB04510ED350F1DE
:10541000000038BF12FA0EFE08D1BDE81040C9E7FF
:10542000401C38BF5FEA4202CAD1C3E7BDE8104062
:105430004FEA410313F5001F38BF7047A1F1C04187
:1054400000F0AEBA9EEA445F08D011EA5E0FBDE8F4
:10545000104004BF01F0004100207047BDE810403B
:1054600070B500F04FFA00BF64FBBE3E0000E0FFE5
:10547000491058BFC1F140415B1058BFC3F14043D0
:105480008B42EFF3008070472DE9C04130B4DFF864
:10549000A0C23CEA111418BF3CEA131400F0EC80DF
:1054A00081EA03051CEA111444EAD57418BF1CEA0A
:1054B000131500F0C780A4EB05044FF0004545EA42
:1054C000C12145EAC32341EA505143EA525304F152
:1054D0007F74994204F500344FEAC0204FEAC2229B
:1054E00008BF904200F09C804FEA13650FF240160F
:1054F000765D4FEA134506FB05F7C7F1807706FB9B
:1055000007F74FEAD737A7FB03687642C8F580381C
:10551000A7FB06CE38BFA8F1010807FB08E64FF04D
:10552000000EA6FB028CE6FB03CEDCF1000CCEF1F4
:10553000004E38BFAEF1010EA6FB0C584FF000072D
:105540004FF00005E6FB0E87A1FB08C6A0FB07CEC7
:1055500016EB0E0645F10005E1FB076515F1E04E7F
:105560007EBFA4F580345FEA46066D4116F18007E0
:1055700045F100054FEA17274FEA066647EA056737
:10558000A6F1DE46B6F1805F4FEA15251FD93846F1
:1055900024F0010C05EBC471BCF1FE6F01EB0C11A2
:1055A00002D8F0BCBDE8008124425CBF01F5801E3A
:1055B0009EEAC47F02D4F0BCBDE80081244238D406
:1055C000F0BCA1F1C041BDE8004100F0E9B94FEAEB
:1055D000D22242EA43524FEAD323A7FB02864FEA84
:1055E000D02040EA415007FB03661EEA0E0F4FEA47
:1055F000D12105FB026658BFA6EB0056B6EB00565C
:105600004FEA520E4EEAC37E18EB0E0E56EB530EC7
:10561000BDD518EB02085E417F1C55F10005B6E7C9
:105620004FF480154FF000074FF000064FF00008D0
:10563000ADE7F0BC4FF0000001F1C04101F00041C6
:10564000BDE8008111EA0C1F0CEA131500D00CE034
:1056500013EA0C1F00F025804FF00000F0BC81EA37
:10566000030101F00041BDE80081F0BCBDE800414C
:1056700081EA030100F094B9F0BCBDE8004170B5C7
:1056800000F040F9097EFC3E00F007B881EA030112
:105690004FF0000001F00041704781EA030100F083
:1056A0007FB9F0BCBDE800414FF0000021497047D0
:1056B000FFFDFBF9F7F5F4F2F0EEEDEBE9E8E6E4D7
:1056C000E3E1E0DEDDDBDAD8D7D5D4D3D1D0CFCD5E
:1056D000CCCBCAC8C7C6C5C4C2C1C0BFBEBDBCBB97
:1056E000BAB9B8B7B6B5B4B3B2B1B0AFAEADACAB92
:1056F000AAA9A8A8A7A6A5A4A3A3A2A1A09F9F9E6C
:105700009D9C9C9B9A99999897979695959493931D
:10571000929191908F8F8E8E8D8C8C8B8B8A8989B4
:105720008888878786858584848383828281818037
:105730000000FF070000F87F51EA030C17D41CF5A6
:10574000801F58BFBCF5801F00F10680994218BF2A
:10575000704708BF9042704707D711F5801F58BFA8
:1057600013F5801F19D499427047894270471CF580
:10577000801F08D5BCF5801FF7D58B4218BF704736
:1057800008BF824270474FF4001C1CEB410F38BF2A
:105790001CEB430F01D28B42704770B500F0B2F89A
:1057A000922449004FF000514FF08053FFF760BE44
:1057B000DFF848C170B51CEA111E1EBF1CEA1315A4
:1057C0009EEA0C0F95EA0C0F00F06F8081EA03044B
:1057D00023EA4C134EEAD47E21EA4C1141F48011A5
:1057E00043F48013AE44A1FB024CA0FB0365AEF171
:1057F0007F7E361955EB0C05A1FB034C4CF10003E1
:10580000A0FB021C16EB0C06654153F10003094294
:1058100018BF46F0010613F4007F0BD14FEA0331A5
:105820004FEA0530340341EA155140EA16506FF053
:1058300003020AE04FEAC3214FEAC520F40241EA1D
:10584000555140EA56506FF0020202EB2E4201EB36
:10585000025585EACE710AD05FEA440C18BF24F0E5
:10586000004450F1000041F1000120EAD47040F200
:10587000FE7C624500D270BDA84214BF4FF0804448
:105880004FF04044002E08BF0024BEF1806FA8BF37
:10589000A1F1C041BDE8704080F282804FF000006D
:1058A00001F1C04101F0004170479EEA0C0F0CEA83
:1058B000131518BF95EA0C0F06D04FF0000081EACF
:1058C000030E0EF0004170BD00F01CF88900013E8F
:1058D00000F007B800F009B84FEA430C5FEA5C5CDF
:1058E00008D081EA030100F05BB84FEA410C5FEA9F
:1058F0005C5CF6D14FF00000014970470000FF07E3
:105900000000F87F0EF1020E2EF0030E5EF8046B1D
:10591000364205D4012A43EB030515F5001F12D8C2
:10592000012841EB010C1CF5001F0CD80ED14FEAE9
:10593000D17C15F5001F0CEB4C0C0CF1020C08BFD0
:105940004CEBD37C04E04FF0080C01E04FEAD37C31
:105950000CEB4C0526FA05F606F00706B6F1040C2A
:1059600006D20EEB860CBDE870404CF0010C60478F
:10597000DFE80CF0090B02024FF000414FF000008D
:10598000A1F5002170BD19461046012851EB010414
:1059900018BFD4F5001484BF002001F0004170BD91
:1059A0000808A0F500114FEA3101704791EA030F92
:1059B00010B581F000413FF5BBAC83F0004300F02F
:1059C000D5B800002DE9F04101F5801CBCF5001FA1
:1059D000C0F2A9804FEA115C21EA0C510CF1FD0CD8
:1059E00041F480115FEA5C0C0CF5C07C01D34000EF
:1059F000494130A4890241EA905187028E0E0A0C77
:105A0000A45D04FB04F602FB06F6C6F14046A4FBC7
:105A10000662F60D46EA422606FB06F4A4FB0123C5
:105A20005242C3F1404338BF5B1EA6FB0242002432
:105A3000E6FB0324D20B42EA4446A6FB0623A1FB65
:105A400002E2A3FB07E4E3FB61426442C2F1404E81
:105A500038BFAEF1010EA6FB04234FF00002E6FBB7
:105A60000E32A2FB03463400E2FB6264A1FB06E6B1
:105A7000A4FB07E8E4FB61687642C8F1405838BFF0
:105A8000A8F10108A2FB06E4A3FB08E5E2FB6854C9
:105A9000A1FB05E6A7FB04E8E1FB648618F12005FD
:105AA00056F10006A809A8F11B08B10908F03F0843
:105AB000B8F10A0F40EA86601CD901EB0C51BDE831
:105AC000F08100BFFCF5EEE8E2DDD8D3CFCBC7C351
:105AD000C0BDB9B6B4B1AEACA9A7A5A3A19F9D9B0B
