:020000040800F2
:1000000000100020AD1E0008611E0008691E0008D7
:1000100000000000000000000000000000000000E0
:10002000000000000000000000000000711E000839
:1000300000000000000000007B1E0008851E000874
:10004000FD1E000800000000FD1E0008FD1E000847
:10005000FD1E0008FD1E0008FD1E0008FD1E000814
:1000600000000000FD1E0008FD1E0008951E00088F
:10007000FD1E0008FD1E0008FD1E00080000000017
:10008000FD1E00080000000000000000FD1E00082A
:1000900000000000FD1E0008FD1E0008FD1E0008F7
:1000A00000000000FD1E000800000000FD1E00080A
:1000B0000000000000000000000000000000000040
:1000C00010B5064C2378002B07D1054B002B02D02E
:1000D000044800E000BF0123237010BD3000002061
:1000E000000000008C460008044B10B5002B03D024
:1000F0000349044800E000BF10BDC04600000000F6
:10010000340000208C460008002243088B4274D340
:1001100003098B425FD3030A8B4244D3030B8B4208
:1001200028D3030C8B420DD3FF22090212BA030C11
:100130008B4202D31212090265D0030B8B4219D3F2
:1001400000E0090AC30B8B4201D3CB03C01A524112
:10015000830B8B4201D38B03C01A5241430B8B425A
:1001600001D34B03C01A5241030B8B4201D30B0343
:10017000C01A5241C30A8B4201D3CB02C01A52416A
:10018000830A8B4201D38B02C01A5241430A8B422D
:1001900001D34B02C01A5241030A8B4201D30B0216
:1001A000C01A5241CDD2C3098B4201D3CB01C01A30
:1001B000524183098B4201D38B01C01A524143093A
:1001C0008B4201D34B01C01A524103098B4201D328
:1001D0000B01C01A5241C3088B4201D3CB00C01A95
:1001E000524183088B4201D38B00C01A524143080D
:1001F0008B4201D34B00C01A5241411A00D2014632
:10020000524110467047FFE701B5002000F006F8A4
:1002100002BDC0460029F7D076E770477047C04658
:100220009E2110B5C905041C00F0B0FC002803D1C4
:10023000201C00F00FFC10BD9E21201CC90500F001
:1002400065FA00F007FC80231B069C466044F2E739
:10025000F0B54F464646D6464402C0B547000E1C90
:10026000640A3F0EC50F002F3CD0FF2F42D0002361
:10027000802299469A46E400D20414437F3F7302D9
:100280005B0A984673001B0EF60F002B1BD0FF2B4A
:1002900013D042468021D200C90411438846002071
:1002A0007F3B2900FF1A4B467140C9B20F2B00D982
:1002B000B5E0744A9B00D3589F464346002B3FD17C
:1002C000FF3F023303E04346002B2DD101232900D9
:1002D0004A467140C9B21A430E2A38D86A48920079
:1002E00082589746002C13D104239946033B0027DC
:1002F0009A46C4E7002C05D108239946063BFF2700
:100300009A46BCE70C239946093BFF279A46B6E775
:10031000200000F045FC7627431F9C4000237F42CD
:1003200099469A463F1AAAE7404600F039FC4246F1
:10033000431F9A4076235B421B1A90460020B0E789
:1003400003234A461A4391460320FC33A9E70D00D4
:10035000FF200022C005ED0710432843E0BCBA4649
:10036000B146A846F0BD0D0000200022F2E753463A
:10037000022BEDD0032B33D0A046012B05D100205A
:100380000022E7E7350003287AD03B007F33002BBB
:100390002DDD4246520707D00F2241460A40042A6B
:1003A00002D004229446E0444246120105D542465A
:1003B000364B1A403B0090468033FE2BC8DC424649
:1003C0009201520AD8B2C5E780220025FF20D2034D
:1003D000C0E78022D203144202D04346134249D0E0
:1003E0008022D20322435202FF20520AB2E70122A6
:1003F000D31A1B2BC3DC4246DA4043469E37BB4030
:10040000591E8B411A43530704D00F231340042B6A
:1004100000D00432530129D5012000229AE7424638
:1004200063015501AB4215D21B200022013F01267A
:100430001C0052005B00002C01DB9D4201D85B1BBD
:10044000324301380028F3D1581E834113439846A4
:100450000D009AE71A2001225B1BE8E7023B5A4293
:1004600053415B4235000022D8B273E7920100206D
:10047000520A6FE71A4352023500FF20520A69E719
:100480004446ADE7A4460008E4460008FFFFFFF736
:10049000F0B54F464646D64643025B0A4500C0B516
:1004A00099460F1C2D0EC60F002D00D188E0FF2DA0
:1004B00000D18DE08022DB00D2041A430023914654
:1004C00098469A467F3D7C027B00640A1B0EFF0F14
:1004D000002B68D0FF2B21D08022E400D2041443EB
:1004E00042467F3B5B1900215D1C0A2A2EDC7E40C0
:1004F0004246022A23DC013A012A00D9BDE0022942
:100500006ED001292CD100200022C005F60710432F
:100510003043E0BCBA46B146A846F0BD2B00FF33DD
:10052000002C65D003224146114332000135884634
:100530007A40FF350A2900DDD8E016000321404645
:1005400001228240A620C000024220D05346022B46
:1005500046D0032B00D1BBE051464C460129D2D0F6
:100560002B007F33002B70DD620704D00F22224066
:10057000042A00D00434220103D5634B1C402B0015
:100580008033FE2B2CDCA201520AD8B2BDE79020AA
:100590008000024227D1B938FF3810426DD03E00AA
:1005A000A1468A46D2E7002C41D1012342461A4394
:1005B00090462B00424601215D1C0A2A97DDC5E7C3
:1005C000002B26D104239846033B00259A467AE760
:1005D000002B18D108239846063BFF259A4672E760
:1005E000FF20002291E780220026FF20D2038CE723
:1005F00041460222013511438846FF350A29A5DC10
:1006000002217E4074E70C239846093BFF259A4659
:1006100059E7180000F0C4FA4A46431F76259A406D
:1006200000236D42914698469A462D1A4BE72000CA
:1006300000F0B6FA4246431F9C402B1A763B00213D
:100640005D1C0A2A00DC52E780E70122D31A1B2B2B
:1006500000DD58E79E352200AC40DA40631E9C4125
:100660002243530704D00F231340042B00D004323D
:10067000530137D50120002247E7210C4A462404C4
:10068000240C2700100C1204120C44435743484317
:1006900051433A0C09195218944203D98021490256
:1006A0008C4660443F0411043F0CC9198C01671E3D
:1006B000BC41120C890E12180C4392011443120112
:1006C0000ED5012362081C40144349E73E00A146B1
:1006D00080224B46D2031A435202FF20520A14E7EB
:1006E0001D003DE792010020520A0EE70F29EDD1CF
:1006F00080224B46D2031342EAD01442E8D13E0096
:10070000FF20224301E7C046FFFFFFF7F8B5474649
:10071000CE464E0243024500720AC40F480080B51F
:1007200094465F0A2D0E9B09000EC90FB609FF28DB
:1007300024D0012251402A1A8C420FD0002A00DC1A
:100740006AE1002835D1002E00D1A2E0511E012A15
:1007500000D124E1FF2A21D00A002FE0002A00DC8A
:1007600067E100285ED0FF2D18D08021C9040E4318
:100770001B2A00DC76E02A00013332E02A00FF3A2F
:100780009146002E42D08C4255D04A46002A00D1D4
:100790009CE0002D00D177E00C003300DB08002B3B
:1007A00000D16EE08022D20313435B02FF205B0A7C
:1007B00024E0FF2DF2D08021C9040E4301211B2A21
:1007C00008DC31002020D140821A96403200501EB1
:1007D000824111435B1A5A0160D407212A00194053
:1007E00057D00F211940042900D00433590150D5A6
:1007F000501CFE2A45D09B01C0B25B0AC0051843BD
:10080000E4072043C0BCB946B046F8BD01225140C0
:100810008C42BAD14A46002A10D0002D00D198E06F
:100820000023BBE7002E34D0511E012A6ED0FF2AD0
:10083000B4D00A009CE7002A00D088E0FE206A1CA1
:10084000104200D092E0002D00D0A4E0002B00D197
:10085000CBE0002E00D0CAE00022DB085B025B0A7E
:10086000D0B2CBE731002020D140821A964032002E
:10087000501E82410A439B185A01AED56A1CFE2DB8
:100880004AD1FF200023B9E7FF22002B4BD10C00F7
:100890003300DB08FF2A00D181E7DFE79F01BF09B2
:1008A000380000F07DF905388740854221DC3B00A7
:1008B0002021421B0132D3408A1A97407A1E974169
:1008C00000223B43590700D08BE78FE7FE206A1CCC
:1008D000104212D1002D52D1002B7CD0002EBBD063
:1008E0009A1B500100D48BE001240022F31A0C4023
:1008F000E8E7564B2A1A3B40E4E79F1B7A0146D4AF
:10090000002FCDD100240020002377E79B1901257B
:100910000132590100D460E701214D4819405B08BC
:1009200003400B43CEE7571E012A5AD00C00FF2A82
:1009300033D001221B2F07DC2021C91B1A008B405A
:10094000FA40591E8B411A430500B31A43E7002DA4
:1009500023D1FF22002B9BD0511E012AD6D0FF2A83
:100960001BD01B292CDD0200731C3AE7FF2A88D01C
:100970009B195B08590700D033E7DB086EE7002BB3
:1009800010D1002E43D0012433000C4006E701248F
:10099000F71A0C4084E7002B04D13300FEE6012552
:1009A0009B1B18E7002E00D1F8E68022D203974265
:1009B00004D3944502D2012433000C40DB08F1E655
:1009C0001A002025CA40691A8B40591E8B411343D7
:1009D00005009B1950E7002E94D0012433000C40F1
:1009E0003AE70C000125F31AF5E6330034E79B19CA
:1009F00000225901C1D5154A1340DB0801222DE719
:100A0000002A00D17EE713000022DB0826E78023BE
:100A10000024FF20DB03F1E6002A00D156E7471B44
:100A20003A00002D00D130E78022D2040C0013439D
:100A30007FE7002A00D101E7411B002D01D10A0008
:100A400088E78022D20413438BE7C046FFFFFFFBF9
:100A5000FFFFFF7D41024200C30F490A0020120E32
:100A60007E2A03DD9D2A02DD094A981870478020FE
:100A700000040143952A07DC9620821AD14048429F
:100A8000002BF3D10800F1E7963A9140F7E7C04612
:100A9000FFFFFF7F70B5002813D0C317C5185D4056
:100AA000C40F280000F07CF89E2301001B1A962B2F
:100AB0000FDC082834D008398D406D026D0AD8B299
:100AC00002E0002400200025C0052843E40720435D
:100AD00070BD992B16DC421F052800D095402A00D6
:100AE000114802406E0709D00F263540042D05D06D
:100AF0000432550102D59F2302405B1A9201550A28
:100B0000D8B2E1E70522121A2800D04002000800FE
:100B10001B3085402800451EA84102431500DEE732
:100B20006D0296206D0ACFE7FFFFFFFB84460800A9
:100B30006146FFE71FB500F0C9F8002801D4002185
:100B4000C8421FBD10B500F049F84042013010BD49
:100B500010B500F0BBF8002801DB002010BD01201B
:100B600010BDC04610B500F0B1F8002801DD00202E
:100B700010BD012010BDC04610B500F057F8002888
:100B800001DC002010BD012010BDC04610B500F0F2
:100B90004DF8002801DA002010BD012010BDC0462C
:100BA0001C2101231B04984201D3000C10391B0A9D
:100BB000984201D3000A08391B09984201D3000961
:100BC000043902A2105C40187047C04604030202B8
:100BD00001010101000000000000000070B54200AA
:100BE0004E024C0045026D0A120EC30F760A240E07
:100BF000C90FFF2A10D0FF2C0CD00120A2420AD12D
:100C0000B54208D18B420FD0002A04D12800431EE0
:100C1000984100E0012070BD0120FF2CFBD135433D
:100C2000F9D14B401800F6E70020F4E730B5420058
:100C300044024D02C30F4800640A120E6D0A000EF2
:100C4000C90FFF2A19D0FF280BD0002A1ED1002877
:100C50000BD1002D27D0002C34D100292FD0080033
:100C600030BD002D28D1002A01D1002CF5D08B42B7
:100C700007D1002B23D01800F2E7002C1CD1FF284D
:100C800014D0581E022318400138E9E70028F8D094
:100C90008B42F6D18242F4DCEBDBAC42F1D800208F
:100CA000AC42DDD2E5E7002CDAD0EAE7002D03D133
:100CB0008B42E6D10020D3E702204042D0E701205A
:100CC0004042CDE78B42E8D0DBE7C04630B542007A
:100CD00044024D02C30F4800640A120E6D0A000E52
:100CE000C90FFF2A1AD0FF280ED0002A1ED10028D3
:100CF0000ED1002D2AD0002C0CD08B421DD0581EB6
:100D000002231840013810E0002D0DD1002A20D117
:100D1000002C1ED1002923D0080006E0002C03D1AE
:100D2000FF28ECD1002D17D0022030BD0028E6D0DE
:100D30008B42E4D18242E2DC04DBAC42DFD800200B
:100D4000AC42F2D2002B0BD01800EEE7002CECD016
:100D5000D5E78B42D3D1F5E700208B42E5D0CEE733
:100D600001204042E1E7C04680B582B000AF0200FA
:100D7000FB1D1A70042001F02DFAFB1D1A78034B9D
:100D80001A60C046BD4602B080BDC0464C0000207F
:100D900080B588B000AF78600023BB61184B5B68FA
:100DA0007B61184B1A687B6853433B61144B9B680B
:100DB000FB61134B9B68FB60FA68FB699A42F8D0B1
:100DC000FA68FB699A4206D2FA69FB68D31ABA69D3
:100DD000D318BB6107E07A69FB68D21AFB69D318A4
:100DE000BA69D318BB61FB68FB61BA693B699A4277
:100DF00000D2DEE7C046C046BD4608B080BDC04652
:100E000010E000E04C00002090B58DB000AF01F084
:100E10007BF800F053F900F0B5FA00F095FA00F015
:100E2000AFF900F063FA3020FFF79EFF00F068FD95
:100E30003B1D962252001A812B23FB1800221A70A8
:100E400000F01AFE072000F0DBFE03001A008A4BB8
:100E50001A60082000F0D4FE03001A00874B1A60C5
:100E6000052000F0CDFE03001A00854B1A60062015
:100E700000F0C6FE03001A00824B1A6000F07AFEF2
:100E800003001A00804B1A607B4B18687B4B196873
:100E90007B4B1A687B4B1B682B243C1900F00AFD26
:100EA00003002370744B1B68DBB2180000F0B2FA29
:100EB00003001A003B1DDA80704B1B68DBB2180080
:100EC00000F0A8FA03001A00704B9B1A9AB23B1D5F
:100ED0009A806B4B1B68DBB2180000F09BFA030092
:100EE0001A003B1D1A80674B1B68DBB2180000F02C
:100EF00091FA03001A003B1D5A80634B1B68043BA8
:100F00000B2B3CD89A00624BD3181B689F463B1DA5
:100F1000962292005A8137E03B1DAF2292005A81FF
:100F200032E03B1DC82292005A812DE03B1DE12298
:100F300092005A8128E03B1DFA2292005A8123E058
:100F40003B1D544A5A811FE03B1D9622D2005A8114
:100F50001AE03B1D504A5A8116E03B1DAF22D200D9
:100F60005A8111E03B1D4D4A5A810DE03B1DC822BC
:100F7000D2005A8108E03B1D494A5A8104E03B1DDA
:100F8000962252005A81C0463F4B1B68DBB21800C4
:100F900000F040FA03001A0028217B1891321A80D1
:100FA0007B181A88FA235B009A4214D93D4B1B78B0
:100FB000002B10D12B23FB181B78002B0BD03A4BA6
:100FC0001B785A425341DBB21A00374B1A70354B2B
:100FD00001221A7009E02823FB181A88FA235B0003
:100FE0009A4202D82F4B00221A702B23FB181B7831
:100FF00001225340DBB2002B02D02B4B00221A708F
:10100000294B1B78002B04D03B1D822292001A81B1
:1010100003E03B1D962252001A810623FB6208E082
:101020003B1DFA6A52008021C900D152FB6A01338C
:10103000FB62FB6A0F2BF3DD1C4A3B1D00211800ED
:1010400000F026FA2723FC1801235B4217491848B1
:10105000192202F0FDFE03002370322000F0B8FFD9
:10106000144B2021180001F07FFB134B1B78013338
:10107000DAB2114B1A70E3E6680100206C0100201F
:10108000700100207401002078010020FF0700009B
:10109000204700084C04000014050000DC05000097
:1010A000A406000095010020960100207C0100208C
:1010B000DC000020000400486401002090B595B0D9
:1010C00000AF20243B19180030231A00002103F040
:1010D000B1FA1023FB18180010231A00002103F0A6
:1010E000A9FA3B00180010231A00002103F0A2FA0D
:1010F00021007B1802221A607B180122DA607B181B
:1011000010221A617B1802221A627B1800225A628E
:101110007B18A02292039A627B180022DA627B1865
:10112000180001F03DFB031E01D000F0BDFB1021B3
:101130007B1807221A607B1802225A607B18002253
:101140009A607B180022DA607B180121180001F0F8
:1011500041FE031E01D000F0A7FB3B0001221A60F4
:101160003B0000229A603B00180001F077FF031E4D
:1011700001D000F099FBC046BD4615B090BD0000FF
:1011800080B596B000AF4823FB18180010231A0052
:10119000002103F04FFA4023FB18180008231A001F
:1011A000002103F047FA2423FB1818001C231A001F
:1011B000002103F03FFA3B1D180020231A000021F4
:1011C00003F038FA464B474A1A60454B00225A60F2
:1011D000434B00229A60424B434ADA60404B002264
:1011E0001A613F4B00225A613D4B00229A613C4BF1
:1011F000180002F001F8031E01D000F055FB482151
:101200007B18802252011A607A18354B11001800A1
:1012100002F060F9031E01D000F046FB304B1800CD
:1012200002F03AF8031E01D000F03EFB40217B188B
:1012300000221A607B1800225A607A18284B11008D
:10124000180002F001FD031E01D000F02DFB242147
:101250007B1860221A607B1800225A607B180022DB
:101260009A607B180022DA607B1800221A617B18D2
:1012700000225A617B1800229A617918184B0022CB
:10128000180002F061F8031E01D000F00DFB3B1DB9
:1012900000221A603B1D00225A603B1D00229A600A
:1012A0003B1D0022DA603B1D00221A613B1D80229B
:1012B00092015A613B1D0022DA613A1D084B110070
:1012C000180002F013FD031E01D000F0EDFA044BEC
:1012D000180000F037FDC046BD4616B080BDC046C0
:1012E00050000020002C0140FFFF000080B500AF3F
:1012F000134B144A1A60124B962212025A60104B7A
:10130000802252019A600E4B80229201DA600C4BCF
:101310008022D2001A610A4B0C225A61084B00222B
:101320009A61074B0022DA61054B180002F03CFD80
:10133000031E01D000F0B8FAC046BD4680BDC046CD
:10134000DC0000200038014080B582B000AF0C4BBB
:101350005A690B4B01210A435A61094B5B6901220F
:1013600013407B607B68002200210B2000F000FF0F
:101370000B2000F012FFC046BD4602B080BDC04643
:101380000010024090B589B000AF0C243B19180042
:1013900014231A00002103F04DF91C4B5A691B4B12
:1013A000802189020A435A61184B5A6980239B02A3
:1013B0001340BB60BB68154B5A69144B8021C902AE
:1013C0000A435A61114B5A698023DB0213407B6048
:1013D0007B680F4B0022E121180001F0A8F92100E1
:1013E0007B18E1221A607B1801225A607B180022C8
:1013F0009A607B180022DA607B18054A19001000F9
:1014000001F008F8C046BD4609B090BD001002408A
:101410000004004880B584B000AF0200FB1D1A70C4
:10142000FB1D1B781800FFF735FB031C1549181C22
:10143000FEF70EFF031C1449181CFFF729F8031CC4
:10144000181CFEF7EDFE03009AB20E217B18F03255
:101450001A807B181B88EF2B02D87B18F0221A8089
:101460000E217B181A88E223DB009A4202D37B18F4
:10147000064A1A800E23FB181B881800BD4604B0CC
:1014800080BDC04600007F4300E0C3440F0700005A
:1014900090B585B000AFF8607A600B243B190A1C48
:1014A0001A707B6819220021180003F0C3F87B68CA
:1014B0000F221A70FB681A887B680133D2B21A7047
:1014C000FB681B881B0A9BB2DAB27B6802330721D8
:1014D0000A40D2B21A707B6802331B785AB2FB689A
:1014E00002331B88DB005BB213435AB27B680233C2
:1014F000D2B21A70FB6802331B885B099BB2DAB266
:101500007B6803333F210A40D2B21A707B680333F1
:101510001B785AB2FB6804331B889B015BB21343F0
:101520005AB27B680333D2B21A70FB6804331B884B
:101530009B089AB27B680433D2B21A707B68053379
:101540001B785AB2FB6804331B889B0A9BB25BB2C0
:1015500001210B405BB213435AB27B680533D2B210
:101560001A707B6805331B785AB2FB6806331B88F8
:101570005B005BB213435AB27B680533D2B21A7078
:10158000FB6806331B88DB099BB2DAB27B68063343
:101590000F210A40D2B21A707B6806331B785AB208
:1015A000FB6808331B881B015BB213435AB27B688C
:1015B0000633D2B21A70FB6808331B881B099BB232
:1015C000DAB27B6807337F210A40D2B21A707B6897
:1015D00007331B785AB2FB680A331B88DB015BB206
:1015E00013435AB27B680733D2B21A70FB680A33CE
:1015F0001B885B089AB27B680833D2B21A70FB680A
:101600000A331B885B0A9BB2DAB27B680933032179
:101610000A40D2B21A707B6809331B785AB2FB6851
:101620000C331B889B005BB213435AB27B680933AF
:10163000D2B21A70FB680C331B889B099BB2DAB2DA
:101640007B680A331F210A40D2B21A707B680A33C2
:101650001B785AB2FB680E331B885B015BB21343E5
:101660005AB27B680A33D2B21A70FB680E331B88F9
:10167000DB089AB27B680B33D2B21A70FB68103366
:101680001A887B680C33D2B21A70FB6810331B883F
:101690001B0A9BB2DAB27B680D3307210A40D2B233
:1016A0001A707B680D331B785AB2FB6812331B88A3
:1016B000DB005BB213435AB27B680D33D2B21A70AF
:1016C000FB6812331B885B099BB2DAB27B680E336E
:1016D0003F210A40D2B21A707B680E331B785AB28F
:1016E000FB6814331B889B015BB213435AB27B68BF
:1016F0000E33D2B21A70FB6814331B889B089AB25F
:101700007B680F33D2B21A707B6810331B785AB2E1
:10171000FB6814331B889B0A9BB25BB203210B400E
:101720005BB213435AB27B681033D2B21A707B6833
:1017300010331B785AB2FB6816331B885B005BB210
:1017400013435AB27B681033D2B21A70FB68163357
:101750001B88DB099BB2DAB27B6811330F210A4088
:10176000D2B21A707B6811331B785AB2FB681833F7
:101770001B881B015BB213435AB27B681133D2B290
:101780001A70FB6818331B881B099BB2DAB27B689E
:1017900012337F210A40D2B21A707B6812331B7851
:1017A0005AB2FB681A331B88DB015BB213435AB28F
:1017B0007B681233D2B21A70FB681A331B885B083D
:1017C0009AB27B681333D2B21A707B6814331B78D9
:1017D0005AB2FB681A331B885B0A9BB25BB20321C7
:1017E0000B405BB213435AB27B681433D2B21A7007
:1017F0007B6814331B785AB2FB681C331B889B0030
:101800005BB213435AB27B681433D2B21A70FB68CE
:101810001C331B889B099BB2DAB27B6815331F21EE
:101820000A40D2B21A707B6815331B785AB2FB6833
:101830001E331B885B015BB213435AB27B681533BE
:10184000D2B21A70FB681E331B88DB089AB27B6821
:101850001633D2B21A707B68173300221A703B1904
:101860001B780122134008D07B6817331A787B68F5
:10187000173301210A43D2B21A700B23FB181B78CD
:101880000222134008D07B6817331A787B6817331D
:1018900002210A43D2B21A707B68183300221A70F0
:1018A000C046BD4605B090BD80B500AF72B6C0461B
:1018B000C046FDE780B584B000AFF860B9607A60DB
:1018C0003B60FB68002B08D1BB68002B05D17B680F
:1018D000002B02D13B68002B0BD0FB68FF2B0AD1F9
:1018E000BB68FF2B07D17B68FF2B04D13B68FF2B24
:1018F00001D1002300E001231800BD4604B080BDE3
:1019000090B589B000AF0C243B19180014231A00BD
:10191000002102F08FFE214B5A69204B8021890261
:101920000A435A611D4B5A6980239B021340BB60D6
:10193000BB681A4B5A69194B8021C9020A435A6184
:10194000164B5A698023DB0213407B607B683B198E
:10195000A0221A603B1901225A603B1900229A60AA
:101960003B190022DA603A199023DB0511001800B8
:1019700000F050FD3B1940221A603B1900225A60CA
:101980003B1900229A603A199023DB0511001800D8
:1019900000F040FDC046BD4609B090BD00100240B9
:1019A00080B584B000AF0200FB1D1A700E217B18B9
:1019B00001221A802F4B00225A707B1801221A80B4
:1019C0004DE00E23FB181B889BB21A00FB1D1B78F1
:1019D000134007D09023DB0501228021180000F07E
:1019E000A6FE06E09023DB0500228021180000F00F
:1019F0009EFE9023DB0501222021180000F097FEB7
:101A00003220FFF7C5F99023DB05002220211800C2
:101A100000F08DFE3220FFF7BBF99023DB05012299
:101A20002021180000F083FE9023DB0540211800E0
:101A300000F060FE031E0AD00E23FB181B889BB229
:101A4000DAB20C4B5B781343DAB20A4B5A700E21B0
:101A50007B181B889BB2DB189AB27B181A800E2366
:101A6000FB181B889BB2FF2BABD9C046C046BD46B6
:101A700004B080BD9C01002080B582B000AFFB1D8A
:101A800000221A703B1D01221A80374B00220121CF
:101A9000180000F04CFE354B1B781800FFF780FF54
:101AA000324B5B781800FFF77BFFFB1D02221A7098
:101AB0004AE03B1D01221A8037E09023DB0501221A
:101AC0002021180000F033FE9023DB0500222021A6
:101AD000180000F02CFE3220FFF75AF99023DB05A6
:101AE00001222021180000F022FE9023DB05402176
:101AF000180000F0FFFD031E10D03B1D1B889BB299
:101B0000DAB2FB1D1B78DBB21900194B5B5CF91DC7
:101B10000978C9B21343DAB2154B5A543B1D1B88DE
:101B20009BB2DB189AB23B1D1A803B1D1B889BB2EF
:101B3000FF2BC2D93220FFF72BF9FB1D1B78DBB23C
:101B40000133DAB2FB1D1A70FB1D1B78DBB2082BC8
:101B5000AFD9054B01220121180000F0E8FDC04675
:101B6000BD4602B080BDC046000400480000002011
:101B70009C01002080B582B000AFBB1D00221A700E
:101B800000F04EF8FFF778FF1A4B1B791B021AB2D0
:101B9000184BDB781BB213431BB29AB2164B1A8058
:101BA000FB1D00221A701BE0134B1B881900FB1D44
:101BB0001A78124B5200D35A013B19410B000122F3
:101BC000134008D1FA1DBB1D12781B78D318DAB266
:101BD000BB1D01321A70FB1D1A78FB1D01321A70F1
:101BE000FB1D1B780F2BDFD9BB1D1B781800BD46D2
:101BF00002B080BD9C01002098010020040000205C
:101C000080B582B000AF0200FB1D1A70FB1D1B786F
:101C1000024AD35C1800BD4602B080BD9C01002082
:101C200080B582B000AFFB1D00221A7009E0FB1DD9
:101C30001B78084A0021D154FB1D1A78FB1D013284
:101C40001A70FB1D1B78082BF1D9C046C046BD4653
:101C500002B080BD9C01002080B582B000AF0F4B68
:101C60009A690E4B01210A439A610C4B9B69012230
:101C700013407B607B68094BDA69084B802149057A
:101C80000A43DA61054BDA6980235B0513403B6048
:101C90003B68C046BD4602B080BDC0460010024051
:101CA00080B584B000AF78607B681B68214A93429E
:101CB0003BD1214B9A69204B802109010A439A614B
:101CC0001D4B9A6980231B011340FB60FB681B4B73
:101CD0001B4A1A60194B00225A60184B00229A6066
:101CE000164B8022DA60154B802252001A61134B8A
:101CF0008022D2005A61114B00229A610F4B0022C0
:101D0000DA610E4B180000F07FFA031E01D0FFF7D6
:101D1000CBFD7B68094ADA62084B7A685A627B68B5
:101D2000064A1A62054B7A685A62C046BD4604B03C
:101D300080BDC046002C01400010024098000020E9
:101D40005800024090B589B000AF78600C243B1970
:101D5000180014231A00002102F06CFC7B681B6839
:101D6000164A934225D1164B5A69154B8021890298
:101D70000A435A61124B5A6980239B021340BB608D
:101D8000BB683B19802252001A6021007B18022296
:101D90005A607B1800229A607B180022DA607B1858
:101DA00002221A617A189023DB051100180000F056
:101DB00031FBC046BD4609B090BDC046002C014075
:101DC0000010024090B58BB000AF786014243B192E
:101DD000180014231A00002102F02CFC7B681B68F9
:101DE0001D4A934233D11D4B9A691C4B8021C90176
:101DF0000A439A61194B9A698023DB0113403B61C6
:101E00003B69164B5A69154B802189020A435A6176
:101E1000124B5A6980239B021340FB60FB683B19FD
:101E2000C022D2001A6021007B1802225A607B185F
:101E300000229A607B180322DA607B1801221A6163
:101E40007A189023DB051100180000F0E3FAC04671
:101E5000BD460BB090BDC0460038014000100240A6
:101E600080B500AFC046FDE780B500AFC046FDE7D6
:101E700080B500AFC046BD4680BD80B500AFC0464E
:101E8000BD4680BD80B500AF00F086F8C046BD46B7
:101E900080BD000080B500AF034B180000F0FCF9D6
:101EA000C046BD4680BDC046980000200D4885460E
:101EB00000F025F80C480D490D4A002302E0D458E3
:101EC000C4500433C4188C42F9D30A4A0A4C002384
:101ED00001E013600432A242FBD302F0B3FBFEF731
:101EE00093FFFEE7001000200000002030000020DB
:101EF0009047000830000020AC010020FEE780B5CC
:101F000000AFC046BD4680BD80B500AF074B1A6824
:101F1000064B10210A431A60032000F009F8FFF76E
:101F20009BFE00231800BD4680BDC0460020024035
:101F300090B583B000AF7860144B1C68144B1B78CD
:101F40001900FA239800FEF7DFF8030019002000BB
:101F5000FEF7DAF80300180000F02FF9031E01D095
:101F600001230FE07B68032B0BD8796801235B42C8
:101F70000022180000F0FCF8064B7A681A60002373
:101F800000E001231800BD4603B090BD24000020EE
:101F90002C0000202800002080B500AF054B1B78E6
:101FA0001A00054B1B68D218034B1A60C046BD4689
:101FB00080BDC0462C000020A801002080B500AFE5
:101FC000024B1B681800BD4680BDC046A80100201A
:101FD00080B584B000AF7860FFF7F0FF0300BB600E
:101FE0007B68FB60FB68013305D00A4B1B781A0045
:101FF000FB689B18FB60C046FFF7E0FF0200BB6870
:10200000D31AFA689A42F7D8C046C046BD4604B013
:1020100080BDC0462C00002080B582B000AF020019
:10202000FB1D1A70FB1D1B787F2B09D8FB1D1B782D
:102030001A001F231A40044B012191400A001A6024
:10204000C046BD4602B080BD00E100E090B583B05F
:1020500000AF02003960FB1D1A70FB1D1B787F2B3F
:1020600028D82F4AFB1D1B785BB29B08C0339B000E
:102070009B58FA1D1278110003220A40D200FF215A
:1020800091400A00D2431A4011003B689B01FF2295
:102090001A40FB1D1B78180003230340DB009A4005
:1020A0001F48FB1D1B785BB29B080A43C0339B0093
:1020B0001A5031E01B4AFB1D1B7819000F230B40FF
:1020C000083B9B0806339B00D31804331B68FA1D9A
:1020D0001278110003220A40D200FF2191400A0029
:1020E000D2431A4011003B689B01FF221A40FB1D9E
:1020F0001B78180003230340DB009A400948FB1DAE
:102100001B781C000F232340083B9B080A4306331F
:102110009B00C31804331A60C046BD4603B090BD8F
:1021200000E100E000ED00E080B582B000AF786033
:102130007B685A1E80235B049A4201D3012310E07E
:102140000A4B7A68013A5A6001235B420321180066
:10215000FFF77CFF054B00229A60044B07221A60B0
:1021600000231800BD4602B080BDC04610E000E06C
:1021700080B584B000AFB9607A600F217B18021C73
:102180001A70BA687B181B785BB211001800FFF751
:102190005DFFC046BD4604B080BD80B582B000AFD3
:1021A0000200FB1D1A70FB1D1B785BB21800FFF7C5
:1021B00033FFC046BD4602B080BD80B582B000AFDF
:1021C00078607B681800FFF7AFFF03001800BD467A
:1021D00002B080BD80B582B000AF78607B68042B10
:1021E00006D1084B1A68074B04210A431A6005E020
:1021F000044B1A68034B04218A431A60C046BD464B
:1022000002B080BD10E000E080B584B000AF78601F
:102210000023FB607B68002B01D1012336E07B6843
:102220002122022199547B681B681B68FB60FB68B4
:10223000184A1340FB607B685A687B689B681A43A6
:102240007B68DB681A437B681B691A437B685B69A0
:102250001A437B689B691A437B68DB691343FA68FE
:102260001343FB607B681B68FA681A607B68180080
:1022700000F0B4F87B6800229A637B682122012178
:1022800099547B6820220021995400231800BD46F0
:1022900004B080BD0FC0FFFF80B584B000AF786090
:1022A0007B68DB6B1B68FB607B681B681B68BB6023
:1022B0007B681B6C04229A401300FA68134024D0F8
:1022C000BB680422134020D07B681B681B68202257
:1022D000134007D17B681B681A687B681B68042160
:1022E0008A431A607B681A6C7B68DB6B042191401F
:1022F0000A005A607B68DB6A002B00D16AE07B68C9
:10230000DB6A7A681000984764E07B681B6C0222E5
:102310009A401300FA6813402BD0BB680222134086
:1023200027D07B681B681B68202213400BD17B6879
:102330001B681A687B681B680A218A431A607B68DD
:102340002122012199547B681A6C7B68DB6B022186
:1023500091400A005A607B682022002199547B68D2
:102360009B6A002B36D07B689B6A7A68100098477E
:1023700030E07B681B6C08229A401300FA68134017
:1023800028D0BB680822134024D07B681B681A68D9
:102390007B681B680E218A431A607B681A6C7B6815
:1023A000DB6B012191400A005A607B6801229A632D
:1023B0007B682122012199547B68202200219954B5
:1023C0007B681B6B002B05D07B681B6B7A68100049
:1023D0009847FFE7C046BD4604B080BD80B582B0D7
:1023E00000AF78607B681B68084A944663441421F8
:1023F0001800FDF789FE03009A007B681A647B6869
:10240000034ADA63C046BD4602B080BDF8FFFDBF97
:102410000000024080B586B000AF786039600023CC
:102420007B614FE13B681B6801217A6991400A009A
:102430001340FB60FB68002B00D140E13B685B6808
:1024400003221340012B05D03B685B680322134035
:10245000022B30D17B689B683B617B695B00032268
:102460009A401300DA433B6913403B613B68DA68EA
:102470007B695B009A4013003A6913433B617B68B8
:102480003A699A607B685B683B6101227B699A408C
:102490001300DA433B6913403B613B685B681B09EF
:1024A00001221A407B699A4013003A6913433B6149
:1024B0007B683A695A603B685B6803221340032BD0
:1024C00017D07B68DB683B617B695B0003229A4025
:1024D0001300DA433B6913403B613B689A687B69B0
:1024E0005B009A4013003A6913433B617B683A6989
:1024F000DA603B685B6803221340022B23D17B69BF
:10250000DA087B6808329200D3583B617B69072266
:1025100013409B000F229A401300DA433B6913409B
:102520003B613B681A697B6907210B409B009A401D
:1025300013003A6913433B617B69DA087B68083210
:1025400092003969D1507B681B683B617B695B00F5
:1025500003229A401300DA433B6913403B613B6816
:102560005B6803221A407B695B009A4013003A695A
:1025700013433B617B683A691A603B685A68C02321
:102580009B02134000D19AE0544B9A69534B0121AE
:102590000A439A61514B9B6901221340BB60BB689F
:1025A0004F4A7B699B0802339B009B583B617B69C8
:1025B000032213409B000F229A401300DA433B6929
:1025C00013403B617A689023DB059A4213D07B6805
:1025D000444A93420DD07B68434A934207D07B68BC
:1025E000424A934201D1032306E0052304E002237B
:1025F00002E0012300E000237A6903210A409200EF
:1026000093403A6913433B6135497B699B08023328
:102610009B003A695A50364B9B683B61FB68DA4332
:102620003B6913403B613B685A6880235B0313405E
:1026300003D03A69FB6813433B612D4B3A699A60BA
:102640002B4BDB683B61FB68DA433B6913403B6122
:102650003B685A6880239B03134003D03A69FB68A8
:1026600013433B61224B3A69DA60214B5B683B6163
:10267000FB68DA433B6913403B613B685A6880233F
:102680009B02134003D03A69FB6813433B61184B2C
:102690003A695A60164B1B683B61FB68DA433B6939
:1026A00013403B613B685A6880235B02134003D0B0
:1026B0003A69FB6813433B610D4B3A691A607B69C9
:1026C00001337B613B681A687B69DA40131E00D0D6
:1026D000A8E6C046C046BD4606B080BD0010024018
:1026E000000001400004004800080048000C0048B9
:1026F0000004014080B584B000AF78600A00BB1CC4
:102700001A807B681B69BA1C1288134004D00F23FF
:10271000FB1801221A7003E00F23FB1800221A7025
:102720000F23FB181B781800BD4604B080BD80B590
:1027300082B000AF786008001100BB1C021C1A8038
:102740007B1C0A1C1A707B1C1B78002B04D0BB1C42
:102750001A887B689A6103E0BB1C1A887B689A62BE
:10276000C046BD4602B080BD80B584B000AF786081
:102770000A00BB1C1A807B685B69FB60BB1C1B8862
:10278000FA6813401A04FB68DB43B91C09880B4044
:102790001A437B689A61C046BD4604B080BD000004
:1027A00080B588B000AF78607B68002B01D1012331
:1027B00001E37B681B680122134000D18DE0C34B0D
:1027C0005B680C221340042B0ED0C04B5B680C22BC
:1027D0001340082B16D1BD4B5A6880235B021A4068
:1027E00080235B029A420DD1B84B1A6880239B026A
:1027F000134000D170E07B685B68002B00D06BE079
:102800000123D8E27B685B68012B07D1AF4B1A68C4
:10281000AE4B802149020A431A602FE07B685B6857
:10282000002B0CD1A94B1A68A84BA9490A401A6081
:10283000A64B1A68A54BA7490A401A601EE07B68A0
:102840005B68052B0ED1A14B1A68A04B8021C902F1
:102850000A431A609D4B1A689C4B802149020A4327
:102860001A600BE0994B1A68984B99490A401A6014
:10287000964B1A68954B97490A401A607B685B68CB
:10288000002B14D0FFF79AFB0300BB6108E0FFF7B1
:1028900095FB0200BB69D31A642B01D903238AE29A
:1028A0008A4B1A6880239B021340F0D015E0FFF793
:1028B00085FB0300BB6108E0FFF780FB0200BB69FA
:1028C000D31A642B01D9032375E2804B1A68802345
:1028D0009B021340F0D100E0C0467B681B680222D7
:1028E000134000D169E0794B5B680C2213400BD098
:1028F000764B5B680C221340082B1CD1734B5A6833
:1029000080235B02134016D1704B1B6802221340D8
:1029100005D07B68DB68012B01D001234BE26B4BB8
:102920001B68F822934319007B681B69DA00674B28
:102930000A431A6041E07B68DB68002B24D0634BBC
:102940001A68624B01210A431A60FFF737FB030044
:10295000BB6108E0FFF732FB0200BB69D31A022B10
:1029600001D9032327E2594B1B6802221340F1D0FF
:10297000564B1B68F822934319007B681B69DA00E9
:10298000524B0A431A6018E0504B1A684F4B012112
:102990008A431A60FFF712FB0300BB6108E0FFF7F0
:1029A0000DFB0200BB69D31A022B01D9032302E2FB
:1029B000464B1B6802221340F1D17B681B6808223A
:1029C000134036D07B68DB69002B19D03F4B5A6A25
:1029D0003E4B01210A435A62FFF7F0FA0300BB6144
:1029E00008E0FFF7EBFA0200BB69D31A022B01D90A
:1029F0000323E0E1354B5B6A02221340F1D018E07B
:102A0000324B5A6A314B01218A435A62FFF7D6FA98
:102A10000300BB6108E0FFF7D1FA0200BB69D31ADB
:102A2000022B01D90323C6E1284B5B6A0222134023
:102A3000F1D17B681B680422134000D1B4E01F2051
:102A40003B1800221A70214BDA6980235B05134082
:102A500010D11E4BDA691D4B802149050A43DA610A
:102A60001A4BDA6980235B051340FB60FB683B1857
:102A700001221A70184B1A6880235B0013401AD188
:102A8000154B1A68144B802149000A431A60FFF75E
:102A900095FA0300BB6108E0FFF790FA0200BB69FA
:102AA000D31A642B01D9032385E10B4B1A688023C9
:102AB0005B001340F0D07B689B68012B0ED1034B69
:102AC0001A6A024B01210A431A6235E000100240E3
:102AD000FFFFFEFFFFFFFBFF007000407B689B686D
:102AE000002B0CD1B64B1A6AB54B01218A431A62EE
:102AF000B34B1A6AB24B04218A431A621CE07B680A
:102B00009B68052B0CD1AE4B1A6AAD4B04210A43CE
:102B10001A62AB4B1A6AAA4B01210A431A620BE0F4
:102B2000A74B1A6AA64B01218A431A62A44B1A6A60
:102B3000A34B04218A431A627B689B68002B14D044
:102B4000FFF73CFA0300BB6109E0FFF737FA020028
:102B5000BB69D31A9B4A934201D903232BE1984BBB
:102B60001B6A02221340F0D013E0FFF727FA03009C
:102B7000BB6109E0FFF722FA0200BB69D31A914A50
:102B8000934201D9032316E18D4B1B6A02221340A5
:102B9000F0D11F23FB181B78012B05D1884BDA6974
:102BA000874B89490A40DA617B681B681022134011
:102BB00063D07B685B69012B2AD1814B5A6B804BB8
:102BC00004210A435A637E4B5A6B7D4B01210A4311
:102BD0005A63FFF7F3F90300BB6108E0FFF7EEF972
:102BE0000200BB69D31A022B01D90323E3E0744B23
:102BF0005B6B02221340F1D0714B5B6BF822934365
:102C000019007B689B69DA006D4B0A435A6334E014
:102C10007B685B69053311D1694B5A6B684B0421A2
:102C20008A435A63664B5B6BF822934319007B68B7
:102C30009B69DA00624B0A435A631EE0604B5A6B91
:102C40005F4B04210A435A635D4B5A6B5C4B012175
:102C50008A435A63FFF7B2F90300BB6108E0FFF74C
:102C6000ADF90200BB69D31A022B01D90323A2E0FC
:102C7000534B5B6B02221340F1D17B681B6A002B24
:102C800000D197E04E4B5B680C221340082B00D11B
:102C90006BE07B681B6A022B4CD1494B1A68484B8E
:102CA0004A490A401A60FFF789F90300BB6108E04E
:102CB000FFF784F90200BB69D31A022B01D9032361
:102CC00079E03F4B1A6880239B041340F0D13C4BC2
:102CD000DB6A0F22934319007B68DA6A384B0A4398
:102CE000DA62374B5B683A4A134019007B689A6A8C
:102CF0007B685B6A1A43324B0A435A60304B1A684E
:102D00002F4B802149040A431A60FFF757F903004B
:102D1000BB6108E0FFF752F90200BB69D31A022B2E
:102D200001D9032347E0264B1A6880239B041340F4
:102D3000F0D03FE0224B1A68214B24490A401A6028
:102D4000FFF73CF90300BB6108E0FFF737F9020029
:102D5000BB69D31A022B01D903232CE0184B1A6844
:102D600080239B041340F0D124E07B681B6A012B75
:102D700001D101231FE0124B5B687B61104BDB6AC2
:102D80003B617A6980235B021A407B685B6A9A42E6
:102D90000ED13B690F221A407B68DB6A9A4207D149
:102DA0007A69F0239B031A407B689B6A9A4201D0A0
:102DB000012300E000231800BD4608B080BDC046D6
:102DC0000010024088130000FFFFFFEFFFFFFFFE2F
:102DD000FFFFC2FF80B584B000AF786039607B68C8
:102DE000002B01D10123B3E05B4B1B680122134090
:102DF0003A689A4211D9584B1B6801229343190033
:102E0000554B3A680A431A60534B1B680122134022
:102E10003A689A4201D001239AE07B681B6802223B
:102E2000134015D07B681B680422134006D04B4B1F
:102E30005A684A4BE021C9000A435A60474B5B6815
:102E4000F022934319007B689A68444B0A435A6006
:102E50007B681B680122134040D07B685B68012BB4
:102E600007D13E4B1A6880239B02134014D10123E3
:102E70006EE07B685B68022B07D1384B1A688023B1
:102E80009B04134008D1012362E0344B1B680222EB
:102E9000134001D101235BE0304B5B680322934375
:102EA00019007B685A682D4B0A435A60FFF786F871
:102EB0000300FB6009E0FFF781F80200FB68D31A0A
:102EC000274A934201D9032342E0244B5B680C223A
:102ED0001A407B685B689B009A42ECD11E4B1B68D2
:102EE000012213403A689A4211D21B4B1B680122FF
:102EF00093431900184B3A680A431A60164B1B6833
:102F0000012213403A689A4201D0012320E07B68F5
:102F10001B680422134009D0104B5B68114A134010
:102F200019007B68DA680D4B0A435A6000F020F8FC
:102F300001000A4B5B681B090F2213400A4AD35C4D
:102F40000A00DA40094B1A600320FEF7F1FF002364
:102F50001800BD4604B080BD0020024000100240B1
:102F600088130000FFF8FFFF5047000824000020EE
:102F700080B586B000AF0023FB600023BB60002358
:102F80007B6100237B6000233B61204B5B68FB601F
:102F9000FB680C221340042B02D0082B03D02CE03A
:102FA0001B4B3B612CE0FB689B0C0F221340194A22
:102FB000D35C7B60154BDB6A0F221340164AD35C4F
:102FC000BB60FA6880235B02134009D0B9681048DF
:102FD000FDF79AF803001A007B6853437B6109E010
:102FE00079680A005201521A93019B1ADB005B18A0
:102FF0001B027B617B693B6102E0054B3B61C04684
:103000003B691800BD4606B080BDC04600100240B6
:1030100000127A00684700087847000880B500AFC2
:10302000024B1B681800BD4680BDC046240000202E
:1030300080B500AFFFF7F2FF0100064B5B681B0A8B
:1030400007221340044AD35CD9400B001800BD4648
:1030500080BDC046001002406047000880B586B0C1
:1030600000AF786000233B610023FB607B681A6837
:1030700080235B02134000D18EE017203B18002212
:103080001A70574BDA6980235B05134010D1544BFB
:10309000DA69534B802149050A43DA61504BDA69FA
:1030A00080235B051340BB60BB683B1801221A708C
:1030B0004C4B1A6880235B0013401AD1494B1A68A5
:1030C000484B802149000A431A60FEF777FF03004E
:1030D0003B6108E0FEF772FF02003B69D31A642BE4
:1030E00001D9032377E03F4B1A6880235B0013402C
:1030F000F0D03B4B1A6AC0239B001340FB60FB6877
:10310000002B34D07B685A68C0239B001340FA68B8
:103110009A422CD0324B1B6A334A1340FB60304B2F
:103120001A6A2F4B802149020A431A622C4B1A6AF1
:103130002B4B2E490A401A62294BFA681A62FB6827
:103140000122134013D0FEF739FF03003B6109E071
:10315000FEF734FF02003B69D31A254A934201D996
:10316000032338E01E4B1B6A02221340F0D01C4B95
:103170001B6A1D4A134019007B685A68184B0A43A2
:103180001A621723FB181B78012B05D1144BDA693F
:10319000134B18490A40DA617B681B68012213400F
:1031A00009D00F4B1B6B0322934319007B689A686D
:1031B0000B4B0A431A637B681B682022134009D01B
:1031C000074B1B6B1022934319007B68DA68044B92
:1031D0000A431A6300231800BD4606B080BDC046EE
:1031E0000010024000700040FFFCFFFFFFFFFEFFE9
:1031F00088130000FFFFFFEF80B582B000AF78605A
:103200007B68002B01D1012342E07B683D229B5C5F
:10321000DBB2002B07D17B683C22002199547B68EC
:103220001800FEF73DFD7B683D22022199547B6822
:103230001A687B6804331900100000F01FFA7B68DD
:103240004622012199547B683E22012199547B68D2
:103250003F22012199547B684022012199547B68C7
:103260004122012199547B684222012199547B68B3
:103270004322012199547B684422012199547B689F
:103280004522012199547B683D2201219954002354
:103290001800BD4602B080BD80B582B000AF786036
:1032A0007B68002B01D1012342E07B683D229B5CBF
:1032B000DBB2002B07D17B683C22002199547B684C
:1032C000180000F039F87B683D22022199547B6890
:1032D0001A687B6804331900100000F0CFF97B688E
:1032E0004622012199547B683E22012199547B6832
:1032F0003F22012199547B684022012199547B6827
:103300004122012199547B684222012199547B6812
:103310004322012199547B684422012199547B68FE
:103320004522012199547B683D22012199540023B3
:103330001800BD4602B080BD80B582B000AF786095
:10334000C046BD4602B080BD80B586B000AFF86013
:10335000B9607A601723FB1800221A70FB683C22C0
:103360009B5C012B01D10223ADE0FB683C220121D3
:1033700099547B680C2B00D176E07B680C2B00D92C
:1033800095E07B68082B4ED07B68082B00D98EE037
:103390007B68002B03D07B68042B21D087E0FB687F
:1033A0001B68BA681100180000F0D4F9FB681B68AC
:1033B0009A69FB681B6808210A439A61FB681B68CD
:1033C0009A69FB681B6804218A439A61FB681B6841
:1033D0009969BB681A69FB681B680A439A616BE0CC
:1033E000FB681B68BA681100180000F031FAFB682E
:1033F0001B689A69FB681B68802109010A439A616E
:10340000FB681B689A69FB681B6831490A409A612E
:10341000FB681B689969BB681B691A02FB681B681B
:103420000A439A6148E0FB681B68BA6811001800FB
:1034300000F08CFAFB681B68DA69FB681B680821DE
:103440000A43DA61FB681B68DA69FB681B680421C0
:103450008A43DA61FB681B68D969BB681A69FB6833
:103460001B680A43DA6127E0FB681B68BA68110031
:10347000180000F0EBFAFB681B68DA69FB681B6850
:10348000802109010A43DA61FB681B68DA69FB687D
:103490001B680F490A40DA61FB681B68D969BB6881
:1034A0001B691A02FB681B680A43DA6104E01723F0
:1034B000FB1801221A70C046FB683C220021995477
:1034C0001723FB181B781800BD4606B080BDC04608
:1034D000FFFBFFFF80B584B000AF786039600F2339
:1034E000FB1800221A707B683C229B5C012B01D1E7
:1034F0000223BCE07B683C22012199547B683D2279
:10350000022199547B681B689B68BB60BB6877226B
:103510009343BB60BB68584A1340BB607B681B6821
:10352000BA689A603B681B6880229201934240D03F
:1035300080229201934200D988E080225201934276
:1035400000D188E080225201934200D97EE0702BA6
:1035500018D000D97AE0602B4FD000D976E0502BFC
:103560003BD000D972E0402B57D000D96EE0302B11
:1035700063D06BD8202B60D068D8002B5DD0102B87
:103580005BD063E07B6818683B6899683B685A6861
:103590003B68DB6800F038FB7B681B689B68BB609E
:1035A000BB6877221343BB607B681B68BA689A606C
:1035B00052E07B6818683B6899683B685A683B68CA
:1035C000DB6800F021FB7B681B689A687B681B68DE
:1035D0008021C9010A439A603EE07B6818683B6815
:1035E00059683B68DB681A0000F094FA7B681B6836
:1035F0005021180000F0EEFA2EE07B6818683B6856
:1036000059683B68DB681A0000F0B2FA7B681B68F7
:103610006021180000F0DEFA1EE07B6818683B6845
:1036200059683B68DB681A0000F074FA7B681B6815
:103630004021180000F0CEFA0EE07B681A683B6863
:103640001B681900100000F0C5FA05E00F23FB18F5
:1036500001221A7000E0C0467B683D220121995486
:103660007B683C22002199540F23FB181B7818001B
:10367000BD4604B080BDC046FF00FFFF80B584B0EA
:1036800000AF786039607B681B68FB607B682B4A01
:10369000934203D07B682A4A934208D1FB68702288
:1036A0009343FB603B685B68FA681343FB607B688D
:1036B000224A93420FD07B68214A93420BD07B6809
:1036C000204A934207D07B681F4A934203D07B680D
:1036D0001E4A934208D1FB681D4A1340FB603B68B9
:1036E000DB68FA681343FB60FB68802293431A008F
:1036F0003B685B691343FB607B68FA681A603B6850
:103700009A687B68DA623B681A687B689A627B68B1
:103710000A4A934207D07B680B4A934203D07B68E6
:103720000A4A934203D13B681A697B681A637B6833
:1037300001225A61C046BD4604B080BD002C014044
:1037400000040040002000400044014000480140C7
:10375000FFFCFFFF80B586B000AF786039607B6802
:103760001B6A012293431A007B681A627B681B6AFA
:103770007B617B685B683B617B689B69FB60FB6886
:1037800070229343FB60FB6803229343FB603B681A
:103790001B68FA681343FB607B69022293437B61D9
:1037A0003B689B687A6913437B617B68234A934239
:1037B00007D07B68224A934203D07B68214A934218
:1037C0000CD17B69082293437B613B68DB687A6993
:1037D00013437B617B69042293437B617B68174AB7
:1037E000934207D07B68164A934203D07B68154A00
:1037F000934211D13B69144A13403B613B69134A20
:1038000013403B613B685B693A6913433B613B682A
:103810009B693A6913433B617B683A695A607B68EC
:10382000FA689A613B685A687B685A637B687A6970
:103830001A62C046BD4606B080BDC046002C01409D
:103840000044014000480140FFFEFFFFFFFDFFFF75
:1038500080B586B000AF786039607B681B6A102243
:1038600093431A007B681A627B681B6A7B617B68E2
:103870005B683B617B689B69FB60FB682C4A13407B
:10388000FB60FB682B4A1340FB603B681B681B0214
:10389000FA681343FB607B69202293437B613B689A
:1038A0009B681B017A6913437B617B68224A9342C0
:1038B0000DD17B69802293437B613B68DB681B01F0
:1038C0007A6913437B617B69402293437B617B6808
:1038D000194A934207D07B68184A934203D07B6809
:1038E000174A934213D13B69164A13403B613B6927
:1038F000154A13403B613B685B699B003A6913437F
:103900003B613B689B699B003A6913433B617B6861
:103910003A695A607B68FA689A613B685A687B68C2
:103920009A637B687A691A62C046BD4606B080BD5C
:10393000FF8FFFFFFFFCFFFF002C01400044014010
:1039400000480140FFFBFFFFFFF7FFFF80B586B097
:1039500000AF786039607B681B6A334A1A407B6825
:103960001A627B681B6A7B617B685B683B617B6872
:10397000DB69FB60FB6870229343FB60FB680322FA
:103980009343FB603B681B68FA681343FB607B69E9
:10399000264A13407B613B689B681B027A6913438C
:1039A0007B617B68224A93420DD17B69214A134097
:1039B0007B613B68DB681B027A6913437B617B692F
:1039C0001D4A13407B617B68194A934207D07B688C
:1039D0001A4A934203D07B68194A934213D13B6938
:1039E000184A13403B613B69174A13403B613B68EF
:1039F0005B691B013A6913433B613B689B691B018F
:103A00003A6913433B617B683A695A607B68FA689C
:103A1000DA613B685A687B68DA637B687A691A62A4
:103A2000C046BD4606B080BDFFFEFFFFFFFDFFFFA5
:103A3000002C0140FFF7FFFFFFFBFFFF00440140A8
:103A400000480140FFEFFFFFFFDFFFFF80B586B0BA
:103A500000AF786039607B681B6A264A1A407B6831
:103A60001A627B681B6A3B617B685B687B617B6871
:103A7000DB69FB60FB68204A1340FB60FB681F4A60
:103A80001340FB603B681B681B02FA681343FB6032
:103A90003B691B4A13403B613B689B681B033A69C7
:103AA00013433B617B68174A934207D07B68164AF1
:103AB000934203D07B68154A934209D17B69144A2B
:103AC00013407B613B685B699B017A6913437B61AF
:103AD0007B687A695A607B68FA68DA613B685A6881
:103AE0007B681A647B683A691A62C046BD4606B0B4
:103AF00080BDC046FFEFFFFFFF8FFFFFFFFCFFFF12
:103B0000FFDFFFFF002C014000440140004801405E
:103B1000FFBFFFFF80B586B000AFF860B9607A6084
:103B2000FB681B6A7B61FB681B6A012293431A00D6
:103B3000FB681A62FB689B693B613B69F022934317
:103B40003B617B681B013A6913433B617B690A2235
:103B500093437B617A69BB6813437B61FB683A6975
:103B60009A61FB687A691A62C046BD4606B080BD9C
:103B700080B586B000AFF860B9607A60FB681B6AF8
:103B8000102293431A00FB681A62FB689B697B61F1
:103B9000FB681B6A3B617B690D4A13407B617B6854
:103BA0001B037A6913437B613B69A02293433B610A
:103BB000BB681B013A6913433B61FB687A699A61F0
:103BC000FB683A691A62C046BD4606B080BDC04671
:103BD000FF0FFFFF80B584B000AF786039607B686D
:103BE0009B68FB60FB6870229343FB603A68FB684C
:103BF000134307221343FB607B68FA689A60C04650
:103C0000BD4604B080BD000080B586B000AFF8604E
:103C1000B9607A603B60FB689B687B617B69094A9D
:103C200013407B613B681A027B681A43BB681343ED
:103C30007A6913437B61FB687A699A60C046BD4626
:103C400006B080BDFF00FFFF80B584B000AF786094
:103C500039607B683C229B5C012B01D102233CE054
:103C60007B683C22012199547B683D2202219954B2
:103C70007B681B685B68FB607B681B689B68BB603C
:103C8000FB6870229343FB603B681B68FA68134330
:103C9000FB607B681B68FA685A607B681B68114A86
:103CA000934204D07B681B680F4A93420CD1BB68D7
:103CB00080229343BB603B685B68BA681343BB6078
:103CC0007B681B68BA689A607B683D220121995421
:103CD0007B683C220021995400231800BD4604B0A3
:103CE00080BDC046002C01400004004080B584B077
:103CF00000AF786039600023FB607B683C229B5CEE
:103D0000012B01D102233EE07B683C220121995422
:103D1000FB68FF2293431A003B68DB681343FB6098
:103D2000FB681B4A1A403B689B681343FB60FB68B7
:103D3000184A1A403B685B681343FB60FB68164AED
:103D40001A403B681B681343FB60FB68134A1A4028
:103D50003B681B691343FB60FB68114A1A403B68D0
:103D60005B691343FB60FB680E4A1A403B68DB69E2
:103D70001343FB607B681B68FA685A647B683C22CB
:103D80000021995400231800BD4604B080BDC046F0
:103D9000FFFCFFFFFFFBFFFFFFF7FFFFFFEFFFFF52
:103DA000FFDFFFFFFFBFFFFF80B582B000AF78608D
:103DB0007B68002B01D1012344E07B68DB6F002B83
:103DC00007D17B687822002199547B681800FDF7A1
:103DD000F9FF7B682422DA677B681B681A687B68B6
:103DE0001B6801218A431A607B68180000F0D0F834
:103DF0000300012B01D1012324E07B685B6A002BC7
:103E000003D07B68180000F0EBF97B681B685A68E8
:103E10007B681B680D490A405A607B681B689A687A
:103E20007B681B6808218A439A607B681B681A6854
:103E30007B681B6801210A431A607B68180000F048
:103E400083FA03001800BD4602B080BDFFF7FFFFF4
:103E500080B58AB002AFF860B9603B60BB1D1A80C4
:103E6000FB68DB6F202B00D08CE0BB68002B03D0FD
:103E7000BB1D1B88002B01D1012384E0FB689A68DD
:103E800080235B019A4209D1FB681B69002B05D195
:103E9000BB680122134001D0012374E0FB68842237
:103EA00000219950FB682122DA67FEF787F80300AA
:103EB0007B61FB68BA1D502112885A52FB68BA1DFB
:103EC000522112885A52FB689A6880235B019A42F9
:103ED00008D1FB681B69002B04D10023FB61BB6880
:103EE000BB6103E0BB68FB610023BB612FE07A6923
:103EF000F8683B68009313000022802100F0CCFAA0
:103F0000031E04D0FB682022DA6703233BE0FB6931
:103F1000002B0BD1BB691A88FB681B68D205D20D38
:103F200092B21A85BB690233BB6107E0FB691A785C
:103F3000FB681B681A85FB690133FB61FB68522231
:103F40009B5A9BB2013B99B2FB6852229952FB6883
:103F500052229B5A9BB2002BC9D17A69F8683B6800
:103F6000009313000022402100F096FA031E04D0B3
:103F7000FB682022DA67032305E0FB682022DA676A
:103F8000002300E002231800BD4608B080BD0000F9
:103F900080B588B000AF78601E23FB1800221A702D
:103FA0007B689A687B681B691A437B685B691A4364
:103FB0007B68DB6913437B617B681B681B68834AF2
:103FC000134019007B681B687A690A431A607B6892
:103FD0001B685B687E4A134019007B68DA687B685F
:103FE0001B680A435A607B689B697B617B681B6A1C
:103FF0007A6913437B617B681B689B68754A134031
:1040000019007B681B687A690A439A60724B1B6BC4
:1040100003221340032B0DD01BD8022B14D018D829
:10402000002B02D0012B0AD013E01F23FB18002223
:104030001A7012E01F23FB1802221A700DE01F23D2
:10404000FB1804221A7008E01F23FB1808221A70BC
:1040500003E01F23FB1810221A707B68DA698023A3
:104060001B029A425CD11F23FB181B78082B15D02A
:1040700018DC042B0DD015DC002B02D0022B05D050
:1040800010E0FEF7D5FF0300BB6112E0534BBB61AC
:104090000FE0FEF76DFF0300BB610AE080231B0207
:1040A000BB6106E00023BB611E23FB1801221A70CE
:1040B000C046BB69002B00D17AE0BB695A007B681F
:1040C0005B685B08D2187B685B6819001000FCF71E
:1040D0001BF803003B613B690F2B1CD93A69802315
:1040E0005B029A4217D23B699AB20E203B180F210D
:1040F0008A431A803B695B089BB20722134099B23E
:104100003B183A1812880A431A807B681B683A18D1
:104110001288DA604CE01E23FB1801221A7047E077
:104120001F23FB181B78082B15D018DC042B0DD08F
:1041300015DC002B02D0022B05D010E0FEF778FF33
:104140000300BB6112E0254BBB610FE0FEF710FFDF
:104150000300BB610AE080231B02BB6106E0002371
:10416000BB611E23FB1801221A70C046BB69002BDD
:104170001ED07B685B685A08BB69D2187B685B6895
:1041800019001000FBF7C0FF03003B613B690F2BD8
:104190000AD93A6980235B029A4205D23B699AB2F6
:1041A0007B681B68DA6003E01E23FB1801221A708B
:1041B0007B6800229A667B680022DA661E23FB1861
:1041C0001B781800BD4608B080BDC046F369FFFFEC
:1041D000FFCFFFFFFFF4FFFF0010024000127A0044
:1041E00080B582B000AF78607B685B6A01221340C3
:1041F0000BD07B681B685B684A4A134019007B68D8
:104200009A6A7B681B680A435A607B685B6A022271
:1042100013400BD07B681B685B68434A134019004E
:104220007B68DA6A7B681B680A435A607B685B6A52
:10423000042213400BD07B681B685B683B4A134029
:1042400019007B681A6B7B681B680A435A607B689D
:104250005B6A082213400BD07B681B685B68344A9A
:10426000134019007B685A6B7B681B680A435A60CD
:104270007B685B6A102213400BD07B681B689B68CD
:104280002C4A134019007B689A6B7B681B680A43B1
:104290009A607B685B6A202213400BD07B681B68A6
:1042A0009B68254A134019007B68DA6B7B681B68A2
:1042B0000A439A607B685B6A402213401DD07B688A
:1042C0001B685B681D4A134019007B681A6C7B6889
:1042D0001B680A435A607B681A6C80235B039A420E
:1042E0000BD17B681B685B68154A134019007B681B
:1042F0005A6C7B681B680A435A607B685B6A802241
:1043000013400BD07B681B685B680E4A1340190092
:104310007B689A6C7B681B680A435A60C046BD463E
:1043200002B080BDFFFFFDFFFFFFFEFFFFFFFBFFB1
:10433000FF7FFFFFFFEFFFFFFFDFFFFFFFFFEFFF4D
:10434000FFFF9FFFFFFFF7FF80B592B002AF7860DD
:104350007B68842200219950FDF730FE0300FB6347
:104360007B681B681B6808221340082B2CD1FB6B51
:10437000802291037868464A0092002200F08CF86F
:10438000031E21D0EFF310837B627B6ABB630123A2
:10439000BB62BB6A83F31088C0467B681B681A68DF
:1043A0007B681B6880218A431A60BB6BFB62FB6AD7
:1043B00083F31088C0467B682022DA677B68782206
:1043C0000021995403235FE07B681B681B6804226B
:1043D0001340042B46D1FB6B8022D10378682C4A12
:1043E0000092002200F058F8031E3BD0EFF3108338
:1043F000FB60FB687B6301233B613B6983F31088AF
:10440000C0467B681B681A687B681B6821490A40A4
:104410001A607B6B7B617B6983F31088C046EFF386
:104420001083BB61BB693B630123FB61FB6983F3C1
:104430001088C0467B681B689A687B681B680121EE
:104440008A439A603B6B3B623B6A83F31088C046A9
:104450007B688022202199507B6878220021995422
:10446000032311E07B682022DA677B688022202109
:1044700099507B6800221A667B6800225A667B6826
:1044800078220021995400231800BD4610B080BD49
:10449000FFFFFF01DFFEFFFF80B584B000AFF860D3
:1044A000B9603B60FB1D1A704BE0BB69013348D01B
:1044B000FDF784FD02003B68D31ABA699A4202D321
:1044C000BB69002B01D103234BE0FB681B681B6811
:1044D0000422134035D0FB681B68DB6908221340B7
:1044E000082B11D1FB681B6808221A62FB681800B0
:1044F00000F03CF8FB68842208219950FB68782280
:104500000021995401232CE0FB681B68DA698023A1
:104510001B011A4080231B019A4212D1FB681B68C1
:10452000802212011A62FB68180000F01FF8FB6875
:10453000842220219950FB6878220021995403237A
:104540000FE0FB681B68DB69BA681340BA68D31ACE
:104550005A425341DBB21A00FB1D1B789A42A4D089
:1045600000231800BD4604B080BD000080B58EB0A9
:1045700000AF7860EFF310837B617B697B6301237D
:10458000BB61BB6983F31088C0467B681B681A68EF
:104590007B681B6826490A401A607B6BFB61FB69DC
:1045A00083F31088C046EFF310833B623B6A3B63A2
:1045B00001237B627B6A83F31088C0467B681B689B
:1045C0009A687B681B6801218A439A603B6BBB62D7
:1045D000BB6A83F31088C0467B681B6E012B18D121
:1045E000EFF31083BB60BB68FB620123FB60FB68D9
:1045F00083F31088C0467B681B681A687B681B6859
:1046000010218A431A60FB6A3B613B6983F310887F
:10461000C0467B688022202199507B6800221A6660
:104620007B6800229A66C046BD460EB080BDC0467B
:10463000DFFEFFFF03008218934200D1704719701C
:104640000133F9E770B500260C4C0D4D641BA41026
:10465000A64209D1002600F019F80A4C0A4D641B45
:10466000A410A64205D170BDB300EB58984701369F
:10467000EEE7B300EB5898470136F2E788470008A9
:10468000884700088C47000888470008F8B5C046EE
:10469000F8BC08BC9E467047F8B5C046F8BC08BCDC
:0446A0009E4670477B
:1046A4001E0400084E030008660300088403000883
:1046B40066030008C80300086603000884030008B2
:1046C4004E0300084E030008C803000884030008D2
:1046D4006E0300086E0300086E030008D20300088E
:1046E4004E0300084E030008660300085C0400083B
:1046F40066030008C8030008660300085C04000899
:104704004E0300084E030008C80300085C040008B8
:104714006E0300086E0300086E030008760F00089D
:104724006C0F00085A0F0008640F0008520F0008AD
:10473400400F0008480F0008360F00082C0F00082F
:10474400180F00080E0F0008220F000800000000D8
:10475400000000000102030406070809000000002D
:104764000102030402030405060708090A0B0C0DE1
:104774000E0F10100102030405060708090A0B0CAA
:044784000D0E0F10F7
:04478800E90000083C
:04478C00C100000860
:1047900001420000010002000300040005000600C1
:1047A0000700080009000A000B000C000D000E00B5
:1047B0000F00100000127A00040000000100000049
:0400000508001EAD24
:00000001FF
